:020000040800F2
:100000005805002049010008ED1D0008DB1C000810
:10001000E91D0008950200086522000800000000A4
:10002000000000000000000000000000191E000891
:100030009902000800000000EF1D00081B1E0008C8
:100040006301000863010008630100086301000800
:1000500063010008630100086301000863010008F0
:1000600063010008630100086301000863010008E0
:1000700063010008630100086301000863010008D0
:1000800063010008630100086301000863010008C0
:1000900063010008630100086301000863010008B0
:1000A00063010008630100086301000863010008A0
:1000B0006301000863010008630100086301000890
:1000C0006301000863010008630100086301000880
:1000D00063010008ED2100086301000863010008C6
:1000E0006301000863010008630100086301000860
:1000F0006301000863010008630100086301000850
:10010000630100086301000863010008630100083F
:10011000630100086301000863010008630100082F
:10012000630100086301000863010008630100081F
:10013000DFF810D000F030F800480047B124000884
:10014000AFF3008058050020064880470648004766
:10015000FEE7FEE7FEE7FEE7FEE7FEE7FEE7FEE777
:10016000FEE7FEE7911E00083101000830B50B469E
:10017000014600202022012409E021FA02F59D42D7
:1001800005D303FA02F5491B04FA02F52844151EAB
:10019000A2F10102F1DC30BD064C074D06E0E0683B
:1001A00040F0010394E8070098471034AC42F6D3BE
:1001B000FFF7C2FF482500086825000870B504460F
:1001C00000252068806800F00100F0B12068806898
:1001D00020F001002168886000F058FE05460EE01E
:1001E00000F054FE401B022809D9A06A40F010001C
:1001F000A062E06A40F00100E062012070BD20686A
:10020000806800F001000028EAD10020F6E7000035
:1002100038B504460025002000902068806800F072
:10022000010080BB2068806840F001002168886080
:10023000164800681649B0FBF1F0009002E0009803
:10024000401E009000980028F9D100F01FFE0546DE
:1002500013E000F01BFE401B02280ED9A06A40F0FC
:100260001000A062E06A40F00100E06200BF0020E0
:1002700084F8240000BF012038BD2068806800F0A9
:1002800001000028E5D00020F6E700000000002073
:1002900040420F0000BFFEE7704700003EB5044635
:1002A000009401200190072002906946074800F061
:1002B00091F8064800F0D8FA0A21044800F01CFA28
:1002C000024800F037F980B23EBD00001C0000205B
:1002D000F8B5044600260020009000BF94F82400E2
:1002E000012801D10220F8BD012084F8240000BFBC
:1002F0002046FFF763FF0646002E62D1A06A20F475
:10030000885040F00200A062022000F06FFE3049E9
:100310000968B1FBF0F04000009002E00098401E38
:10032000009000980028F9D12046FFF771FF20685F
:10033000806840F008002168886000F0A7FD05464D
:1003400011E000F0A3FD401B0A280CD9A06A20F0A0
:10035000020040F01000A06200BF002084F82400DA
:1003600000BF0120BFE72068806800F00800002877
:10037000E7D12068806840F004002168886000F0C0
:1003800085FD054611E000F081FD401B0A280CD9CF
:10039000A06A20F0020040F01000A06200BF002020
:1003A00084F8240000BF01209DE72068806800F0E9
:1003B00004000028E7D1A06A20F0020040F001000C
:1003C000A06200BF002084F8240000BF30468AE706
:1003D0000000002038B5024600230020009000BF36
:1003E00092F82400012801D1022038BD012082F8B2
:1003F000240000BF4868072812D21068406B0C79AF
:10040000641E04EB84051F24AC40A0430D796D1ECF
:1004100005EB85050C68AC4020431468606327E059
:1004200048680D2812D21068006B0C79E41F04EBA9
:1004300084051F24AC40A0430D79ED1F05EB850515
:100440000C68AC4020431468206311E01068C06A57
:100450000C790D3C04EB84051F24AC40A0430D79BE
:100460000D3D05EB85050C68AC4020431468E06247
:1004700008680A2812D31068C0680C780A3C04EB9C
:1004800044050724AC40A0430D780A3D05EB450523
:100490008C68AC4020431468E0600FE0106800698D
:1004A0000C7804EB44050724AC40A0430D7805EB21
:1004B00045058C68AC40204314682061086810280A
:1004C00002D00868112827D1174C1068A0421ED10D
:1004D0001068806800F40000F0B91068806840F48B
:1004E00000001468A0600868102815D10F48006843
:1004F0000F4CB0FBF4F000EB80004000009002E0F5
:100500000098401E009000980028F9D104E0906AFD
:1005100040F020009062012300BF002082F82400F8
:1005200000BF184661E700000024014000000020E1
:1005300040420F0001460868C06C70472DE9F04149
:100540000446002700250026A84614B90120BDE86E
:10055000F081A06810B1207D00B100BFA06A30B961
:100560000020E06284F82400204600F097F820463E
:10057000FFF724FE0746A06A00F01000002873D1A0
:10058000002F7ED1A06A20F4885040F00200A062C3
:100590003F4AD4E90001904208D1E069B0F5402F0C
:1005A00002D14FF4002002E0E06900E0E06901437D
:1005B000207B41EA40000643A068B0F5807F02D06E
:1005C000A068012802D14FF4807000E000200543AC
:1005D000207D012811D1207B38B9A069401E4FF43D
:1005E000006141EA4030054307E0A06A40F0200086
:1005F000A062E06A40F00100E0622068406820F4F8
:100600006940284321684860206880682149084083
:10061000304321688860A068B0F5807F02D0A06870
:10062000012802D14FF4807000E00020B0F5807FF7
:1006300003D1208A401E4FEA00582068C06A20F487
:10064000700040EA08002168C8622068806812498A
:100650000840B04209D10020E062A06A20F0020008
:1006600040F00100A06211E00BE0A06A20F002005F
:1006700040F01000A062E06A40F00100E062012753
:1006800004E0A06A40F01000A062012738465EE74F
:10069000003C0140FDF7E1FFFE0E1FFF10B586B0E4
:1006A000044600BF1248806940F400401049886148
:1006B0000846806900F40040019000BF00BF00BF01
:1006C0000846806940F0800088610846806900F033
:1006D0008000019000BF00BF8815029003200390A6
:1006E0000020049002A9034800F02AFA06B010BDC9
:1006F00000100240001C0140F8B504460D460026DB
:1007000000200090002700F0C1FB064620688068AA
:1007100000F4807050B1A06A40F02000A06200BFD9
:10072000002084F8240000BF0120F8BD2068406844
:1007300000F48070F8B92068C06A00F47000D0B985
:1007400012E0681C80B125B100F0A0FB801BA8421C
:100750000AD9A06A40F00400A06200BF002084F81B
:10076000240000BF0320E0E72068006800F00200DA
:100770000028E6D050E0022000F038FC3649096835
:10078000B1FBF0F021680969344A114091B9216840
:10079000C9689211114069B921680969304A11404C
:1007A00031B92168C9689211114009B9142117E0C3
:1007B000292115E021680969294A114021B92168D8
:1007C000C9689211114041B121680969254A114057
:1007D00029B92168C968114009B9542100E0FC21F8
:1007E00000FB01F715E0681C80B125B100F04EFB5D
:1007F000801BA8420AD9A06A40F00400A06200BF92
:10080000002084F8240000BF03208EE70098401CDD
:1008100000900098B842E6D36FF01200216808609B
:10082000A06A40F40070A0622068806800F4602034
:10083000B0F5602F0DD1207B58B9A06A20F48070EC
:10084000A062A06A00F4805018B9A06A40F00100CC
:10085000A062002069E700000000002024499224E3
:10086000922449124992240070B50446002500BF25
:1008700094F82400012801D1022070BD012084F8E1
:10088000240000BF2046FFF7C3FC0546002D77D1AA
:10089000A06A40F20121884340F48070A0623C4984
:1008A0002068884208D13B48006800F4702008B9ED
:1008B000012002E0002000E0012078B1A06A20F4CD
:1008C0008010A0622068406800F4806000B3A06AD5
:1008D00020F4005040F48050A06219E0A06A40F477
:1008E0008010A0622B49091F2068884203D0284944
:1008F0002068884204D12748006800F4806000E046
:10090000002028B1A06A20F4005040F48050A0627A
:10091000A06A00F4805020B1E06A20F00600E06296
:1009200001E00020E06200BF002084F8240000BF46
:10093000C01E216808602068806800F46020B0F55F
:10094000602F16D112492068884208D111480068EA
:1009500000F4702008B9012002E0002000E001202E
:1009600038B12068806840F4A000216888600CE0FD
:1009700006E02068806840F480102168886004E008
:1009800000BF002084F8240000BF284675E700005F
:10099000002801400424014070B50446002594F865
:1009A0002100022803D00420A0630125C1E02068B3
:1009B000006820F00E00216808602068006820F0C0
:1009C0000100216808605C492068884252D95A4970
:1009D00078392068884201D1012047E056496439BE
:1009E0002068884201D1102040E0534950392068E6
:1009F000884201D1801539E04F493C39206888424E
:100A000001D1801432E04C4928392068884202D153
:100A10004FF480302AE0484914392068884202D1D6
:100A20004FF4801022E044492068884201D14004FC
:100A30001CE042492068884201D1012016E03F496C
:100A400014312068884201D110200FE03B49283141
:100A50002068884201D1801508E038493C3120687F
:100A6000884201D1801401E04FF480303349091FDE
:100A7000086051E0304978392068884201D101206E
:100A800047E02D4964392068884201D1102040E0B8
:100A9000294950392068884201D1801539E026491A
:100AA0003C392068884201D1801432E0224928393B
:100AB0002068884202D14FF480302AE01E49143960
:100AC0002068884202D14FF4801022E01A49206841
:100AD000884201D140041CE018492068884201D1B5
:100AE000012016E0154914312068884201D11020F8
:100AF0000FE0124928312068884201D1801508E0B2
:100B00000E493C312068884201D1801401E04FF445
:100B10008030094980394860012084F8210000BFF5
:100B2000002084F8200000BF606B10B12046616B8C
:100B30008847284670BD000080000240080402403B
:100B40002DE9F847024600239C467BE14FF001085F
:100B500008FA03F4D1F8008008EA0400A0427DD12D
:100B6000DFF8F4A2D1F80480A8EB0A09D0453AD006
:100B700014DCB8F1030F50D009DCB8F1000F31D00C
:100B8000B8F1010F1CD0B8F1020F49D120E0B8F143
:100B9000110F18D0B8F1120F42D11EE0B9F5881F1D
:100BA00025D006DCB9F5803F20D0B9F5801F37D1BC
:100BB0001AE0B9F5001F18D0B9F5041F30D117E0BD
:100BC000D1F80CC02DE0D1F80C8008F1040C28E01D
:100BD000D1F80C8008F1080C23E0D1F80C8008F162
:100BE0000C0C1EE000BF00BF00BF00BF00BF00BF75
:100BF000D1F80880B8F1000F02D14FF0040C0BE0DF
:100C0000D1F80880B8F1010F03D14FF0080C14613E
:100C100002E04FF0080C546103E04FF0000C00E0DC
:100C200000BF00BFFF2801D8904601E002F1040890
:100C30004646FF2802D84FEA830803E0A3F10808DC
:100C40004FEA88084746D6F800804FF00F0909FAA6
:100C500007F928EA09080CFA07F900E07AE048EAFF
:100C60000908C6F80080D1F8048008F08058B8F16F
:100C7000805F6FD100BFDFF8E481D8F8188048F0BA
:100C80000108DFF8D891C9F81880C846D8F818804C
:100C900008F00108CDF8008000BF00BF4FEAB93866
:100CA0004FEA930958F829504FEA83784FEA1879A8
:100CB0004FF00F0808FA09F825EA0805DFF8A081C7
:100CC000424502D14FF0000824E0DFF89881424508
:100CD00002D14FF001081DE0DFF88C81424502D1BE
:100CE0004FF0020816E0DFF88481424502D14FF050
:100CF00003080FE0DFF87881424502D14FF0040885
:100D000008E0DFF87081424502D14FF0050801E0AC
:100D10004FF006084FEA83794FEA197908FA09F883
:100D200048EA0505DFF850814FEA930948F8295051
:100D3000D1F8048008F48038B8F5803F0BD1DFF893
:100D40003C81D8F8008048EA0008DFF83091C9F803
:100D500000800AE075E0DFF82481D8F8008028EAF6
:100D60000008DFF81891C9F80080D1F8048008F471
:100D70000038B8F5003F0ED1DFF8008108F1040813
:100D8000D8F8008048EA0008DFF8F09009F104097B
:100D9000C9F800800DE0DFF8E48008F10408D8F815
:100DA000008028EA0008DFF8D49009F10409C9F8A6
:100DB0000080D1F8048008F48018B8F5801F0ED1A7
:100DC000DFF8B88008F10808D8F8008048EA000881
:100DD000DFF8A89009F10809C9F800800DE0DFF8F4
:100DE0009C8008F10808D8F8008028EA0008DFF89D
:100DF0008C9009F10809C9F80080D1F8048008F442
:100E00000018B8F5001F0ED1DFF8708008F10C084B
:100E1000D8F8008048EA0008DFF8609009F10C0972
:100E2000C9F800800DE0DFF8548008F10C08D8F80C
:100E3000008028EA0008DFF8449009F10C09C9F89D
:100E400000805B1CD1F8008028FA03F8B8F1000F8D
:100E50007FF47CAEBDE8F88700001110001002405E
:100E600000080140000C0140001001400014014046
:100E700000180140001C014008000140000401402E
:100E80000AB1016101E00B04036170470148006889
:100E900070470000040000200348006803490978F7
:100EA0000844014908607047040000200C0000203D
:100EB00010B50848006840F0100006490860052099
:100EC00000F080F80F2000F007F800F02BF8002069
:100ED00010BD00000020024070B504460E480078A6
:100EE0004FF47A71B1FBF0F00C490968B1FBF0F5F1
:100EF000284600F027FD08B1012070BD102C07D254
:100F000000222146501E00F01EF80548046001E052
:100F10000120F2E70020F0E70C0000200000002094
:100F200008000020704701460846002809DB00F051
:100F30001F0301229A4043099B0003F1E023C3F8F9
:100F4000002100BF70472DE9F05F80460D46164630
:100F5000002701F099F9074639462A46334601F041
:100F60000700C0F1070ABAF1040F02D94FF0040AD2
:100F700001E0C0F1070AD14600F1040ABAF1070FF7
:100F800002D24FF0000A01E0A0F1030AD4464FF06C
:100F9000010A0AFA09FAAAF1010A0AEA020A0AFA95
:100FA0000CFA4FF0010B0BFA0CFBABF1010B0BEA47
:100FB000030B4AEA0B042146404601F06DF9BDE8F7
:100FC000F09F000000BF00F00702064B19684FF6C3
:100FD000FF031940044B0B4343EA0221014B196004
:100FE00000BF70470CED00E00000FA052DE9F0436A
:100FF00085B0064642A30FCB01AC0FC444A00068E5
:1010000000904FF00008002500270024A146042E80
:1010100036D004DC012E3BD0022E6BD15FE0082ECF
:1010200032D0102E66D13B484468006800F08070D2
:1010300000B301A8C4F38341475C04F4803070B16D
:1010400034484068C0F340401DF8008004F480300C
:1010500040B13148B0FBF8F000FB07F502E02F4843
:1010600007FB00F52B48406800F48000B0F5800FC6
:1010700001D1A94603E068000321B0FBF1F93AE091
:1010800000F0D0F9814636E000F0CCF9814632E03C
:101090002048046A04F44070B0F5807F05D104F064
:1010A000020010B14FF4004918E004F44070B0F5AC
:1010B000007F07D11748406A00F0020010B149F6DE
:1010C00040490BE004F44070B0F5407F06D1114870
:1010D000006800F4003008B14FF224490BE000F042
:1010E00091F90C494968C1F38131491C4900B0FBB1
:1010F000F1F900E000BF00BF484605B0BDE8F0834D
:1011000002030405060708090A0B0C0D0E0F101048
:10111000010200000010024000127A0000093D00A8
:10112000F8B50446002700260025207800F00100CD
:10113000002869D04248C06900F0805070B900BFF3
:101140003F48C06940F080503D49C8610846C069C9
:1011500000F08050009000BF00BF012739480068B0
:1011600000F48070B0B93748006840F480703549A9
:101170000860FFF78BFE064606E0FFF787FE801B40
:10118000642801D90320F8BD2E48006800F480705F
:101190000028F2D02A48006A00F440752DB3A088D8
:1011A00000F44070A84220D02548006A20F4407521
:1011B000012025490860002008602148056205F0EB
:1011C000010090B1FFF762FE064608E0FFF75EFE01
:1011D000801B41F28831884201D90320D3E71848A7
:1011E000006A00F002000028F0D01548006A20F4E0
:1011F00040706168084312490862012F04D1084613
:10120000C06920F08050C861207800F002000228F8
:1012100007D10B48406820F44040A16808430849C2
:101220004860207800F01000102807D1044840687A
:1012300020F4800061690843014948600020A2E76A
:1012400000100240007000404004424270B5044665
:101250000D460CB9012070BD5A48006800F0070027
:10126000A8420ED25748006820F00700284355498D
:1012700008600846006800F00700A84201D001207D
:10128000E9E7207800F0020002281DD1207800F064
:101290000400042805D14C48406840F4E0604A4905
:1012A0004860207800F00800082805D146484068CA
:1012B00040F46050444948604348406820F0F000E2
:1012C000A168084340494860207800F0010078B3E5
:1012D0006068012806D13C48006800F4003090B9ED
:1012E0000120B8E76068022806D13748006800F09E
:1012F000007040B90120AEE73348006800F00200FA
:1013000008B90120A7E73048406820F00300616871
:1013100008432D494860FFF7B9FD064609E0FFF78D
:10132000B5FD801B41F28831884202D9032092E743
:1013300007E02548406800F00C006168B0EB810FC1
:10134000EDD12048006800F00700A8420ED91D48E2
:10135000006820F0070028431A4908600846006822
:1013600000F00700A84201D0012074E7207800F0C7
:101370000400042807D11448406820F4E060E168C4
:10138000084311494860207800F00800082808D177
:101390000D48406820F46050216940EAC1000A49C4
:1013A000486000F03FF808494968C1F30311074A53
:1013B000515CC8400649086006480068FFF78CFD8C
:1013C000002048E7002002400010024030250008BD
:1013D000000000200800002001480068704700005D
:1013E0000000002000B5FFF7F7FF04494968C1F38A
:1013F0000221034A515CC84000BD000000100240B9
:101400004025000800B5FFF7E7FF04494968C1F32C
:10141000C221034A515CC84000BD000000100240D8
:1014200040250008F0B585B00FF26C0C9CE8E01088
:1014300001A8A0E8E0101CA52D680095002100225D
:10144000002300240020194D696801F00C05F5B156
:10145000042D02D0082D19D101E0154819E001AD85
:10146000C1F38346AC5D01F4803555B10F4D6D6815
:10147000C5F340451DF805200D4D6543B5FBF2F35E
:1014800002E00C4D04FB05F3184602E000BF0848DB
:1014900000BF00BF05B0F0BD020304050607080940
:1014A0000A0B0C0D0E0F101001020000001002407C
:1014B00000127A0000093D00F8B504460CB901207D
:1014C000F8BD207800F00100002878D0F848406886
:1014D00000F00C0004280CD0F548406800F00C0027
:1014E000082811D1F248406800F48030B0F5803F00
:1014F0000AD1EF48006800F4003000285FD060682F
:1015000000285CD10120DBE700BF6068B0F5803FB8
:1015100006D1E748006840F48030E549086028E0DB
:10152000606858B9E248006820F48030E0490860FB
:101530000846006820F4802008601AE06068B0F572
:10154000A02F0BD1DA48006840F48020D849086009
:101550000846006840F4803008600AE0D44800681B
:1015600020F48030D24908600846006820F48020CA
:10157000086000BF606888B1FFF788FC054606E098
:10158000FFF784FC401B642801D9032098E7C84872
:10159000006800F400300028F2D010E0FFF776FC7D
:1015A000054606E0FFF772FC401B642801D90320C2
:1015B00086E7BF48006800F400300028F2D12078A8
:1015C00000F00200022857D1B948406800F00C0032
:1015D00050B1B748406800F00C00082818D1B44852
:1015E000406800F4803098B9B148006800F002000B
:1015F00020B12069012801D0012061E7AC480068D2
:1016000020F0F800616940EAC100A949086033E0B0
:101610002069E8B10120A7490860FFF737FC0546BB
:1016200006E0FFF733FC401B022801D9032047E7FF
:101630009F48006800F002000028F2D09C48006833
:1016400020F0F800616940EAC1009949086013E0A0
:10165000002098490860FFF719FC054606E0FFF7EF
:1016600015FC401B022801D9032029E79048006897
:1016700000F002000028F2D1207800F008000828CD
:101680002DD1A069B8B101208B490860FFF7FEFB9E
:10169000054606E0FFF7FAFB401B022801D90320AC
:1016A0000EE78348406A00F002000028F2D00120D3
:1016B00000F09EFB13E000207F490860FFF7E6FB87
:1016C000054606E0FFF7E2FB401B022801D9032094
:1016D000F6E67748406A00F002000028F2D1207850
:1016E00000F00400042873D100277148C06900F09D
:1016F000805070B900BF6E48C06940F080506C499E
:10170000C8610846C06900F08050009000BF00BF6B
:1017100001276A48006800F48070B0B96748006823
:1017200040F4807065490860FFF7B0FB054606E0AD
:10173000FFF7ACFB401B642801D90320C0E65F48DB
:10174000006800F480700028F2D000BFE068012833
:1017500006D15748006A40F001005549086227E069
:10176000E06858B95248006A20F001005049086208
:101770000846006A20F00400086219E0E0680528C5
:101780000BD14B48006A40F0040049490862084602
:10179000006A40F0010008620AE04548006A20F053
:1017A0000100434908620846006A20F0040008620C
:1017B00000BFE068A0B1FFF769FB054609E0FFF74D
:1017C00065FB401B41F28831884202D9032077E64D
:1017D00022E03748006A00F002000028EFD012E053
:1017E000FFF754FB054608E0FFF750FB401B41F2B2
:1017F0008831884201D9032062E62D48006A00F052
:1018000002000028F0D1012F05D12948C06920F03D
:1018100080502749C86100BFE069C8B324484068C8
:1018200000F00C00082860D0E069022848D10020B0
:1018300020490866FFF72AFB054606E0FFF726FB6E
:10184000401B022801D903203AE61948006800F03D
:1018500000700028F2D1206AB0F5803F07D114480B
:10186000406820F40030A168084311494860D4E979
:10187000080108430E49496821F4741108430C49D2
:10188000486001200B490866FFF700FB054607E0AA
:101890003DE0FFF7FBFA401B022801D903200FE6C9
:1018A0000348006800F000700028F2D02FE000002C
:1018B000001002400000424280044242007000409A
:1018C000002014490866FFF7E1FA054606E0FFF735
:1018D000DDFA401B022801D90320F1E50E4800681B
:1018E00000F000700028F2D111E0E069012800D179
:1018F000E6E50948466806F48031206A814204D151
:1019000006F47011606A814201D00120D8E5002000
:10191000D6E500000000424200100240042808D131
:101920004FF0E021096941F004014FF0E02211611C
:1019300007E04FF0E021096921F004014FF0E022B7
:101940001161704770B504462546681EB0F1807F6E
:1019500001D301200FE0681E4FF0E02148610F2104
:101960004FF0FF3000F098FC00204FF0E02188613C
:1019700007200861002070BD704701460022002347
:1019800091F8392091F83A3042EA0300704700009C
:101990002DE9F0470446206805682068C66820687D
:1019A00047694FF00008C14605F00F08B8F1000F75
:1019B0000AD105F0200038B106F0200020B1204601
:1019C00000F0BCFABDE8F087B8F1000F6DD007F069
:1019D000010018B906F49070002866D005F00100E7
:1019E00030B106F4807018B1E06B40F00100E063A4
:1019F00005F0040030B107F0010018B1E06B40F0D1
:101A00000200E06305F0020030B107F0010018B1F8
:101A1000E06B40F00400E06305F0080030B107F02F
:101A2000010018B1E06B40F00800E063E06B68B3C0
:101A300005F0200028B106F0200010B1204600F08B
:101A40007DFA20684069C0F38019E06B00F008005F
:101A500010B9B9F1000F22D0204600F04FFA2068EB
:101A6000406900F04000B0B12068406920F04000BB
:101A700021684861606B50B11748616B4863606BC7
:101A8000FEF78AFF10B1606B416B88470CE020467F
:101A9000FFF772FF08E02046FFF76EFF04E02046E4
:101AA000FFF76AFF0020E0638CE705F0800030B1AB
:101AB00006F0800018B1204600F064FB82E705F0D4
:101AC000400030B106F0400018B1204600F026FA80
:101AD00078E700BF76E70000E91E000810B504466D
:101AE0000CB9012010BDA06900B100E000BF94F85E
:101AF000390028B9002084F83800204600F028F882
:101B0000242084F839002068C06820F4005021683F
:101B1000C860204600F066FA2068006920F4904012
:101B2000216808612068406920F02A002168486126
:101B30002068C06840F400502168C8600020E0635D
:101B4000202084F8390084F83A000020CAE7000019
:101B500010B586B004461F492068884237D100BFBF
:101B60001D48806940F004001B498861084680696F
:101B700000F00400019000BF00BF00BF084680696C
:101B800040F4804088610846806900F480400190FC
:101B900000BF00BF4815029002200390012004906E
:101BA0000320059002A90D48FEF7CAFF4FF480609C
:101BB00002900020039002A90848FEF7C1FF2520EB
:101BC000FFF7B1F9032211462520FFF7BCF906B053
:101BD00010BD000000380140001002400008014024
:101BE00010B5034693F83A0020282FD101B10AB965
:101BF000012010BD00BF93F83800012801D1022058
:101C0000F7E7012083F8380000BF99629A85DA85EA
:101C10000020D863222083F83A0000BF002083F818
:101C2000380000BF1868C06840F480701C68E0602D
:101C30001868406940F001001C6860611868C0685D
:101C400040F020001C68E0600020D2E70220D0E7CE
:101C50001D4A0168914236D11C49098801F40041AE
:101C600089BB1A49098801F4804171B11849097882
:101C70000A2903D00021154A118024E0134909885C
:101C800041F40041114A11801DE0114909780D29E4
:101C900006D10E49098841F480410C4A118012E0B6
:101CA0000B490978094A1288C2F30D02094B99546D
:101CB00006490988491C054A118011460988C72927
:101CC00001DD002111807047003801401400002020
:101CD000160000208C000020704700BFFEE70000C7
:101CE00000B585B000BF1B48806940F00800194965
:101CF00088610846806900F00800009000BF00BFBE
:101D000000BF0846806940F040008861084680694D
:101D100000F04000009000BF00BF20200190012093
:101D2000029003900320049001A90B48FEF708FFDE
:101D30002020019001A90948FEF702FF012220217D
:101D40000548FFF79DF8012220210448FFF798F885
:101D500005B000BD00100240000C01400018014019
:101D600070B50024002508E00620FEF797FA044429
:101D7000052000F05FFB681CC5B20A2DF4DB0A20C9
:101D8000B4FBF0F4B4F57A6F01D94FF47A642820EB
:101D9000B4FBF0F0C0F16400C0B270BD00B587B014
:101DA000022001908003039001A8FFF7B9F90C48C5
:101DB0000C4908600020486000210A4881600173D6
:101DC000012101610021017581614FF46021C16130
:101DD000FEF7B4FB0348FEF77BFA07B000BD000036
:101DE000003C01401C00002000BFFEE77047704728
:101DF00008B508490968C9084FF47A72B1FBF2F1D5
:101E00004143009100BF00BF00994A1E0092002983
:101E1000F9D108BD00000020704710B5FFF73CF86D
:101E200010BD000010B504460420FFF777FD0148FF
:101E3000046010BD1000002030B58FB005460024AE
:101E400001200590000406900020079002200C90CD
:101E5000C1030D910E9505A8FFF72EFB04460CB1AA
:101E600000BFFEE70F2000900220019000200290AA
:101E70004FF4806003900020049002216846FFF731
:101E8000E5F904460CB100BFFEE70FB030BD00001D
:101E90001148006840F001000F490860084640689A
:101EA0000E4908400C494860084600680C49084043
:101EB000094908600846006820F480200860084648
:101EC000406820F4FE0048604FF41F008860C8039B
:101ED0000449086070470000001002400000FFF84D
:101EE000FFFFF6FE08ED00E070B505466C6A0020C5
:101EF000E085E0842046FFF73FFD70BD0168C968BA
:101F000021F490710268D1600168496921F00101F2
:101F100002685161202180F83A10704710B50446DC
:101F20002068C06820F040002168C860202084F844
:101F300039002046FFF7D0FE002010BD70B50446E2
:101F400094F83A0022284AD1A068B0F5805F13D1F6
:101F5000A56A206940B920684068C0F3080028805D
:101F6000A06A801CA06219E020684068C0B2288086
:101F7000A06A401CA06211E0206938B9206840685E
:101F8000C1B2A26A501CA062117007E020684068CC
:101F900000F07F01A26A501CA0621170E08D401E0B
:101FA00080B2E085C8B92068C06820F020002168B0
:101FB000C8602068C06820F480702168C86020680C
:101FC000406920F0010021684861202084F83A002F
:101FD0002046FFF73DFE002070BD0020FCE70220F8
:101FE000FAE7000070B504462168096921F4405100
:101FF000E2681143226811612269A1681143626994
:1020000041EA02052168C96841F20C629143294303
:102010002268D1602168496921F44071A2691143A5
:1020200022685161564A2168914254D1FFF7EAF97A
:1020300000EBC00101EB001162689200B1FBF2F10C
:1020400000EBC00202EB001263689B00B2FBF3F2EC
:102050006423B2FBF3F202EBC20303EB0212A1EB27
:102060008201322202EB01116422B1FBF2F101F094
:10207000F00100EBC00202EB001263689B00B2FBB0
:10208000F3F26423B2FBF3F201EB021200EBC001A6
:1020900001EB001163689B00B1FBF3F100EBC0039F
:1020A00003EB00136668B600B3FBF6F36426B3FBDC
:1020B000F6F303EBC30606EB0313A1EB8301322314
:1020C00003EB01116423B1FBF3F101F00F011144A3
:1020D0002268916053E0FFF785F900EBC00101EB46
:1020E000001162689200B1FBF2F100EBC00202EB5A
:1020F000001263689B00B2FBF3F26423B2FBF3F2BD
:1021000002EBC20303EB0212A1EB8201322202EBCB
:1021100001116422B1FBF2F101F0F00100EBC00209
:1021200002EB001263689B00B2FBF3F26423B2FB84
:10213000F3F201EB021200EBC00101EB0011636846
:102140009B00B1FBF3F100EBC00303EB00136668E7
:10215000B600B3FBF6F36426B3FBF6F303EBC3065A
:1021600006EB0313A1EB8301322303EB011164237C
:10217000B1FBF3F101F00F0111442268916070BDD1
:1021800000380140014691F8390021282CD1886897
:10219000B0F5805F0FD10A6A1088C0F308000B68A1
:1021A0005860086918B9086A801C086209E0086A62
:1021B000401C086205E00B6A581C086218780B681E
:1021C0005860C88C401E80B2C88458B90868C0687E
:1021D00020F080000B68D8600868C06840F04000BC
:1021E0000B68D860002070470220FCE710B500247F
:1021F0000C48FFF7CDFB00BF01E0641C00BF09489D
:10220000FFF7BBFB2028F8D100BF002401E0641CCD
:1022100000BF012204490348FFF7E2FC0028F6D181
:1022200000BF10BD4C0000201600002010B5044671
:1022300009480A4908600846446000218160C1607D
:10224000016181610C214161FFF748FC01220449D1
:102250000248FFF7C5FC10BD003801404C000020CB
:102260001600002000BFFEE70FB4054B10B503A910
:10227000044A029800F034F810BC5DF814FB00002A
:10228000952400081800002002480068C0F30220CE
:10229000704700000CED00E010B5002804DB0A07D1
:1022A000130E054A135406E00A07140E034A00F001
:1022B0000F031B1FD45410BD00E400E018ED00E034
:1022C00002E008C8121F08C1002AFAD170477047FF
:1022D000002001E001C1121F002AFBD1704700005D
:1022E0002DE9FF4F89B09B460446002506E02528CE
:1022F0000BD05A460B999047641C6D1C207800281F
:10230000F5D10DB02846BDE8F08F0027B846012270
:10231000474900E0074314F8013F203B02FA03F06D
:102320000842F7D120782E2819D114F8010F47F070
:1023300004072A280ED06FF02F022078A0F1300178
:1023400009290CD808EB880102EB410100EB0108D8
:10235000641CF2E70A98641C50F8048B0A902078F9
:102360000028CED0642808D0692806D075281ED051
:102370005A460B9990476D1C58E00A994FF00A098C
:1023800001C90A91002802DA40422D2102E03905F4
:1023900004D52B218DF82010012103E0F90704D08A
:1023A0002021F7E78A4608AE0DE00021FAE70A99F6
:1023B0004FF00A0901C90A91F7E74946FDF7D6FE31
:1023C000303106F8011D0028F7D1ADEB060000F111
:1023D0002009780701D44FF00108C84502DDA8EBB9
:1023E000090000E000208046002706E008A85A46C1
:1023F000C05D0B9990476D1C7F1C5745F6DB04E0D0
:1024000030205A460B9990476D1CB8F10001A8F195
:102410000108F5DC05E016F8010B5A460B999047C8
:102420006D1CB9F10001A9F10109F4DC641C65E738
:102430000928010030B50446002504E04FF47A7005
:1024400000F004F86D1CA542F8D330BD70B503460A
:1024500000224FF0E02675690D4E366803FB06F446
:102460004FF0E026B16910E04FF0E026B0698842F5
:102470000BD0884202D20E1A324402E02E1A0E44C9
:1024800032440146A24200D300E0EDE700BF70BD38
:102490001000002000BF054A126802F04002002A26
:1024A000F9D0C2B2014B1B1D1A60704700380140C1
:1024B00000240025FEF7FCFC4FF4E010FFF7BCFC05
:1024C0004820FFF7AFFC4FF4E130FFF7AFFEFFF716
:1024D00007FCFFF763FC1FE0601CC4B2142094FBF0
:1024E000F0F100FB114038B90C48006808B9012030
:1024F00000E0002009490860322094FBF0F100FB65
:10250000114030B9FFF72CFC0546294604A0FFF71F
:10251000ABFE0A20FFF78EFFDEE700009481214228
:10252000B9E2D5D5C7BFB6C8A3BA25640D0A000065
:102530000000000000000000010203040607080973
:1025400000000000010203046825000800000020CC
:102550001C000000C0220008842500081C00002088
:102560003C050000D02200080024F4000000000018
:10257000100000000100000000000000000000004A
:042580000000000057
:0400000508000131BD
:00000001FF
