:020000040800F2
:10000000F008002045010008410B0008ED0A000837
:100010003D0B000811020008031400080000000056
:10002000000000000000000000000000E10C0008DB
:100030001502000800000000C90B0008F50D0008BB
:100040005F0100085F0100085F0100085F01000810
:100050005F0100085F0100085F0100085F01000800
:100060005F0100085F0100085F0100085F010008F0
:100070005F0100085F0100085F0100085F010008E0
:100080005F0100085F0100085F0100085F010008D0
:100090005F0100085F0100085F0100085F010008C0
:1000A0005F0100085F0100085F0100085F010008B0
:1000B0005F0100085F0100085F0100085F010008A0
:1000C0005F0100085F0100085F0100085F01000890
:1000D0005F010008950E00085F010008811000080C
:1000E0005F0100085F0100085F0100085F01000870
:1000F0005F0100085F0100085F0100085F01000860
:100100005F0100085F0100085F0100085F0100084F
:100110005F0100085F0100085F0100085F0100083F
:100120005F0100085F0100085F0100085F0100082F
:10013000DFF80CD000F05AF80048004745180008D6
:10014000F00800200648804706480047FEE7FEE723
:10015000FEE7FEE7FEE7FEE7FEE7FEE7FEE7FEE777
:10016000350E000831010008D2B201E000F8012B81
:10017000491EFBD270470022F6E710B513460A4627
:1001800004461946FFF7F0FF204610BD30B505467E
:100190002A460B4612F8010B13F8014B08B1A04296
:1001A000F8D01CB1002802D06D1CF1E7284630BD04
:1001B000421C10F8011B0029FBD1801A704730B592
:1001C0000B46014600202022012409E021FA02F515
:1001D0009D4205D303FA02F5491B04FA02F52844AF
:1001E000151EA2F10102F1DC30BD0000064C074DE6
:1001F00006E0E06840F0010394E8070098471034F7
:10020000AC42F6D3FFF798FF0C1900082C19000830
:1002100000BFFEE77047000010B54FF400410948E9
:1002200000F062FC4FF47A7001F085FA01E000F012
:100230000DF9C823002204A104A000F019F8002839
:10024000F5D010BD000801404F4B000041540000A4
:1002500010B50446012C04D11021044800F044FCE0
:1002600003E01021014800F03DFC10BD00080140F2
:100270002DE9F04106460C4615461F462548B0F8C4
:1002800000046FF30E002349A1F80004324622A1B6
:10029000234800F033FF1CB915B90120BDE8F081F7
:1002A000B8B201F048FA00201A49B1F80014C1F3BD
:1002B0000E01184A505411461AA001F027F9B4B1A2
:1002C000ADB121461348FFF761FF08B1012000E0FE
:1002D000002040B929460F48FFF758FF08B1012018
:1002E00000E0002008B10120D8E70020D6E744B1A3
:1002F00021460848FFF74AFF08B10120CEE7002059
:10030000CCE729460348FFF741FF08B10120C5E7C4
:100310000020C3E7E800002025730D0A000000005C
:10032000004800402573000030B59FB004460D46DC
:100330002B46224606A101A801F0F8F841F65833F1
:10034000002208A101A8FFF793FF1FB030BD0000F5
:1003500041542B43574A41503D222573222C2225DC
:10036000732200004F4B000070B5B8B004460D4634
:10037000164664211FA8FFF7FEFE2B46224609A160
:100380001FA801F0D3F81FAA08A101A801F0CEF818
:100390004FF4FA730AA20EA101A8FFF769FF38B063
:1003A00070BD0000222573222C25730041542B4D73
:1003B000515454434F4E4E3D302C25732C30000089
:1003C000414C5245415920434F4E4E454354000045
:1003D0004F4B000010B5044624B1012C0AD0022C6A
:1003E00018D10FE040F6C4130BA20EA10EA0FFF728
:1003F0003FFF10BD40F6C41307A20AA10DA0FFF7EE
:1004000037FFF6E740F6C41303A206A10CA0FFF7DE
:100410002FFFEEE70020ECE76E6F206368616E67E8
:10042000650000004F4B000041542B43574D4F4493
:10043000453D310041542B43574D4F44453D32001B
:1004400041542B43574D4F44453D330010B54FF4B5
:100450000041064800F046FB4FF4FA7001F06BF9DA
:100460004FF40041014800F03FFB10BD000801407F
:100470002DE9F04F8FB00FF274195DA00E905FA0C0
:100480000D9062A00C900024A2460025A3460026F1
:1004900000200B9000270A90804609905DA00890EC
:1004A0005FA0006807905FA001F030F80120FFF71F
:1004B000CFFEFFF7B1FE494661A001F027F800200A
:1004C000FFF788FF11E048460E99FFF72DFF82469F
:1004D000BAF1000F09D1611C61A001F017F8601C8E
:1004E000C4B24FF47A7001F026F9032C02DABAF1A3
:1004F000000FE8D066A001F009F80EE000F0E4F982
:100500000B900B9848B9711C68A000F0FFFF701C9D
:10051000C6B24FF47A7001F00EF9032E02DA0B988E
:100520000028EBD06DA000F0F1FF12E00922DDE918
:100530000C10FFF719FF8346BBF1000F09D1691CAE
:100540006FA000F0E3FF681CC5B24FF47A7001F0B1
:10055000F2F8032D02DABBF1000FE7D075A000F02E
:10056000D5FF1CE02BA207CA04AB07C378A2D2E9CF
:1005700000109268CDE90202019101A904A800F0DF
:1005800037F90A900A9848B9791C74A000F0BEFFA8
:10059000781CC7B24FF47A7001F0CDF800BF032F7A
:1005A00002DA0A980028DDD07AA000F0AFFF13E04D
:1005B00007A9089800F04CF90990099860B908F16A
:1005C00001017DA000F0A2FF08F1010000F0FF088A
:1005D0004FF47A7001F0AFF8B8F1030F02DA09981E
:1005E0000028E5D00FB0BDE8F08F000078000000D3
:1005F0003132333435363738000000003139322E8D
:100600003136382E3235342E3139350031383833E1
:1006100000000000746F7069633931310000000020
:10062000310000000D0A496E697469616C697A696C
:100630006E6720455350383236362E2E2E0D0A0066
:100640000D0A436F6E6E656374696E6720746F2068
:10065000576946693A2025732E2E2E0D0A00000098
:100660000D0A5769466920636F6E6E656374696F22
:100670006E206661696C65642C207265747279699C
:100680006E672025642F332E2E2E0D0A00000000E9
:100690000D0A53657474696E67204D51545420756A
:1006A0007365722E2E2E0D0A000000000D0A536590
:1006B0007474696E67204D515454207573657220AF
:1006C0006661696C65642C207265747279696E6705
:1006D0002025642F332E2E2E0D0A00000D0A436FA5
:1006E0006E6E656374696E6720746F204D5154544B
:1006F000207365727665722E2E2E0D0A00000000A2
:100700000D0A4D5154542073657276657220636FE3
:100710006E6E656374696F6E206661696C65642CCA
:10072000207265747279696E672025642F332E2ECE
:100730002E0D0A000D0A204D515454207075626C24
:10074000696320746F7069632E2E2E0D0A000000FD
:100750007B7374617475733A20317D000D0A5365A3
:100760007474696E67204D515454207075626C69C1
:100770006320746F706963206661696C65642C2006
:100780007265747279696E672025642F332E2E2E60
:100790000D0A00000D0A5375627363726962696E17
:1007A0006720746F204D51545420746F7069632E0C
:1007B0002E2E0D0A000000000D0A5375627363723D
:1007C0006962696E6720746F204D51545420746FB4
:1007D000706963206661696C65642C20726574724F
:1007E00079696E672025642F332E2E2E0D0A0000A6
:1007F00030B5B7B004460D4664211EA8FFF7BBFC18
:100800002B46224606A1684600F090FE4FF4FA738C
:100810000AA20EA16846FFF72BFD37B030BD0000DD
:1008200041542B4D5154545055423D302C22257388
:10083000222C222573222C302C300000414C5245B2
:10084000415920434F4E4E45435400004F4B00004A
:1008500030B5B7B004460D4664211EA8FFF78BFCE7
:100860002B46224608A1684600F060FE69460CA0AF
:1008700000F04CFE4FF4FA730EA212A16846FFF787
:10088000F7FC37B030BD000041542B4D5154545348
:1008900055423D302C222573222C25730000000088
:1008A000B7A2CBCDB6A9D4C4D6B8C1EE3A20257331
:1008B0000D0A0000414C5245415920434F4E4E45D0
:1008C000435400004F4B000000B5B7B064211EA890
:1008D000FFF751FC06A1684600F028FE4FF4FA73BA
:1008E00011A215A16846FFF7C3FC37B000BD000098
:1008F00041542B4D515454555345524346473D3076
:100900002C312C2274657374557365723430303217
:10091000222C227573657234222C22313233342218
:100920002C302C302C222200414C5245415920437E
:100930004F4E4E45435400004F4B00002DE9F0410F
:10094000024600250026002000230024002791F8FD
:1009500003C00CF00F0591F803C00CF0100CBCF1B3
:10096000000F03D091F802C04CEA050591F800C0D1
:10097000BCF1000F31D0146800202BE04FF0010CC7
:100980000CFA00F3B1F800C00CEA03069E4220D135
:1009900083004FF00F0C0CFA03F7BC4305FA03FC7D
:1009A0004CEA040491F803C0BCF1280F06D14FF0C3
:1009B000010C0CFA00FCC2F814C00AE091F803C064
:1009C000BCF1480F05D14FF0010C0CFA00FCC2F845
:1009D00010C0401C0828D1D31460B1F800C0BCF18D
:1009E000FF0F34DD546800202EE000F1080C4FF0BA
:1009F000010808FA0CF3B1F800C00CEA03069E42A5
:100A000021D183004FF00F0C0CFA03F7BC4305FA19
:100A100003FC4CEA040491F803C0BCF1280F05D193
:100A200000F1080C08FA0CF8C2F8148091F803C021
:100A3000BCF1480F07D100F1080C4FF0010808FA8B
:100A40000CF8C2F81080401C0828CED35460BDE8D2
:100A5000F0810000F0B50A460023002400210025A3
:100A600000F00046B6F1004F02D11D4EF16901E0E1
:100A70001B4E7168C0F3034583B200F44016B6F50F
:100A8000401F08D121F07061154E766826F070661F
:100A9000134F7E6012E000F48016B6F5801F06D179
:100AA000032606FA05F4A14341F0706106E0460D05
:100AB000360103FA06F6B14341F0706122B1460DEA
:100AC000360103FA06F6314300F00046B6F1004F56
:100AD00002D1034EF16101E0014E7160F0BD0000F2
:100AE00000000140416170470161704700BFFEE7AF
:100AF00008B50121482000F079F82020ADF8000069
:100B000010208DF8030003208DF802006946094883
:100B1000FFF714FF20210748FFF7E6FF2020ADF87C
:100B2000000069460448FFF709FF20210248FFF74B
:100B3000DBFF08BD000C01400018014000BFFEE7CC
:100B40007047000070B5002100230F22C47804B361
:100B5000154C246804F4E064C4F5E064210AC1F192
:100B60000403CA40447804FA03F184781440214312
:100B700009010E4C0678A155047804F01F050124E4
:100B8000AC4005786D11AD0005F1E025C5F80041D8
:100B900009E0047804F01F050124AC40044D0678F8
:100BA000761145F8264070BD0CED00E000E400E051
:100BB00080E100E002490143024A116070470000F1
:100BC0000000FA050CED00E07047000029B1064A6C
:100BD000D2690243044BDA6104E0034AD2698243DA
:100BE000014BDA61704700000010024029B1064A4B
:100BF00092690243044B9A6104E0034A926982437A
:100C0000014B9A61704700000010024030B500218E
:100C10000022002400232D4D6D6805F00C0121B148
:100C2000042905D0082923D105E0294D056022E0DB
:100C3000274D05601FE0254D6D6805F47012234DAA
:100C40006D6805F48034022505EB92421CB9214DF4
:100C5000554305600BE01D4D6D6805F400351DB171
:100C60001C4D5543056002E0194D5543056002E0F7
:100C7000174D056000BF00BF144D6D6805F0F00111
:100C80000909154D6B5C0568DD4045600F4D6D68C9
:100C900005F4E061090A104D6B5C4568DD40856034
:100CA0000A4D6D6805F46051C90A0B4D6B5C4568CF
:100CB000DD40C560054D6D6805F44041890B074D69
:100CC0006B5CC568B5FBF3F5056130BD00100240F3
:100CD00000127A0000093D000000002010000020F2
:100CE000704710B500F002F810BD00000CB50020F0
:100CF000019000903348006840F48030314908602A
:100D000000BF3048006800F4003000900198401C9B
:100D10000190009818B90198B0F5A06FF1D1294859
:100D2000006800F4003010B10120009001E00020C4
:100D300000900098012843D12348006840F010003B
:100D4000214908600846006820F003000860084652
:100D5000006840F0020008601A484068194948607D
:100D60000846406848600846406840F48060486033
:100D70000846406820F47C1048600846406840F40B
:100D8000E81048600846006840F08070086000BFC6
:100D90000C48006800F000700028F9D0094840684D
:100DA00020F00300074948600846406840F0020010
:100DB000486000BF0348406800F00C000828F9D1E3
:100DC0000CBD00000010024000200240042808D1A1
:100DD0004FF0E021096941F004014FF0E022116178
:100DE00007E04FF0E021096921F004014FF0E02213
:100DF000116170477047000010B504466FF00400A1
:100E0000FFF7E4FFE11704EB5171C1F3C701074A93
:100E100011701046007800EB4001C1EBC0104FF696
:100E2000FF7101EAC0000249088010BD14000020D3
:100E30001600002010B51348006840F00100114969
:100E4000086008464068104908400E494860084656
:100E500000680E4908400B4908600846006820F405
:100E6000802008600846406820F4FE0048604FF487
:100E70001F008860FFF735FF4FF0006004490860ED
:100E800010BD0000001002400000FFF8FFFFF6FE5A
:100E900008ED00E07FB547A30FCB8DE80F0040F2CF
:100EA0002551484800F0E9F9002874D0454800F081
:100EB0009FFAC5B24448008800F40040002872D16F
:100EC0004148008800F48040002849D00A2D03D012
:100ED00000203D49088066E03B48008840F400401F
:100EE0003949088008460088C0F30D0600240DE04B
:100EF00000BF8021334800F0B3F90028F9D01DF875
:100F00000410304800F079FA601C84B26846FFF79C
:100F10004FF9A042ECD800BF80212A4800F0A0F988
:100F20000028F9D02021274800F067FA00240DE0BE
:100F300000BF8021234800F093F90028F9D023480E
:100F4000015D204800F059FA601C84B2B442EFDB26
:100F500000201D490880C8211C48FFF70CF922E039
:100F60000D2D06D11848008840F4804016490880AD
:100F700019E015480088C0F30D00C8280CDA1248A3
:100F80000088C0F30D0011490D540F480088401C23
:100F90000D49088007E00BE000200B490880C821BC
:100FA0000A48FFF7E8F840F22551064800F03DF9FD
:100FB0007FBD0000726573706F6E73652074657815
:100FC000743A000000380140180000202000002082
:100FD00010B586B0044601210420FFF707FE012169
:100FE0008803FFF703FE4FF40070ADF814000320F0
:100FF0008DF8160018208DF8170005A91E48FFF778
:101000009DFC4FF48060ADF8140004208DF81700AB
:1010100005A91948FFF792FC01940020ADF80800DB
:10102000ADF80A00ADF80C00ADF810000C20ADF8DA
:101030000E0001A9114800F06FF901210F4800F0DE
:1010400003F940210D4800F0E7F8012240F2255154
:101050000A4800F03CF925208DF8000003208DF8A7
:1010600001008DF8020001208DF803006846FFF7AB
:1010700069FD06B010BD00000008014000380140C5
:1010800010B540F225511B4800F0F7F8D8B11948C7
:1010900000F0AEF9C4B21848B0F80004C0F30E0076
:1010A00040F2FF3188420EDA1349B1F80014C1F35F
:1010B0000E00411C104AB2F8002461F30E020E49E2
:1010C000A1F800240C5440F224410A4800F0D5F85D
:1010D00001280DD10848B0F8000420F4004000F5C4
:1010E00000400549A1F80004024800F081F9C4B2AB
:1010F00010BD000000480040E80000200FB470B5AB
:1011000086B006460CA801907DE00B9800785C281C
:1011100026D10B98401C0B900078222813D06E2803
:1011200009D0722817D10D21304600F066F90B98CE
:10113000401C0B9013E00A21304600F05EF90B983A
:10114000401C0B900BE02221304600F056F90B9822
:10115000401C0B9003E00B98401C0B9000BF4BE031
:101160000B980078252840D10B98401C0B900078F4
:10117000642818D0732833D1019810C801900BE06F
:101180002178304600F039F900BF8021304600F068
:1011900067F80028F9D0641C20780028F0D10B985B
:1011A000401C0B9020E0019820C801900A2202A95F
:1011B000284600F015FB02AC0BE02178304600F029
:1011C0001CF900BF8021304600F04AF80028F9D011
:1011D000641C20780028F0D10B98401C0B9003E091
:1011E0000B98401C0B9000BF06E00B9810F8011BF9
:1011F0000B90304600F001F900BF8021304600F02E
:101200002FF80028F9D00B98007800287FF47DAFE4
:1012100006B070BC5DF814FB01F40072B2F5007FFB
:1012200000D100BFCA430280704710B500220023DE
:1012300040F66A14A14200D100BF0A120124944072
:10124000A3B2DC43048010BD21B1828942F4005274
:10125000828104E082894DF6FF731A4082817047D3
:1012600002460020B1F5007F00D100BF13880B407B
:101270000BB1012000E00020704770B50246002449
:1012800000230025002040F66A16B14200D100BFBD
:10129000C1F3421501F01F03012606FA03F3012DE5
:1012A00002D19689334006E0022D02D1168A3340DE
:1012B00001E0968A33400C12012606FA04F41688DF
:1012C000344013B10CB1012000E0002070BDF0B536
:1012D0000346002400260025002040F66A17B94284
:1012E00000D100BF1846C1F3421401F01F060127C8
:1012F00007FA06F5012C01D10C3004E0022C01D1D3
:10130000103000E014301AB107682F43076002E084
:101310000768AF430760F0BD2DE9F04786B005468A
:101320000E460024A24600BFA1460027B08900B1A6
:1013300000BF2F462C8A4CF6FF700440F08804430F
:101340002C82AC894EF6F3100440B08831890843F2
:10135000718908430443AC81AC8A4FF6FF400440D6
:10136000B0890443AC8201A8FFF750FC1F488742B4
:1013700002D1DDF810A001E0DDF80CA0A88900F48E
:10138000004040B10AEBCA0000EB0A103168490086
:10139000B0FBF1F807E00AEBCA0000EB0A10316875
:1013A0008900B0FBF1F86420B8FBF0F004012009DB
:1013B000642101FB1089A88900F4004040B132206B
:1013C00000EBC900B0FBF1F000F00700044308E0B7
:1013D000322000EB09106421B0FBF1F000F00F00A7
:1013E00004432C8106B0BDE8F087000000380140BE
:1013F00001468888C0F308007047C1F30802828064
:10140000704700BFFEE7000000B587B001218804E7
:10141000FFF7DCFB01210820FFF7E8FB0121042096
:10142000FFF7E4FB01210846FFF7E0FB0121334809
:10143000FFF710FB48F21000ADF8180010208DF8EF
:101440001B0003208DF81A0006A92D48FFF776FA35
:1014500010212B48FFF746FB4FF400412848FFF7C7
:1014600043FB4FF48060ADF8180003208DF81A009C
:1014700018208DF81B0006A92248FFF75FFA4FF4E9
:101480000060ADF8180004208DF81B0006A91D4867
:10149000FFF754FA4FF4E13002900020ADF80C0051
:1014A000ADF80E00ADF81000ADF814000C20ADF84A
:1014B000120002A91448FFF72FFF012240F2255124
:1014C0001148FFF704FF012240F224410E48FFF7C4
:1014D000FEFE01210C48FFF7B7FE27208DF804001F
:1014E00000208DF805008DF8060001208DF807001A
:1014F00001A8FFF727FB07B000BD00000002300085
:1015000000080140000C0140004800400FB4054BAA
:1015100010B503A9044A029800F02CF810BC5DF83D
:1015200014FB0000BD1700081C0000200FB4084B7E
:1015300010B504A902AA039800F01CF8044602A9F9
:10154000002000F0F3F8204610BC5DF814FB00000A
:101550002D17000802E008C8121F08C1002AFAD19E
:1015600070477047002001E001C1121F002AFBD123
:10157000704700002DE9FF4F8BB09A460F46054695
:10158000002606E025280BD052460D9990476D1C89
:10159000761C28780028F5D10FB03046BDE8F08FD2
:1015A0000024A0460122604900E0044315F8013FF1
:1015B000203B02FA03F00842F7D128782E2817D1F1
:1015C00015F8010F44F004042A280ED06FF02F0202
:1015D0002878A0F1300109290AD808EB880102EB2C
:1015E000410100EB01086D1CF2E757F8048B6D1CFC
:1015F000287869283ED006DC0028CDD063280BD09F
:10160000642804D136E0732810D075284BD0524698
:101610000D999047761C85E017F8040B8DF80000B3
:1016200000208DF80100E946012003E057F8049BF3
:101630004FF0FF3061074FF0000401D40AE0641C52
:1016400044450DDA8442FADB19F804100029F6D17A
:1016500006E0641C8442FCDB19F804100029F8D170
:10166000264404E019F8010B52460D999047641E78
:10167000F8D257E001CF4FF00A0B002802DA4042BF
:101680002D2102E0210504D52B218DF82410012104
:1016900003E0E10705D02021F7E70DF120090891CB
:1016A0000CE00021F9E701CF4FF00A0BF9E75946AA
:1016B000FEF785FD01F1300209F8012D0028F6D171
:1016C000ADEB090000F1200B600701D44FF00108D9
:1016D000D84502DDA8EB0B0000E000208046002486
:1016E00006E009A85246005D0D999047641C761CDF
:1016F00008988442F5DB04E0302052460D9990476B
:10170000761CB8F10001A8F10108F5DC05E019F834
:10171000010B52460D999047761CBBF10001ABF1CD
:10172000010BF4DC6D1C34E7092801000A68531C26
:101730000B601070704770B504464FF4077094FB4F
:10174000F0F0C6B24FF4077094FBF0F100FB1140CB
:1017500085B205E04FF4077000F00AF8701EC6B2BB
:10176000002EF7D115B1284600F002F870BD000038
:101770000146114A12884A434FF0E0235A61002281
:101780009A611A46126942F001021A6100BF4FF0D5
:10179000E022106900F001021AB100F48032002A40
:1017A000F5D04FF0E022126922F001024FF0E02361
:1017B0001A6100229A6170471600002070B5044635
:1017C0000D46E1B20548FFF718FE00BF802103482F
:1017D000FFF746FD0028F9D0204670BD00380140D3
:1017E000F0B503460D461646002729460A2E03D0BB
:1017F000002008702846F0BD33B9302001F8010BF5
:10180000002008702846F6E7002B03DA2D2001F8A7
:10181000010B5B4242F210720DE093FBF2F404B94B
:1018200037B104F1300001F8010B04FB123301273A
:101830000A2092FBF0F2002AEFDC00200870284614
:10184000D9E700004820FFF7D7FA4FF4A060FFF770
:10185000B1F94FF41650FFF7BBFBFFF749F9FFF75B
:10186000D3FD08A0FFF752FE0AA0FFF74FFE14A019
:10187000FFF74CFE1BA0FFF749FE01E0FEF7F8FD65
:10188000FCE7000048656C6C6F2C20776F726C640D
:10189000210D0A000D0A3D3D3D3D3D3D3D3D3D3D97
:1018A0003D3D3D3D3D3D3D3D3D3D3D3D3D3D3D3D68
:1018B0003D3D3D3D3D3D3D3D3D3D0D0A00000000AF
:1018C00053544D3332202B20455350383236362076
:1018D00054435020436C69656E742044656D6F0DF0
:1018E0000A0000003D3D3D3D3D3D3D3D3D3D3D3D12
:1018F0003D3D3D3D3D3D3D3D3D3D3D3D3D3D3D3D18
:101900003D3D3D3D3D3D3D3D0D0A00002C1900088B
:101910000000002020000000541500084C190008A9
:1019200020000020D008000064150008000000001E
:101930000102030401020304060708090204060861
:0C1940000000000000000000000000009B
:0400000508000131BD
:00000001FF
