:020000040800F2
:100000003009002049010008F11E0008691A0008A3
:10001000ED1E0008D90A00082F2B00080000000080
:10002000000000000000000000000000C9200008DF
:10003000DD0A000800000000791F0008DD2100082B
:100040006301000863010008630100086301000800
:1000500063010008630100086301000863010008F0
:1000600063010008630100086301000863010008E0
:1000700063010008630100086301000863010008D0
:1000800063010008630100086301000863010008C0
:1000900063010008630100086301000863010008B0
:1000A00063010008630100086301000863010008A0
:1000B0006301000863010008630100086301000890
:1000C0006301000863010008630100086301000880
:1000D0006301000805260008F12700080D28000824
:1000E0006301000863010008630100086301000860
:1000F0006301000863010008630100086301000850
:10010000630100086301000863010008630100083F
:10011000E925000863010008630100086301000885
:10012000630100086301000863010008630100081F
:10013000DFF810D000F0A8FB004800478539000820
:10014000AFF300803009002006488047064800478A
:10015000FEE7FEE7FEE7FEE7FEE7FEE7FEE7FEE777
:10016000FEE7FEE71D22000831010008D2B201E0DF
:1001700000F8012B491EFBD270470022F6E710B5AC
:1001800013460A4604461946FFF7F0FF204610BD05
:1001900030B505462A460B4612F8010B13F8014B01
:1001A00008B1A042F8D01CB1002802D06D1CF1E7C4
:1001B000284630BD10B5044604E00B7800F8013B3A
:1001C00003B1491C521EF8D2204610BDCAB2401ECF
:1001D00010F8011F8A4202D00029F9D1002070478F
:1001E000421C10F8011B0029FBD1801A7047002225
:1001F000CBB20178994200D10246401C0029F8D1C7
:100200001046704730B480EA010202F0004530F039
:10021000004221F0004013D090B1C30DD40DC2F3C1
:100220001601C0F31600E41A41F4000140F4000284
:100230007D34914201D3641C00E04900002C02DAB5
:1002400030BC002070474FF400000023914201D3DE
:10025000891A034340084FEA4101F7D151B1914255
:1002600002D14FF0004105E002D24FF0010101E060
:100270006FF0010103EBC450284430BC00F040BAD9
:100280002DE9FE4F804681EA0300C00F0C46009026
:1002900021F0004123F00045B8EB0200A94105D24E
:1002A0004046214690461C460B46024623F000403D
:1002B000104347D0270DC7F30A00C3F30A51029039
:1002C000401A019040286BDAC3F3130040F4801BFE
:1002D0000098924620B10023D2EB030A63EB0B0B8C
:1002E00001985946C0F14002504600F0D8F9064640
:1002F0000D4650465946019A00F0F0F910EB0800FF
:100300006141002487EA115284EAE7731A4340D01E
:10031000009A62B3019A012A4FEA075215DC001BCA
:1003200061EB02014FF0004202EA0752CDE90042C0
:10033000001C41F5801132462B4600F027FA03B02D
:10034000BDE8F08F40462146F9E7001B61EB020152
:10035000001C41F5801300185B412018A2F500171E
:1003600047EB030140EAD570B6196D4111E06D0805
:100370004FEA360645EAC0754FEA0752001B61EBAB
:100380000201001C41F5801149084FEA30000019B4
:10039000514132462B4603B0BDE8F04F00F0E7B9BB
:1003A0000098012240000023D0EB020263EBE073CF
:1003B000009821464FEAE074B8EB000061EB0401BD
:1003C000E9E783F000435BE781F0004158E72DE95E
:1003D000FE4F81EA030404F0004421F00041009440
:1003E0004FF0000B23F0004350EA01045ED052EAC4
:1003F00003045BD0C3F30A54C1F30A552C44A4F29E
:10040000F3340194A0FB0254C1F3130141F48011B1
:10041000C3F3130343F4801301FB024400FB034EB8
:10042000840A970A44EA815447EA8357A4FB076881
:1004300002958D0A05FB07854FEA932C04FB0C54AB
:100440002705029D4FEA065847EA1637B5EB08051F
:100450006EEB070C870E920E47EA811742EA831271
:10046000A7FB0201B6EB0B0164EB00042B0D43EA82
:100470000C335E1844EB1C50DA465146E7FB020190
:10048000C5F313044FEA0B3343EA14534FEA043223
:10049000019C43EA0603A4F10C040294009CCDE9FC
:1004A00000B400F073F903B0BDE8F08F00200146FE
:1004B000F9E72DE9F04D81EA030404F0004B21F047
:1004C000004514464FF0000A23F0004150EA0502AF
:1004D00020D054EA01021DD0C5F30A570246C5F3E5
:1004E0001303C1F31300C1F30A5640F4801543F41B
:1004F0008013A7EB0608101BD64608F2FD3873EBF5
:10050000050002D308F1010801E092185B41B8F13F
:10051000000F03DA00200146BDE8F08D00204FF403
:100520008011064684460EE0171B73EB050705D3C2
:10053000121B63EB050306434CEA010C49084FEA22
:10054000300092185B4150EA0107EDD152EA0300F6
:1005500012D082EA040083EA0501084305D0101B8B
:10056000AB4106D20122002306E000224FF00043F7
:1005700002E06FF0010253101AEB06004CEB085139
:1005800010EB0A0041EB0B01BDE8F04D00F0EFB8B5
:10059000C10F80EAE0700844CA079623002100F0EA
:1005A000B8B896230022114600F0B3B870B5C1F375
:1005B0000A5201F000450024C1F3130140F2FF3359
:1005C00041F480119A4201DA002070BD40F23343B9
:1005D0009A42A2F2334203DC524200F06FF800E08C
:1005E00090402C43F1D0404270BD00F0004230F00A
:1005F00000400AD0C10D01F56071C0F3160042EA57
:100600000151C2084007114370470020014670475E
:1006100030B50B46014600202022012409E021FAD2
:1006200002F59D4205D303FA02F5491B04FA02F5CF
:100630002844151EA2F10102F1DC30BD2DE9F05F66
:100640000546002092469B46884606468146402441
:100650001BE0284641464746224600F02FF8534605
:100660005A46C01A914110D311461846224600F04E
:1006700016F82D1A67EB01084F462246012000218B
:1006800000F00DF817EB00094E41201EA4F1010403
:10069000DFDC484631462A464346BDE8F09F202A23
:1006A00004DB203A00FA02F1002070479140C2F1C9
:1006B000200320FA03F3194390407047202A04DBFB
:1006C000203A21FA02F00021704721FA02F3D040CB
:1006D000C2F120029140084319467047202A06DBE8
:1006E000CB17203A41FA02F043EAE07306E041FA00
:1006F00002F3D040C2F120029140084319467047EE
:100700000029A8BF7047401C490008BF20F0010025
:10071000704710B4B0FA80FC00FA0CF050EA010403
:1007200004BF10BC704749B1CCF1200421FA04F495
:1007300011FA0CF118BF012121430843A3EB0C016E
:10074000CB1D4FEA00614FEA102042BF002010BCD1
:10075000704700EBC35010440029A4BF10BC704781
:10076000401C490008BF20F0010010BC704710B5C4
:10077000141E73F1000408DA401C41F100019218C4
:100780005B411A4301D120F0010010BD2DE9F04D6D
:1007900092469B4611B1B1FA81F202E0B0FA80F2C2
:1007A00020329046FFF77BFF04460F4640EA0A00DE
:1007B00041EA0B0153465A46084313D0114653EA07
:1007C000010019D0C8F140025046FFF777FF0546F7
:1007D0000E46504659464246FFF761FF084305D092
:1007E000012004E020463946BDE8F08D0020054395
:1007F00046EAE0762C4337430A986305E40AA0EB07
:1008000008000022FD0A44EA47540A3002D50020BD
:100810000146E9E7010510196941DDE908450019BC
:100820006941BDE8F04DA2E7C1F30A52C1F31301DB
:1008300040F2FF3341F480119A4202DA002001466F
:10084000704740F233439A42A2F2334202DC5242F2
:10085000FFF734BFFFF723BF30B5041E71F100046A
:1008600004DB4FF00044404264EB0101141E73F1BD
:10087000000405DB1C464FF00043524263EB0403C7
:10088000994208BF904230BD064C074D06E0E06833
:1008900040F0010394E8070098471034AC42F6D3C7
:1008A000FFF74AFC588500087885000821B1826866
:1008B00042F00102826003E0826822F0010282605D
:1008C0007047014600208A6802F004020AB1012044
:1008D00000E0002070470146C86C80B270470246B5
:1008E000002013680B400BB1012000E0002070478E
:1008F000014600208A6802F008020AB1012000E0E7
:100900000020704730B502460020002350680F4C8D
:1009100020400D790C6844EA05242043506090681B
:100920000B4C2040D1E902542C434D7944EA450454
:1009300020439060D06A20F470000C7C641EE4B206
:10094000234340EA0350D06230BD0000FFFEF0FFB9
:10095000FDF7F1FFF0B504460D4600200021092DFA
:1009600011DDE068A5F10A0606EB4607072606FA40
:1009700007F18843A5F10A0606EB460603FA06F1DD
:100980000843E0600CE0206905EB4507072606FAFE
:1009900007F1884305EB450603FA06F10843206199
:1009A000072A0FDA606B561E06EB86071F2606FA2B
:1009B00007F18843561E06EB860605FA06F1084342
:1009C000606322E00D2A0FDA206BD61F06EB860744
:1009D0001F2606FA07F18843D61F06EB860605FA9E
:1009E00006F10843206310E0E06AA2F10D0606EB71
:1009F00086071F2606FA07F18843A2F10D0606EBCB
:100A0000860605FA06F10843E062F0BD816841F010
:100A100008018160704721B1826842F4A0028260BF
:100A200003E0826822F4A00282607047816841F08E
:100A3000040181607047000030B10749096841F442
:100A40000001054A116005E00349096821F400012D
:100A5000014A1160704700000824014000B585B0CC
:100A60000121480201F0B6FA4FF4004001F086FA85
:100A70000120FFF7E1FF002000908DF804008DF8C1
:100A800005004FF4602002900020039001208DF8B3
:100A9000100069460F48FFF735FF01210D48FFF7A9
:100AA00005FF0C48FFF7B2FF00BF0A48FFF720FF21
:100AB0000028FAD10748FFF7B9FF00BF0548FFF744
:100AC00000FF0028FAD101210248FFF7A4FF05B07A
:100AD00000BD00000024014000BFFEE7704710B5D4
:100AE0000446012C02D102F011FA02E0002002F0CB
:100AF0000DFA10BD2DE9F04F87B080460C46154623
:100B00009A464FF0000900275448D0F800B05448E6
:100B1000006806905348006805905348B0F80004F8
:100B20006FF30E005049A1F800040846B0F8000425
:100B300020F40040A1F800044C480068401C4B49D8
:100B4000086043464A4802680846016849A002F026
:100B500015FA02F027F942464DA1049001F064FE17
:100B60004CB945B9414801684BA002F007FA012091
:100B700007B0BDE8F08F1FFA8AF002F07DFE3A4818
:100B8000B0F80004C0F30E06B6F5806F01DB40F24A
:100B9000FF3600203449885544B121463248FFF7DA
:100BA000F7FA08B1012000E00020814645B129464E
:100BB0002D48FFF7EDFA08B1012000E000200746BC
:100BC0003D480378274801680598081A24490A68AF
:100BD0000699511A214A1268A2EB0B02CDE90203D1
:100BE000CDE900212048B0F80004C30B32461F486D
:100BF0000168324802F0C2F9002E05DD1A4A1B488E
:100C000001682FA002F0BAF97CB175B13B464A46A3
:100C10001648016831A002F0B1F9B9F1000F00D116
:100C20000FB10120A4E70020A2E764B14A460F48B3
:100C3000016833A002F0A2F9B9F1000F01D0012040
:100C400096E7002094E73A460848016833A002F08E
:100C500095F90FB101208BE7002089E728000020DB
:100C60002C0000203000002028010020400000203F
:100C70003C0000205B41544442475D5B256C755D40
:100C800020545840256C753A2025730D0A00000049
:100C900025730D0A000000005B41544442475D5B30
:100CA000256C755D206E6F2D7265706C79206D6F8F
:100CB00064650D0A0000000034000020A8840008CC
:100CC0005B41544442475D5B256C755D2052586220
:100CD00075663A2025730D0A000000005B415444FC
:100CE00042475D5B256C755D206D617463682072A1
:100CF000313D25642072323D25640D0A000000005C
:100D00005B41544442475D5B256C755D206D6174A9
:100D100063682072313D25640D0A00005B41544434
:100D200042475D5B256C755D206D61746368207260
:100D3000323D25640D0A000030B59FB004460D46D3
:100D40002B46224606A101A802F028F941F65833A5
:100D5000002208A101A8FFF7CDFE1FB030BD0000A2
:100D600041542B43574A41503D222573222C2225C2
:100D7000732200004F4B000070B5B8B004460D461A
:100D8000164664211FA8FFF7F8F92B46224609A151
:100D90001FA802F003F91FAA08A101A802F0FEF89B
:100DA0004FF4FA730AA20EA101A8FFF7A3FE38B010
:100DB00070BD0000222573222C25730041542B4D59
:100DC000515454434F4E4E3D302C25732C3000006F
:100DD000414C5245415920434F4E4E45435400002B
:100DE0004F4B0000F0B5AFB00120FFF778FE1E209A
:100DF00002F042FD002002F0A5F8DC2002F03CFDEC
:100E0000012002F09FF84FF4966002F035FD0024B7
:100E100000263CE06A49885D01F0E6FF1E2002F0F2
:100E20002BFD684850F8261067A002F0A7F80027AD
:100E30001AE06D4850F827106CA002F09FF86A493C
:100E400051F8270000F0DCFB08B101240EE06648F1
:100E500050F827106FA002F091F800F030FB9620B8
:100E600002F00AFD781CC7B2062FE2D300BF34B1EE
:100E7000544850F8261071A002F080F809E051485B
:100E800050F8261074A002F079F8701CC6B2062E35
:100E9000C0D300BF2CB978A002F070F800202FB0AA
:100EA000F0BD8248016882A002F068F84FF49673A2
:100EB000002285A185A0FFF71DFE002000F09EFA0C
:100EC000044624B983A002F059F80020E7E7002582
:100ED00000240BE086A18AA0FFF72EFF04462CB960
:100EE000681CC5B240F2DC5002F0C6FC052D01DAE8
:100EF000002CEFD024B987A002F040F80020CEE704
:100F00000025002417E08AA08DA390A294A1009050
:100F100002A802F043F84FF4966300226AA102A8E7
:100F2000FFF7E8FD04462CB9681CC5B24FF44870C1
:100F300002F0A2FC00BF032D01DA002CE3D024B99B
:100F400092A002F01BF80020A9E7002500240CE085
:100F5000052296A197A0FFF70FFF04462CB9681C45
:100F6000C5B24FF4966002F087FC032D01DA002C25
:100F7000EED024B993A002F001F800208FE70025FD
:100F800000240BE08EA196A000F0D6FA04462CB9FE
:100F9000681CC5B24FF4167002F06EFC032D01DA26
:100FA000002CEFD024B993A001F0E8FF002076E7F1
:100FB00097A28BA19AA001F0E1FF01206FE700004A
:100FC000A0840008440000200D0A5B4154444247BD
:100FD0005D203D3D3D3D20726F7574652025732079
:100FE0003D3D3D3D0D0A0000888400085B415444AE
:100FF00042475D202D2D2D2D206261756420636197
:101000006E646964617465202564202D2D2D2D0D7D
:101010000A0000005B41544442475D2062617564F0
:101020003D2564206661696C65642C20746F676778
:101030006C65205253540D0A000000005B4154447B
:1010400042475D20726F757465206C6F636B6564D9
:101050003A2025730D0A00005B41544442475D204D
:10106000726F757465202573206E6F2072657370C2
:101070006F6E73650D0A00000D0A5B4D5154545D8F
:10108000204154206E6F20726573706F6E736520FF
:1010900028636865636B2055415254206A756D70F2
:1010A0006572732F6D7578290D0A00003C000020D1
:1010B0000D0A5B4D5154545D2045535020626175BB
:1010C000643D25640D0A00004F4B0000415445303B
:1010D000000000000D0A5B4D5154545D2043574DF4
:1010E0004F4445206661696C65640D0A000000008C
:1010F000505A3130335F303532305F6573700000E5
:10110000785F707A3130335F303532305F613672FC
:10111000340000000D0A5B4D5154545D204A6F6944
:101120006E204150206661696C65640D0A00000004
:10113000505A3130335F6D7174745F6136723400B0
:10114000757365725F61367234000000707A3130F9
:10115000335F636C69656E745F61367234000000E2
:1011600041542B4D515454555345524346473D30FD
:101170002C312C222573222C222573222C2225731C
:10118000222C302C302C2222000000000D0A5B4D56
:101190005154545D204D5154545553455243464784
:1011A000206661696C65640D0A00000031383833CF
:1011B0000000000031302E3132382E3133352E33DD
:1011C000310000000D0A5B4D5154545D204D5154C7
:1011D00054434F4E4E206661696C65640D0A0000F1
:1011E000707A3130332F613672342F6C65642F631F
:1011F0006D6400000D0A5B4D5154545D204D5154F7
:1012000054535542206661696C65640D0A00000004
:10121000707A3130332F613672342F74656D7000FF
:101220000D0A5B4D5154545D2052656164792E2046
:101230007375623D2573207075623D25730D0A003C
:101240002DE9F0438BB08046B8F1000F03D10020A8
:101250000BB0BDE8F0835248B0F80004C00B08B9E9
:101260000020F5E700204E49B1F80014C1F30E014B
:101270004B4A50544BA11046FEF78AFF8146B9F104
:10128000000F10D14648B0F8000420F40040444953
:10129000A1F800040846B0F800046FF30E00A1F8AE
:1012A00000040020D4E72C214846FEF7A0FF0446A6
:1012B00004B964E0641C00E0641C20782028FBD0A2
:1012C00020782228F8D00D212046FEF77FFF064621
:1012D00026B90A212046FEF779FF06461EB92046A8
:1012E000FEF77EFF0619351B00E06D1E002D07DDA1
:1012F000681E205C2228F8D0681E205C2028F4D0CC
:10130000002D00DC3BE0272D00DD2725002703E032
:10131000E05D01A9C8557F1CAF42F9DB002001A99F
:10132000485524A101A800F041F920B922A101A843
:1013300000F03CF918B1012088F800000EE01FA170
:1013400001A800F033F920B91DA101A800F02EF981
:1013500018B1002088F8000000E010E01048B0F854
:10136000000420F400400E49A1F800040846B0F83B
:1013700000046FF30E00A1F80004012068E708489C
:10138000B0F8000420F400400549A1F80004084624
:10139000B0F800046FF30E00A1F80004002057E736
:1013A000280100202B4D5154545355425245435669
:1013B0003A0000004F4E0000310000004F4646004A
:1013C0003000000010B586B0044614B9002006B005
:1013D00010BD172221466846FEF7ECFE00208DF86E
:1013E0001700694601A000F077F8F0E7707A313015
:1013F000332F613672342F74656D700010B504465A
:1014000024B1012C0AD0022C18D10FE040F6C413ED
:101410000BA20EA10EA0FFF76DFB10BD40F6C4138A
:1014200007A20AA10DA0FFF765FBF6E740F6C4137B
:1014300003A206A10CA0FFF75DFBEEE70020ECE79E
:101440006E6F206368616E67650000004F4B00009F
:1014500041542B43574D4F44453D310041542B439C
:10146000574D4F44453D320041542B43574D4F4457
:10147000453D33007FB5044601F094FC054600214C
:1014800001F078FA00940020ADF80400ADF80600F1
:10149000ADF80800ADF80C000C20ADF80A0001F022
:1014A00081FC0546694601F0CDFA01F07BFC05465A
:1014B000012101F05FFA502002F0DEF97FBD10B586
:1014C000002001F03FFD4FF4FA7002F0D5F9012041
:1014D00001F038FD10BD000030B5B7B004460D4630
:1014E00064211EA8FEF749FE2B46224606A1684647
:1014F00001F054FD4FF4FA730AA20EA16846FFF7FB
:10150000F9FA37B030BD000041542B4D51545450BE
:1015100055423D302C222573222C222573222C305B
:101520002C300000414C5245415920434F4E4E450E
:10153000435400004F4B000030B5B7B004460D4691
:1015400064211EA8FEF719FE2B46224608A1684614
:1015500001F024FD69460CA001F010FD4FF4FA7370
:101560000DA211A16846FFF7C5FA37B030BD0000E3
:1015700041542B4D5154545355423D302C22257328
:10158000222C2573000000003F3F3F3F3F3F3A20A1
:1015900025730D0A00000000414C5245415920437B
:1015A0004F4E4E45435400004F4B000010B50246CD
:1015B00002B109B9002010BD15E013780C78612B39
:1015C00004DB7A2B02DCA3F12000C3B2612C04DB24
:1015D0007A2C02DCA4F12000C4B2A34201D0002086
:1015E000E9E7521C491C107810B108780028E4D1B2
:1015F000107818B9087808B90120DCE70020DAE78C
:1016000070B5054613480560294613A001F0B6FCE5
:101610002846FFF72FFF002418E0621C294617A078
:1016200001F0ACFC4FF4967300221CA11CA0FFF744
:1016300061FA30B1621C29461AA001F09FFC01201A
:1016400070BD782002F018F9601CC4B2032CE4DBF2
:101650000020F5E73C0000200D0A5B41544442475E
:101660005D2073776974636820455350205541525B
:101670005420626175643D25640D0A005B41544449
:1016800042475D2074727920626175643D25642053
:10169000726F756E643D25640D0A00004F4B0000AB
:1016A000415400005B41544442475D204154204F67
:1016B0004B20617420626175643D256420726F75F2
:1016C0006E643D25640D0A0051B18200A2F1C04252
:1016D000126842F001038200A2F1C042136009E0E7
:1016E0008200A2F1C0421268034B1A408300A3F1AA
:1016F000C0431A6070470000FEFF0F00D0E90112DE
:101700001143C2681143026911434269114382695E
:101710001143C2691143026A1143426A1143826A4A
:101720001143C26A1143026B114302689200A2F195
:10173000C0421160816808290BD101688900A1F1BC
:10174000C041096841F0400201688900A1F1C0412F
:101750000A60416B0968426B526841EA0211426BB0
:10176000926841EA0221426B928941EA0241426B4E
:10177000128A41EA0251426B127D41EA0261426BD8
:10178000926911430268521C9200A2F1C04211609A
:10179000C16AB1F5804F1BD1816B0968826B5268B9
:1017A00041EA0211826B926841EA0221826B128A3D
:1017B00041EA0251826B127D41EA0261826B9269B9
:1017C000114302689200A2F1C042C2F8041107E07E
:1017D0006FF0704201688900A1F1C041C1F8042195
:1017E00070472DE9F0410246002500260020002325
:1017F0000024002791F803C00CF00F0591F803C0F6
:101800000CF0100CBCF1000F03D091F802C04CEAB0
:10181000050591F800C0BCF1000F31D0146800201C
:101820002BE04FF0010C0CFA00F3B1F800C00CEA09
:1018300003069E4220D183004FF00F0C0CFA03F7F1
:10184000BC4305FA03FC4CEA040491F803C0BCF164
:10185000280F06D14FF0010C0CFA00FCC2F814C09E
:101860000AE091F803C0BCF1480F05D14FF0010C1C
:101870000CFA00FCC2F810C0401C0828D1D3146038
:10188000B1F800C0BCF1FF0F34DD546800202EE039
:1018900000F1080C4FF0010808FA0CF3B1F800C091
:1018A0000CEA03069E4221D183004FF00F0C0CFA84
:1018B00003F7BC4305FA03FC4CEA040491F803C0A7
:1018C000BCF1280F05D100F1080C08FA0CF8C2F899
:1018D000148091F803C0BCF1480F07D100F1080C47
:1018E0004FF0010808FA0CF8C2F81080401C0828D4
:1018F000CED35460BDE8F081F0B50A460023002441
:101900000021002500F00046B6F1004F02D11D4E27
:10191000F16901E01B4E7168C0F3034583B200F426
:101920004016B6F5401F08D121F07061154E76685B
:1019300026F07066134F7E6012E000F48016B6F554
:10194000801F06D1032606FA05F4A14341F0706119
:1019500006E0460D360103FA06F6B14341F0706128
:1019600022B1460D360103FA06F6314300F0004677
:10197000B6F1004F02D1034EF16101E0014E7160FA
:10198000F0BD0000000001404161704701617047F7
:101990002DE9F04105460C46002607230122294681
:1019A0000F48FEF7D7FF002713E001210C48FFF78F
:1019B00032F800BF02210A48FEF791FF0028F9D053
:1019C0000748FEF788FF0644052001F055FF781C04
:1019D000C7B2A742E9DBB6FBF4F080B2BDE8F08104
:1019E000002401402DE9F05F0A211020FFF7D0FF0D
:1019F00083465846FEF7D5FD8046FEF7F6FD0646BF
:101A00004FF06632114BFEF7E2FC04460D462246CB
:101A10002B460F480F49FEF7D4FC80460E4A0F4B69
:101A2000FEF747FD064600220D4BFEF729FC044653
:101A30000D4600220B4B20462946FEF7C8FC064601
:101A4000FEF7B4FD82465046BDE8F09F66664A3F09
:101A5000E17A14AE47E1F63F22FDF675E09C713F56
:101A6000000039400000594000BFFEE770B506464F
:101A70000F484088401E83B20D480088401E82B245
:101A80000021084600F04EF800240CE0002504E098
:101A9000304600F0FDF9681C85B205484088A84230
:101AA000F6DC601C84B202480088A042EEDC70BD07
:101AB0001800002000B502460F4882716AB936202E
:101AC00000F0DAF94C2000F0DDF94FF4F0700A492B
:101AD00048804FF4A07008800CE0362000F0CCF96C
:101AE0002C2000F0CFF94FF4A070034948804FF448
:101AF000F070088000BD00001800002070B504469A
:101B00000D4616462B4622462946204600F00AF886
:101B1000304600F0BDF970BD0148008870470000F4
:101B20000008006C30B504460D462A2000F0A4F9E8
:101B3000201200F0A7F9E0B200F0A4F9101200F0B2
:101B4000A1F9D0B200F09EF92B2000F095F92812EF
:101B500000F098F9E8B200F095F9181200F092F947
:101B6000D8B200F08FF92C2000F086F930BD0000CB
:101B70002DE9F84F80460E4617461C46B3462046D0
:101B8000E31704EB5373DB1021464FEAE47C04EBCC
:101B90005C7C4FEAEC0CA4EBCC0CBCF1000F02D047
:101BA0004FF0010C01E04FF0000C6344224604EBBF
:101BB000D27C4FEA6C0C03FB0CF3DBB20093A7F171
:101BC0002000C7B2002556E00C2C07D107EB4700D8
:101BD0002B4901EB800010F8059013E0102C05D183
:101BE000284800EB071010F805900BE0182C07D1DF
:101BF00007EBC700244901EB800010F8059001E0D5
:101C0000BDE8F88F4FF0000A2FE009F0800030B1F6
:101C10001E48028831464046FFF770FF07E00A98E9
:101C200028B91B48028831464046FFF767FF4FEA54
:101C300049604FEA1069701C86B216484088B0426D
:101C400000DCDDE7A6EB0B00A0420AD15E4608F1FE
:101C500001001FFA80F80F480088404500DCCFE7FC
:101C600006E00AF1010000F0FF0ABAF1080FCCDB30
:101C700000BF681CC5B200988542A5DB00BFBFE766
:101C8000703B0008E43F0008D44500081400002021
:101C900016000020180000202DE9F84704460D46E4
:101CA00090469946DDE9096704F0FF0A08EB040055
:101CB0001FFA80F809EB05001FFA80F916E0444589
:101CC00002DB5446A81985B24D4500DB14E0002024
:101CD00000903A78334629462046FFF749FF3046C0
:101CE00006EBD07104EB61018CB27F1C38787E2842
:101CF00002DC38782028E2DA00BFBDE8F88700006F
:101D00002DE9F04192B080460C46154635A01021D1
:101D1000CDE900103748028818230A210846FFF74A
:101D2000BBFF4046FEF761FC064632460B4632A139
:101D300002A801F033F902A81021CDE900102D48C6
:101D40000288182328210A20FFF7A6FF0CB12FA034
:101D500000E02FA002462FA102A801F01FF902A85F
:101D60001021CDE9001023480288182346210A20BB
:101D7000FFF792FF0DB12BA000E02CA002462DA191
:101D800002A801F00BF902A81021CDE900101948B2
:101D90000288182364210A20FFF77EFF29A22EA1C2
:101DA00002A801F0FBF802A81021CDE900101148AB
:101DB0000288182382210A20FFF76EFF28A22CA197
:101DC00002A801F0EBF802A81021CDE900100948A3
:101DD00002881823A0210A20FFF75EFF12B0BDE899
:101DE000F0810000505A313033204D51545420447A
:101DF000656D6F001800002054656D703A20253223
:101E00002E32662043202020000000004F4E0000AC
:101E10004F4646004C4544203A2025732020202080
:101E2000202000004F4E4C494E4500004F46464C86
:101E3000494E45004D5154543A202573202020200E
:101E400020200000707A3130332F613672342F6CCD
:101E500065642F636D6400005375623A202573003A
:101E6000707A3130332F613672342F74656D7000A3
:101E70005075623A202573000149088070470000C0
:101E8000FE07006C01490880704700000008006CE4
:101E90000112024A1180C1B2118070470008006C23
:101EA00008B50121482000F095F82020ADF8000089
:101EB00010208DF8030003208DF8020069460948C0
:101EC000FFF78FFC20210748FFF760FD2020ADF8C9
:101ED000000069460448FFF784FC20210248FFF710
:101EE00055FD08BD000C01400018014000BFFEE791
:101EF0007047000070B5002100230F22C47804B39E
:101F0000154C246804F4E064C4F5E064210AC1F1CE
:101F10000403CA40447804FA03F18478144021434E
:101F200009010E4C0678A155047804F01F05012420
:101F3000AC4005786D11AD0005F1E025C5F8004114
:101F400009E0047804F01F050124AC40044D067834
:101F5000761145F8264070BD0CED00E000E400E08D
:101F600080E100E002490143024A1160704700002D
:101F70000000FA050CED00E070470000014600206B
:101F8000034A506820F44040084350607047000006
:101F90000010024029B1064A52690243044B5A61BB
:101FA00004E0034A52698243014B5A6170470000C2
:101FB0000010024029B1064AD2690243044BDA619B
:101FC00004E0034AD2698243014BDA6170470000A2
:101FD0000010024029B1064A92690243044B9A61FB
:101FE00004E0034A92698243014B9A617047000002
:101FF0000010024030B500210022002400232D4DA6
:102000006D6805F00C0121B1042905D0082923D100
:1020100005E0294D056022E0274D05601FE0254DB4
:102020006D6805F47012234D6D6805F48034022547
:1020300005EB92421CB9214D554305600BE01D4D47
:102040006D6805F400351DB11C4D5543056002E077
:10205000194D5543056002E0174D056000BF00BFF4
:10206000144D6D6805F0F0010909154D6B5C0568AC
:10207000DD4045600F4D6D6805F4E061090A104DC3
:102080006B5C4568DD4085600A4D6D6805F4605104
:10209000C90A0B4D6B5C4568DD40C560054D6D6838
:1020A00005F44041890B074D6B5CC568B5FBF3F542
:1020B000056130BD0010024000127A0000093D00A9
:1020C0000000002010000020704710B500F002F85A
:1020D00010BD00000CB5002001900090334800684E
:1020E00040F480303149086000BF3048006800F497
:1020F000003000900198401C0190009818B9019898
:10210000B0F5A06FF1D12948006800F4003010B19B
:102110000120009001E0002000900098012843D1A8
:102120002348006840F01000214908600846006814
:1021300020F0030008600846006840F002000860D4
:102140001A4840681949486008464068486008468F
:10215000406840F4806048600846406820F47C1085
:1021600048600846406840F4E81048600846006847
:1021700040F08070086000BF0C48006800F00070FC
:102180000028F9D00948406820F00300074948605A
:102190000846406840F00200486000BF03484068BD
:1021A00000F00C000828F9D10CBD0000001002401E
:1021B00000200240042808D14FF0E021096941F0D5
:1021C00004014FF0E022116107E04FF0E0210969BE
:1021D00021F004014FF0E0221161704770470000C8
:1021E00010B504466FF00400FFF7E4FFE11704EBBD
:1021F0005171C1F3C701074A11701046007800EB16
:102200004001C1EBC0104FF6FF7101EAC000024966
:10221000088010BD200000202200002010B51348C7
:10222000006840F001001149086008464068104904
:1022300008400E494860084600680E4908400B49AE
:1022400008600846006820F480200860084640685E
:1022500020F4FE0048604FF41F008860FFF735FF50
:102260004FF000600449086010BD000000100240FB
:102270000000FFF8FFFFF6FE08ED00E000B59DB09E
:1022800001210802FFF786FE012007900020089038
:102290000F20099000200A900B900C900D901520B3
:1022A000009001900520029000200390049005907A
:1022B000069006200E9000200F9010901020119094
:1022C0000020129014901390159016904FF48050A7
:1022D0001790002018904FF48040199000201A9019
:1022E00007A81B90CDF870D00EA8FFF707FA0121C0
:1022F0000620FFF7E9F91DB000BD000008B5012177
:102300004FF4B470FFF766FE4CF23370ADF8000086
:1023100018208DF8030003208DF802006946184844
:10232000FFF75FFA4FF68070ADF8000018208DF8C7
:10233000030003208DF8020069461248FFF751FAA6
:1023400041F20100ADF8000018208DF803000320D1
:102350008DF8020069460C48FFF743FA0120ADF8FA
:10236000000010208DF8030003208DF8020069465C
:102370000648FFF736FA01200549086008BD00004D
:10238000001401400018014000200140000C0140F1
:102390008081214210B5FFF7B1FFFFF76FFF3220B8
:1023A00001F06AFAD020FFF767FDFFF7B5FB894916
:1023B0008880FFF7B1FB874988800846818886A01E
:1023C00000F0DCFD1120FFF757FD4FF4FA7401E037
:1023D000601E84B2002CFBDCB920FFF74DFDFF200E
:1023E000FFF750FD8320FFF74DFD5720FFF74AFD13
:1023F0004FF4FA7401E0601E84B2002CFBDCB120C3
:10240000FFF73AFD0020FFF73DFD1420FFF73AFDEE
:102410001C20FFF737FD1C20FFF734FDC320FFF71A
:1024200031FD4420FFF72EFD7020FFF72BFD4FF408
:10243000FA7401E0601E84B2002CFBDCB420FFF7CC
:102440001BFD2220FFF71EFD4020FFF71BFD002093
:10245000FFF718FD2A20FFF715FD2A20FFF712FDD0
:102460002020FFF70FFD9120FFF70CFD4FF4FA74C9
:1024700001E0601E84B2002CFBDC3620FFF7FCFC80
:102480004C20FFF7FFFCC020FFF7F6FC5020FFF7C1
:10249000F9FC5020FFF7F6FC0120FFF7F3FC3C208D
:1024A000FFF7F0FCC820FFF7EDFC0820FFF7EAFC7F
:1024B0000020FFF7E7FC0820FFF7E4FC0420FFF70B
:1024C000E1FC4FF4FA7401E0601E84B2002CFBDCE6
:1024D0004FF4FA7401E0601E84B2002CFBDCE020B3
:1024E000FFF7CAFC0B20FFF7CDFC1120FFF7CAFC59
:1024F0001E20FFF7C7FC3020FFF7C4FC3A20FFF78F
:10250000C1FC4320FFF7BEFC4E20FFF7BBFC56206A
:10251000FFF7B8FC4520FFF7B5FC3F20FFF7B2FC02
:102520003920FFF7AFFC3220FFF7ACFC2F20FFF77C
:10253000A9FC2A20FFF7A6FC2920FFF7A3FC2120F5
:10254000FFF7A0FC0B20FFF79DFC1120FFF79AFC82
:102550001E20FFF797FC3020FFF794FC3A20FFF78E
:1025600091FC4320FFF78EFC4E20FFF78BFC56209A
:10257000FFF788FC4520FFF785FC3F20FFF782FC32
:102580003920FFF77FFC3220FFF77CFC2F20FFF77C
:1025900079FC2A20FFF776FC2920FFF773FC212025
:1025A000FFF770FC0020FFF76DFC0120FFF76AFCCD
:1025B0003A20FFF761FC0520FFF764FC2920FFF7B4
:1025C0005BFC0020FFF776FA4FF6FF70FFF74EFA3C
:1025D00010BD000018000020204C43442049443A1C
:1025E00025780D0A0000000010B504480068044971
:1025F000884201D100F0D8FA10BD00003800002058
:10260000004C00407FB547A30FCB8DE80F0040F290
:102610002551484800F0C7F9002874D0454800F01B
:102620007DFAC5B24448008800F40040002872D109
:102630004148008800F48040002849D00A2D03D08A
:1026400000203D49088066E03B48008840F4004097
:102650003949088008460088C0F30D0600240DE0C3
:1026600000BF8021334800F091F90028F9D01DF80F
:102670000410304800F057FA601C84B26846FDF739
:10268000AFFDA042ECD800BF80212A4800F07EF9BF
:102690000028F9D02021274800F045FA00240DE059
:1026A00000BF8021234800F071F90028F9D02348A9
:1026B000015D204800F037FA601C84B2B442EFDBC1
:1026C00000201D490880C8211C48FDF756FD22E066
:1026D0000D2D06D11848008840F480401649088026
:1026E00019E015480088C0F30D00C8280CDA12481C
:1026F0000088C0F30D0011490D540F480088401C9C
:102700000D49088007E00BE000200B490880C82134
:102710000A48FDF732FD40F22551064800F01BF94A
:102720007FBD0000726573706F6E7365207465788D
:10273000743A0000003801402400002060000020AE
:1027400010B586B0044601210420FFF743FC0121A7
:102750008803FFF73FFC4FF40070ADF8140003202E
:102760008DF8160018208DF8170005A91E48FFF7F0
:1027700038F84FF48060ADF8140004208DF817008D
:1027800005A91948FFF72DF801940020ADF80800BD
:10279000ADF80A00ADF80C00ADF810000C20ADF853
:1027A0000E0001A9114800F04DF901210F4800F079
:1027B000E1F840210D4800F0C5F8012240F2255112
:1027C0000A4800F01AF925208DF8000003208DF842
:1027D00001008DF8020001208DF803006846FFF724
:1027E00089FB06B010BD0000000801400038014020
:1027F00010B5044800680449884201D100F0D4F9BA
:1028000010BD0000380000200044004010B504480E
:1028100000680449884201D100F0C6F910BD0000EB
:1028200038000020004800400FB470B586B006465E
:102830000CA801907DE00B9800785C2826D10B98BD
:10284000401C0B900078222813D06E2809D07228E3
:1028500017D10D21304600F066F90B98401C0B9003
:1028600013E00A21304600F05EF90B98401C0B90F3
:102870000BE02221304600F056F90B98401C0B90DB
:1028800003E00B98401C0B9000BF4BE00B980078C6
:10289000252840D10B98401C0B900078642818D054
:1028A000732833D1019810C801900BE0217830468D
:1028B00000F039F900BF8021304600F067F80028A9
:1028C000F9D0641C20780028F0D10B98401C0B90A4
:1028D00020E0019820C801900A2202A9284601F0B0
:1028E0001FF802AC0BE02178304600F01CF900BF65
:1028F0008021304600F04AF80028F9D0641C207886
:102900000028F0D10B98401C0B9003E00B98401C62
:102910000B9000BF06E00B9810F8011B0B9030469F
:1029200000F001F900BF8021304600F02FF80028A8
:10293000F9D00B98007800287FF47DAF06B070BC0A
:102940005DF814FB01F40072B2F5007F00D100BF06
:10295000CA430280704710B50022002340F66A1473
:10296000A14200D100BF0A1201249440A3B2DC436B
:10297000048010BD21B1828942F40052828104E0BA
:1029800082894DF6FF731A4082817047024600200B
:10299000B1F5007F00D100BF13880B400BB10120BF
:1029A00000E00020704770B5024600240023002597
:1029B000002040F66A16B14200D100BFC1F34215B3
:1029C00001F01F03012606FA03F3012D02D19689B7
:1029D000334006E0022D02D1168A334001E0968A88
:1029E00033400C12012606FA04F41688344013B161
:1029F0000CB1012000E0002070BDF0B503460024BA
:102A000000260025002040F66A17B94200D100BF19
:102A10001846C1F3421401F01F06012707FA06F514
:102A2000012C01D10C3004E0022C01D1103000E067
:102A300014301AB107682F43076002E00768AF43FC
:102A40000760F0BD2DE9F04786B005460E4600242C
:102A5000A24600BFA1460027B08900B100BF2F46A3
:102A60002C8A4CF6FF700440F08804432C82AC8919
:102A70004EF6F3100440B088318908437189084349
:102A80000443AC81AC8A4FF6FF400440B089044354
:102A9000AC8201A8FFF7AEFA1F48874202D1DDF8E9
:102AA00010A001E0DDF80CA0A88900F4004040B1BE
:102AB0000AEBCA0000EB0A1031684900B0FBF1F8DC
:102AC00007E00AEBCA0000EB0A1031688900B0FB8E
:102AD000F1F86420B8FBF0F004012009642101FB47
:102AE0001089A88900F4004040B1322000EBC900F1
:102AF000B0FBF1F000F00700044308E0322000EBE7
:102B000009106421B0FBF1F000F00F0004432C81A8
:102B100006B0BDE8F0870000003801400146888813
:102B2000C0F308007047C1F308028280704700BFFD
:102B3000FEE700001FB501211848FEF7DDFE00F09A
:102B40008BF81748007800F04FF94FF4E13000900F
:102B50000020ADF80400ADF80600ADF80800ADF8AF
:102B60000C000C20ADF80A0069460E480068FFF71B
:102B700069FF012240F225510A480068FFF73DFF36
:102B8000012240F2244107480068FFF736FF012187
:102B900004480068FFF7EEFE1FBD00000002300091
:102BA000350000203800002070B5054640F2255160
:102BB0002846FFF7F8FE10B32846FFF7AFFFC4B270
:102BC0002048047020480068401C1F4908601F48C6
:102BD000B0F80004C0F30E0040F2FF3188420FDA73
:102BE0001A49B1F80014C1F30E00411C174AB2F89B
:102BF000002461F30E021549A1F800240C5404E0EE
:102C000013480068401C1249086040F224412846DD
:102C1000FFF7C9FE012813D10C48B0F8000420F4D6
:102C2000004000F500400949A1F800040948006887
:102C3000401C084908602846FFF770FFC4B200BF77
:102C400070BD000034000020280000202801002072
:102C5000300000202C00002008B501210420FFF7DF
:102C6000B9F901210820FFF7B5F948F21000ADF8D5
:102C7000000010208DF8030003208DF80200694643
:102C80000F48FEF7AEFD4FF44070ADF80000694606
:102C90000C48FEF7A6FD10210948FEF775FE4FF41B
:102CA00000410748FEF772FE4FF480710548FEF7B9
:102CB0006BFE4FF400710348FEF768FE08BD00008C
:102CC00000080140000C014008B500208DF801000B
:102CD0008DF802008DF8030026208DF8000068466C
:102CE000FFF708F927208DF800006846FFF702F982
:102CF00034208DF800006846FFF7FCF801208DF8BD
:102D000003000C4800680C49884203D126208DF846
:102D100000000BE0074800680849884203D13420CE
:102D20008DF8000002E027208DF800006846FFF7CC
:102D3000E1F808BD3800002000440040004C00408D
:102D400010B500214FF40030FFF734F900214FF4A3
:102D50008020FFF72FF900214FF40020FFF72AF918
:102D600010BD000010B50C4800680C49884204D121
:102D700001214804FFF71EF90DE0074800680849E3
:102D8000884204D10121C804FFF714F903E00121AE
:102D90008804FFF70FF910BD380000200044004000
:102DA000004C0040014800687047000038000020D7
:102DB000F8B507460C4615461E46ADF80040032000
:102DC0008DF8020018208DF8030069463846FEF79A
:102DD00008FDADF8006004208DF803006946284620
:102DE000FEF7FFFCF8BD000010B504463D48047036
:102DF00001210846FFF7EEF801210420FFF7EAF869
:102E000001210820FFF7E6F801211020FFF7E2F882
:102E100001212020FFF7DEF800213348FEF76CFD8A
:102E2000002131482030FEF767FD00210820FEF721
:102E300063FD012C0DD12D482D49086001212A4840
:102E4000FEF75AFDE3022B4A11151046FFF7B0FFBB
:102E500041E0022C0ED12548254908600121224875
:102E60002030FEF749FD2302234A91151046FFF753
:102E70009FFF30E0032C09D120481D49086008233A
:102E80001F4A04211046FFF793FF24E0042C0DD1C4
:102E90001A481749086001210820FEF72DFD40233C
:102EA000154A20211046FFF783FF14E0052C09D1B5
:102EB00014480F490860C3140E4A01151046FFF765
:102EC00077FF08E009480A490860C3140E4A011553
:102ED0001046FFF76DFFFFF733FFFFF743FFFFF7E4
:102EE000F3FE10BD35000020100014000048004023
:102EF0003800002000100140001401400044004050
:102F000000080140004C0040000C014010B5044690
:102F1000012C08D110210948FEF738FD210208488C
:102F2000FEF734FD08E010210448FEF72DFD4FF4B4
:102F300080710348FEF728FD10BD00000008014025
:102F4000000C014010B50446012C08D1C10309480A
:102F5000FEF71CFD61020848FEF718FD09E04FF47A
:102F600000410448FEF710FD4FF400710248FEF7DF
:102F70000BFD10BD00080140000C01400FB4054BD3
:102F800010B503A9044A029800F0EEF810BC5DF8F1
:102F900014FB0000FD3800085C0000200FB4084B53
:102FA00010B504A902AA039800F0DEF8044602A9AD
:102FB000002000F05CFC204610BC5DF814FB000013
:102FC0006F38000802E008C8121F08C1002AFAD1B1
:102FD00070477047002001E001C1121F002AFBD199
:102FE000704700002DE9FF5F82B00021DDE9043069
:102FF000020DDDF840B0034318D044F61050A2F2A1
:10300000FF3242431514119801281FD0A5EB0B0085
:10301000401C5FEA000A4FF000064E4FDFF838917F
:10302000B046504615D5CAF1000413E011980124AA
:103030004AA3012801D16FEA0B010298119AC0E955
:103040000031C0E9024206B0BDE8F09FCBF10000BC
:10305000DFE704460021404A491842EB0450CDE91D
:10306000001012E0E00707D032463B464046494692
:10307000FDF7ADF98046894632463B461046194673
:10308000FDF7A5F906460F466410002CEAD1DDE9EC
:103090000401DDE90023BAF1000F06DAFDF797F924
:1030A00042464B46FDF793F905E0FDF702FA42462A
:1030B0004B46FDF7FEF904460E460022284BFDF76D
:1030C000CBFB03D84FF0FF30014607E00022254B31
:1030D00020463146FDF7D4F8FDF7A6FB102409E0A1
:1030E000002C0ADB0A220023FDF7A8FA039B3032EA
:1030F0001A55641E50EA0102F2D1641C039AC4F10D
:1031000011031444119A012A03D0012208430DD15E
:103110000AE0084304D000204FF0110B119072E731
:10312000A3EB0B056D1E0DE05B4504DD4FF00002C7
:1031300005F1010504E003DA4FF00002A5F10105F5
:10314000002AECD002981199C0E90231C0E900458B
:1031500079E70000000014400000F03F300000005C
:103160000000F0430000E03F2DE9FF4F95B09A4684
:10317000884606460025EEE1252877D1002427461B
:10318000F94A0121039400E0044316F8013F203B73
:1031900001FA03F01042F7D130782A2811D06FF0ED
:1031A0002F033078A0F13002092A16D8039A44F090
:1031B000020402EB820203EB42021044761C0390ED
:1031C000EFE758F8042B0392002A03DA504244F444
:1031D0000054039044F00204761C30782E2816D157
:1031E00016F8010F44F004042A280DD06FF02F02C6
:1031F0003078A0F13003092B09D807EB870302EBE5
:103200004303C718761CF3E758F8047B761C307824
:103210006C280FD006DC4C2817D068280DD06A28FF
:1032200014D104E0742810D07A280FD10DE044F4B2
:1032300000140AE044F4801401E044F4401472786D
:10324000824202D104F58014761C761C3078662800
:103250000BD013DC582877D009DC002875D045281E
:10326000F6D04628F4D047281AD193E118E0632815
:1032700035D0642879D0652812D18BE1702873D0BD
:1032800008DC6728F1D069286FD06E280DD06F2830
:1032900006D1ACE073282CD0752874D0782853D090
:1032A0005246179990476D1C54E1C4F3025002280E
:1032B00009D003280DD0D8F8001004280DD00D60D7
:1032C00008F1040846E1D8F80010EA17C1E90052F5
:1032D000F6E7D8F800100D80F2E70D70F0E718F867
:1032E000041B8DF8001000208DF80100EB46012032
:1032F00003E058F804BB4FF0FF3061074FF00001C6
:1033000002D40DE009F101018946B9420FDA814585
:10331000F8DB1BF809100029F4D108E009F10101DC
:1033200089468142FADB1BF809100029F6D103987F
:103330005346A0EB090721463846179A00F080FA59
:10334000284400EB090507E044E008E10DE01BF824
:10335000010B524617999047B9F10109F7D253462C
:1033600021463846179AF2E039E00A21C4F30252A6
:103370004FF0000B0091022A06D058F8040BC11739
:10338000032A09D00AE023E008F1070020F0070231
:10339000F2E80201904605E000B2C117042A01D10B
:1033A00040B2C117002906DA0A460021404261EB0B
:1033B00002012D2202E0220504D52B228DF80420E3
:1033C000012203E0E20701D02022F7E7914657E00F
:1033D0000A2100E010214FF0000B00910BE01021BA
:1033E0004FF0000B44F004040827009103E008208C
:1033F0004FF0000B0090C4F30252022A05D058F897
:10340000040B0021032A08D008E008F1070020F08F
:103410000702F2E80201904603E080B2042A00D1DC
:10342000C0B24FF0000922072AD53278702A07D09F
:10343000DDF800C08CF0100C5CEA0B0C05D00EE03F
:1034400040228DF80420012208E050EA010306D052
:1034500030238DF804308DF8052002229146009B20
:1034600083F0080353EA0B030AD150EA010201D1A9
:10347000620705D530228DF804204FF001097F1E28
:103480003278582A04D039A20C920CAA02920BE08E
:103490003BA2F9E75B46009AFDF7D0F80C9B9B5CDA
:1034A000029A521E0292137050EA0102F2D102985F
:1034B00004A9081A00F1200B600702D524F4803417
:1034C00000E001275F4502DDA7EB0B0000E00020D4
:1034D00000EB0B01009003984944401A0390E0036D
:1034E00006D453462146179A039800F0A9F90544DB
:1034F000002706E001A85246C05D179990476D1C51
:103500007F1C4F45F6DBE0030CD553462146179A46
:10351000039800F095F9054404E0302052461799CD
:1035200090476D1C0099481E00900029F5DC08E0CA
:103530000298029952460078491C029117999047C7
:103540006D1CBBF10001ABF1010BF1DC5BE100F0A4
:1035500065F90544761C307800287FF40DAE19B06B
:103560002846BDE8F08F00000928010030313233D1
:1035700034353637383961626364656600000000AF
:103580003031323334353637383941424344454699
:1035900000000000600700D4062708F1070020F0B3
:1035A0000700F0E80223804603F0004C5FEA0C00BD
:1035B00001D097A009E0200501D596A005E0E0071D
:1035C00001D095A001E0AFF24C001390307823F0C9
:1035D000004365280CD006DC452809D046281DD0BC
:1035E00047287FD13BE0662818D067287AD136E09B
:1035F0000021112F01DB112000E0781CCDE9000132
:1036000004A90CA8FFF7EEFCDDE90D010C9A4FF0C0
:10361000000B07F10109109200914EE04FF00040BD
:103620000097CDE9011004A90CA8FFF7DBFCDDE948
:103630000D020C9B0F994FF0000B914610930092D6
:1036400011B9791C00EB0109B7EB090003D4C0F1F3
:10365000FF3B07F10109A9EB0700019042E0012FB0
:1036600000DA01270021112F01DD112000E038468A
:10367000CDE9000104A90CA8FFF7B4FCDDE90D01B8
:103680000C9A00914FF0000BB946109221070FD40D
:10369000009A4A4503DA914601E0A9F10109B9F11E
:1036A000010F05DD109AA9F10101515C3029F4D018
:1036B000B84202DA10F1040F03DA0121CDE901105A
:1036C00010E0002803DC8344A9EB000102E0411C68
:1036D000494500DD8946A0EB0B00401C01904FF0EE
:1036E00000400290200705D40198484502DB4FF0C6
:1036F000FF30019000208DF84B0002980DF14B0730
:10370000B0F1004F25D002200C902B200D90029894
:1037100000280CDA404202902D200D9007E00A218B
:103720000298FCF775FF3031029007F8011D0C99E3
:10373000481E0C900029F2DC02980028EFD1791E77
:103740000D980870307800F0200040F0450007F830
:10375000020D11A8C01BC01D02901398007800B183
:10376000012000EB0901019801EBE071029801448E
:103770000398401A401E0390E00306D453462146A6
:10378000179A039800F05CF805441398007818B174
:103790005246179990476D1CE00323D553462146A6
:1037A000179A039800F04CF805441BE0BBF1000F9A
:1037B00007DB0098584504DD1098179910F80B00A6
:1037C00001E0179930205246904701980BF1010B08
:1037D000401E05F10105019004D12E205246179993
:1037E00090476D1CB9F10001A9F10109DEDC05E08B
:1037F00017F8010B5246179990476D1C0299481E05
:1038000002900029F4DC53462146179A03989EE65D
:103810002D0000002B000000200000002DE9F041E9
:10382000044600251E461746880404D405E03946A0
:103830002020B0476D1C641EF9D52846BDE8F081F4
:103840002DE9F041044600251E469046C80301D5E7
:10385000302700E02027880404D505E0414638469B
:10386000B0476D1C641EF9D52846BDE8F0810A6892
:10387000531C0B601070704770B504464FF407700E
:1038800094FBF0F0C6B24FF4077094FBF0F100FB2C
:10389000114085B205E04FF4077000F009F8701E82
:1038A000C6B2002EF7D115B1284600F001F870BD60
:1038B0000146114A12884A434FF0E0235A61002220
:1038C0009A611A46126942F001021A6100BF4FF074
:1038D000E022106900F001021AB100F48032002ADF
:1038E000F5D04FF0E022126922F001024FF0E02300
:1038F0001A6100229A6170472200002070B50446C8
:103900000D46E1B20548FFF70EF900BF80210348DC
:10391000FFF73CF80028F9D0204670BD0038014080
:10392000F0B503460D461646002729460A2E03D059
:10393000002008702846F0BD33B9302001F8010B93
:10394000002008702846F6E7002B03DA2D2001F846
:10395000010B5B4242F210720DE093FBF2F404B9EA
:1039600037B104F1300001F8010B04FB12330127D9
:103970000A2092FBF0F2002AEFDC002008702846B3
:10398000D9E700008AB000250026A946AA460020F3
:10399000039000244820FEF723FC4FF4A060FEF7BC
:1039A000E1FA4FF4E130FEF7CBFEFEF779FAFDF7CE
:1039B00055F8FEF7EFFC012048490860FFF7BAF818
:1039C0000020474908804FF6FF7046490880FEF7FF
:1039D0004DF845A01021CDE9001048480288182371
:1039E0000A210846FEF758F944484388028881882E
:1039F00043A0FFF7C3FA4FF4C873002247A148A0C1
:103A0000FDF778F84FF47A73002244A145A0FDF742
:103A100071F8FDF7E7F9044654B944A01021CDE947
:103A2000001036480288182328210A20FEF734F9AE
:103A300001202A4914310860002003904DE0681CE1
:103A400085B2701C86B26CB103A8FDF7F9FB68B1B2
:103A50009DF80C0008B9012000E000201F49143136
:103A6000086003E0B6F5FA7F00DB0026642D31DB49
:103A70000025FDF7B7FF81464846FCF789FD07465C
:103A80002F49FCF7BFFB82465046FCF7AEFD0746C8
:103A90003A460B462BA104A8FFF780FA24B104A8EC
:103AA000FDF790FC00B9002422469DF80C1050460A
:103AB000FEF726F90CB125A000E025A003469DF8ED
:103AC0000C0008B121A000E021A0024604A921A019
:103AD000FFF754FA0A20FFF7CFFEB0E780812142BA
:103AE0001400002016000020576946692F4D5154DC
:103AF0005420696E69742E2E2E00000018000020DC
:103B00004C43442069643D30782530345820773D5B
:103B1000256420683D25640D0A0000004F4B00001D
:103B20004154000041542B474D5200004D51545414
:103B3000206F66666C696E652C2072657472790000
:103B40000000C84225322E32660000004F4E0000B1
:103B50004F46460074656D703D25732C206C65647E
:103B60003D25732C206D7174743D25730D0A000082
:103B70000000000000000000000000000000000045
:103B80003F40000000000000000030004000300016
:103B90004000000009000BC03D000BC03D000900C3
:103BA00018C024407FE0224031800000180024C06B
:103BB0001B000D803240018003801C4027401C8088
:103BC00007400040100060000000000000000000FE
:103BD0000000000000001F80204040200000402026
:103BE00020401F8000000000090006001F80060022
:103BF00009000000040004003F80040004000000ED
:103C0000001000600000000000000000040004003C
:103C10000400040004000000000000400000000058
:103C200000000000002001C0060038004000000035
:103C30001F802040204020401F80000000001040D6
:103C40003FC000400000000018C021402240244036
:103C50001840000010802040244024401B800000B9
:103C600002000D0011003FC0014000003C802440D4
:103C700024402440238000001F80244024403440FE
:103C8000038000003000200027C038002000000022
:103C90001B802440244024401B8000001C0022C0C4
:103CA000224022401F800000000000000840000069
:103CB00000000000000000000460000000000000A0
:103CC000000004000A0011002080404009000900A3
:103CD0000900090009000000000040402080110098
:103CE0000A000400180020002340240018000000EF
:103CF0001F802040274029401F400000004007C08F
:103D000039000F0001C0004020403FC02440244043
:103D10001B8000001F802040204020403080000099
:103D200020403FC0204020401F80000020403FC076
:103D300024402E4030C0000020403FC024402E00D0
:103D4000300000000F00108020402240338002002D
:103D500020403FC0040004003FC0204020402040DD
:103D60003FC02040204000000060202020203FC0B5
:103D70002000200020403FC024400B0030C02040E5
:103D800020403FC020400040004000C03FC03C00F9
:103D900003C03C003FC0000020403FC00C40230057
:103DA0003FC020001F802040204020401F80000096
:103DB00020403FC024402400180000001F80214004
:103DC000214020E01FA0000020403FC024402600EA
:103DD00019C0004018C02440244022403180000017
:103DE000300020403FC020403000000020003F80D5
:103DF000004000403F80200020003E0001C007003E
:103E000038002000380007C03C0007C03800000020
:103E1000204039C0060039C0204000002000384052
:103E200007C0384020000000304021C02640384004
:103E300020C00000000000007FE040204020000083
:103E4000000070000C0003800040000000004020D3
:103E500040207FE000000000000020004000200023
:103E600000000000001000100010001000100010F2
:103E70000000000040000000000000000000028080
:103E80000540054003C0004020003FC004400440FE
:103E9000038000000000038004400440064000004E
:103EA00000000380044024403FC000400000038025
:103EB0000540054003400000000004401FC02440AE
:103EC00024402000000002E0055005500650042068
:103ED00020403FC00440040003C0004000000440F4
:103EE00027C000400000000000100010041027E070
:103EF0000000000020403FC00140070004C0044013
:103F0000204020403FC000400040000007C00400A7
:103F100007C0040003C00000044007C004400400C0
:103F200003C0004000000380044004400380000000
:103F3000041007F0045004400380000000000380D8
:103F40000440045007F00010044007C00240040081
:103F500004000000000006400540054004C00000C9
:103F6000000004001F80044000400000040007809F
:103F70000040044007C000400400070004C0018066
:103F800006000400060001C0070001C00600000092
:103F9000044006C0010006C00440000004100710E1
:103FA00004E00180060004000000044005C0064053
:103FB000044000000000000004007BE040200000FE
:103FC000000000000000FFF00000000000004020A2
:103FD0007BE0040000000000400080004000200062
:103FE0002000400000000000000000000000000071
:103FF000000000000000000000001FCC000C0000CA
:1040000000000000000008003000600008003000E0
:1040100060000000022003FC1E20022003FC1E2082
:104020000220000000000E1811043FFF10840C78DD
:10403000000000000F0010840F3800C007781884BB
:104040000078000000780F8410C411240E9800E45A
:1040500000840008080068007000000000000000F4
:104060000000000000000000000007E01818200415
:1040700040020000000040022004181807E0000081
:10408000000000000240024001800FF00180024069
:10409000024000000080008000800FF80080008057
:1040A000008000000001000D000E00000000000074
:1040B0000000000000000080008000800080008080
:1040C000008000800000000C000C000000000000D8
:1040D00000000000000000060018006001800600DB
:1040E00018002000000007F0080810041004080859
:1040F00007F000000000080408041FFC000400048E
:104100000000000000000E0C101410241044118454
:104110000E0C000000000C18100411041104128889
:104120000C700000000000E00320042408241FFCA1
:104130000024000000001F9810841104110410884E
:1041400010700000000007F008881104110418889E
:104150000070000000001C00100010FC13001C0088
:104160001000000000000E38114410841084114427
:104170000E38000000000700088C10441044088826
:1041800007F00000000000000000030C030C00001A
:104190000000000000000000000101060000000017
:1041A0000000000000000080014002200410080808
:1041B000100400000220022002200220022002201F
:1041C0000220000000001004080804100220014032
:1041D0000080000000000E001200100C106C108017
:1041E0000F00000003E00C1813E4142417C408287F
:1041F00007D000000004003C03C41C40074000E45A
:10420000001C000410041FFC1104110411040E888A
:104210000070000003E00C181004100410041008D3
:104220001C10000010041FFC1004100410040808E7
:1042300007F0000010041FFC1104110417C410043F
:104240000818000010041FFC1104110017C0100012
:104250000800000003E00C181004100410441C783F
:104260000040000010041FFC1084008000801084B7
:104270001FFC10040000100410041FFC10041004A4
:104280000000000000030001100110011FFE1000DB
:104290001000000010041FFC110403801464181C9B
:1042A0001004000010041FFC1004000400040004AB
:1042B000000C000010041FFC1F0000FC1F001FFC6E
:1042C0001004000010041FFC0C04030000E0101890
:1042D0001FFC100007F00808100410041004080860
:1042E00007F0000010041FFC108410801080108064
:1042F0000F00000007F0081810241024101C080AF2
:1043000007F2000010041FFC1104110011C011304D
:104310000E0C000400000E1C1104108410841044C4
:104320001C3800001800100010041FFC10041000BE
:104330001800000010001FF810040004000410040E
:104340001FF8100010001E0011E0001C0070138008
:104350001C0010001FC0103C00E01F0000E0103CDB
:104360001FC000001004180C163401C001C0163420
:10437000180C100410001C00130400FC13041C0093
:10438000100000000804101C1064108413041C04A6
:10439000101800000000000000007FFE40024002F4
:1043A00040020000000030000C0003800060001C90
:1043B0000003000000004002400240027FFE0000B7
:1043C000000000000000000020004000400040000D
:1043D00020000000000100010001000100010001B7
:1043E000000100010000400040002000000000002B
:1043F0000000000000000098012401440144014431
:1044000000FC000410001FFC008801040104008867
:104410000070000000000070008801040104010425
:1044200000880000000000700088010401041108E9
:104430001FFC0004000000F8014401440144014451
:1044400000C800000000010401040FFC1104110465
:1044500011001800000000D601290129012901C915
:104460000106000010041FFC00840100010001048B
:1044700000FC000400000104190419FC00040004FD
:10448000000000000000000300010101190119FEF5
:104490000000000010041FFC0024004001B4010CC7
:1044A000010400000000100410041FFC00040004BC
:1044B00000000000010401FC0104010001FC0104F2
:1044C000010000FC010401FC008401000100010462
:1044D00000FC0004000000F80104010401040104D0
:1044E00000F80000010101FF0085010401040088BB
:1044F0000070000000000070008801040104010544
:1045000001FF00010104010401FC00840104010019
:1045100001800000000000CC0124012401240124BA
:104520000198000000000100010007F801040104E7
:1045300000000000010001F800040004000401086C
:1045400001FC0004010001800170000C00100160FA
:104550000180010001F0010C003001C00030010CAD
:1045600001F0010000000104018C00740170018C55
:1045700001040000010101810171000E00180160B9
:104580000180010000000184010C01340144018418
:10459000010C0000000000000000000001003EFCD3
:1045A000400240020000000000000000FFFF000089
:1045B000000000000000400240023EFC010000003C
:1045C000000000000000600080008000400040000B
:1045D000200020000000000000000000000000009B
:1045E00000000000000000000000000000000000CB
:1045F00000000000000000000000000000000000BB
:10460000000000000000000F80380FFE380F8038D7
:10461000000000000000000000000000000000009A
:1046200000000100000600000C000038000031000E
:10463000000600000C000038000030000000000000
:104640000000000061800067F807F98000618000C9
:1046500061800061800061800067F807F980006177
:104660008000000000000000000001C0E003E0F056
:104670000630080418081FFFFE040E080787F00321
:1046800081E000000000000001F000060C000404BE
:1046900008060C7001F9C0000E00003BE000EC18A9
:1046A000070808040C180003E00000000001E00007
:1046B00007F003F818041C0804170807E1D003C02A
:1046C000E00023B0003C08002008000010000000BB
:1046D0000000000100003100003200001C0000005A
:1046E00000000000000000000000000000000000CA
:1046F00000000000000000000000000000000000BA
:10470000000000007F0001FFC00780F00C001810BF
:104710000004200002000000000000200002100041
:10472000040C00180780F001FFC0007F00000000AB
:104730000000000000000000000000000000000079
:104740004200006600006600003C0000180003FF05
:10475000C0001800003C0000660000660000420037
:104760000000000008000008000008000008000029
:10477000080001FFC0000800000800000800000851
:1047800000000800000000000001000031000032BD
:1047900000001C00000000000000000000000000FD
:1047A00000000000000000000000000008000008F9
:1047B00000000800000800000800000800000800D1
:1047C00000080000080000080000000000000000D1
:1047D0000000000038000038000038000000000031
:1047E00000000000000000000000000000000000C9
:1047F00000000000000600001C00007000018000A6
:104800000E0000380000C0000700001C000030004F
:1048100000000000000000007F8001FFE0038070C6
:104820000600180400080400080600180380700140
:10483000FFE0007F80000000000000000000010099
:104840000801000801000803FFF807FFF80000084E
:104850000000080000080000000000000000000147
:10486000C03802C058040098040118040218040457
:1048700018061C1803F81801E0F8000000000000FA
:1048800000000001C0E003C0F004000804080804B0
:10489000080806180803F41801E7F00001E000001A
:1048A00000000000000000000300000D00001100E7
:1048B00000610000810803010807FFF80FFFF800FE
:1048C00001080001080000000000000000E007FCF3
:1048D000D006080806100806100806100806183842
:1048E000060FF00607C000000000000000000000F6
:1048F0003F8001FFE0038430020818041008041010
:1049000008041008071810030FF00007C00000008B
:1049100000000000000003C00007000006000006C1
:1049200000F80607F806180006E000070000060079
:104930000000000000000001E1E003F7F006341081
:10494000041808041808040C08040C0806161803B8
:10495000F3F001C1E000000000000000F80003FCDB
:104960003003063804020804020804020804041094
:104970000308F001FFC0007F0000000000000000FD
:10498000000000000000000000000000703800700F
:104990003800703800000000000000000000000037
:1049A0000000000000000000000000000000000007
:1049B000301A00301C000000000000000000000061
:1049C00000000000000000000000000800001400CB
:1049D000002200004100008080010040020020040D
:1049E0000010080008000000000000002100002165
:1049F0000000210000210000210000210000210012
:104A00000021000021000021000000000000000043
:104A1000000008000804001002002001004000808F
:104A20008000410000220000140000080000000087
:104A300000000003C00004C00004000008003808A3
:104A40000F380808380810000C300007E00003C0D9
:104A500000000000000000003F8000FFE0038070C5
:104A6000020F1006708804C088048308047F88023F
:104A7000C09003012000FE40000008000018000163
:104A8000F8003E0801C20007020007E20000FE0035
:104A9000001FC80001F800003800000804000807E3
:104AA000FFF807FFF80408080408080408080408C9
:104AB0000806180803F41801E7F00001E000000000
:104AC000000000003F8001FFE00380700200180436
:104AD00000080400080400080400100600200780F5
:104AE000C000000004000807FFF807FFF8040008F2
:104AF000040008040008040018020010038070017C
:104B0000FFE0007F8000000004000807FFF807FFB7
:104B1000F8040808040808040808040808043E0803
:104B200004000806001801006000000004000807E7
:104B3000FFF807FFF8040808040800040800040848
:104B400000043E0006000006000001800000000096
:104B5000000000003F8001FFE003807006001804A1
:104B600000080402080402080203F00783F00002B0
:104B70000000020004000807FFF807FFF804080817
:104B800000080000080000080000080004080807EA
:104B9000FFF807FFF8040008000000000000040010
:104BA0000804000804000807FFF807FFF8040008DD
:104BB00004000804000800000000000000000000DD
:104BC00000060000070000010400010400010400C9
:104BD0000307FFFE07FFFC040000040000040000C0
:104BE00004000807FFF807FFF8040C08001800008D
:104BF0003E0004C7800503C80600F804003804001E
:104C00001800000804000807FFF807FFF804000870
:104C1000000008000008000008000008000008006C
:104C2000001800006000000004000807FFF807807B
:104C30000807FC00007FC00003F80007C0007800F0
:104C400007800807FFF807FFF804000804000807BA
:104C5000FFF807000803C00000E000003800001E55
:104C6000000007000001C00400F007FFF804000086
:104C7000000000007F8001FFE00380700600180440
:104C8000000804000806001803003001FFE0007F60
:104C90008000000004000807FFF807FFF80404087C
:104CA000040400040400040400040400060C0003CF
:104CB000F80001F000000000000000007F8001FF0C
:104CC000E00380700600880400880400C806003CE9
:104CD00003003E01FFE6007F840000000400080797
:104CE000FFF807FFF8040808040800040C00040F8C
:104CF00000040BC00610F003F03801E008000008C3
:104D000000000001E0F803F0300630100418080439
:104D10001808040C08040C080206180207F00781A2
:104D2000E000000001800006000004000004000014
:104D300004000807FFF807FFF80400080400000457
:104D4000000006000001800004000007FFE007FFEC
:104D5000F004001800000800000800000800000827
:104D600000000804001007FFE00400000400000633
:104D7000000007E00007FE00041FE00001F800004B
:104D8000380001E0043E0007C000060000040000F7
:104D900004000007E00007FFC0041FF80007C00779
:104DA000F80007FF80043FF80007C004F800070080
:104DB0000004000000000004000806001807C07886
:104DC00005F1C8003E00001F800463E80780F80674
:104DD000001804000800000004000006000007801E
:104DE0000007E008047C08001FF80007F800180816
:104DF00004E00807000006000004000000000001B5
:104E000000080600380400F80403E8040F08047CD6
:104E10000805F00807C0080700180400600000003B
:104E20000000000000000000000000000000003F43
:104E3000FFFE2000022000022000022000022000CD
:104E40000200000000000000000008000007000051
:104E500000C0000038000006000001C00000300063
:104E6000000E000001000000000000000000200013
:104E7000022000022000022000022000023FFFFE6C
:104E80000000000000000000000000000000000022
:104E900000000000000800001000003000002000AA
:104EA00000300000100000080000000000000000BA
:104EB00000000100000100000100000100000100ED
:104EC00000010000010000010000010000010000DD
:104ED00001000001000000000000000000200000B0
:104EE0002000001000001000000000000000000082
:104EF00000000000000000000000000000F00019A9
:104F0000F8001B18002208002608002408002410BE
:104F1000003FF8001FF8000008000018000000041F
:104F2000000007FFF80FFFF000181800100800201D
:104F300008002008003018001FF0000FC00000001B
:104F40000000000007C0001FF0001830002008001B
:104F50002008002008003C08001C10000060000031
:104F6000000000000000000007C0001FF00038181B
:104F700000200800200800200804101007FFF80F88
:104F8000FFF000001000000000000000000000071B
:104F9000C0001FF000123000221800220800220872
:104FA000003208001E10000E20000000000000006B
:104FB000200000200800200801FFF803FFF8062069
:104FC0000804200804200807200003000000000057
:104FD00000000000000E000E6E001FF30031B10053
:104FE00020B10020B1003191001F13002E1E0020BF
:104FF0000E00300000000004000807FFF80FFFF863
:10500000001008002000002000002008003FF800E9
:105010001FF8000008000000000000000000002051
:1050200008002008002008063FF8063FF8000008A6
:105030000000080000080000000000000000000060
:1050400000000000030000030020010020010020F8
:1050500003063FFE063FFC000000000000000000C9
:1050600000000004000807FFF80FFFF800018800A7
:105070000300002FC00038F800203800200800008E
:105080000800000000000000000004000804000800
:1050900004000807FFF80FFFF800000800000800F0
:1050A0000008000000000000002008003FF8003F5A
:1050B000F8001008002000003FF8003FF80010083A
:1050C000002000003FF8003FF8000008000000004A
:1050D0002008003FF8003FF80010080010000020F2
:1050E00000002008003FF8001FF800000800000042
:1050F0000000000007C0000FF0001830003008006A
:105100002008002008003008001830000FF00007C9
:10511000C0000000000000002001003FFF003FFF32
:10512000001011002009002008002008003038007D
:105130001FF0000FC00000000000000007C0001FAB
:10514000F000381800200800200800200900101185
:10515000001FFF003FFF00000100000000200800CA
:105160002008002008003FF8003FF8000808001061
:10517000080020080020000030000030000000007F
:10518000000000000000000C78001E18003308002A
:1051900023080021080021880021980030F0003801
:1051A000600000000000000020000020000020003F
:1051B00000FFF003FFF8002008002008002008008E
:1051C0000030000000000000000000002000003F50
:1051D000F0007FF800001800000800000800201010
:1051E000003FF8007FF00000100000000000000009
:1051F0002000003000003C00003F800023F0000051
:1052000078000070002380003C0000300000200087
:10521000002000003C00003FE00023F80000E00018
:105220002700003E00003FE00021F80001E0003EC2
:10523000000020000000000020080020080038388E
:10524000003E680027800003C8002CF800383800B2
:10525000201800200800000000000000200000309E
:1052600003003C01003F830023EC0000700023801A
:10527000003C0000200000200000000000000000B2
:1052800000000038080020380020F80023E8002F34
:1052900088003E0800380800201800007000000058
:1052A00000000000000000000000000000000000FE
:1052B00008000014001FF7FC300006200002000068
:1052C00000000000000000000000000000000000DE
:1052D000000000000000FFFFFF00000000000000D1
:1052E000000000000000000000000000000020009E
:1052F000023000061FF7FC00140000080000000048
:105300000000000000000000000000000000001885
:10531000000060000040000040000020000010007D
:10532000000800000400000400000C000010000051
:10533000000000000000000000000000000000006D
:10534000000000000000000000000000000000005D
:10535000000000000000000000000000000000004D
:10536000000000000000000000000000000000003D
:10537000000000000000000000000000000000002D
:10538000000000000000000000000000000000001D
:10539000000000000000000000000000000000000D
:1053A00000000000000000000000000000000000FD
:1053B00000000000000000000000000000000000ED
:1053C000000000000000000007F000C007FFE1E05F
:1053D00007F001E0000000C0000000000000000035
:1053E00000000000000000000000000000000000BD
:1053F00000000000000000000000000000000000AD
:10540000000000000000000000000000000000009C
:10541000000000000000000000000000000000008C
:10542000000000000000000000000000000000007C
:1054300000000000000000000020000001C000008B
:10544000078000001F0000001E0000001C2000005C
:1054500001C00000078000001F0000001E000000C7
:105460001C00000000000000000000000000000020
:10547000000000000000000000000000000000002C
:10548000000000000000000000000000000000001C
:10549000000000000000000000000000000000000C
:1054A00000000000000000000000000000000000FC
:1054B0000000000000180C0000180C0000180FE09D
:1054C000001FFC0003F80C0000180C0000180C0072
:1054D00000180C0000180C0000180FE0001FFC0062
:1054E00003F80C0000180C0000180C00000000006D
:1054F00000000000000000000000000000000000AC
:10550000000000000000000000000000000000009B
:10551000000000000000000000000000000000008B
:10552000000000000000000000000000000000007B
:10553000000000000000000000000780007807C0A5
:1055400000FC0640010E002003070020020380201B
:105550000FFFFFFC0201C0200200E060013070403C
:1055600001F03F8000F01F0000000000000000007C
:10557000000000000000000000000000000000002B
:10558000000000000000000000000000000000001B
:10559000000000000000000000000000000000000B
:1055A00000000000000000000000000000000000FB
:1055B00000FE000001FF0000030180000200806087
:1055C000030181C001FF070000FE18000000E00099
:1055D0000003BF00000CFFC00071806001C100200B
:1055E000030180600000FFC000003F0000000000D9
:1055F00000000000000000000000000000000000AB
:10560000000000000000000000000000000000009A
:10561000000000000000000000000000000000008A
:10562000000000000000000000000000000000007A
:1056300000001F0000007FC000FCC0C001FF8060B0
:105640000303E0200202782002061E2003FC07402C
:1056500001F00380000103C000011C600001E02094
:105660000001002000010040000001800000000057
:10567000000000000000000000000000000000002A
:10568000000000000000000000000000000000001A
:10569000000000000000000000000000000000000A
:1056A00000000000000000000000000000000000FA
:1056B00000000000002000001C6000001C400000F2
:1056C0001F8000000F00000000000000000000002C
:1056D00000000000000000000000000000000000CA
:1056E00000000000000000000000000000000000BA
:1056F00000000000000000000000000000000000AA
:105700000000000000000000000000000000000099
:105710000000000000000000000000000000000089
:105720000000000000000000000000000000000079
:105730000000000000000000000000000000000069
:105740000000000000000000000000000007F8005A
:10575000003FFF00007807C001C000E003000030F8
:10576000040000080800000410000002000000000F
:105770000000000000000000000000000000000029
:105780000000000000000000000000000000000019
:105790000000000000000000000000000000000009
:1057A00000000000000000000000000000000000F9
:1057B00000000000100000020800000404000008BF
:1057C0000300003001C000E0007807C0003FFF0088
:1057D0000007F800000000000000000000000000CA
:1057E00000000000000000000000000000000000B9
:1057F00000000000000000000000000000000000A9
:105800000000000000000000000000000000000098
:105810000000000000000000000000000000000088
:105820000000000000000000000000000000000078
:105830000000000000000000000C1800000E3800FE
:10584000000E380000063000000360000061438055
:1058500000FFFF800061430000036000000630008D
:10586000000E3800000E3800000C18000000000088
:105870000000000000000000000000000000000028
:105880000000000000000000000000000000000018
:105890000000000000000000000000000000000008
:1058A00000000000000000000000000000000000F8
:1058B00000000000000000000000800000008000E8
:1058C00000008000000080000000800000008000D8
:1058D000007FFF00000080000000800000008000CA
:1058E0000000800000008000000080000000000038
:1058F00000000000000000000000000000000000A8
:105900000000000000000000000000000000000097
:105910000000000000000000000000000000000087
:105920000000000000000000000000000000000077
:105930000000000000000001000000E3000000E2A1
:10594000000000FC000000780000000000000000E3
:105950000000000000000000000000000000000047
:105960000000000000000000000000000000000037
:105970000000000000000000000000000000000027
:105980000000000000000000000000000000000017
:105990000000000000000000000000000000000007
:1059A00000000000000000000000000000000000F7
:1059B0000000000000008000000080000000800067
:1059C00000008000000080000000800000008000D7
:1059D00000008000000080000000800000008000C7
:1059E0000000800000008000000080000000000037
:1059F00000000000000000000000000000000000A7
:105A00000000000000000000000000000000000096
:105A10000000000000000000000000000000000086
:105A20000000000000000000000000000000000076
:105A30000000000000000000000000C0000001E0C5
:105A4000000001E0000000C00000000000000000B5
:105A50000000000000000000000000000000000046
:105A60000000000000000000000000000000000036
:105A70000000000000000000000000000000000026
:105A80000000000000000000000000000000000016
:105A90000000000000000000000000000000000006
:105AA00000000000000000000000000000000000F6
:105AB000000000000000000C00000038000000E0C2
:105AC0000000038000000E00000038000000E0002D
:105AD00000038000000E00000038000000E000001D
