:020000040800F2
:100000001030002049010008D90700086D040008DD
:10001000D507000833020008A711000800000000FF
:100020000000000000000000000000002909000896
:100030003702000800000000F10700083D0A000830
:100040006301000863010008630100086301000800
:1000500063010008630100086301000863010008F0
:1000600063010008630100086301000863010008E0
:1000700063010008630100086301000863010008D0
:1000800063010008630100086301000863010008C0
:1000900063010008630100086301000863010008B0
:1000A00063010008630100086301000863010008A0
:1000B0006301000863010008630100086301000890
:1000C0006301000863010008630100086301000880
:1000D0006301000863010008630100086301000870
:1000E0006301000863010008630100086301000860
:1000F0006301000863010008630100086301000850
:10010000630100086301000863010008630100083F
:10011000630100086301000863010008630100082F
:10012000630100086301000863010008630100081F
:10013000DFF810D000F05CF8004800471D1B0008F5
:10014000AFF3008010300020064880470648004783
:10015000FEE7FEE7FEE7FEE7FEE7FEE7FEE7FEE777
:10016000FEE7FEE77D0A0008310100082DE9F05F97
:100170000546002092469B46884606468146402416
:100180001BE0284641464746224600F020F85346E9
:100190005A46C01A914110D311461846224600F023
:1001A00039F82D1A67EB01084F462246012000213D
:1001B00000F030F817EB00094E41201EA4F10104B5
:1001C000DFDC484631462A464346BDE8F09F202AF8
:1001D00004DB203A21FA02F00021704721FA02F3F1
:1001E000D040C2F1200291400843194670470000F8
:1001F000064C074D06E0E06840F0010394E8070074
:1002000098471034AC42F6D3FFF796FF3C6B0008DA
:100210005C6B0008202A04DB203A00FA02F100207F
:1002200070479140C2F1200320FA03F31943904034
:10023000704700BFFEE7704751B18200A2F1C04293
:10024000126842F001038200A2F1C042136009E08B
:100250008200A2F1C0421268034B1A408300A3F14E
:10026000C0431A6070470000FEFF0F00D0E9011282
:100270001143C26811430269114342691143826903
:100280001143C2691143026A1143426A1143826AEF
:100290001143C26A1143026B114302689200A2F13A
:1002A000C0421160816808290BD101688900A1F161
:1002B000C041096841F0400201688900A1F1C041D4
:1002C0000A60416B0968426B526841EA0211426B55
:1002D000926841EA0221426B928941EA0241426BF3
:1002E000128A41EA0251426B127D41EA0261426B7D
:1002F000926911430268521C9200A2F1C04211603F
:10030000C16AB1F5804F1BD1816B0968826B52685D
:1003100041EA0211826B926841EA0221826B128AE1
:1003200041EA0251826B127D41EA0261826B92695D
:10033000114302689200A2F1C042C2F8041107E022
:100340006FF0704201688900A1F1C041C1F8042139
:1003500070472DE9F04102460025002600200023C9
:100360000024002791F803C00CF00F0591F803C09A
:100370000CF0100CBCF1000F03D091F802C04CEA55
:10038000050591F800C0BCF1000F31D014680020C1
:100390002BE04FF0010C0CFA00F3B1F800C00CEAAE
:1003A00003069E4220D183004FF00F0C0CFA03F796
:1003B000BC4305FA03FC4CEA040491F803C0BCF109
:1003C000280F06D14FF0010C0CFA00FCC2F814C043
:1003D0000AE091F803C0BCF1480F05D14FF0010CC1
:1003E0000CFA00FCC2F810C0401C0828D1D31460DD
:1003F000B1F800C0BCF1FF0F34DD546800202EE0DE
:1004000000F1080C4FF0010808FA0CF3B1F800C035
:100410000CEA03069E4221D183004FF00F0C0CFA28
:1004200003F7BC4305FA03FC4CEA040491F803C04B
:10043000BCF1280F05D100F1080C08FA0CF8C2F83D
:10044000148091F803C0BCF1480F07D100F1080CEB
:100450004FF0010808FA0CF8C2F81080401C082878
:10046000CED35460BDE8F0810161704700BFFEE764
:1004700070B506460F484088401E83B20D4800887C
:10048000401E82B20021084600F07CF800240CE0F7
:10049000002504E0304600F06FF9681C85B205487D
:1004A0004088A842F6DC601C84B202480088A04262
:1004B000EEDC70BD3E00002000B502460F488271A0
:1004C0006AB9362000F04CF94C2000F04FF94FF497
:1004D000F0700A4948804FF4A07008800CE0362084
:1004E00000F03EF92C2000F041F94FF4A0700349D0
:1004F00048804FF4F070088000BD00003E000020EE
:1005000070B504460D4616462B462246294620461F
:1005100000F038F8304600F02FF970BD2DE9F043B7
:1005200004460D4616461F46DDF81C80B44201DC29
:10053000BD4201DDBDE8F0833B46324629462046F8
:1005400000F020F8301B401C84B2781B401C85B2A0
:100550000BE0A94602E0404600F00EF9B9F10000B8
:10056000A9F101011FFA81F9F5D1201EA4F10101C1
:100570008CB2EED100BFDDE7014800887047000073
:100580000008006C30B504460D462A2000F0E8F85B
:10059000201200F0EBF8E0B200F0E8F8101200F0E2
:1005A000E5F8D0B200F0E2F82B2000F0D9F82812DC
:1005B00000F0DCF8E8B200F0D9F8181200F0D6F834
:1005C000D8B200F0D3F82C2000F0CAF830BD0000FB
:1005D0002DE9F84F80460E4617461C46B346204686
:1005E000E31704EB5373DB1021464FEAE47C04EB82
:1005F0005C7C4FEAEC0CA4EBCC0CBCF1000F02D0FD
:100600004FF0010C01E04FF0000C6344224604EB74
:10061000D27C4FEA6C0C03FB0CF3DBB20093A7F126
:100620002000C7B2002556E00C2C07D107EB47008D
:100630002B4901EB800010F8059013E0102C05D138
:10064000284800EB071010F805900BE0182C07D194
:1006500007EBC700244901EB800010F8059001E08A
:10066000BDE8F88F4FF0000A2FE009F0800030B1AC
:100670001E48028831464046FFF742FF07E00A98CD
:1006800028B91B48028831464046FFF739FF4FEA38
:1006900049604FEA1069701C86B216484088B04223
:1006A00000DCDDE7A6EB0B00A0420AD15E4608F1B4
:1006B00001001FFA80F80F480088404500DCCFE7B2
:1006C00006E00AF1010000F0FF0ABAF1080FCCDBE6
:1006D00000BF681CC5B200988542A5DB00BFBFE71C
:1006E0002422000898260008882C00083A000020E0
:1006F0003C0000203E0000202DE9F84704460D464E
:1007000090469946DDE9096704F0FF0A08EB04000A
:100710001FFA80F809EB05001FFA80F916E044453E
:1007200002DB5446A81985B24D4500DB14E00020D9
:1007300000903A78334629462046FFF749FF304675
:1007400006EBD07104EB61018CB27F1C38787E28F7
:1007500002DC38782028E2DA00BFBDE8F887000024
:100760000149088070470000FE07006C01490880BD
:10077000704700000008006C0112024A1180C1B2EB
:10078000118070470008006C08B50121482000F076
:1007900051F82020ADF8000010208DF80300032050
:1007A0008DF8020069460948FFF7D3FD202107486C
:1007B000FFF75AFE2020ADF8000069460448FFF715
:1007C000C8FD20210248FFF74FFE08BD000C014084
:1007D0000018014000BFFEE77047000002490143D6
:1007E000024A1160704700000000FA050CED00E0BD
:1007F0007047000029B1064A52690243044B5A610E
:1008000004E0034A52698243014B5A617047000079
:100810000010024029B1064AD2690243044BDA6152
:1008200004E0034AD2698243014BDA617047000059
:100830000010024029B1064A92690243044B9A61B2
:1008400004E0034A92698243014B9A6170470000B9
:100850000010024030B500210022002400232D4D5D
:100860006D6805F00C0121B1042905D0082923D1B8
:1008700005E0294D056022E0274D05601FE0254D6C
:100880006D6805F47012234D6D6805F480340225FF
:1008900005EB92421CB9214D554305600BE01D4DFF
:1008A0006D6805F400351DB11C4D5543056002E02F
:1008B000194D5543056002E0174D056000BF00BFAC
:1008C000144D6D6805F0F0010909154D6B5C056864
:1008D000DD4045600F4D6D6805F4E061090A104D7B
:1008E0006B5C4568DD4085600A4D6D6805F46051BC
:1008F000C90A0B4D6B5C4568DD40C560054D6D68F0
:1009000005F44041890B074D6B5CC568B5FBF3F5F9
:10091000056130BD0010024000127A0000093D0060
:100920002600002036000020704710B500F002F8C5
:1009300010BD00000CB50020019000903348006805
:1009400040F480303149086000BF3048006800F44E
:10095000003000900198401C0190009818B901984F
:10096000B0F5A06FF1D12948006800F4003010B153
:100970000120009001E0002000900098012843D160
:100980002348006840F010002149086008460068CC
:1009900020F0030008600846006840F0020008608C
:1009A0001A48406819494860084640684860084647
:1009B000406840F4806048600846406820F47C103D
:1009C00048600846406840F4E810486008460068FF
:1009D00040F08070086000BF0C48006800F00070B4
:1009E0000028F9D00948406820F003000749486012
:1009F0000846406840F00200486000BF0348406875
:100A000000F00C000828F9D10CBD000000100240D5
:100A100000200240042808D14FF0E021096941F08C
:100A200004014FF0E022116107E04FF0E021096975
:100A300021F004014FF0E02211617047704700007F
:100A400010B504466FF00400FFF7E4FFE11704EB74
:100A50005171C1F3C701074A11701046007800EBCD
:100A60004001C1EBC0104FF6FF7101EAC00002491E
:100A7000088010BD460000204800002010B5134833
:100A8000006840F0010011490860084640681049BC
:100A900008400E494860084600680E4908400B4966
:100AA00008600846006820F4802008600846406816
:100AB00020F4FE0048604FF41F008860FFF735FF08
:100AC0004FF000600449086010BD000000100240B3
:100AD0000000FFF8FFFFF6FE08ED00E000B59DB056
:100AE00001210802FFF786FE0120079000200890F0
:100AF0000F20099000200A900B900C900D9015206B
:100B00000090019005200290002003900490059031
:100B1000069006200E9000200F901090102011904B
:100B20000020129014901390159016904FF480505E
:100B30001790002018904FF48040199000201A90D0
:100B400007A81B90CDF870D00EA8FFF78FFB0121EE
:100B50000620FFF771FB1DB000BD000008B50121A4
:100B60004FF4B470FFF766FE4CF23370ADF800003E
:100B700018208DF8030003208DF8020069461848FC
:100B8000FFF7E7FB4FF68070ADF8000018208DF8F6
:100B9000030003208DF8020069461248FFF7D9FBD5
:100BA00041F20100ADF8000018208DF80300032089
:100BB0008DF8020069460C48FFF7CBFB0120ADF829
:100BC000000010208DF8030003208DF80200694614
:100BD0000648FFF7BEFB01200549086008BD00007C
:100BE000001401400018014000200140000C0140A9
:100BF0008081214210B5FFF7B1FFFFF76FFF322070
:100C000000F070FDD020FFF7ABFDFFF7B5FC894980
:100C10008880FFF7B1FC874988800846818886A0D4
:100C200000F0C4FA1120FFF79BFD4FF4FA7401E0C5
:100C3000601E84B2002CFBDCB920FFF791FDFF2081
:100C4000FFF794FD8320FFF791FD5720FFF78EFDFE
:100C50004FF4FA7401E0601E84B2002CFBDCB1207A
:100C6000FFF77EFD0020FFF781FD1420FFF77EFDDA
:100C70001C20FFF77BFD1C20FFF778FDC320FFF74A
:100C800075FD4420FFF772FD7020FFF76FFD4FF4F4
:100C9000FA7401E0601E84B2002CFBDCB420FFF784
:100CA0005FFD2220FFF762FD4020FFF75FFD00207F
:100CB000FFF75CFD2A20FFF759FD2A20FFF756FDBC
:100CC0002020FFF753FD9120FFF750FD4FF4FA74F9
:100CD00001E0601E84B2002CFBDC3620FFF740FDF3
:100CE0004C20FFF743FDC020FFF73AFD5020FFF7EF
:100CF0003DFD5020FFF73AFD0120FFF737FD3C2076
:100D0000FFF734FDC820FFF731FD0820FFF72EFD67
:100D10000020FFF72BFD0820FFF728FD0420FFF738
:100D200025FD4FF4FA7401E0601E84B2002CFBDC58
:100D30004FF4FA7401E0601E84B2002CFBDCE0206A
:100D4000FFF70EFD0B20FFF711FD1120FFF70EFD41
:100D50001E20FFF70BFD3020FFF708FD3A20FFF7BC
:100D600005FD4320FFF702FD4E20FFF7FFFC562054
:100D7000FFF7FCFC4520FFF7F9FC3F20FFF7F6FCEE
:100D80003920FFF7F3FC3220FFF7F0FC2F20FFF7AC
:100D9000EDFC2A20FFF7EAFC2920FFF7E7FC2120E1
:100DA000FFF7E4FC0B20FFF7E1FC1120FFF7DEFC6E
:100DB0001E20FFF7DBFC3020FFF7D8FC3A20FFF7BE
:100DC000D5FC4320FFF7D2FC4E20FFF7CFFC562086
:100DD000FFF7CCFC4520FFF7C9FC3F20FFF7C6FC1E
:100DE0003920FFF7C3FC3220FFF7C0FC2F20FFF7AC
:100DF000BDFC2A20FFF7BAFC2920FFF7B7FC212011
:100E0000FFF7B4FC0020FFF7B1FC0120FFF7AEFCB8
:100E10003A20FFF7A5FC0520FFF7A8FC2920FFF7E3
:100E20009FFC0020FFF748FB4FF6FF70FFF720FB09
:100E300010BD00003E000020204C43442049443AAD
:100E400025780D0A0000000038B50446012144F25F
:100E50000400FFF7EFFC4FF40070ADF80000032032
:100E60008DF8020018208DF8030069460948FFF745
:100E700070FA4FF48060ADF8000004208DF8030094
:100E800069460448FFF765FA2146034801F02EF948
:100E900038BD0000000801400038014070B504462C
:100EA0000D4645F6C05005FB00F22146014801F011
:100EB00036F970BD0038014070B504460D462A462B
:100EC0002146024801F041F970BD000000380140A0
:100ED00010B504462146024801F046F910BD000055
:100EE0000038014010B504462146024801F04BF994
:100EF00010BD00000038014038B50446012108202B
:100F0000FFF798FC01218804FFF784FC4FF4806010
:100F1000ADF8000003208DF8020018208DF80300C2
:100F200069460948FFF715FA4FF40060ADF8000074
:100F300004208DF8030069460348FFF70AFA2146AA
:100F4000024801F0D3F838BD000C014000480040D1
:100F500070B504460D4645F6C05005FB00F221462B
:100F6000014801F0DCF870BD0048004070B504464F
:100F70000D462A462146024801F0E7F870BD000000
:100F80000048004010B504462146024801F0ECF844
:100F900010BD00000048004010B50446214602483C
:100FA00001F0F1F810BD00000048004010B5044603
:100FB0002046FFF749FF2046FFF79EFF10BD21B1F5
:100FC000828942F40052828104E082894DF6FF73E7
:100FD0001A408281704702460020B1F5007F00D19F
:100FE00000BF13880B400BB1012000E000207047C8
:100FF0002DE9F04786B005460E460024A24600BF04
:10100000A1460027B08900B100BF2F462C8A4CF6BC
:10101000FF700440F08804432C82AC894EF6F31034
:101020000440B08831890843718908430443AC8186
:10103000AC8A4FF6FF400440B0890443AC8201A85B
:10104000FFF708FC1F48874202D1DDF810A001E03D
:10105000DDF80CA0A88900F4004040B10AEBCA00FA
:1010600000EB0A1031684900B0FBF1F807E00AEB29
:10107000CA0000EB0A1031688900B0FBF1F8642067
:10108000B8FBF0F004012009642101FB1089A88954
:1010900000F4004040B1322000EBC900B0FBF1F099
:1010A00000F00700044308E0322000EB091064213F
:1010B000B0FBF1F000F00F0004432C8106B0BDE856
:1010C000F0870000003801402DE9F04105460E464A
:1010D000144645F6C05006FB00F719E020211048E1
:1010E000FFF779FF38B10E4800F02EF82870012084
:1010F0002070BDE8F08120210A48FFF76CFF38B16D
:10110000084800F021F82870032020700120F0E743
:10111000381EA7F10107E1D1207000BFE9E7000008
:10112000003801400048004070B504460D461646A0
:10113000032C04D131462846FFF70AFF70BD314623
:101140002846FFF7ABFEF9E701468888C0F30800A0
:10115000704770B506460C461546032E04D1294645
:101160002046FFF703FF03E029462046FFF7A4FED1
:1011700070BD70B505460C46032D03D12046FFF720
:1011800001FF02E02046FFF7A3FE70BDC1F3080295
:101190008280704710B504462046FFF7A3FE204624
:1011A000FFF7FAFE10BD00BFFEE700000FB4054BCD
:1011B00010B503A9044A029800F02CF810BC5DF8A1
:1011C00014FB0000691700084C0000200FB4084B06
:1011D00010B504A902AA039800F01CF8044602A95D
:1011E000002000F042FA204610BC5DF814FB00001D
:1011F0006B16000802E008C8121F08C1002AFAD1C5
:1012000070477047002001E001C1121F002AFBD186
:10121000704700002DE9FF4F8DB00F4605460026B0
:1012200006E025280BD0DDE90F1290476D1C761CD7
:1012300028780028F5D111B03046BDE8F08F0024A1
:10124000A246A1460122E94900E0044315F8013F06
:10125000203B02FA03F00842F7D128782A2810D060
:101260006FF02F022878A0F13001092914D80AEB79
:101270008A0102EB410144F0020400EB010A6D1CFB
:10128000F0E701CF5FEA000A03D544F40054CAF145
:10129000000A44F002046D1C28782E2817D115F896
:1012A000010F44F004042A280ED06FF02F02287892
:1012B000A0F1300109290AD809EB890102EB4101AB
:1012C00000EB01096D1CF2E757F8049B6D1C2878B0
:1012D0006C280FD006DC4C2817D068280DD06A285F
:1012E00014D104E0742810D07A280FD10DE044F412
:1012F00000140AE044F4801401E044F440146978D6
:10130000814202D104F580146D1C6D1C28786E2872
:101310001ED00CDC632830D004DC00288BD0582889
:1013200011D19FE0642867D069280CD164E073284C
:101330002DD004DC6F2872D0702804D194E0752879
:101340006ED078286DD0DDE90F129047761C4BE106
:10135000C4F30250022806D0032809D0042801CF84
:1013600009D0066040E101CFF117C0E900613BE11F
:1013700001CF068038E1067036E117F8040B8DF8CE
:10138000000000208DF80100EB46012003E057F833
:1013900004BB4FF0FF3061074FF0000102D40DE0B5
:1013A00008F10101884649450FDA8045F8DB1BF852
:1013B00008100029F4D108E008F1010188468142B3
:1013C000FADB1BF808100029F6D1DDE90F23AAEBA0
:1013D00008008146214600F031F9304400EB080650
:1013E00004E0DDE90F121BF8010B9047B8F101088A
:1013F000F7D221464846F2E00A21C4F302524FF0E8
:10140000000B0891022A04D001CFC117032A09D08A
:101410000AE0FF1D27F00707F7E8020108E02CE0CB
:101420001EE01FE000B2C117042A01D140B2C1176B
:10143000021E71F1000206DA0023D0EB030063EB19
:1014400001012D2202E0220504D52B228DF8242053
:10145000012203E0E20701D02022F7E7904653E0A3
:101460000A210BE0102109E010214FF0000B44F09D
:1014700004044FF00809089103E008214FF0000B25
:101480000891C4F30252022A04D001CF0021032A9A
:1014900006D006E0FF1D27F00707F7E8020103E08A
:1014A00080B2042A00D1C0B24FF0000822072BD529
:1014B0002A78702A07D0DDF820C08CF0100C5CEA86
:1014C0000B0C05D00EE040228DF82420012208E00C
:1014D00050EA010306D030238DF824308DF8252002
:1014E00002229046089B83F0080353EA0B030BD1BA
:1014F00050EA010201D1620706D530228DF824207E
:101500004FF00108A9F101092A78582A04D038A21D
:101510000B9208AA0A920BE03AA2F9E75B46089AF6
:10152000FEF724FE0B9B9B5C0A9A521E0A921370D4
:1015300050EA0102F2D10A98ADEB000000F1200B55
:10154000600702D524F4803401E04FF00109D94549
:1015500002DDA9EB0B0000E0002000EB0B01414491
:101560000890AAEB010AE00306D4DDE90F23214627
:10157000504600F063F806444FF0000908E009A95E
:1015800011F80900DDE90F12904709F10109761CF5
:10159000C145F4DBE0030CD5DDE90F2321465046BD
:1015A00000F04CF8064404E0DDE90F1230209047CB
:1015B000761C0899481E08900029F5DC08E00A9876
:1015C0000A990078491C0A91DDE90F129047761CB0
:1015D000BBF10001ABF1010BF1DC21465046DDE926
:1015E0000F2300F019F806446D1C21E609280100BC
:1015F0003031323334353637383961626364656689
:10160000000000003031323334353637383941424A
:1016100043444546000000002DE9F0410446002502
:101620001E461746880404D405E039462020B047FA
:101630006D1C641EF9D52846BDE8F0812DE9F04106
:10164000044600251E469046C80301D5302700E019
:101650002027880404D505E041463846B0476D1C74
:10166000641EF9D52846BDE8F0810A68531C0B605A
:10167000107070472DE9F04104460026002014E068
:1016800000250EE09E420ADA31F81080374606F156
:10169000010C1FFA8CF6DFF81CC02CF817806F1CA9
:1016A000BDB29542EEDB471CB8B2A042E8DBBDE814
:1016B000F0810000D025002080EA012000220EE009
:1016C00000F400432BB141F2210383EA400398B2B6
:1016D00003E04FF6FF7303EA4000531CDAB2082A16
:1016E000EEDB704770B504464FF4077094FBF0F0E2
:1016F000C6B24FF4077094FBF0F100FB114085B2C5
:1017000005E04FF4077000F009F8701EC6B2002E15
:10171000F7D115B1284600F001F870BD0146114A15
:1017200012884A434FF0E0235A6100229A611A4618
:10173000126942F001021A6100BF4FF0E022106905
:1017400000F001021AB100F48032002AF5D04FF007
:10175000E022126922F001024FF0E0231A61002218
:101760009A6170474800002070B504460D46E0B20B
:10177000FFF7AEFBE0B2FFF705FC204670BD0000AE
:1017800001460A2918D2DFE801F0180507090B0DF8
:101790000F1113150AA070470BA0FCE70CA0FAE785
:1017A0000CA0F8E70DA0F6E70DA0F4E70EA0F2E715
:1017B0000FA0F0E70FA0EEE700BF0FA0EBE70000DF
:1017C00049444C450000000053594E4300000000BE
:1017D000484452004844544F000000004C454E001D
:1017E0005059544F000000004352544F0000000075
:1017F000435243004F4B0000574149540000000042
:101800001CB54FF6FF701A4908800020194908805E
:10181000FEF72EFE18A01021CDE900101B4802880B
:1018200018230C210846FEF767FF19A01021CDE907
:10183000001016480288182328210C20FEF75CFFB0
:1018400018A01021CDE90010104802881823442167
:101850000C20FEF751FF1AA01021CDE900100B4813
:101860000288182360210C20FEF746FF1CBD0000F3
:101870003A0000203C000020505A313033204361B0
:101880006D657261204C4344000000003E00002062
:1018900055415254206672616D65207265636569B9
:1018A0007665720057616974696E6720666F722091
:1018B00050432063616D6572612E2E2E0000000082
:1018C00055415254312F5553415254332061757450
:1018D0006F20646574656374000000001CB52048C7
:1018E000008884084FF478400090601E82B2DB23A9
:1018F00082210020FEF712FE4FF4FC6000900120D0
:10190000C0EB440082B2DB2382212046FEF706FEB4
:101910001F2004EB4401491E8AB24FF6FF7100906C
:1019200001EA4400DB238221FEF7F8FD4FF6FF7049
:101930000B4900900988491E8AB204EB4400DB235E
:101940008221FEF7EBFD07A01021CDE9001004482D
:1019500002881823E6210C20FEF7CEFE1CBD0000F5
:101960003E00002053656C662D746573743A2052F6
:1019700047425720626172730000000010B590B0BA
:101980004FF6FF703B49088040F2CF103A4908807B
:1019900000903A480088401E82B227230021084662
:1019A000FEF7BCFD364800680090364803683648AC
:1019B000027836A104A8FFF709FC04A81021CDE99C
:1019C00000102E4802880B4602210420FEF794FEE8
:1019D00034480078FFF7D4FE044633480088334982
:1019E0000988334A1278CDE9002102903148037802
:1019F000224631A104A8FFF7E9FB04A81021CDE994
:101A000000101E4802880B4614210420FEF774FEC5
:101A10002F4803882F4802882FA104A8FFF7D6FB80
:101A200004A81021CDE90010144802880B460221B9
:101A3000B420FEF761FE2C4800682C4909682C4A46
:101A40001278CDE9002102902A4803782A480278CA
:101A50002AA104A8FFF7BAFB04A81021CDE90010C1
:101A6000064802880B461421B420FEF745FE10B04C
:101A700010BD00003A0000203C0000203E00002085
:101A800008000020040000200C0000205345513ABB
:101A900025303375204F4B3A256C75204241443A2E
:101AA000256C750016000020120000201400002094
:101AB0000E0000200D00002053543A257320257598
:101AC00078257520433A253034582F253034580076
:101AD00018000020100000204C454E3A2575204487
:101AE000543A253034580000200000201C0000200B
:101AF00025000020240000201B000020553A2575F9
:101B000020423A253032584025752052313A256C12
:101B1000752052333A256C75000000001CB5482032
:101B2000FEF78EFF4FF4A060FEF758FE4FF4E12061
:101B3000FFF73CFAFEF728FEFFF75CF80120FEF7FE
:101B4000BBFC0120274908602749C1F894012749B7
:101B50000860FFF755FEFFF7C1FEFFF70FFF24A057
:101B6000FFF718FB4FF4E12125A0FFF71FFB2748E3
:101B700083884288018826A0FFF718FB3C22502169
:101B800029A0FFF713FB2FA0FFF706FA31A0FFF7FC
:101B900003FA00BF684600F087F8044604B9F9E785
:101BA000012C08D11148006808B9012000E000208C
:101BB0000E490860EEE79DF801109DF8000000F066
:101BC00085F9FFF7DBFE07481430006808B90120EB
:101BD00000E00020034914310860062000F02AFAD2
:101BE000D8E70000808121420080214294012342F5
:101BF00043414D4C43442052454144590D0A000095
:101C0000626175643D256C750D0A00003E00002080
:101C10006C63643D25757825752069643D307825B1
:101C20003034580D0A0000006672616D655F6D61A9
:101C3000783D2575782575207267623536350D0A31
:101C400000000000626175643D3436303830300D7C
:101C50000A0000006672616D655F6D61783D383025
:101C6000783630207267623536350D0A0000000084
:101C7000094A1170094A1070032805D1084A1268F0
:101C8000521C074B1A6006E0012804D1054A12686D
:101C9000521C044B1A6070472400002025000020CD
:101CA000200000201C0000202DE9FC4704464FF6D0
:101CB000FF7700F075FA8146B9F1000F0AD10120D3
:101CC00078490870002078490880FFF757FE002007
:101CD000BDE8FC87B9F1020F06D1734801880220E4
:101CE00000F08CF90120F3E7204600F0E9F928B96B
:101CF0000121042000F082F90120E9E7601C00F0D6
:101D0000DFF928B90221042000F078F90120DFE78B
:101D1000A01C00F0D5F928B90321042000F06EF9C9
:101D20000120D5E701A800F0CBF928B90421084625
:101D300000F064F90120CBE7684600F0C1F928B94A
:101D40000521042000F05AF90120C1E79DF80400A4
:101D50009DF8001040EA0120A080A0785349087047
:101D6000207853490870607852490870A088524919
:101D70000880002051490880514908804A4908805C
:101D8000207838B1607828B12078502802DC60785B
:101D90003C2808DD6078227840EA0221032000F028
:101DA0002DF9012094E72078617800FB01F6A088E6
:101DB0004FF6FF7101EA4601884208D04FF6FF70E6
:101DC00000EA4601052000F019F9012080E700250E
:101DD00030E001A800F074F940B94FF6FF7000EA56
:101DE0004501062000F00AF9012071E7684600F07D
:101DF00067F940B9012000EB450081B2062000F0F0
:101E0000FDF8012064E79DF804103846FFF754FC04
:101E100007469DF800103846FFF74EFC07469DF830
:101E200004009DF8001040EA0120264921F8150021
:101E3000681C85B2B542CCDB01A800F041F928B995
:101E40000021072000F0DAF8012041E7684600F0A1
:101E500037F928B90121072000F0D0F8012037E731
:101E60009DF804009DF8001040EA012813480780FF
:101E70001348A0F80080B84506D087EA080108207A
:101E800000F0BCF8012023E7092006490870002073
:101E9000054908800C480068401C0B490860022076
:101EA00016E7000016000020180000200C0000209B
:101EB0000D0000200E000020100000201200002065
:101EC0001400002050000020040000202DE9F04FF5
:101ED00087B004460D4604B115B907B0BDE8F08FD0
:101EE0004148008890FBF4F01FFA80F93E48408892
:101EF0002C381FFA80FA9AFBF5F086B2B9F1000F80
:101F000001D14FF0010906B9012604FB09F087B29F
:101F100005FB06F080B2069033480088C01BC0F372
:101F20004F0B0698AAEB00002C2101EB500080B269
:101F300005902E480078844203D12D4800788542D0
:101F400011D00020009028484088401E83B22648C7
:101F50000088401E82B22C210020FEF7DFFA2348C1
:101F60000470234805704FF0000839E008FB04F0C6
:101F7000204901EB400002903B464A462046029928
:101F8000FFF778FB0020049023E0059808FB06018A
:101F90000498084480B203900BEB0700401E82B205
:101FA000039B19465846FEF7EDFA0020019009E020
:101FB000114A019932F81100FEF7DEFB0198401C2E
:101FC00080B201900198B842F2DB0498401C80B2C4
:101FD00004900498B042D8DB08F101001FFA80F8A1
:101FE000A845C3DB00BF78E73E00002000000020CA
:101FF0000100002050000020D025002070B50446CC
:102000000D46094804700948058009480068401CCD
:1020100007490860FFF7B2FC152000F00BF82046D6
:1020200000F012F870BD000016000020180000201B
:102030000800002010B50446214602480078FFF74A
:1020400098F810BD1A0000203EB5044621208DF8F6
:1020500000008DF80140144800788DF80200134804
:1020600000788DF80300124800788DF804001148BC
:1020700000788DF805000F48008800128DF80600E2
:102080000D4800788DF807000B48008800128DF885
:1020900008000A208DF809000A22694607480078DE
:1020A000FFF757F83EBD00000C0000200D00002097
:1020B0000E00002010000020180000201A00002050
:1020C00010B504464FF47A72214607480078FFF7AE
:1020D0002BF808B9002010BD217803480078FFF7DD
:1020E000C7FD0120F7E700001A0000207FB5054674
:1020F0000C4600940020ADF80400ADF80600ADF8E1
:102100000800ADF80C000C20ADF80A00694628461E
:10211000FEF76EFF01212846FEF751FF7FBD70B527
:1021200006460C4615460AE020213046FEF753FFCE
:1021300028B13046FFF708F82070012070BD281E36
:10214000A5F10105F0D100BFF8E770B506460C46D1
:10215000154604E014F8011B304600F005F8281E6F
:10216000A5F10105F6D170BD70B504460D4600BF5E
:1021700080212046FEF72FFF0028F9D0294620466F
:10218000FFF704F870BD70B505460C4604E014F87E
:10219000011B2846FFF7E8FF20780028F7D170BD23
:1021A0003EB50020029001900024009000BF6A46D6
:1021B0004FF47A7102A8FEF787FF18B9002016497C
:1021C00008703EBD9DF80000144908709DF800009D
:1021D000114908709DF808109DF80000FFF748FDB0
:1021E0009DF80800A52802D0601C84B2DFE701A892
:1021F000FFF766FF28B94FF42540094908800220FF
:10220000DFE79DF804005A2803D105480480012027
:10221000D7E7601C84B2CAE71B0000201A00002028
:102220001800002000000000000000000000000076
:10223000000000003F4000000000000000003000EF
:10224000400030004000000009000BC03D000BC002
:102250003D00090018C024407FE02240318000008A
:10226000180024C01B000D803240018003801C40F8
:1022700027401C8007400040100060000000000064
:10228000000000000000000000001F8020404020EF
:102290000000402020401F800000000009000600D0
:1022A0001F80060009000000040004003F800400B5
:1022B00004000000001000600000000000000000AA
:1022C00004000400040004000400000000000040BA
:1022D0000000000000000000002001C006003800DF
:1022E000400000001F802040204020401F80000050
:1022F000000010403FC000400000000018C0214016
:1023000022402440184000001080204024402440F7
:102310001B80000002000D0011003FC001400000C2
:102320003C80244024402440238000001F8024401F
:1023300024403440038000003000200027C03800D3
:10234000200000001B802440244024401B8000000B
:102350001C0022C0224022401F800000000000001C
:1023600008400000000000000000000004600000C1
:1023700000000000000004000A001100208040401E
:1023800009000900090009000900000000004040A0
:10239000208011000A0004001800200023402400BF
:1023A000180000001F802040274029401F400000E7
:1023B000004007C039000F0001C0004020403FC06E
:1023C000244024401B8000001F80204020402040EB
:1023D0003080000020403FC0204020401F8000008F
:1023E00020403FC024402E4030C0000020403FC06D
:1023F00024402E00300000000F00108020402240BA
:102400003380020020403FC0040004003FC0204051
:10241000204020403FC0204020400000006020209D
:1024200020203FC02000200020403FC024400B005F
:1024300030C0204020403FC020400040004000C04D
:102440003FC03C0003C03C003FC0000020403FC0F4
:102450000C4023003FC020001F802040204020402F
:102460001F80000020403FC02440240018000000CE
:102470001F802140214020E01FA0000020403FC0DD
:102480002440260019C0004018C0244024402240A7
:1024900031800000300020403FC02040300000006C
:1024A00020003F80004000403F80200020003E0090
:1024B00001C0070038002000380007C03C0007C0FA
:1024C00038000000204039C0060039C0204000001C
:1024D0002000384007C0384020000000304021C0B4
:1024E0002640384020C00000000000007FE040206F
:1024F00040200000000070000C000380004000003D
:102500000000402040207FE000000000000020008C
:10251000400020000000000000100010001000101B
:10252000001000100000000040000000000000004B
:10253000000002800540054003C0004020003FC06D
:102540000440044003800000000003800440044075
:102550000640000000000380044024403FC00040CB
:1025600000000380054005400340000000000440D7
:102570001FC0244024402000000002E00550055008
:102580000650042020403FC00440040003C0004027
:102590000000044027C000400000000000100010B0
:1025A000041027E00000000020403FC00140070069
:1025B00004C00440204020403FC0004000400000D4
:1025C00007C0040007C0040003C00000044007C0A7
:1025D0000440040003C000400000038004400440A5
:1025E00003800000041007F0045004400380000042
:1025F000000003800440045007F00010044007C0AE
:1026000002400400040000000000064005400540B0
:1026100004C00000000004001F80044000400000CF
:10262000040007800040044007C000400400070089
:1026300004C0018006000400060001C0070001C0BC
:1026400006000000044006C0010006C0044000006F
:102650000410071004E0018006000400000004409C
:1026600005C00640044000000000000004007BE0BC
:1026700040200000000000000000FFF0000000000B
:10268000000040207BE004000000000040008000CB
:10269000400020002000400000000000000000007A
:1026A00000000000000000000000000000001FCC3F
:1026B000000C000000000000000008003000600076
:1026C0000800300060000000022003FC1E200220F1
:1026D00003FC1E200220000000000E1811043FFF22
:1026E00010840C78000000000F0010840F3800C028
:1026F000077818840078000000780F8410C4112433
:102700000E9800E4008400080800680070000000D3
:10271000000000000000000000000000000007E0D2
:10272000181820044002000000004002200418187D
:1027300007E00000000000000240024001800FF0AE
:1027400001800240024000000080008000800FF8FD
:1027500000800080008000000001000D000E0000DD
:1027600000000000000000000000008000800080E9
:1027700000800080008000800000000C000C000041
:1027800000000000000000000000000600180060CB
:102790000180060018002000000007F0080810045F
:1027A0001004080807F000000000080408041FFCDB
:1027B000000400040000000000000E0C101410249F
:1027C000104411840E0C000000000C1810041104B9
:1027D000110412880C700000000000E003200424A3
:1027E00008241FFC0024000000001F98108411041E
:1027F0001104108810700000000007F00888110410
:10280000110418880070000000001C00100010FC6B
:1028100013001C001000000000000E38114410844A
:10282000108411440E38000000000700088C10448A
:102830001044088807F00000000000000000030CAE
:10284000030C000000000000000000000001010671
:102850000000000000000000000000800140022095
:1028600004100808100400000220022002200220A8
:1028700002200220022000000000100408080410BA
:10288000022001400080000000000E001200100C29
:10289000106C10800F00000003E00C1813E41424E7
:1028A00017C4082807D000000004003C03C41C40E3
:1028B000074000E4001C000410041FFC1104110474
:1028C00011040E880070000003E00C1810041004BE
:1028D000100410081C10000010041FFC1004100449
:1028E0001004080807F0000010041FFC1104110474
:1028F00017C410040818000010041FFC1104110074
:1029000017C010000800000003E00C1810041004A9
:1029100010441C780040000010041FFC108400804C
:10292000008010841FFC10040000100410041FFC21
:102930001004100400000000000300011001100149
:102940001FFE10001000000010041FFC1104038083
:102950001464181C1004000010041FFC1004000470
:1029600000040004000C000010041FFC1F0000FC09
:102970001F001FFC1004000010041FFC0C040300C7
:1029800000E010181FFC100007F0080810041004E5
:102990001004080807F0000010041FFC10841080C9
:1029A000108010800F00000007F008181024102479
:1029B000101C080A07F2000010041FFC110411008B
:1029C00011C011300E0C000400000E1C1104108404
:1029D000108410441C3800001800100010041FFC64
:1029E000100410001800000010001FF8100400046C
:1029F000000410041FF8100010001E0011E0001C5D
:102A0000007013801C0010001FC0103C00E01F006D
:102A100000E0103C1FC000001004180C163401C068
:102A200001C01634180C100410001C00130400FC24
:102A300013041C00100000000804101C1064108413
:102A400013041C04101800000000000000007FFEAA
:102A50004002400240020000000030000C000380F1
:102A60000060001C00030000000040024002400221
:102A70007FFE000000000000000000002000400079
:102A800040004000200000000001000100010001A2
:102A90000001000100010001000040004000200092
:102AA0000000000000000000000000980124014424
:102AB0000144014400FC000410001FFC00880104D4
:102AC000010400880070000000000070008801040C
:102AD0000104010400880000000000700088010467
:102AE000010411081FFC0004000000F80144014427
:102AF0000144014400C800000000010401040FFC6F
:102B00001104110411001800000000D60129012948
:102B1000012901C90106000010041FFC0084010006
:102B20000100010400FC000400000104190419FC68
:102B30000004000400000000000000030001010187
:102B4000190119FE0000000010041FFC00240040C1
:102B500001B4010C010400000000100410041FFC6B
:102B60000004000400000000010401FC0104010055
:102B700001FC0104010000FC010401FC00840100CF
:102B80000100010400FC0004000000F8010401043D
:102B90000104010400F80000010101FF00850104A7
:102BA000010400880070000000000070008801042B
:102BB0000104010501FF00010104010401FC00847E
:102BC0000104010001800000000000CC0124012468
:102BD000012401240198000000000100010007F811
:102BE0000104010400000000010001F800040004D9
:102BF0000004010801FC0004010001800170000CC8
:102C0000001001600180010001F0010C003001C0E2
:102C10000030010C01F0010000000104018C00747F
:102C20000170018C01040000010101810171000E9D
:102C3000001801600180010000000184010C0134D2
:102C400001440184010C00000000000000000000AD
:102C500001003EFC400240020000000000000000B5
:102C6000FFFF0000000000000000400240023EFCA8
:102C700001000000000000000000600080008000F3
:102C80004000400020002000000000000000000084
:102C90000000000000000000000000000000000034
:102CA0000000000000000000000000000000000024
:102CB00000000000000000000000000F80380FFE40
:102CC000380F803800000000000000000000000005
:102CD0000000000000000100000600000C000038A9
:102CE00000003100000600000C0000380000300039
:102CF000000000000000000061800067F807F98014
:102D00000061800061800061800061800067F807D9
:102D1000F98000618000000000000000000001C098
:102D2000E003E0F00630080418081FFFFE040E0858
:102D30000787F00381E000000000000001F00006BA
:102D40000C00040408060C7001F9C0000E00003BE2
:102D5000E000EC18070808040C180003E00000006D
:102D60000001E00007F003F818041C080417080726
:102D7000E1D003C0E00023B0003C080020080000C0
:102D800010000000000000010000310000320000CF
:102D90001C00000000000000000000000000000017
:102DA0000000000000000000000000000000000023
:102DB00000000000000000007F0001FFC00780F05D
:102DC0000C00181000042000020000000000002089
:102DD00000021000040C00180780F001FFC0007F03
:102DE00000000000000000000000000000000000E3
:102DF000000000004200006600006600003C000089
:102E0000180003FFC0001800003C000066000066C8
:102E10000000420000000000080000080000080058
:102E200000080000080001FFC000080000080000C2
:102E30000800000800000800000000000001000079
:102E40003100003200001C00000000000000000003
:102E50000000000000000000000000000000000072
:102E60000800000800000800000800000800000832
:102E70000000080000080000080000080000000032
:102E8000000000000000000038000038000038009A
:102E90000000000000000000000000000000000032
:102EA0000000000000000000000600001C00007090
:102EB000000180000E0000380000C0000700001C68
:102EC0000000300000000000000000007F8001FFD3
:102ED000E0038070060018040008040008060018CB
:102EE00003807001FFE0007F800000000000000010
:102EF000000001000801000801000803FFF807FFB7
:102F0000F8000008000008000008000000000000B1
:102F100000000001C03802C05804009804011804E1
:102F20000218040418061C1803F81801E0F8000041
:102F30000000000000000001C0E003C0F004000831
:102F400004080804080806180803F41801E7F0004C
:102F500001E0000000000000000000000300000D80
:102F60000000110000610000810803010807FFF85C
:102F70000FFFF80001080001080000000000000039
:102F800000E007FCD0060808061008061008061026
:102F900008061838060FF00607C000000000000001
:102FA000000000003F8001FFE003843002081804A5
:102FB0001008041008041008071810030FF0000789
:102FC000C000000000000000000003C00007000077
:102FD0000600000600F80607F806180006E00007DD
:102FE000000006000000000000000001E1E003F71F
:102FF000F0063410041808041808040C08040C081F
:1030000006161803F3F001C1E00000000000000004
:10301000F80003FC30030638040208040208040226
:10302000080404100308F001FFC0007F0000000046
:103030000000000000000000000000000000000090
:103040007038007038007038000000000000000088
:103050000000000000000000000000000000000070
:1030600000000000301A00301C00000000000000CA
:103070000000000000000000000000000000000848
:103080000000140000220000410000808001004088
:1030900002002004001008000800000000000000EA
:1030A000210000210000210000210000210000215A
:1030B000000021000021000021000021000000008C
:1030C00000000000000008000804001002002001B9
:1030D0000040008080004100002200001400000831
:1030E0000000000000000003C00004C00004000055
:1030F000080038080F380808380810000C3000079E
:10310000E00003C000000000000000003F8000FF5E
:10311000E0038070020F1006708804C088048308E2
:10312000047F8802C09003012000FE4000000800D8
:1031300000180001F8003E0801C20007020007E283
:103140000000FE00001FC80001F800003800000861
:1031500004000807FFF807FFF8040808040808043B
:10316000080804080806180803F41801E7F000012D
:10317000E0000000000000003F8001FFE0038070DD
:1031800002001804000804000804000804001006E7
:1031900000200780C000000004000807FFF807FFB8
:1031A000F8040008040008040008040018020010D5
:1031B00003807001FFE0007F80000000040008072A
:1031C000FFF807FFF80408080408080408080408C2
:1031D00008043E0804000806001801006000000012
:1031E00004000807FFF807FFF804080804080004B3
:1031F0000800040800043E000600000600000180EC
:1032000000000000000000003F8001FFE00380702C
:103210000600180400080402080402080203F0076C
:1032200083F000020000020004000807FFF807FF17
:10323000F804080800080000080000080000080062
:1032400004080807FFF807FFF80400080000000062
:10325000000004000804000804000807FFF807FF46
:10326000F804000804000804000800000000000042
:103270000000000000060000070000010400010437
:10328000000104000307FFFE07FFFC040000040028
:103290000004000004000807FFF807FFF8040C080A
:1032A000001800003E0004C7800503C80600F804AB
:1032B000003804001800000804000807FFF807FFA2
:1032C000F8040008000008000008000008000008DA
:1032D000000008000018000060000000040008075B
:1032E000FFF807800807FC00007FC00003F8000714
:1032F000C000780007800807FFF807FFF8040008FF
:1033000004000807FFF807000803C00000E0000001
:103310003800001E000007000001C00400F007FF95
:10332000F8040000000000007F8001FFE0038070CF
:103330000600180400080400080600180300300105
:10334000FFE0007F8000000004000807FFF807FF8F
:10335000F804040804040004040004040004040045
:10336000060C0003F80001F000000000000000005F
:103370007F8001FFE003807006008804008804005D
:10338000C806003C03003E01FFE6007F8400000009
:1033900004000807FFF807FFF80408080408000401
:1033A0000C00040F00040BC00610F003F03801E01D
:1033B0000800000800000001E0F803F030063010BB
:1033C000041808041808040C08040C080206180263
:1033D00007F00781E0000000018000060000040003
:1033E0000004000004000807FFF807FFF8040008C5
:1033F0000400000400000600000180000400000733
:10340000FFE007FFF00400180000080000080000BB
:103410000800000800000804001007FFE004000096
:1034200004000006000007E00007FE00041FE000A3
:1034300001F80000380001E0043E0007C00006006B
:103440000004000004000007E00007FFC0041FF8AC
:103450000007C007F80007FF80043FF80007C0041A
:10346000F800070000040000000000040008060047
:103470001807C07805F1C8003E00001F800463E80B
:103480000780F80600180400080000000400000689
:10349000000007800007E008047C08001FF8000710
:1034A000F800180804E00807000006000004000007
:1034B0000000000100080600380400F80403E804D6
:1034C0000F08047C0805F00807C00807001804006E
:1034D000600000000000000000000000000000008C
:1034E0000000003FFFFE200002200002200002201A
:1034F00000022000020000000000000000000800A0
:103500000007000000C0000038000006000001C0F5
:1035100000003000000E000001000000000000006C
:1035200000002000022000022000022000022000F3
:10353000023FFFFE0000000000000000000000004D
:103540000000000000000000000800001000003033
:103550000000200000300000100000080000000003
:103560000000000000000100000100000100000157
:103570000000010000010000010000010000010046
:103580000001000001000001000000000000000038
:1035900000200000200000100000100000000000CB
:1035A000000000000000000000000000000000001B
:1035B00000F00019F8001B1800220800260800245B
:1035C00008002410003FF8001FF800000800001851
:1035D00000000004000007FFF80FFFF000181800BB
:1035E0001008002008002008003018001FF0000F0D
:1035F000C00000000000000007C0001FF0001830ED
:10360000002008002008002008003C08001C1000D2
:1036100000600000000000000000000007C0001F64
:10362000F0003818002008002008002008041010BE
:1036300007FFF80FFFF0000010000000000000007E
:1036400000000007C0001FF0001230002218002206
:1036500008002208003208001E10000E20000000A2
:1036600000000000200000200800200801FFF803EF
:10367000FFF80620080420080420080720000300A3
:103680000000000000000000000E000E6E001FF39E
:103690000031B10020B10020B1003191001F1300B2
:1036A0002E1E00200E00300000000004000807FF5E
:1036B000F80FFFF80010080020000020000020088C
:1036C000003FF8001FF800000800000000000000A4
:1036D0000000002008002008002008063FF8063FF0
:1036E000F8000008000008000008000000000000CA
:1036F00000000000000000000300000300200100A3
:103700002001002003063FFE063FFC0000000000F1
:103710000000000000000004000807FFF80FFFF899
:10372000000188000300002FC00038F80020380096
:103730002008000008000000000000000000040055
:103740000804000804000807FFF80FFFF80000084D
:103750000000080000080000000000000020080031
:103760003FF8003FF8001008002000003FF8003F3D
:10377000F8001008002000003FF8003FF8000008A3
:10378000000000002008003FF8003FF8001008008B
:103790001000002000002008003FF8001FF8000083
:1037A000080000000000000007C0000FF000183003
:1037B0000030080020080020080030080018300001
:1037C0000FF00007C0000000000000002001003FD3
:1037D000FF003FFF00101100200900200800200812
:1037E000003038001FF0000FC00000000000000093
:1037F00007C0001FF0003818002008002008002033
:1038000009001011001FFF003FFF00000100000031
:10381000002008002008002008003FF8003FF800C2
:1038200008080010080020080020000030000030C8
:1038300000000000000000000000000C78001E18CE
:103840000033080023080021080021880021980087
:1038500030F0003860000000000000002000002070
:103860000000200000FFF003FFF8002008002008FF
:1038700000200800003000000000000000000000F0
:103880002000003FF0007FF8000018000008000052
:1038900008002010003FF8007FF00000100000003A
:1038A000000000002000003000003C00003F8000CD
:1038B00023F0000078000070002380003C000030FE
:1038C00000002000002000003C00003FE00023F842
:1038D0000000E0002700003E00003FE00021F8006B
:1038E00001E0003E00002000000000002008002051
:1038F00008003838003E680027800003C8002CF814
:1039000000383800201800200800000000000000E7
:103910002000003003003C01003F830023EC000046
:1039200070002380003C0000200000200000000008
:103930000000000000000038080020380020F800D7
:1039400023E8002F88003E080038080020180000F7
:1039500070000000000000000000000000000000F7
:103960000000000008000014001FF7FC30000620D3
:103970000002000000000000000000000000000045
:1039800000000000000000000000FFFFFF0000003A
:103990000000000000000000000000000000000027
:1039A00000002000023000061FF7FC001400000891
:1039B0000000000000000000000000000000000007
:1039C00000000018000060000040000040000020DF
:1039D00000001000000800000400000400000C00BB
:1039E00000100000000000000000000000000000C7
:1039F00000000000000000000000000000000000C7
:103A000000000000000000000000000000000000B6
:103A100000000000000000000000000000000000A6
:103A20000000000000000000000000000000000096
:103A30000000000000000000000000000000000086
:103A40000000000000000000000000000000000076
:103A50000000000000000000000000000000000066
:103A60000000000000000000000000000000000056
:103A700000000000000000000000000007F000C08F
:103A800007FFE1E007F001E0000000C000000000D7
:103A90000000000000000000000000000000000026
:103AA0000000000000000000000000000000000016
:103AB0000000000000000000000000000000000006
:103AC00000000000000000000000000000000000F6
:103AD00000000000000000000000000000000000E6
:103AE00000000000000000000000000000200000B6
:103AF00001C00000078000001F0000001E00000041
:103B00001C20000001C00000078000001F00000012
:103B10001E0000001C00000000000000000000006B
:103B20000000000000000000000000000000000095
:103B30000000000000000000000000000000000085
:103B40000000000000000000000000000000000075
:103B50000000000000000000000000000000000065
:103B6000000000000000000000180C0000180C000D
:103B700000180FE0001FFC0003F80C0000180C00F8
:103B800000180C0000180C0000180C0000180FE0C2
:103B9000001FFC0003F80C0000180C0000180C00BB
:103BA0000000000000000000000000000000000015
:103BB0000000000000000000000000000000000005
:103BC00000000000000000000000000000000000F5
:103BD00000000000000000000000000000000000E5
:103BE000000000000000000000000000000007804E
:103BF000007807C000FC0640010E002003070020EB
:103C0000020380200FFFFFFC0201C0200200E060E1
:103C10000130704001F03F8000F01F000000000004
:103C20000000000000000000000000000000000094
:103C30000000000000000000000000000000000084
:103C40000000000000000000000000000000000074
:103C50000000000000000000000000000000000064
:103C60000000000000FE000001FF000003018000D2
:103C700002008060030181C001FF070000FE180000
:103C80000000E0000003BF00000CFFC00071806076
:103C900001C10020030180600000FFC000003F0060
:103CA0000000000000000000000000000000000014
:103CB0000000000000000000000000000000000004
:103CC00000000000000000000000000000000000F4
:103CD00000000000000000000000000000000000E4
:103CE0000000000000001F0000007FC000FCC0C0FA
:103CF00001FF80600303E0200202782002061E20FC
:103D000003FC074001F00380000103C000011C60B8
:103D10000001E020000100200001004000000180BF
:103D20000000000000000000000000000000000093
:103D30000000000000000000000000000000000083
:103D40000000000000000000000000000000000073
:103D50000000000000000000000000000000000063
:103D60000000000000000000002000001C600000B7
:103D70001C4000001F8000000F0000000000000039
:103D80000000000000000000000000000000000033
:103D90000000000000000000000000000000000023
:103DA0000000000000000000000000000000000013
:103DB0000000000000000000000000000000000003
:103DC00000000000000000000000000000000000F3
:103DD00000000000000000000000000000000000E3
:103DE00000000000000000000000000000000000D3
:103DF00000000000000000000000000000000000C3
:103E00000007F800003FFF00007807C001C000E095
:103E10000300003004000008080000041000000245
:103E20000000000000000000000000000000000092
:103E30000000000000000000000000000000000082
:103E40000000000000000000000000000000000072
:103E50000000000000000000000000000000000062
:103E60000000000000000000100000020800000434
:103E7000040000080300003001C000E0007807C023
:103E8000003FFF000007F8000000000000000000F5
:103E90000000000000000000000000000000000022
:103EA0000000000000000000000000000000000012
:103EB0000000000000000000000000000000000002
:103EC00000000000000000000000000000000000F2
:103ED00000000000000000000000000000000000E2
:103EE000000000000000000000000000000C1800AE
:103EF000000E3800000E380000063000000360009D
:103F00000061438000FFFF80006143000003600008
:103F100000063000000E3800000E3800000C1800BB
:103F20000000000000000000000000000000000091
:103F30000000000000000000000000000000000081
:103F40000000000000000000000000000000000071
:103F50000000000000000000000000000000000061
:103F600000000000000000000000000000008000D1
:103F70000000800000008000000080000000800041
:103F800000008000007FFF00000080000000800033
:103F90000000800000008000000080000000800021
:103FA0000000000000000000000000000000000011
:103FB0000000000000000000000000000000000001
:103FC00000000000000000000000000000000000F1
:103FD00000000000000000000000000000000000E1
:103FE000000000000000000000000001000000E3ED
:103FF000000000E2000000FC00000078000000006B
:1040000000000000000000000000000000000000B0
:1040100000000000000000000000000000000000A0
:104020000000000000000000000000000000000090
:104030000000000000000000000000000000000080
:104040000000000000000000000000000000000070
:104050000000000000000000000000000000000060
:104060000000000000000000000080000000800050
:104070000000800000008000000080000000800040
:104080000000800000008000000080000000800030
:104090000000800000008000000080000000800020
:1040A0000000000000000000000000000000000010
:1040B0000000000000000000000000000000000000
:1040C00000000000000000000000000000000000F0
:1040D00000000000000000000000000000000000E0
:1040E000000000000000000000000000000000C010
:1040F000000001E0000001E0000000C0000000003E
:1041000000000000000000000000000000000000AF
:10411000000000000000000000000000000000009F
:10412000000000000000000000000000000000008F
:10413000000000000000000000000000000000007F
:10414000000000000000000000000000000000006F
:10415000000000000000000000000000000000005F
:1041600000000000000000000000000C000000380B
:10417000000000E00000038000000E000000380096
:104180000000E00000038000000E00000038000086
:1041900000E00000038000000E0000001800000096
:1041A000000000000000000000000000000000000F
:1041B00000000000000000000000000000000000FF
:1041C00000000000000000000000000000000000EF
:1041D00000000000000000000000000000000000DF
:1041E000000000000000000000000000000FF800C8
:1041F000007FFF0000F00780018000C00300006026
:1042000002000020020000200200002003000060E5
:10421000018000C000E00380007FFF00000FF80075
:10422000000000000000000000000000000000008E
:10423000000000000000000000000000000000007E
:10424000000000000000000000000000000000006E
:10425000000000000000000000000000000000005E
:10426000000000000000000000000000000000004E
:10427000008000200080002000800020008000607E
:1042800001FFFFE003FFFFE00000006000000020EE
:1042900000000020000000200000000000000000DE
:1042A000000000000000000000000000000000000E
:1042B00000000000000000000000000000000000FE
:1042C00000000000000000000000000000000000EE
:1042D00000000000000000000000000000000000DE
:1042E000000000000000000000000000007800E076
:1042F0000098016001000260020004600200086092
:104300000200106002002060020040600300806034
:104310000183006001FE00E0007C078000000000D7
:10432000000000000000000000000000000000008D
:10433000000000000000000000000000000000007D
:10434000000000000000000000000000000000006D
:10435000000000000000000000000000000000005D
:1043600000000000000000000000000000F00780D6
:1043700001F007C0010000400200002002010020FF
:1043800002010020020100200303802001868040FA
:1043900001FCC0C000787F8000001E00000000000B
:1043A000000000000000000000000000000000000D
:1043B00000000000000000000000000000000000FD
:1043C00000000000000000000000000000000000ED
:1043D00000000000000000000000000000000000DD
:1043E000000000000000000000000800000038008D
:1043F000000048000001880000060800000C0810BA
:10440000003008100040081001FFFFF003FFFFF02C
:1044100003FFFFF000000810000008100000081063
:10442000000000000000000000000000000000008C
:10443000000000000000000000000000000000007C
:10444000000000000000000000000000000000006C
:10445000000000000000000000000000000000005C
:1044600000000000000000000000000000000780C5
:10447000001F864003E10020030200200304002007
:10448000030400200304002003040020030600406E
:10449000030301C00301FF8003007E000000000051
:1044A000000000000000000000000000000000000C
:1044B00000000000000000000000000000000000FC
:1044C00000000000000000000000000000000000EC
:1044D00000000000000000000000000000000000DC
:1044E0000000000000000000000000000007FC00C9
:1044F000003FFF000070C380008180C001010060A8
:10450000030200200202002002020020020200201A
:104510000203004001C180C000C0FF8000007E0097
:10452000000000000000000000000000000000008B
:10453000000000000000000000000000000000007B
:10454000000000000000000000000000000000006B
:10455000000000000000000000000000000000005B
:1045600000000000000000000000000000F000005B
:1045700003C000000380000003000000030007E008
:1045800003003FE00301C000030600000318000021
:104590000360000003800000030000000000000032
:1045A000000000000000000000000000000000000B
:1045B00000000000000000000000000000000000FB
:1045C00000000000000000000000000000000000EB
:1045D00000000000000000000000000000000000DB
:1045E000000000000000000000001F0000783F8075
:1045F00000FC60C0018EC040030780200203002041
:1046000002018020020180200201C0200301E0405D
:10461000018670C000FC3F8000781F000000000091
:10462000000000000000000000000000000000008A
:10463000000000000000000000000000000000007A
:10464000000000000000000000000000000000006A
:10465000000000000000000000000000000000005A
:104660000000000000000000003F000000FF81C0CB
:1046700001C0C1C0010060200200202002002020F3
:104680000200202002002060020040C00100C18022
:1046900000C18F00007FFE00001FF000000000003E
:1046A000000000000000000000000000000000000A
:1046B00000000000000000000000000000000000FA
:1046C00000000000000000000000000000000000EA
:1046D00000000000000000000000000000000000DA
:1046E00000000000000000000000000000000000CA
:1046F000000000000000000000000000000300C0F7
:10470000000781E0000781E0000300C00000000016
:104710000000000000000000000000000000000099
:104720000000000000000000000000000000000089
:104730000000000000000000000000000000000079
:104740000000000000000000000000000000000069
:104750000000000000000000000000000000000059
:104760000000000000000000000000000000000049
:1047700000000000000000000000000000060066CD
:1047800000060078000000000000000000000000AB
:104790000000000000000000000000000000000019
:1047A0000000000000000000000000000000000009
:1047B00000000000000000000000000000000000F9
:1047C00000000000000000000000000000000000E9
:1047D00000000000000000000000000000000000D9
:1047E0000000000000000000000000000000800049
:1047F0000001C0000003600000063000000C18003B
:1048000000180C00003006000060030000C00180AA
:104810000100004002000020040000100000000021
:104820000000000000000000000000000000000088
:104830000000000000000000000000000000000078
:104840000000000000000000000000000000000068
:104850000000000000000000000000000000000058
:104860000000000000000000000410000004100020
:1048700000041000000410000004100000041000E8
:1048800000041000000410000004100000041000D8
:1048900000041000000410000004100000041000C8
:1048A0000000000000000000000000000000000008
:1048B00000000000000000000000000000000000F8
:1048C00000000000000000000000000000000000E8
:1048D00000000000000000000000000000000000D8
:1048E00000000000000000000000000004000010B4
:1048F000020000200100004000C0018000600300B1
:104900000030060000180C00000C180000063000F3
:10491000000360000001C0000000800000000000F3
:104920000000000000000000000000000000000087
:104930000000000000000000000000000000000077
:104940000000000000000000000000000000000067
:104950000000000000000000000000000000000057
:1049600000000000000000000000000000780000CF
:1049700001F800000238000002000000040000C03E
:10498000040079E0040081E0040100C00403000099
:10499000020200000306000001FC000000F8000015
:1049A0000000000000000000000000000000000007
:1049B00000000000000000000000000000000000F7
:1049C00000000000000000000000000000000000E7
:1049D00000000000000000000000000000000000D7
:1049E0000000000000000000000FF800003FFE0083
:1049F0000070078000C000C00101F8400307FC20E0
:104A0000021E04200230082002203020023FFC2039
:104A1000013F044001800CC000E03180001FC20053
:104A20000000000000000000000000000000000086
:104A30000000000000000000000000000000000076
:104A40000000000000000000000000000000000066
:104A50000000000000000000000000000000000056
:104A6000000000000000002000000060000003E0E3
:104A700000003E200003E020003E200003E0200074
:104A80000380200007FC2000003FE0000003FE2020
:104A900000003FE0000001E00000002000000020D6
:104AA0000000000000000000000000000000000006
:104AB00000000000000000000000000000000000F6
:104AC00000000000000000000000000000000000E6
:104AD00000000000000000000000000000000000D6
:104AE0000000000000000000020000200200002082
:104AF00003FFFFE003FFFFE00201002002010020AE
:104B00000201002002010020020100200303002016
:104B10000186806001FCC0C000F87F8000001F009B
:104B20000000000000000000000000000000000085
:104B30000000000000000000000000000000000075
:104B40000000000000000000000000000000000065
:104B50000000000000000000000000000000000055
:104B600000000000000000000007F800003FFF0008
:104B70000070078000C000C001000040030000205A
:104B8000020000200200002002000020020000209D
:104B900001000040018000C003C001800030060019
:104BA0000000000000000000000000000000000005
:104BB00000000000000000000000000000000000F5
:104BC00000000000000000000000000000000000E5
:104BD00000000000000000000000000000000000D5
:104BE0000000000000000000020000200200002081
:104BF00003FFFFE003FFFFE00200002002000020AF
:104C000002000020020000200300006001000040BC
:104C1000018000C000F00780007FFE00000FF80058
:104C20000000000000000000000000000000000084
:104C30000000000000000000000000000000000074
:104C40000000000000000000000000000000000064
:104C50000000000000000000000000000000000054
:104C60000000000000000000020000200200002000
:104C700003FFFFE003FFFFE002010020020100202C
:104C80000201002002010020020100200203802016
:104C9000020FE0200300006003C000E0006003009A
:104CA0000000000000000000000000000000000004
:104CB00000000000000000000000000000000000F4
:104CC00000000000000000000000000000000000E4
:104CD00000000000000000000000000000000000D4
:104CE0000000000000000000020000200200002080
:104CF00003FFFFE003FFFFE00201002002010020AC
:104D00000201000002010000020100000201000097
:104D100002038000030FE0000300000003C0000056
:104D20000060000000000000000000000000000023
:104D30000000000000000000000000000000000073
:104D40000000000000000000000000000000000063
:104D50000000000000000000000000000000000053
:104D600000000000000000000007F800003FFE0007
:104D70000070078001C001C0010000400300002056
:104D8000020000200200002002000020010020207C
:104D90000100204003C03F8000303F800000200021
:104DA00000002000000000000000000000000000E3
:104DB00000000000000000000000000000000000F3
:104DC00000000000000000000000000000000000E3
:104DD00000000000000000000000000000000000D3
:104DE00000000000020000200200002003FFFFE09E
:104DF00003FFFFE00200802002008020000080000E
:104E0000000080000000800002008020020080205E
:104E100003FFFFE003FFFFE002000020020000208C
:104E20000000000000000000000000000000000082
:104E30000000000000000000000000000000000072
:104E40000000000000000000000000000000000062
:104E50000000000000000000000000000000000052
:104E60000000000000000000000000000000000042
:104E700002000020020000200200002002000020AA
:104E800003FFFFE003FFFFE002000020020000201C
:104E900002000020020000200000000000000000CE
:104EA0000000000000000000000000000000000002
:104EB00000000000000000000000000000000000F2
:104EC00000000000000000000000000000000000E2
:104ED00000000000000000000000000000000000D2
:104EE00000000000000000000000000E0000000FA5
:104EF0000000000F0000000102000001020000019C
:104F0000020000030200000603FFFFFC03FFFFF89E
:104F10000200000002000000020000000200000089
:104F20000000000000000000000000000000000081
:104F30000000000000000000000000000000000071
:104F40000000000000000000000000000000000061
:104F50000000000000000000000000000000000051
:104F600000000000000000000200002002000020FD
:104F700003FFFFE003FFFFE00200C020020100206A
:104F800000078000000FE0000030F80002603E20C3
:104F900003800F20030003E0020000E00200002075
:104FA00000000020000000000000000000000000E1
:104FB00000000000000000000000000000000000F1
:104FC00000000000000000000000000000000000E1
:104FD00000000000000000000000000000000000D1
:104FE000000000000000000002000020020000207D
:104FF00003FFFFE003FFFFE00200002002000020AB
:105000000000002000000020000000200000002020
:105010000000002000000060000000E0000003002D
:105020000000000000000000000000000000000080
:105030000000000000000000000000000000000070
:105040000000000000000000000000000000000060
:105050000000000000000000000000000000000050
:1050600000000000020000200200002003FFFFE01B
:1050700003E0002003FF0020001FF0000001FF807C
:1050800000000FE000001E000003E000003E0020D2
:1050900003E0002003FFFFE003FFFFE00200002029
:1050A00002000020000000000000000000000000DE
:1050B00000000000000000000000000000000000F0
:1050C00000000000000000000000000000000000E0
:1050D00000000000000000000000000000000000D0
:1050E00000000000020000200200002003FFFFE09B
:1050F0000380002003F0002000FC0000001F0000DF
:105100000007C0000001F00000007C0002001F80CA
:10511000020007E003FFFFE00200000002000000C1
:10512000000000000000000000000000000000007F
:10513000000000000000000000000000000000006F
:10514000000000000000000000000000000000005F
:10515000000000000000000000000000000000004F
:105160000000000000000000000FF800003FFE00FB
:1051700000F00780018000C0010000400200002014
:105180000200002002000020020000200100004078
:10519000018000C000F00380003FFE00000FF80017
:1051A00000000000000000000000000000000000FF
:1051B00000000000000000000000000000000000EF
:1051C00000000000000000000000000000000000DF
:1051D00000000000000000000000000000000000CF
:1051E000000000000000000002000020020000207B
:1051F00003FFFFE003FFFFE00200802002008020A9
:105200000200800002008000020080000200800096
:10521000030180000183000000FE0000007C00000C
:10522000000000000000000000000000000000007E
:10523000000000000000000000000000000000006E
:10524000000000000000000000000000000000005E
:10525000000000000000000000000000000000004E
:105260000000000000000000000FF800007FFF00B9
:1052700000F00380018001C001000640020004200C
:105280000200042002000620020003E0010000F8F2
:105290000180005C00E0038C003FFF0C000FFC1855
:1052A00000000000000000000000000000000000FE
:1052B00000000000000000000000000000000000EE
:1052C00000000000000000000000000000000000DE
:1052D00000000000000000000000000000000000CE
:1052E000000000000000000002000020020000207A
:1052F00003FFFFE003FFFFE00201002002010020A6
:10530000020180000201E0000201FC0003033F8073
:10531000018607E001FC00E000F80020000000200A
:10532000000000000000000000000000000000007D
:10533000000000000000000000000000000000006D
:10534000000000000000000000000000000000005D
:10535000000000000000000000000000000000004D
:1053600000000000000000000000000000780600BF
:1053700000FE01E0018600C003030040020300209C
:1053800002018020020180200201C0200200C02012
:105390000100E060018070C003E03F8000001F005A
:1053A00000000000000000000000000000000000FD
:1053B00000000000000000000000000000000000ED
:1053C00000000000000000000000000000000000DD
:1053D00000000000000000000000000000000000CD
:1053E00000000000000000000060000003800000DA
:1053F0000300000002000000020000200200002064
:1054000003FFFFE003FFFFE0020000200200002096
:1054100002000000020000000380000000E0000025
:10542000000000000000000000000000000000007C
:10543000000000000000000000000000000000006C
:10544000000000000000000000000000000000005C
:10545000000000000000000000000000000000004C
:1054600000000000020000000200000003FFFF0037
:1054700003FFFFC0020000400200006000000020A7
:10548000000000200000002000000020020000407A
:105490000200008003FFFF00020000000200000085
:1054A00000000000000000000000000000000000FC
:1054B00000000000000000000000000000000000EC
:1054C00000000000000000000000000000000000DC
:1054D00000000000000000000000000000000000CC
:1054E00000000000000000000200000002000000B8
:1054F00003C0000003FC0000023FC0000003F800EE
:1055000000007F80000007E00000078000007800B6
:105510000203C000023C000003C0000002000000C3
:105520000200000000000000000000000000000079
:10553000000000000000000000000000000000006B
:10554000000000000000000000000000000000005B
:10555000000000000000000000000000000000004B
:10556000000000000200000003C0000003FF8000F4
:10557000023FFE0002007FE000000F000200F0008A
:1055800003EF000003FF8000020FFE0000003FE079
:1055900000001F000207E00003F800000300000005
:1055A00002000000000000000000000000000000F9
:1055B00000000000000000000000000000000000EB
:1055C00000000000000000000000000000000000DB
:1055D00000000000000000000000000000000000CB
:1055E0000000000000000000020000200200002077
:1055F000038000E003F0032002FC0C20021F3000B7
:105600000007C0000007F00002187C0002601F20A5
:10561000038003E0020000E0020000200000002000
:10562000000000000000000000000000000000007A
:10563000000000000000000000000000000000006A
:10564000000000000000000000000000000000005A
:10565000000000000000000000000000000000004A
:105660000000000000000000020000000300000035
:1056700003C0000003F80000023E0020020FC0201B
:105680000001FFE000007FE000038020021C0020FA
:105690000270000003800000020000000200000011
:1056A00000000000000000000000000000000000FA
:1056B00000000000000000000000000000000000EA
:1056C00000000000000000000000000000000000DA
:1056D00000000000000000000000000000000000CA
:1056E000000000000000000000000020006000E05A
:1056F000038003E003000FA002003E200200F82018
:105700000203E020020F8020023E002002780020E9
:1057100003E00060038000E00200030000000000DE
:105720000000000000000000000000000000000079
:105730000000000000000000000000000000000069
:105740000000000000000000000000000000000059
:105750000000000000000000000000000000000049
:105760000000000000000000000000000000000039
:105770000000000000000000000000001FFFFFFC10
:1057800010000004100000041000000410000004C9
:1057900010000004100000041000000400000000CD
:1057A00000000000000000000000000000000000F9
:1057B00000000000000000000000000000000000E9
:1057C00000000000000000000000000000000000D9
:1057D00000000000000000000000000000000000C9
:1057E00000000000000000000000000000000000B9
:1057F0000700000003C0000000780000001E000049
:105800000003C0000000F00000001E000000078040
:10581000000000F00000003C000000060000000056
:105820000000000000000000000000000000000078
:105830000000000000000000000000000000000068
:105840000000000000000000000000000000000058
:105850000000000000000000000000000000000048
:105860000000000000000000000000001000000424
:1058700010000004100000041000000410000004D8
:1058800010000004100000041FFFFFFC00000000D7
:105890000000000000000000000000000000000008
:1058A00000000000000000000000000000000000F8
:1058B00000000000000000000000000000000000E8
:1058C00000000000000000000000000000000000D8
:1058D00000000000000000000000000000000000C8
:1058E00000000000000000000000000000000000B8
:1058F000000000000200000004000000080000009A
:10590000180000001000000018000000180000003F
:105910000400000002000000000000000000000081
:105920000000000000000000000000000000000077
:105930000000000000000000000000000000000067
:105940000000000000000000000000000000000057
:105950000000000000000000000000000000000047
:105960000000000000000001000000010000000134
:105970000000000100000001000000010000000123
:105980000000000100000001000000010000000113
:105990000000000100000001000000010000000103
:1059A00000000001000000000000000000000000F6
:1059B00000000000000000000000000000000000E7
:1059C00000000000000000000000000000000000D7
:1059D00000000000000000000000000000000000C7
:1059E00000000000000000000000000000000000B7
:1059F000100000001000000010000000180000005F
:105A0000080000000400000000000000000000008A
:105A10000000000000000000000000000000000086
:105A20000000000000000000000000000000000076
:105A30000000000000000000000000000000000066
:105A40000000000000000000000000000000000056
:105A50000000000000000000000000000000000046
:105A600000000000000000000000038000018FC063
:105A700000038C6000061820000410200004102091
:105A80000004202000042040000620400003FFC046
:105A90000001FFE00000002000000020000000C026
:105AA00000000000000000000000000000000000F6
:105AB00000000000000000000000000000000000E6
:105AC00000000000000000000000000000000000D6
:105AD00000000000000000000000000000000000C6
