:020000040800F2
:100000007805002049010008B91D000807180008FC
:10001000B51D00083302000831250008000000006B
:10002000000000000000000000000000E51D0008C6
:100030003702000800000000BB1D0008E71D000893
:100040006301000863010008630100086301000800
:1000500063010008630100086301000863010008F0
:1000600063010008630100086301000863010008E0
:1000700063010008630100086301000863010008D0
:1000800063010008630100086301000863010008C0
:1000900063010008630100086301000863010008B0
:1000A00063010008630100086301000863010008A0
:1000B0006301000863010008630100086301000890
:1000C0006301000863010008630100086301000880
:1000D00063010008B92400086301000863010008F7
:1000E0006301000863010008630100086301000860
:1000F0006301000863010008630100086301000850
:10010000630100086301000863010008630100083F
:10011000630100086301000863010008630100082F
:10012000630100086301000863010008630100081F
:10013000DFF810D000F05CF800480047E92800081C
:10014000AFF3008078050020064880470648004746
:10015000FEE7FEE7FEE7FEE7FEE7FEE7FEE7FEE777
:10016000FEE7FEE75D1E0008310100082DE9F05FA3
:100170000546002092469B46884606468146402416
:100180001BE0284641464746224600F020F85346E9
:100190005A46C01A914110D311461846224600F023
:1001A00039F82D1A67EB01084F462246012000213D
:1001B00000F030F817EB00094E41201EA4F10104B5
:1001C000DFDC484631462A464346BDE8F09F202AF8
:1001D00004DB203A21FA02F00021704721FA02F3F1
:1001E000D040C2F1200291400843194670470000F8
:1001F000064C074D06E0E06840F0010394E8070074
:1002000098471034AC42F6D3FFF796FFB874000855
:10021000D8740008202A04DB203A00FA02F10020FA
:1002200070479140C2F1200320FA03F31943904034
:10023000704700BFFEE7704770B50446B3F5804FC6
:1002400013D1D1E9000540EA05108D6840EA052088
:100250008D6928438D8940EA054054F82250064EA6
:100260003540284344F8220003E06FF0704044F822
:100270002200002070BD00000000F0CF30B5024623
:10028000086852F8200020F001000C6842F82400B1
:100290008868082801D1402300E0002348681843FB
:1002A0008C682043CC6820430C6920434C69204370
:1002B0008C692043CC6920430C6A20434C6A20435C
:1002C0008C6A2043CC6A20430C6B20434C6B204348
:1002D0000C6852F82440044D2C4020430C6842F82E
:1002E0002400002030BD00008000F0FF10B5034660
:1002F000D1E9000440EA04108C6840EA04208C89AB
:1003000040EA0444088A401E44EA0054087D801EE6
:1003100044EA00608C692043541C53F8244004F0E4
:1003200040442043541C43F82400002010BD00002A
:100330002DE9FC41204805882048068800201E49F8
:1003400008804FF6FF701D490880002415E00C203E
:1003500004EB44031A4F07EB430300909A8804EB25
:10036000440307EB4303598804EB440337F81300B5
:10037000032301F04DFC601CC4B20D2CE7D311A087
:10038000102118235022CDE900104FF4A6717A20D5
:1003900001F088FC0DA00C2118236022CDE900108B
:1003A0004FF4B271742001F07DFC034805800348CE
:1003B0000680BDE8FC8100000E0000201000002037
:1003C000382B00086B6D2F680000000053544D332C
:1003D0003220444153480000F8B50546192D00D39A
:1003E000F8BD1E4800EBC5044FF478400090E38848
:1003F000A2886188208801F05FFA4FF607400090DC
:10040000E388A688761CB2B261882688761CB0B2D2
:1004100001F052FA4FF607400090E688761CB3B21E
:10042000A2886688761CB1B2208801F045FA40F2B5
:10043000CF104FF48573A622FE2100909A2001F080
:10044000EDFA4FF6E07040F20713A322991F0090D7
:100450009D2001F0E3FA00BFC2E70000702A000807
:1004600010B540F2CF101249088078224FF4827103
:10047000A02001F087FA79224FF48271A02001F0C8
:1004800081FA7A224FF48271A02001F07BFA4EF6B5
:100490005B70074908806C224FF48271A02001F044
:1004A00071FA6D224FF48271A02001F06BFA10BD39
:1004B0000E00002038B5002415E045F25840184DD4
:1004C00005EBC4050090EB88154D05EBC405AA8823
:1004D000134D05EBC4056988114D35F8340001F062
:1004E000EBF9601CC4B2192CE7D3002415E04FF4DB
:1004F00078400C4D05EBC4050090EB88094D05EBE9
:10050000C405AA88074D05EBC4056988054D35F873
:10051000340001F0D1F9601CC4B20D2CE7D338BD12
:10052000A82900084029000838B504464FF6FF7096
:1005300001F06CF94CF2186040F28F1340F22B126C
:1005400014210090084601F069FA4FF6FF7040F25E
:100550008B1340F2271218210090084601F05EFA32
:10056000FFF77EFFFFF7A6FFFFF7E2FE2046FFF74B
:1005700033FF04EB8401480000F01EF838BD10B5CD
:10058000002407E02046FFF7CFFF5A2002F06EF963
:10059000601CC4B2192CF5DB172407E02046FFF7D6
:1005A000C3FF3C2002F062F9601EC4B2002CF5DCEF
:1005B0000020FFF7B9FF10BDF8B5044610480688C3
:1005C000104805884FF6E0700D49088000200D495D
:1005D00008804FF4A173CC224FF48F7100907420E7
:1005E00001F01CFA1820032322464FF49171009069
:1005F0007C2001F00DFB0248068002480580F8BD12
:100600000E0000201000002070B50446002594F86C
:100610002100022803D00420A0630125C1E0206846
:10062000006820F00E00216808602068006820F053
:100630000100216808605C492068884252D95A4903
:1006400078392068884201D1012047E05649643951
:100650002068884201D1102040E053495039206879
:10066000884201D1801539E04F493C3920688842E1
:1006700001D1801432E04C4928392068884202D1E7
:100680004FF480302AE0484914392068884202D16A
:100690004FF4801022E044492068884201D1400490
:1006A0001CE042492068884201D1012016E03F4900
:1006B00014312068884201D110200FE03B492831D5
:1006C0002068884201D1801508E038493C31206813
:1006D000884201D1801401E04FF480303349091F72
:1006E000086051E0304978392068884201D1012002
:1006F00047E02D4964392068884201D1102040E04C
:10070000294950392068884201D1801539E02649AD
:100710003C392068884201D1801432E022492839CE
:100720002068884202D14FF480302AE01E491439F3
:100730002068884202D14FF4801022E01A492068D4
:10074000884201D140041CE018492068884201D148
:10075000012016E0154914312068884201D110208B
:100760000FE0124928312068884201D1801508E045
:100770000E493C312068884201D1801401E04FF4D9
:100780008030094980394860012084F8210000BF89
:10079000002084F8200000BF606B10B12046616B20
:1007A0008847284670BD00008000024008040240CF
:1007B0002DE9F847024600239C467BE14FF00108F3
:1007C00008FA03F4D1F8008008EA0400A0427DD1C1
:1007D000DFF8F4A2D1F80480A8EB0A09D0453AD09A
:1007E00014DCB8F1030F50D009DCB8F1000F31D0A0
:1007F000B8F1010F1CD0B8F1020F49D120E0B8F1D7
:10080000110F18D0B8F1120F42D11EE0B9F5881FB0
:1008100025D006DCB9F5803F20D0B9F5801F37D14F
:100820001AE0B9F5001F18D0B9F5041F30D117E050
:10083000D1F80CC02DE0D1F80C8008F1040C28E0B0
:10084000D1F80C8008F1080C23E0D1F80C8008F1F5
:100850000C0C1EE000BF00BF00BF00BF00BF00BF08
:10086000D1F80880B8F1000F02D14FF0040C0BE072
:10087000D1F80880B8F1010F03D14FF0080C1461D2
:1008800002E04FF0080C546103E04FF0000C00E070
:1008900000BF00BFFF2801D8904601E002F1040824
:1008A0004646FF2802D84FEA830803E0A3F1080870
:1008B0004FEA88084746D6F800804FF00F0909FA3A
:1008C00007F928EA09080CFA07F900E07AE048EA93
:1008D0000908C6F80080D1F8048008F08058B8F103
:1008E000805F6FD100BFDFF8E481D8F8188048F04E
:1008F0000108DFF8D891C9F81880C846D8F81880E0
:1009000008F00108CDF8008000BF00BF4FEAB938F9
:100910004FEA930958F829504FEA83784FEA18793B
:100920004FF00F0808FA09F825EA0805DFF8A0815A
:10093000424502D14FF0000824E0DFF8988142459B
:1009400002D14FF001081DE0DFF88C81424502D151
:100950004FF0020816E0DFF88481424502D14FF0E3
:1009600003080FE0DFF87881424502D14FF0040818
:1009700008E0DFF87081424502D14FF0050801E040
:100980004FF006084FEA83794FEA197908FA09F817
:1009900048EA0505DFF850814FEA930948F82950E5
:1009A000D1F8048008F48038B8F5803F0BD1DFF827
:1009B0003C81D8F8008048EA0008DFF83091C9F897
:1009C00000800AE075E0DFF82481D8F8008028EA8A
:1009D0000008DFF81891C9F80080D1F8048008F405
:1009E0000038B8F5003F0ED1DFF8008108F10408A7
:1009F000D8F8008048EA0008DFF8F09009F104090F
:100A0000C9F800800DE0DFF8E48008F10408D8F8A8
:100A1000008028EA0008DFF8D49009F10409C9F839
:100A20000080D1F8048008F48018B8F5801F0ED13A
:100A3000DFF8B88008F10808D8F8008048EA000814
:100A4000DFF8A89009F10809C9F800800DE0DFF887
:100A50009C8008F10808D8F8008028EA0008DFF830
:100A60008C9009F10809C9F80080D1F8048008F4D5
:100A70000018B8F5001F0ED1DFF8708008F10C08DF
:100A8000D8F8008048EA0008DFF8609009F10C0906
:100A9000C9F800800DE0DFF8548008F10C08D8F8A0
:100AA000008028EA0008DFF8449009F10C09C9F831
:100AB00000805B1CD1F8008028FA03F8B8F1000F21
:100AC0007FF47CAEBDE8F8870000111000100240F2
:100AD00000080140000C01400010014000140140DA
:100AE00000180140001C01400800014000040140C2
:100AF0000AB1016101E00B0403617047014800681D
:100B0000704700000400002003480068034909788A
:100B10000844014908607047040000200C000020D0
:100B200010B50848006840F010000649086005202C
:100B300000F080F80F2000F007F800F02BF80020FC
:100B400010BD00000020024070B504460E48007839
:100B50004FF47A71B1FBF0F00C490968B1FBF0F584
:100B6000284600F085FC08B1012070BD102C07D28A
:100B700000222146501E00F01EF80548046001E0E6
:100B80000120F2E70020F0E70C0000200000002028
:100B900008000020704701460846002809DB00F0E5
:100BA0001F0301229A4043099B0003F1E023C3F88D
:100BB000002100BF70472DE9F05F80460D461646C4
:100BC000002701F0C7FC074639462A46334601F0A4
:100BD0000700C0F1070ABAF1040F02D94FF0040A66
:100BE00001E0C0F1070AD14600F1040ABAF1070F8B
:100BF00002D24FF0000A01E0A0F1030AD4464FF000
:100C0000010A0AFA09FAAAF1010A0AEA020A0AFA28
:100C10000CFA4FF0010B0BFA0CFBABF1010B0BEADA
:100C2000030B4AEA0B042146404601F09BFCBDE859
:100C3000F09F000000BF00F00702064B19684FF656
:100C4000FF031940044B0B4343EA0221014B196097
:100C500000BF70470CED00E00000FA0570B50446D7
:100C60000D460CB9012070BD5A48006800F007001D
:100C7000A8420ED25748006820F007002843554983
:100C800008600846006800F00700A84201D0012073
:100C9000E9E7207800F0020002281DD1207800F05A
:100CA0000400042805D14C48406840F4E0604A49FB
:100CB0004860207800F00800082805D146484068C0
:100CC00040F46050444948604348406820F0F000D8
:100CD000A168084340494860207800F0010078B3DB
:100CE0006068012806D13C48006800F4003090B9E3
:100CF0000120B8E76068022806D13748006800F094
:100D0000007040B90120AEE73348006800F00200EF
:100D100008B90120A7E73048406820F00300616867
:100D200008432D494860FFF7E9FE064609E0FFF752
:100D3000E5FE801B41F28831884202D9032092E708
:100D400007E02548406800F00C006168B0EB810FB7
:100D5000EDD12048006800F00700A8420ED91D48D8
:100D6000006820F0070028431A4908600846006818
:100D700000F00700A84201D0012074E7207800F0BD
:100D80000400042807D11448406820F4E060E168BA
:100D9000084311494860207800F00800082808D16D
:100DA0000D48406820F46050216940EAC1000A49BA
:100DB000486000F03FF808494968C1F30311074A49
:100DC000515CC8400649086006480068FFF7BCFE51
:100DD000002048E70020024000100240862B000857
:100DE0000000002008000020014800687047000053
:100DF0000000002000B5FFF7F7FF04494968C1F380
:100E00000221034A515CC84000BD000000100240AE
:100E1000962B000800B5FFF7E7FF04494968C1F3C6
:100E2000C221034A515CC84000BD000000100240CE
:100E3000962B0008F0B585B00FF26C0C9CE8E01022
:100E400001A8A0E8E0101CA52D6800950021002253
:100E5000002300240020194D696801F00C05F5B14C
:100E6000042D02D0082D19D101E0154819E001AD7B
:100E7000C1F38346AC5D01F4803555B10F4D6D680B
:100E8000C5F340451DF805200D4D6543B5FBF2F354
:100E900002E00C4D04FB05F3184602E000BF0848D1
:100EA00000BF00BF05B0F0BD020304050607080936
:100EB0000A0B0C0D0E0F1010010200000010024072
:100EC00000127A0000093D00F8B504460CB9012073
:100ED000F8BD207800F00100002878D0F84840687C
:100EE00000F00C0004280CD0F548406800F00C001D
:100EF000082811D1F248406800F48030B0F5803FF6
:100F00000AD1EF48006800F4003000285FD0606824
:100F100000285CD10120DBE700BF6068B0F5803FAE
:100F200006D1E748006840F48030E549086028E0D1
:100F3000606858B9E248006820F48030E0490860F1
:100F40000846006820F4802008601AE06068B0F568
:100F5000A02F0BD1DA48006840F48020D8490860FF
:100F60000846006840F4803008600AE0D448006811
:100F700020F48030D24908600846006820F48020C0
:100F8000086000BF606888B1FFF7B8FD054606E05D
:100F9000FFF7B4FD401B642801D9032098E7C84837
:100FA000006800F400300028F2D010E0FFF7A6FD42
:100FB000054606E0FFF7A2FD401B642801D9032087
:100FC00086E7BF48006800F400300028F2D120789E
:100FD00000F00200022857D1B948406800F00C0028
:100FE00050B1B748406800F00C00082818D1B44848
:100FF000406800F4803098B9B148006800F0020001
:1010000020B12069012801D0012061E7AC480068C7
:1010100020F0F800616940EAC100A949086033E0A6
:101020002069E8B10120A7490860FFF767FD054680
:1010300006E0FFF763FD401B022801D9032047E7C4
:101040009F48006800F002000028F2D09C48006829
:1010500020F0F800616940EAC1009949086013E096
:10106000002098490860FFF749FD054606E0FFF7B4
:1010700045FD401B022801D9032029E7904800685C
:1010800000F002000028F2D1207800F008000828C3
:101090002DD1A069B8B101208B490860FFF72EFD62
:1010A000054606E0FFF72AFD401B022801D9032070
:1010B0000EE78348406A00F002000028F2D00120C9
:1010C00000F07CFE13E000207F490860FFF716FD6A
:1010D000054606E0FFF712FD401B022801D9032058
:1010E000F6E67748406A00F002000028F2D1207846
:1010F00000F00400042873D100277148C06900F093
:10110000805070B900BF6E48C06940F080506C4993
:10111000C8610846C06900F08050009000BF00BF61
:1011200001276A48006800F48070B0B96748006819
:1011300040F4807065490860FFF7E0FC054606E072
:10114000FFF7DCFC401B642801D90320C0E65F48A0
:10115000006800F480700028F2D000BFE068012829
:1011600006D15748006A40F001005549086227E05F
:10117000E06858B95248006A20F0010050490862FE
:101180000846006A20F00400086219E0E0680528BB
:101190000BD14B48006A40F00400494908620846F8
:1011A000006A40F0010008620AE04548006A20F049
:1011B0000100434908620846006A20F00400086202
:1011C00000BFE068A0B1FFF799FC054609E0FFF712
:1011D00095FC401B41F28831884202D9032077E612
:1011E00022E03748006A00F002000028EFD012E049
:1011F000FFF784FC054608E0FFF780FC401B41F246
:101200008831884201D9032062E62D48006A00F047
:1012100002000028F0D1012F05D12948C06920F033
:1012200080502749C86100BFE069C8B324484068BE
:1012300000F00C00082860D0E069022848D10020A6
:1012400020490866FFF75AFC054606E0FFF756FC02
:10125000401B022801D903203AE61948006800F033
:1012600000700028F2D1206AB0F5803F07D1144801
:10127000406820F40030A168084311494860D4E96F
:10128000080108430E49496821F4741108430C49C8
:10129000486001200B490866FFF730FC054607E06F
:1012A0003DE0FFF72BFC401B022801D903200FE68D
:1012B0000348006800F000700028F2D02FE0000022
:1012C0000010024000004242800442420070004090
:1012D000002014490866FFF711FC054606E0FFF7F9
:1012E0000DFC401B022801D90320F1E50E480068DF
:1012F00000F000700028F2D111E0E069012800D16F
:10130000E6E50948466806F48031206A814204D146
:1013100006F47011606A814201D00120D8E50020F6
:10132000D6E50000000042420010024070B50446BD
:101330000E4615460CB9012070BD94F8410028B93D
:10134000002084F84000204600F020F804F1080155
:101350002068FEF793FF3146A2682068FEF7C6FFBB
:101360002946236BD4E90102FEF766FFA1682068D5
:1013700050F8210040F00100A268216841F82200E5
:10138000012084F841000020D6E7000010B586B0A7
:10139000044600BF2848406940F4807026494861EF
:1013A0000846406900F48070019000BF00BF00BF94
:1013B0000846806940F0200088610846806900F096
:1013C0002000019000BF00BF00BF0846806940F0C8
:1013D000400088610846806900F04000019000BF2D
:1013E00000BF00BF0846806940F4807088610846ED
:1013F000806900F48070019000BF00BF4CF2337030
:10140000029002200390012004900320059002A97D
:101410000A48FFF7CDF94FF68070029002A90848FC
:10142000FFF7C6F941F20100029002A90548FFF753
:10143000BFF906B010BD00000010024000140140CA
:101440000018014000200140042808D14FF0E0219D
:10145000096941F004014FF0E022116107E04FF00B
:10146000E021096921F004014FF0E0221161704789
:1014700070B504462546681EB0F1807F01D3012077
:101480000FE0681E4FF0E02148610F214FF0FF3060
:1014900001F068F800204FF0E02188610720086122
:1014A000002070BD704701460022002391F83920CA
:1014B00091F83A3042EA0300704700002DE9F04706
:1014C0000446206805682068C668206847694FF0B0
:1014D0000008C14605F00F08B8F1000F0AD105F069
:1014E000200038B106F0200020B1204600F08CFE2C
:1014F000BDE8F087B8F1000F6DD007F0010018B912
:1015000006F49070002866D005F0010030B106F4B2
:10151000807018B1E06B40F00100E06305F004005A
:1015200030B107F0010018B1E06B40F00200E06359
:1015300005F0020030B107F0010018B1E06B40F097
:101540000400E06305F0080030B107F0010018B1B5
:10155000E06B40F00800E063E06B68B305F020004A
:1015600028B106F0200010B1204600F04DFE2068A2
:101570004069C0F38019E06B00F0080010B9B9F1C0
:10158000000F22D0204600F01FFE2068406900F0C6
:101590004000B0B12068406920F0400021684861F7
:1015A000606B50B11748616B4863606BFFF72CF8B4
:1015B00010B1606B416B88470CE02046FFF772FF6B
:1015C00008E02046FFF76EFF04E02046FFF76AFFC1
:1015D0000020E0638CE705F0800030B106F0800069
:1015E00018B1204600F034FF82E705F0400030B12A
:1015F00006F0400018B1204600F0F6FD78E700BF85
:1016000076E70000B521000810B504460CB90120AA
:1016100010BDA06900B100E000BF94F8390028B9FE
:10162000002084F83800204600F028F8242084F8B0
:1016300039002068C06820F400502168C860204646
:1016400000F036FE2068006920F4904021680861AF
:101650002068406920F02A00216848612068C0683D
:1016600040F400502168C8600020E063202084F826
:10167000390084F83A000020CAE7000010B586B0AF
:1016800004461F492068884237D100BF1D48806941
:1016900040F004001B4988610846806900F004009E
:1016A000019000BF00BF00BF0846806940F4804041
:1016B00088610846806900F48040019000BF00BF47
:1016C0004815029002200390012004900320059009
:1016D00002A90D48FFF76CF84FF4806002900020DB
:1016E000039002A90848FFF763F82520FFF753FA93
:1016F000032211462520FFF75EFA06B010BD000058
:1017000000380140001002400008014010B50346B7
:1017100093F83A0020282FD101B10AB9012010BD59
:1017200000BF93F83800012801D10220F7E701201B
:1017300083F8380000BF99629A85DA850020D86363
:10174000222083F83A0000BF002083F8380000BF51
:101750001868C06840F480701C68E06018684069D0
:1017600040F001001C6860611868C06840F020000B
:101770001C68E0600020D2E70220D0E71D4A016823
:10178000914236D11C49098801F4004189BB1A49AC
:10179000098801F4804171B1184909780A2903D0F8
:1017A0000021154A118024E01349098841F40041C1
:1017B000114A11801DE0114909780D2906D10E4901
:1017C000098841F480410C4A118012E00B490978E4
:1017D000094A1288C2F30D02094B99540649098837
:1017E000491C054A118011460988C72901DD0021DD
:1017F00011807047003801402000002022000020A6
:10180000B0000020704700BFFEE7000070B506463C
:101810000F484088401E83B20D480088401E82B2A7
:101820000021084600F03AF900240CE0002504E00D
:10183000304600F077FA681C85B205484088A84217
:10184000F6DC601C84B202480088A042EEDC70BD69
:101850001200002000B502460F4882716AB9362096
:1018600000F054FA4C2000F057FA4FF4F0700A4997
:1018700048804FF4A07008800CE0362000F046FA53
:101880002C2000F049FA4FF4A070034948804FF42F
:10189000F070088000BD00001200002070B5044602
:1018A0000D4616462B4622462946204600F0F6F8FD
:1018B000304600F037FA70BD2DE9FF4F84B0814605
:1018C0008A460020029083460698A0EB09050798F7
:1018D000A0EB0A06CDF80490CDF800A0002D01DDA4
:1018E000012705E00DB9002702E04FF0FF376D42F8
:1018F000002E02DD4FF0010806E016B94FF0000897
:1019000002E04FF0FF387642B54201DD2C4600E0A0
:101910003446002003901EE0009A91B2019A90B2E2
:10192000119AFFF7BBFF029828440290B344029833
:10193000A04205DD0298001B0290019838440190F6
:10194000A34504DDABEB040B0098404400900398E2
:10195000401C80B20390611C03988842DCDD08B013
:10196000BDE8F08F30B504460D462B462246294689
:10197000204600F093F80248008800F0D3F930BD0B
:101980000E0000202DE9F04306460F469046002445
:1019900045460320A0EB48093CE07A1B91B232197E
:1019A00090B2FFF7DFFF3A1B91B2721990B2FFF7C6
:1019B000D9FF3A1991B2721990B2FFF7D3FF7A1991
:1019C00091B2321990B2FFF7CDFF7A1991B2321B62
:1019D00090B2FFF7C7FF3A1991B2721B90B2FFF7AE
:1019E000C1FF7A1B91B2321B90B2FFF7BBFF3A1BCB
:1019F00091B2721B90B2FFF7B5FF641CB9F1000FF2
:101A000003DAA000801D814404E0601B80000A30DE
:101A100081446D1EAC42C0DDBDE8F0832DE9F0438A
:101A200004460D4616461F46DDF81C80B44201DC14
:101A3000BD4201DDBDE8F0833B46324629462046E3
:101A400000F02CF8301B401C84B2781B401C85B27F
:101A50000BE0A94602E0404600F064F9B9F100004D
:101A6000A9F101011FFA81F9F5D1201EA4F10101AC
:101A70008CB2EED100BFDDE710B50246012000E0D8
:101A800050430B1EA1F10104E1B2F9D110BD0000D9
:101A900001480088704700000008006C30B504461B
:101AA0000D462A2000F032F9201200F035F9E0B29C
:101AB00000F032F9101200F02FF9D0B200F02CF93A
:101AC0002B2000F023F9281200F026F9E8B200F0EC
:101AD00023F9181200F020F9D8B200F01DF92C20DB
:101AE00000F014F930BD00002DE9F84F80460E4695
:101AF00017461C46B3462046E31704EB5373DB102E
:101B000021464FEAE47C04EB5C7C4FEAEC0CA4EB4E
:101B1000CC0CBCF1000F02D04FF0010C01E04FF0F3
:101B2000000C6344224604EBD27C4FEA6C0C03FBAE
:101B30000CF3DBB20093A7F12000C7B2002556E0FA
:101B40000C2C07D107EB47002B4901EB800010F864
:101B5000059013E0102C05D1284800EB071010F871
:101B600005900BE0182C07D107EBC700244901EBC7
:101B7000800010F8059001E0BDE8F88F4FF0000AF2
:101B80002FE009F0800030B11E48028831464046FF
:101B9000FFF784FE07E00A9828B91B4802883146FF
:101BA0004046FFF77BFE4FEA49604FEA1069701C20
:101BB00086B216484088B04200DCDDE7A6EB0B0099
:101BC000A0420AD15E4608F101001FFA80F80F48D2
:101BD0000088404500DCCFE706E00AF1010000F094
:101BE000FF0ABAF1080FCCDB00BF681CC5B2009831
:101BF0008542A5DB00BFBFE79E2B0008123000081E
:101C0000023600080E000020100000201200002004
:101C10002DE9FF4F81B0074691461E460E9D4FF0BD
:101C2000000A002439E0301B401EC1B20A20FFF731
:101C300023FFB9FBF0F00A21B0FBF1F201FB12081F
:101C4000BAF1000F16D1701EA04213DDB8F1000FDB
:101C50000ED10020AB4605EBDB71491001FB04718E
:101C6000009088B22B4620220299FFF73DFF12E038
:101C70004FF0010A0020AB4605EBDB71491001FB78
:101C80000471009088B208F13001CAB22B46029963
:101C9000FFF72AFF00BF601CC4B2B442C3DB05B02B
:101CA000BDE8F08F2DE9F84704460D469046994669
:101CB000DDE9096704F0FF0A08EB04001FFA80F869
:101CC00009EB05001FFA80F916E0444502DB544693
:101CD000A81985B24D4500DB14E0002000903A7849
:101CE000334629462046FFF7FFFE304606EBD0710B
:101CF00004EB61018CB27F1C38787E2802DC3878D6
:101D00002028E2DA00BFBDE8F8870000014908801A
:101D100070470000FE07006C014908807047000012
:101D20000008006C0112024A1180C1B21180704794
:101D30000008006C00B585B000BF1B48806940F00A
:101D40000800194988610846806900F00800009081
:101D500000BF00BF00BF0846806940F040008861B6
:101D60000846806900F04000009000BF00BF2020BE
:101D700001900120029003900320049001A90B48D8
:101D8000FEF716FD2020019001A90948FEF710FD7D
:101D9000012220210548FEF7ABFE01222021044844
:101DA000FEF7A6FE05B000BD00100240000C014089
:101DB0000018014000BFFEE77047704708B50849AA
:101DC0000968C9084FF47A72B1FBF2F141430091FE
:101DD00000BF00BF00994A1E00920029F9D108BD3A
:101DE00000000020704710B5FEF78EFE10BD000009
:101DF00010B504460420FFF727FB0148046010BD1E
:101E00001C00002030B58FB005460024012005904D
:101E1000000406900020079002200C90C1030D9151
:101E20000E9505A8FFF750F804460CB100BFFEE779
:101E30000F20009002200190002002904FF480605B
:101E400003900020049002216846FEF707FF044635
:101E50000CB100BFFEE70FB030BD000011480068B4
:101E600040F001000F490860084640680E490840EC
:101E70000C494860084600680C4908400949086058
:101E80000846006820F4802008600846406820F476
:101E9000FE0048604FF41F008860C80304490860D2
:101EA00070470000001002400000FFF8FFFFF6FE40
:101EB00008ED00E000B593B000BF2648806940F00F
:101EC0000800244988610846806900F008000090F5
:101ED00000BF00BF01200F901090119003201290BE
:101EE0000FA91D48FEF764FC4FF020401B49086015
:101EF0001B4848600620886000211848C1600161C5
:101F00001021416100218161C16141624FF4805122
:101F100081620021C1624FF480410163002141636D
:101F200081630F200890002009903C200A90002037
:101F30000E90049009200190002002900820039048
:101F40000020079001AA08A90448FFF7EFF913B091
:101F500000BD000000100240000C014028000020DD
:101F6000040100A010B5FFF7A5FF322000F07EFCB1
:101F7000D020FFF7CBFEFFF78BFD89498880FFF764
:101F800087FD874988800846818886A000F0D2FABC
:101F90001120FFF7BBFE4FF4FA7401E0601E84B21B
:101FA000002CFBDCB920FFF7B1FEFF20FFF7B4FEE9
:101FB0008320FFF7B1FE5720FFF7AEFE4FF4FA740F
:101FC00001E0601E84B2002CFBDCB120FFF79EFE16
:101FD0000020FFF7A1FE1420FFF79EFE1C20FFF754
:101FE0009BFE1C20FFF798FEC320FFF795FE4420C0
:101FF000FFF792FE7020FFF78FFE4FF4FA7401E0B6
:10200000601E84B2002CFBDCB420FFF77FFE222090
:10201000FFF782FE4020FFF77FFE0020FFF77CFEE7
:102020002A20FFF779FE2A20FFF776FE2020FFF70F
:1020300073FE9120FFF770FE4FF4FA7401E0601E0A
:1020400084B2002CFBDC3620FFF760FE4C20FFF74B
:1020500063FEC020FFF75AFE5020FFF75DFE5020C0
:10206000FFF75AFE0120FFF757FE3C20FFF754FE12
:10207000C820FFF751FE0820FFF74EFE0020FFF7B3
:102080004BFE0820FFF748FE0420FFF745FE4FF403
:10209000FA7401E0601E84B2002CFBDC4FF4FA7489
:1020A00001E0601E84B2002CFBDCE020FFF72EFE76
:1020B0000B20FFF731FE1120FFF72EFE1E20FFF749
:1020C0002BFE3020FFF728FE3A20FFF725FE4320A5
:1020D000FFF722FE4E20FFF71FFE5620FFF71CFEE3
:1020E0004520FFF719FE3F20FFF716FE3920FFF7C6
:1020F00013FE3220FFF710FE2F20FFF70DFE2A20DF
:10210000FFF70AFE2920FFF707FE2120FFF704FE54
:102110000B20FFF701FE1120FFF7FEFD1E20FFF749
:10212000FBFD3020FFF7F8FD3A20FFF7F5FD4320D7
:10213000FFF7F2FD4E20FFF7EFFD5620FFF7ECFD15
:102140004520FFF7E9FD3F20FFF7E6FD3920FFF7C7
:10215000E3FD3220FFF7E0FD2F20FFF7DDFD2A2011
:10216000FFF7DAFD2920FFF7D7FD2120FFF7D4FD87
:102170000020FFF7D1FD0120FFF7CEFD3A20FFF749
:10218000C5FD0520FFF7C8FD2920FFF7BFFD002092
:10219000FFF760FB4FF6FF70FFF738FB10BD000044
:1021A00012000020204C43442049443A25780D0A6F
:1021B0000000000070B505466C6A0020E085E084F0
:1021C0002046FFF76FF970BD0168C96821F490716E
:1021D0000268D1600168496921F00101026851611A
:1021E000202180F83A10704710B504462068C06876
:1021F00020F040002168C860202084F83900204683
:10220000FFF700FB002010BD70B5044694F83A00BB
:1022100022284AD1A068B0F5805F13D1A56A206951
:1022200040B920684068C0F308002880A06A801C7C
:10223000A06219E020684068C0B22880A06A401CF3
:10224000A06211E0206938B920684068C1B2A26A72
:10225000501CA062117007E02068406800F07F0108
:10226000A26A501CA0621170E08D401E80B2E08511
:10227000C8B92068C06820F020002168C8602068C4
:10228000C06820F480702168C8602068406920F030
:10229000010021684861202084F83A002046FFF7B9
:1022A0006DFA002070BD0020FCE70220FAE7000074
:1022B00070B504462168096921F44051E268114370
:1022C000226811612269A1681143626941EA02052D
:1022D0002168C96841F20C62914329432268D160A8
:1022E0002168496921F44071A26911432268516152
:1022F000564A2168914254D1FEF78CFD00EBC00193
:1023000001EB001162689200B1FBF2F100EBC00238
:1023100002EB001263689B00B2FBF3F26423B2FB92
:10232000F3F202EBC20303EB0212A1EB82013222B1
:1023300002EB01116422B1FBF2F101F0F00100EBBC
:10234000C00202EB001263689B00B2FBF3F264234D
:10235000B2FBF3F201EB021200EBC00101EB001142
:1023600063689B00B1FBF3F100EBC00303EB0013C8
:102370006668B600B3FBF6F36426B3FBF6F303EB33
:10238000C30606EB0313A1EB8301322303EB011118
:102390006423B1FBF3F101F00F0111442268916055
:1023A00053E0FEF727FD00EBC00101EB001162686E
:1023B0009200B1FBF2F100EBC00202EB0012636885
:1023C0009B00B2FBF3F26423B2FBF3F202EBC20315
:1023D00003EB0212A1EB8201322202EB0111642213
:1023E000B1FBF2F101F0F00100EBC00202EB0012D0
:1023F00063689B00B2FBF3F26423B2FBF3F201EBE0
:10240000021200EBC00101EB001163689B00B1FBFD
:10241000F3F100EBC00303EB00136668B600B3FBF7
:10242000F6F36426B3FBF6F303EBC30606EB0313E4
:10243000A1EB8301322303EB01116423B1FBF3F120
:1024400001F00F0111442268916070BD0038014015
:10245000014691F8390021282CD18868B0F5805FB9
:102460000FD10A6A1088C0F308000B685860086929
:1024700018B9086A801C086209E0086A401C0862F2
:1024800005E00B6A581C086218780B685860C88C05
:10249000401E80B2C88458B90868C06820F0800027
:1024A0000B68D8600868C06840F040000B68D860CE
:1024B000002070470220FCE710B500240C48FEF70E
:1024C000FDFF00BF01E0641C00BF0948FEF7EBFF01
:1024D0002028F8D100BF002401E0641C00BF0122C5
:1024E00004490348FFF712F90028F6D100BF10BDD8
:1024F000700000202200002010B5044609480A4957
:1025000008600846446000218160C160016181610A
:102510000C214161FFF778F8012204490248FFF7D6
:10252000F5F810BD003801407000002022000020A6
:1025300000BFFEE70FB4054B10B503A9044A02988B
:1025400000F034F810BC5DF814FB0000CD28000842
:102550002400002002480068C0F3022070470000F9
:102560000CED00E010B5002804DB0A07130E054A45
:10257000135406E00A07140E034A00F00F031B1F52
:10258000D45410BD00E400E018ED00E002E008C8FB
:10259000121F08C1002AFAD170477047002001E0DD
:1025A00001C1121F002AFBD1704700002DE9FF4F27
:1025B0008DB09B460F460446002606E025280BD02A
:1025C0005A460F999047641C761C20780028F5D154
:1025D00011B03046BDE8F08F0025A8460122984989
:1025E00000E0054314F8013F203B02FA03F00842E3
:1025F000F7D120782E2817D114F8010F45F00405E3
:102600002A280ED06FF02F022078A0F1300109297E
:102610000AD808EB880102EB410100EB0108641CB9
:10262000F2E757F8048B641C20786C280DD004DC8A
:102630004C2812D06A2811D104E074280DD07A28D1
:102640000CD10AE045F4001507E0617845F48015E7
:10265000814202D1641C05F58015641C207869282C
:1026600044D008DC0028B3D0582867D063280FD0A6
:10267000642808D13AE0702865D0732812D07528F4
:102680005AD078285AD05A460F999047761CD5E0F0
:1026900017F8040B8DF8000000208DF80100E946C2
:1026A000012003E057F8049B4FF0FF3069074FF01B
:1026B000000501D40AE06D1C45450DDA8542FADBC0
:1026C00019F805100029F6D106E06D1C8542FCDBE7
:1026D00019F805100029F8D12E4404E019F8010B6F
:1026E0005A460F9990476D1EF8D2A7E00A200021A4
:1026F000CDE90801C5F3025002280CD001CFC11763
:10270000021E71F100020CDA0023D0EB030063EB30
:1027100001012D2208E0FF1D27F00707F7E802015D
:10272000EEE72A0504D52B228DF8282001223CE073
:10273000EA073AD02022F7E70A2000E01020002123
:10274000CDE9080107E01020002145F00405CDE99E
:1027500008014FF00808C5F30250022810D001CF3D
:1027600000214FF0000A2A0720D52278702A0DD0C8
:10277000DDE908C38CF0100C5CEA030C0CD015E00A
:10278000FF1D27F00707F7E80201EAE740228DF86E
:1027900028204FF0010A0CE050EA010306D0302354
:1027A0008DF828308DF82920022292462278582A66
:1027B00004D024A20DF120090B9209E026A2F9E72A
:1027C000DDE90823FDF7D2FC0B9B9B5C09F8013D7A
:1027D00050EA0102F4D1ADEB0900203008906807FF
:1027E00001D44FF001080899884503DD0898A8EB4B
:1027F000000000E000208046002506E00AA85A46B6
:10280000405D0F9990476D1C761C5545F6DB04E042
:1028100030205A460F999047761CB8F10001A8F174
:102820000108F5DC05E019F8010B5A460F999047AD
:10283000761C0899481E08900029F4DC641CC4E644
:102840000928010030313233343536373839616286
:10285000636465660000000030313233343536374A
:1028600038394142434445460000000030B5044633
:10287000002504E04FF47A7000F004F86D1CA542C6
:10288000F8D330BD70B5034600224FF0E0267569DD
:102890000D4E366803FB06F44FF0E026B16910E0F8
:1028A0004FF0E026B06988420BD0884202D20E1A5F
:1028B000324402E02E1A0E4432440146A24200D3B2
:1028C00000E0EDE700BF70BD1C00002000BF054A1E
:1028D000126802F04002002AF9D0C2B2014B1B1D5F
:1028E0001A607047003801400024FEF719F94FF4D0
:1028F000E010FFF787FA4820FFF77AFA4FF4E1304B
:10290000FFF7FAFDFFF716FAFFF72CFBFDF737FE8E
:1029100012E0601CC4B2142094FBF0F100FB1140E3
:1029200038B90648006808B9012000E000200349D2
:1029300008600A20FFF79AFFEBE70000948121422C
:102940003A00C9004D00D4004600B8005600C60049
:102950005400AA006200BA0065009E007000B10039
:10296000780095007F00AA008C0090008F00A500E1
:10297000A0008E00A000A400B4009000B100A5004B
:10298000C8009500C100AA00DB009E00D000B10085
:10299000EC00AA00DE00BA00FA00B800EA00C600A7
:1029A0000601C900F300D4003F00CC004800D1006C
:1029B0004400C4004C00C9004A00BC005200C200E0
:1029C0005100B5005800BC005800AE005E00B600D3
:1029D0006000A8006500B0006800A3006D00AC00B6
:1029E00071009E007500A8007A009B007D00A40085
:1029F000830098008600A1008D0096008E00A00044
:102A00009600940097009E00A0009400A0009E00F5
:102A1000AA009400A9009E00B3009600B200A00096
:102A2000BD009800BA00A100C6009B00C300A4002E
:102A3000CF009E00CB00A800D800A300D300AC00BC
:102A4000E000A800DB00B000E800AE00E200B60045
:102A5000EF00B500E800BC00F600BC00EE00C200CC
:102A6000FC00C400F400C9000101CC00F800D10052
:102A7000B00003015C00D300B10000015700DF008B
:102A8000B200FD005300EC00B200FA005200FA0060
:102A9000B200F70053000801B100F400570015011F
:102AA000B000F1005C002101AE00EE0064002C01DA
:102AB000AC00EC006E003601A900EA0079003E018E
:102AC000A600E90085004301A300E8009200470149
:102AD000A000E800A00048019D00E800AE0047010A
:102AE0009A00E900BB0043019700EA00C7003E01DD
:102AF0009400EC00D20036019200EE00DC002C01C4
:102B00009000F100E40021018F00F400E9001501BC
:102B10008E00F700ED0008018E00FA00EE00FA00CA
:102B20008E00FD00ED00EC008F000001E900DF00E9
:102B300090000301E400D3002400B40000002C0046
:102B4000A10014003D0090002800500082003C00CD
:102B50006500780050007600720064008E007000FE
:102B60007800A60072008C00BD007800A000D200A2
:102B70008200B400E5009000C800F600A100DC006F
:102B80000401B400F0000000000000000000010299
:102B90000304060708090000000001020304000006
:102BA00000000000000000000000000000003F40A6
:102BB0000000000000000000300040003000400035
:102BC000000009000BC03D000BC03D00090018C00B
:102BD00024407FE0224031800000180024C01B0008
:102BE0000D803240018003801C4027401C8007403C
:102BF0000040100060000000000000000000000025
:102C0000000000001F8020404020000040202040A5
:102C10001F8000000000090006001F800600090058
:102C20000000040004003F800400040000000010C5
:102C30000060000000000000000004000400040028
:102C4000040004000000000000400000000000003C
:102C50000000002001C006003800400000001F8076
:102C60002040204020401F800000000010403FC056
:102C700000400000000018C02140224024401840BD
:102C8000000010802040244024401B8000000200EF
:102C90000D0011003FC0014000003C802440244052
:102CA0002440238000001F802440244034400380BF
:102CB00000003000200027C03800200000001B80EA
:102CC0002440244024401B8000001C0022C02240DD
:102CD00022401F80000000000000084000000000AB
:102CE0000000000000000460000000000000000080
:102CF00004000A001100208040400900090009007A
:102D000009000900000000004040208011000A0076
:102D100004001800200023402400180000001F8039
:102D20002040274029401F400000004007C03900D4
:102D30000F0001C0004020403FC0244024401B80C1
:102D400000001F80204020402040308000002040B4
:102D50003FC0204020401F80000020403FC0244052
:102D60002E4030C0000020403FC024402E003000E4
:102D700000000F00108020402240338002002040DD
:102D80003FC0040004003FC02040204020403FC01E
:102D90002040204000000060202020203FC0200074
:102DA000200020403FC024400B0030C02040204085
:102DB0003FC020400040004000C03FC03C0003C076
:102DC0003C003FC0000020403FC00C4023003FC0FB
:102DD00020001F802040204020401F800000204015
:102DE0003FC024402400180000001F8021402140E3
:102DF00020E01FA0000020403FC02440260019C052
:102E0000004018C02440244022403180000030009F
:102E100020403FC020403000000020003F800040A4
:102E200000403F80200020003E0001C00700380025
:102E30002000380007C03C0007C0380000002040D8
:102E400039C0060039C0204000002000384007C0CB
:102E5000384020000000304021C02640384020C0CB
:102E60000000000000007FE0402040200000000043
:102E700070000C0003800040000000004020402053
:102E80007FE0000000000000200040002000000063
:102E900000000010001000100010001000100000D2
:102EA000000040000000000000000000028005401B
:102EB000054003C0004020003FC0044004400380A0
:102EC00000000000038004400440064000000000B1
:102ED0000380044024403FC00040000003800540C0
:102EE000054003400000000004401FC0244024406F
:102EF0002000000002E0055005500650042020404C
:102F00003FC00440040003C000400000044027C04C
:102F100000400000000000100010041027E0000036
:102F2000000020403FC00140070004C00440204092
:102F300020403FC000400040000007C0040007C020
:102F4000040003C00000044007C00440040003C0A4
:102F5000004000000380044004400380000004108F
:102F600007F0045004400380000000000380044088
:102F7000045007F00010044007C0024004000400A1
:102F80000000000006400540054004C000000000AD
:102F900004001F800440004000000400078000403F
:102FA000044007C000400400070004C00180060080
:102FB0000400060001C0070001C006000000044034
:102FC00006C0010006C0044000000410071004E021
:102FD0000180060004000000044005C006400440D3
:102FE00000000000000004007BE040200000000022
:102FF00000000000FFF000000000000040207BE027
:10300000040000000000400080004000200020007C
:103010004000000000000000000000000000000070
:1030200000000000000000001FCC000C00000000A9
:103030000000000008003000600008003000600060
:103040000000022003FC1E20022003FC1E200220A0
:10305000000000000E1811043FFF10840C780000DF
:1030600000000F0010840F3800C007781884007823
:10307000000000780F8410C411240E9800E400842E
:103080000008080068007000000000000000000058
:10309000000000000000000007E0181820044002B3
:1030A0000000000040022004181807E000000000A3
:1030B00000000240024001800FF001800240024007
:1030C00000000080008000800FF8008000800080F9
:1030D00000000001000D000E0000000000000000D4
:1030E00000000000008000800080008000800080E0
:1030F00000800000000C000C000000000000000038
:1031000000000000000600180060018006001800A2
:103110002000000007F0080810041004080807F059
:1031200000000000080408041FFC00040004000064
:10313000000000000E0C10141024104411840E0C1A
:10314000000000000C1810041104110412880C7007
:103150000000000000E00320042408241FFC0024D9
:10316000000000001F9810841104110410881070D2
:103170000000000007F0088811041104188800708E
:10318000000000001C00100010FC13001C001000C8
:10319000000000000E3811441084108411440E38D1
:1031A000000000000700088C10441044088807F055
:1031B0000000000000000000030C030C00000000F1
:1031C00000000000000000010106000000000000F7
:1031D00000000000008001400220041008081004D4
:1031E00000000220022002200220022002200220F1
:1031F00000000000100408080410022001400080B4
:10320000000000000E001200100C106C10800F0067
:10321000000003E00C1813E4142417C4082807D096
:1032200000000004003C03C41C40074000E4001CF4
:10323000000410041FFC1104110411040E88007016
:10324000000003E00C1810041004100410081C10F7
:10325000000010041FFC100410041004080807F0FC
:10326000000010041FFC1104110417C410040818F6
:10327000000010041FFC1104110017C0100008000A
:10328000000003E00C181004100410441C780040E7
:10329000000010041FFC10840080008010841FFCBC
:1032A00010040000100410041FFC1004100400009F
:1032B000000000030001100110011FFE10001000AB
:1032C000000010041FFC110403801464181C100477
:1032D000000010041FFC1004000400040004000C93
:1032E000000010041FFC1F0000FC1F001FFC100446
:1032F000000010041FFC0C04030000E010181FFC69
:10330000100007F00808100410041004080807F063
:10331000000010041FFC10841080108010800F002B
:10332000000007F0081810241024101C080A07F2E7
:10333000000010041FFC1104110011C011300E0C0C
:10334000000400000E1C11041084108410441C386A
:1033500000001800100010041FFC100410001800DA
:10336000000010001FF810040004000410041FF8EF
:10337000100010001E0011E0001C007013801C00E3
:1033800010001FC0103C00E01F0000E0103C1FC0F8
:1033900000001004180C163401C001C01634180CBB
:1033A000100410001C00130400FC13041C00100087
:1033B00000000804101C1064108413041C0410186E
:1033C00000000000000000007FFE400240024002BA
:1033D0000000000030000C0003800060001C0003AF
:1033E000000000004002400240027FFE000000009A
:1033F00000000000000020004000400040002000CD
:1034000000000001000100010001000100010001B5
:10341000000100004000400020000000000000000B
:10342000000000000098012401440144014400FC14
:10343000000410001FFC00880104010400880070D3
:1034400000000000007000880104010401040088ED
:1034500000000000007000880104010411081FFC36
:103460000004000000F8014401440144014400C884
:1034700000000000010401040FFC110411041100FC
:103480001800000000D601290129012901C90106FF
:10349000000010041FFC008401000100010400FC76
:1034A000000400000104190419FC000400040000D9
:1034B00000000000000300010101190119FE0000D5
:1034C000000010041FFC0024004001B4010C0104A2
:1034D00000000000100410041FFC000400040000A1
:1034E0000000010401FC0104010001FC01040100D1
:1034F00000FC010401FC008401000100010400FC47
:103500000004000000F8010401040104010400F8B3
:103510000000010101FF0085010401040088007022
:10352000000000000070008801040104010501FF93
:1035300000010104010401FC008401040100018078
:103540000000000000CC0124012401240124019882
:10355000000000000100010007F801040104000060
:103560000000010001F8000400040004010801FC4F
:103570000004010001800170000C00100160018056
:10358000010001F0010C003001C00030010C01F01D
:10359000010000000104018C00740170018C010421
:1035A0000000010101810171000E0018016001801D
:1035B000010000000184010C013401440184010C6C
:1035C0000000000000000000000001003EFC40027E
:1035D00040020000000000000000FFFF00000000AB
:1035E00000000000400240023EFC0100000000001C
:1035F00000000000600080008000400040002000CB
:10360000200000000000000000000000000000009A
:1036100000000000000000000000000000000000AA
:10362000000000000000000000000000000000009A
:1036300000000000000F80380FFE380F80380000B7
:10364000000000000000000000000000000000007A
:103650000100000600000C000038000031000006E8
:1036600000000C00003800003000000000000000E6
:10367000000061800067F807F980006180006180C8
:103680000061800061800067F807F98000618000B8
:10369000000000000000000001C0E003E0F0063080
:1036A000080418081FFFFE040E080787F00381E0D6
:1036B00000000000000001F000060C0004040806F1
:1036C0000C7001F9C0000E00003BE000EC18070888
:1036D00008040C180003E00000000001E00007F0FF
:1036E00003F818041C0804170807E1D003C0E00021
:1036F00023B0003C0800200800001000000000007B
:10370000000100003100003200001C000000000039
:1037100000000000000000000000000000000000A9
:103720000000000000000000000000000000000099
:1037300000007F0001FFC00780F00C00181000049B
:103740002000020000000000002000021000040C15
:1037500000180780F001FFC0007F0000000000009B
:103760000000000000000000000000000000420017
:10377000006600006600003C0000180003FFC00067
:103780001800003C000066000066000042000000D7
:103790000000080000080000080000080000080001
:1037A00001FFC00008000008000008000008000039
:1037B000080000000000000100003100003200009D
:1037C0001C000000000000000000000000000000DD
:1037D00000000000000000000000080000080000D9
:1037E00008000008000008000008000008000008A9
:1037F00000000800000800000000000000000000B9
:103800000000380000380000380000000000000010
:1038100000000000000000000000000000000000A8
:103820000000000600001C000070000180000E0077
:1038300000380000C0000700001C0000300000003D
:103840000000000000007F8001FFE00380700600A0
:103850001804000804000806001803807001FFE047
:10386000007F80000000000000000000010008014F
:10387000000801000803FFF807FFF8000008000037
:103880000800000800000000000000000001C0382F
:1038900002C0580400980401180402180404180611
:1038A0001C1803F81801E0F80000000000000000F8
:1038B0000001C0E003C0F004000804080804080880
:1038C00006180803F41801E7F00001E0000000000A
:1038D0000000000000000300000D00001100006166
:1038E0000000810803010807FFF80FFFF800010836
:1038F0000001080000000000000000E007FCD00606
:103900000808061008061008061008061838060FE2
:10391000F00607C0000000000000000000003F802B
:1039200001FFE003843002081804100804100804A2
:103930001008071810030FF00007C0000000000077
:103940000000000003C0000700000600000600F8A9
:103950000607F806180006E0000700000600000051
:10396000000000000001E1E003F7F0063410041845
:1039700008041808040C08040C0806161803F3F0D1
:1039800001C1E000000000000000F80003FC30036B
:10399000063804020804020804020804041003089C
:1039A000F001FFC0007F00000000000000000000E8
:1039B00000000000000000000000703800703800B7
:1039C000703800000000000000000000000000004F
:1039D0000000000000000000000000000000301A9D
:1039E00000301C000000000000000000000000008B
:1039F0000000000000000000000800001400002289
:103A000000004100008080010040020020040010FE
:103A10000800080000000000000021000021000054
:103A200021000021000021000021000021000021D0
:103A30000000210000210000000000000000000044
:103A400008000804001002002001004000808000EF
:103A500041000022000014000008000000000000E7
:103A60000003C00004C000040000080038080F383C
:103A70000808380810000C300007E00003C0000000
:103A80000000000000003F8000FFE0038070020F94
:103A90001006708804C088048308047F8802C090E0
:103AA00003012000FE400000080000180001F8009B
:103AB0003E0801C20007020007E20000FE00001FEE
:103AC000C80001F800003800000804000807FFF8EB
:103AD00007FFF80408080408080408080408080692
:103AE000180803F41801E7F00001E00000000000EE
:103AF00000003F8001FFE00380700200180400080E
:103B00000400080400080400100600200780C0001C
:103B1000000004000807FFF807FFF804000804008D
:103B20000804000804001802001003807001FFE080
:103B3000007F8000000004000807FFF807FFF8047A
:103B40000808040808040808040808043E080400DB
:103B50000806001801006000000004000807FFF8D4
:103B600007FFF8040808040800040800040800041B
:103B70003E0006000006000001800000000000007A
:103B800000003F8001FFE003807006001804000879
:103B90000402080402080203F00783F00002000098
:103BA000020004000807FFF807FFF80408080008EF
:103BB0000000080000080000080004080807FFF8DB
:103BC00007FFF804000800000000000004000804DB
:103BD000000804000807FFF807FFF80400080400C5
:103BE00008040008000000000000000000000006BB
:103BF00000000700000104000104000104000307A5
:103C0000FFFE07FFFC0400000400000400000400A5
:103C10000807FFF807FFF8040C08001800003E0032
:103C200004C7800503C80600F80400380400180023
:103C3000000804000807FFF807FFF8040008000068
:103C40000800000800000800000800000800001834
:103C500000006000000004000807FFF80780080764
:103C6000FC00007FC00003F80007C0007800078058
:103C70000807FFF807FFF804000804000807FFF82A
:103C800007000803C00000E000003800001E00002C
:103C900007000001C00400F007FFF8040000000066
:103CA00000007F8001FFE003807006001804000818
:103CB00004000806001803003001FFE0007F8000C8
:103CC000000004000807FFF807FFF80404080404D4
:103CD00000040400040400040400060C0003F800BF
:103CE00001F000000000000000007F8001FFE00301
:103CF00080700600880400880400C806003C0300A9
:103D00003E01FFE6007F8400000004000807FFF882
:103D100007FFF8040808040800040C00040F00045E
:103D20000BC00610F003F03801E0080000080000A6
:103D30000001E0F803F030063010041808041808F9
:103D4000040C08040C080206180207F00781E000C2
:103D500000000180000600000400000400000400D0
:103D60000807FFF807FFF80400080400000400003B
:103D700006000001800004000007FFE007FFF004D8
:103D800000180000080000080000080000080000FB
:103D90000804001007FFE004000004000006000013
:103DA00007E00007FE00041FE00001F800003800F3
:103DB00001E0043E0007C00006000004000004000B
:103DC0000007E00007FFC0041FF80007C007F80065
:103DD00007FF80043FF80007C004F8000700000454
:103DE000000000000004000806001807C07805F174
:103DF000C8003E00001F800463E80780F806001832
:103E0000040008000000040000060000078000070E
:103E1000E008047C08001FF80007F800180804E018
:103E20000807000006000004000000000001000870
:103E30000600380400F80403E8040F08047C0805B1
:103E4000F00807C008070018040060000000000028
:103E5000000000000000000000000000003FFFFE26
:103E600020000220000220000220000220000200A8
:103E7000000000000000000008000007000000C073
:103E8000000038000006000001C000003000000EF5
:103E900000000100000000000000000020000220DF
:103EA00000022000022000022000023FFFFE00006E
:103EB0000000000000000000000000000000000002
:103EC000000000080000100000300000200000305A
:103ED00000001000000800000000000000000000CA
:103EE00001000001000001000001000001000001CC
:103EF00000000100000100000100000100000100BD
:103F00000001000000000000000000200000200070
:103F10000010000010000000000000000000000081
:103F20000000000000000000000000F00019F80090
:103F30001B18002208002608002408002410003F57
:103F4000F8001FF80000080000180000000400003E
:103F500007FFF80FFFF000181800100800200800F5
:103F60002008003018001FF0000FC0000000000003
:103F7000000007C0001FF0001830002008002008D3
:103F8000002008003C08001C100000600000000039
:103F900000000000000007C0001FF00038180020DB
:103FA0000800200800200804101007FFF80FFFF099
:103FB0000000100000000000000000000007C0002A
:103FC0001FF00012300022180022080022080032E0
:103FD00008001E10000E200000000000000020005D
:103FE00000200800200801FFF803FFF8062008045D
:103FF0002008042008072000030000000000000043
:104000000000000E000E6E001FF30031B10020B161
:104010000020B1003191001F13002E1E00200E0061
:10402000300000000004000807FFF80FFFF8001040
:1040300008002000002000002008003FF8001FF8C2
:104040000000080000000000000000000020080040
:104050002008002008063FF8063FF800000800008E
:104060000800000800000000000000000000000040
:1040700000000300000300200100200100200306CF
:104080003FFE063FFC0000000000000000000000B2
:104090000004000807FFF80FFFF800018800030084
:1040A000002FC00038F80020380020080000080069
:1040B00000000000000000000400080400080400E4
:1040C0000807FFF80FFFF8000008000008000008CC
:1040D000000000000000002008003FF8003FF8004A
:1040E0001008002000003FF8003FF80010080020F2
:1040F00000003FF8003FF800000800000000200822
:10410000003FF8003FF800100800100000200000F9
:104110002008003FF8001FF8000008000000000021
:10412000000007C0000FF000183000300800200821
:10413000002008003008001830000FF00007C00011
:104140000000000000002001003FFF003FFF0010C2
:1041500011002009002008002008003038001FF05E
:10416000000FC00000000000000007C0001FF000AA
:104170003818002008002008002009001011001F36
:10418000FF003FFF000001000000002008002008A1
:10419000002008003FF8003FF80008080010080061
:1041A0002008002000003000003000000000000067
:1041B00000000000000C78001E18003308002308DF
:1041C0000021080021880021980030F000386000AC
:1041D000000000000000200000200000200000FF80
:1041E000F003FFF80020080020080020080000303D
:1041F000000000000000000000002000003FF00070
:104200007FF8000018000008000008002010003FA0
:10421000F8007FF000001000000000000000200007
:10422000003000003C00003F800023F000007800D8
:104230000070002380003C000030000020000020BF
:1042400000003C00003FE00023F80000E0002700F1
:10425000003E00003FE00021F80001E0003E0000C9
:104260002000000000002008002008003838003E30
:10427000680027800003C8002CF800383800201898
:1042800000200800000000000000200000300300B3
:104290003C01003F830023EC000070002380003CC1
:1042A00000002000002000000000000000000000CE
:1042B0000038080020380020F80023E8002F88008C
:1042C0003E080038080020180000700000000000C0
:1042D00000000000000000000000000000000800D6
:1042E0000014001FF7FC3000062000020000000050
:1042F00000000000000000000000000000000000BE
:1043000000000000FFFFFF000000000000000000B0
:10431000000000000000000000000000200002304B
:1043200000061FF7FC001400000800000000000059
:104330000000000000000000000000000018000065
:104340006000004000004000002000001000000855
:1043500000000400000400000C0000100000000039
:10436000000000000000000000000000000000004D
:10437000000000000000000000000000000000003D
:10438000000000000000000000000000000000002D
:10439000000000000000000000000000000000001D
:1043A000000000000000000000000000000000000D
:1043B00000000000000000000000000000000000FD
:1043C00000000000000000000000000000000000ED
:1043D00000000000000000000000000000000000DD
:1043E00000000000000000000000000000000000CD
:1043F00000000000000007F000C007FFE1E007F048
:1044000001E0000000C0000000000000000000000B
:10441000000000000000000000000000000000009C
:10442000000000000000000000000000000000008C
:10443000000000000000000000000000000000007C
:10444000000000000000000000000000000000006C
:10445000000000000000000000000000000000005C
:104460000000000000000020000001C000000780E4
:1044700000001F0000001E0000001C20000001C002
:104480000000078000001F0000001E0000001C004C
:10449000000000000000000000000000000000001C
:1044A000000000000000000000000000000000000C
:1044B00000000000000000000000000000000000FC
:1044C00000000000000000000000000000000000EC
:1044D00000000000000000000000000000000000DC
:1044E000000000180C0000180C0000180FE0001F5E
:1044F000FC0003F80C0000180C0000180C00001859
:104500000C0000180C0000180FE0001FFC0003F85E
:104510000C0000180C0000180C0000000000000047
:10452000000000000000000000000000000000008B
:10453000000000000000000000000000000000007B
:10454000000000000000000000000000000000006B
:10455000000000000000000000000000000000005B
:1045600000000000000000000780007807C000FC89
:104570000640010E002003070020020380200FFFE9
:10458000FFFC0201C0200200E0600130704001F039
:104590003F8000F01F00000000000000000000004D
:1045A000000000000000000000000000000000000B
:1045B00000000000000000000000000000000000FB
:1045C00000000000000000000000000000000000EB
:1045D000000000000000000000000000000000FEDD
:1045E000000001FF00000301800002008060030161
:1045F00081C001FF070000FE18000000E00000037A
:10460000BF00000CFFC00071806001C100200301E9
:1046100080600000FFC000003F00000000000000BC
:10462000000000000000000000000000000000008A
:10463000000000000000000000000000000000007A
:10464000000000000000000000000000000000006A
:10465000000000000000000000000000000000005A
:104660001F0000007FC000FCC0C001FF806003038A
:10467000E0200202782002061E2003FC074001F021
:104680000380000103C000011C600001E020000164
:104690000020000100400000018000000000000038
:1046A000000000000000000000000000000000000A
:1046B00000000000000000000000000000000000FA
:1046C00000000000000000000000000000000000EA
:1046D00000000000000000000000000000000000DA
:1046E0000000002000001C6000001C4000001F8033
:1046F00000000F00000000000000000000000000AB
:1047000000000000000000000000000000000000A9
:104710000000000000000000000000000000000099
:104720000000000000000000000000000000000089
:104730000000000000000000000000000000000079
:104740000000000000000000000000000000000069
:104750000000000000000000000000000000000059
:104760000000000000000000000000000000000049
:10477000000000000000000000000007F800003FFB
:10478000FF00007807C001C000E003000030040013
:1047900000080800000410000002000000000000F3
:1047A0000000000000000000000000000000000009
:1047B00000000000000000000000000000000000F9
:1047C00000000000000000000000000000000000E9
:1047D00000000000000000000000000000000000D9
:1047E000000010000002080000040400000803009C
:1047F000003001C000E0007807C0003FFF00000764
:10480000F8000000000000000000000000000000B0
:104810000000000000000000000000000000000098
:104820000000000000000000000000000000000088
:104830000000000000000000000000000000000078
:104840000000000000000000000000000000000068
:104850000000000000000000000000000000000058
:10486000000000000000000C1800000E3800000ED0
:10487000380000063000000360000061438000FF44
:10488000FF80006143000003600000063000000E5E
:104890003800000E3800000C180000000000000076
:1048A0000000000000000000000000000000000008
:1048B00000000000000000000000000000000000F8
:1048C00000000000000000000000000000000000E8
:1048D00000000000000000000000000000000000D8
:1048E00000000000000000008000000080000000C8
:1048F0008000000080000000800000008000007F39
:10490000FF00000080000000800000008000000028
:104910008000000080000000800000000000000017
:104920000000000000000000000000000000000087
:104930000000000000000000000000000000000077
:104940000000000000000000000000000000000067
:104950000000000000000000000000000000000057
:10496000000000000001000000E3000000E2000081
:1049700000FC0000007800000000000000000000C3
:104980000000000000000000000000000000000027
:104990000000000000000000000000000000000017
:1049A0000000000000000000000000000000000007
:1049B00000000000000000000000000000000000F7
:1049C00000000000000000000000000000000000E7
:1049D00000000000000000000000000000000000D7
:1049E0000000000080000000800000008000000047
:1049F00080000000800000008000000080000000B7
:104A000080000000800000008000000080000000A6
:104A10008000000080000000800000000000000016
:104A20000000000000000000000000000000000086
:104A30000000000000000000000000000000000076
:104A40000000000000000000000000000000000066
:104A50000000000000000000000000000000000056
:104A6000000000000000000000C0000001E00000A5
:104A700001E0000000C00000000000000000000095
:104A80000000000000000000000000000000000026
:104A90000000000000000000000000000000000016
:104AA0000000000000000000000000000000000006
:104AB00000000000000000000000000000000000F6
:104AC00000000000000000000000000000000000E6
:104AD00000000000000000000000000000000000D6
:104AE00000000000000C00000038000000E00000A2
:104AF000038000000E00000038000000E00000030A
:104B00008000000E00000038000000E0000003807C
:104B100000000E000000180000000000000000006F
:104B20000000000000000000000000000000000085
:104B30000000000000000000000000000000000075
:104B40000000000000000000000000000000000065
:104B50000000000000000000000000000000000055
:104B6000000000000000000FF800007FFF0000F0D0
:104B70000780018000C003000060020000200200E6
:104B800000200200002003000060018000C000E05F
:104B90000380007FFF00000FF8000000000000000D
:104BA0000000000000000000000000000000000005
:104BB00000000000000000000000000000000000F5
:104BC00000000000000000000000000000000000E5
:104BD00000000000000000000000000000000000D5
:104BE00000000000000000000000008000200080A5
:104BF0000020008000200080006001FFFFE003FF34
:104C0000FFE0000000600000002000000020000025
:104C10000020000000000000000000000000000074
:104C20000000000000000000000000000000000084
:104C30000000000000000000000000000000000074
:104C40000000000000000000000000000000000064
:104C50000000000000000000000000000000000054
:104C6000000000000000007800E0009801600100F2
:104C7000026002000460020008600200106002008E
:104C8000206002004060030080600183006001FE3C
:104C900000E0007C07800000000000000000000031
:104CA0000000000000000000000000000000000004
:104CB00000000000000000000000000000000000F4
:104CC00000000000000000000000000000000000E4
:104CD00000000000000000000000000000000000D4
:104CE00000000000000000F0078001F007C0010094
:104CF0000040020000200201002002010020020109
:104D00000020030380200186804001FCC0C00078A1
:104D10007F8000001E000000000000000000000076
:104D20000000000000000000000000000000000083
:104D30000000000000000000000000000000000073
:104D40000000000000000000000000000000000063
:104D50000000000000000000000000000000000053
:104D600000000000080000003800000048000001BA
:104D7000880000060800000C0810003008100040F1
:104D8000081001FFFFF003FFFFF003FFFFF000003A
:104D900008100000081000000810000000000000CB
:104DA0000000000000000000000000000000000003
:104DB00000000000000000000000000000000000F3
:104DC00000000000000000000000000000000000E3
:104DD00000000000000000000000000000000000D3
:104DE00000000000000000000780001F864003E173
:104DF0000020030200200304002003040020030419
:104E000000200304002003060040030301C0030147
:104E1000FF8003007E000000000000000000000092
:104E20000000000000000000000000000000000082
:104E30000000000000000000000000000000000072
:104E40000000000000000000000000000000000062
:104E50000000000000000000000000000000000052
:104E60000000000000000007FC00003FFF00007091
:104E7000C380008180C001010060030200200202A3
:104E8000002002020020020200200203004001C1B3
:104E900080C000C0FF8000007E0000000000000015
:104EA0000000000000000000000000000000000002
:104EB00000000000000000000000000000000000F2
:104EC00000000000000000000000000000000000E2
:104ED00000000000000000000000000000000000D2
:104EE00000000000000000F0000003C0000003808C
:104EF000000003000000030007E003003FE003019F
:104F0000C0000306000003180000036000000380D7
:104F1000000003000000000000000000000000008E
:104F20000000000000000000000000000000000081
:104F30000000000000000000000000000000000071
:104F40000000000000000000000000000000000061
:104F50000000000000000000000000000000000051
:104F6000000000001F0000783F8000FC60C0018E40
:104F7000C0400307802002030020020180200201BC
:104F800080200201C0200301E040018670C000FCC7
:104F90003F8000781F0000000000000000000000BB
:104FA0000000000000000000000000000000000001
:104FB00000000000000000000000000000000000F1
:104FC00000000000000000000000000000000000E1
:104FD00000000000000000000000000000000000D1
:104FE0000000003F000000FF81C001C0C1C00100FF
:104FF0006020020020200200202002002020020069
:105000002060020040C00100C18000C18F00007F0D
:10501000FE00001FF0000000000000000000000083
:105020000000000000000000000000000000000080
:105030000000000000000000000000000000000070
:105040000000000000000000000000000000000060
:105050000000000000000000000000000000000050
:105060000000000000000000000000000000000040
:10507000000000000000000300C0000781E00007FE
:1050800081E0000300C000000000000000000000FC
:105090000000000000000000000000000000000010
:1050A0000000000000000000000000000000000000
:1050B00000000000000000000000000000000000F0
:1050C00000000000000000000000000000000000E0
:1050D00000000000000000000000000000000000D0
:1050E00000000000000000000000000000000000C0
:1050F00000000000000000060066000600780000C6
:10510000000000000000000000000000000000009F
:10511000000000000000000000000000000000008F
:10512000000000000000000000000000000000007F
:10513000000000000000000000000000000000006F
:10514000000000000000000000000000000000005F
:10515000000000000000000000000000000000004F
:10516000000000000000000080000001C0000003FB
:10517000600000063000000C180000180C00003021
:1051800006000060030000C0018001000040020032
:1051900000200400001000000000000000000000DB
:1051A00000000000000000000000000000000000FF
:1051B00000000000000000000000000000000000EF
:1051C00000000000000000000000000000000000DF
:1051D00000000000000000000000000000000000CF
:1051E000000000041000000410000004100000047F
:1051F000100000041000000410000004100000045F
:10520000100000041000000410000004100000044E
:105210001000000410000004100000000000000056
:10522000000000000000000000000000000000007E
:10523000000000000000000000000000000000006E
:10524000000000000000000000000000000000005E
:10525000000000000000000000000000000000004E
:105260000000000000000400001002000020010007
:10527000004000C0018000600300003006000018FC
:105280000C00000C18000006300000036000000154
:10529000C0000000800000000000000000000000CE
:1052A00000000000000000000000000000000000FE
:1052B00000000000000000000000000000000000EE
:1052C00000000000000000000000000000000000DE
:1052D00000000000000000000000000000000000CE
:1052E0000000000000000078000001F80000023813
:1052F000000002000000040000C0040079E0040087
:1053000081E0040100C00403000002020000030663
:10531000000001FC000000F8000000000000000098
:10532000000000000000000000000000000000007D
:10533000000000000000000000000000000000006D
:10534000000000000000000000000000000000005D
:10535000000000000000000000000000000000004D
:105360000000000FF800003FFE000070078000C042
:1053700000C00101F8400307FC20021E0420023097
:10538000082002203020023FFC20013F0440018021
:105390000CC000E03180001FC200000000000000CF
:1053A00000000000000000000000000000000000FD
:1053B00000000000000000000000000000000000ED
:1053C00000000000000000000000000000000000DD
:1053D00000000000000000000000000000000000CD
:1053E000002000000060000003E000003E200003F9
:1053F000E020003E200003E020000380200007FCA6
:105400002000003FE0000003FE2000003FE000001D
:1054100001E000000020000000200000000000006B
:10542000000000000000000000000000000000007C
:10543000000000000000000000000000000000006C
:10544000000000000000000000000000000000005C
:10545000000000000000000000000000000000004C
:105460000000020000200200002003FFFFE003FF15
:10547000FFE00201002002010020020100200201E1
:10548000002002010020030300200186806001FC4F
:10549000C0C000F87F8000001F0000000000000076
:1054A00000000000000000000000000000000000FC
:1054B00000000000000000000000000000000000EC
:1054C00000000000000000000000000000000000DC
:1054D00000000000000000000000000000000000CC
:1054E00000000007F800003FFF000070078000C0C8
:1054F00000C0010000400300002002000020020064
:105500000020020000200200002001000040018075
:1055100000C003C001800030060000000000000051
:10552000000000000000000000000000000000007B
:10553000000000000000000000000000000000006B
:10554000000000000000000000000000000000005B
:10555000000000000000000000000000000000004B
:105560000000020000200200002003FFFFE003FF14
:10557000FFE00200002002000020020000200200E4
:1055800000200300006001000040018000C000F026
:105590000780007FFE00000FF80000000000000000
:1055A00000000000000000000000000000000000FB
:1055B00000000000000000000000000000000000EB
:1055C00000000000000000000000000000000000DB
:1055D00000000000000000000000000000000000CB
:1055E0000000020000200200002003FFFFE003FF94
:1055F000FFE0020100200201002002010020020160
:1056000000200201002002038020020FE02003009E
:10561000006003C000E00060030000000000000024
:10562000000000000000000000000000000000007A
:10563000000000000000000000000000000000006A
:10564000000000000000000000000000000000005A
:10565000000000000000000000000000000000004A
:105660000000020000200200002003FFFFE003FF13
:10567000FFE00201002002010020020100000201FF
:105680000000020100000201000002038000030F7D
:10569000E0000300000003C0000000600000000004
:1056A00000000000000000000000000000000000FA
:1056B00000000000000000000000000000000000EA
:1056C00000000000000000000000000000000000DA
:1056D00000000000000000000000000000000000CA
:1056E00000000007F800003FFE000070078001C0C6
:1056F00001C0010000400300002002000020020061
:10570000002002000020010020200100204003C0F2
:105710003F8000303F80000020000000200000009B
:105720000000000000000000000000000000000079
:105730000000000000000000000000000000000069
:105740000000000000000000000000000000000059
:105750000000000000000000000000000000020047
:1057600000200200002003FFFFE003FFFFE0020033
:1057700080200200802000008000000080000000E7
:105780008000020080200200802003FFFFE003FF72
:10579000FFE00200002002000020000000000000E6
:1057A00000000000000000000000000000000000F9
:1057B00000000000000000000000000000000000E9
:1057C00000000000000000000000000000000000D9
:1057D00000000000000000000000000000000000C9
:1057E0000000000000000000000002000020020095
:1057F0000020020000200200002003FFFFE003FF62
:10580000FFE0020000200200002002000020020051
:105810000020000000000000000000000000000068
:105820000000000000000000000000000000000078
:105830000000000000000000000000000000000068
:105840000000000000000000000000000000000058
:105850000000000000000000000000000000000048
:1058600000000000000E0000000F0000000F00000C
:10587000000102000001020000010200000302001A
:10588000000603FFFFFC03FFFFF802000000020018
:105890000000020000000200000000000000000004
:1058A00000000000000000000000000000000000F8
:1058B00000000000000000000000000000000000E8
:1058C00000000000000000000000000000000000D8
:1058D00000000000000000000000000000000000C8
:1058E0000000020000200200002003FFFFE003FF91
:1058F000FFE00200C0200201002000078000000F2E
:10590000E0000030F80002603E2003800F2003001A
:1059100003E0020000E00200002000000020000080
:105920000000000000000000000000000000000077
:105930000000000000000000000000000000000067
:105940000000000000000000000000000000000057
:105950000000000000000000000000000000000047
:105960000000020000200200002003FFFFE003FF10
:10597000FFE00200002002000020000000200000E4
:105980000020000000200000002000000020000097
:105990000060000000E000000300000000000000C4
:1059A00000000000000000000000000000000000F7
:1059B00000000000000000000000000000000000E7
:1059C00000000000000000000000000000000000D7
:1059D00000000000000000000000000000000200C5
:1059E00000200200002003FFFFE003E0002003FF8F
:1059F0000020001FF0000001FF8000000FE0000009
:105A00001E000003E000003E002003E0002003FF32
:105A1000FFE003FFFFE00200002002000020000082
:105A20000000000000000000000000000000000076
:105A30000000000000000000000000000000000066
:105A40000000000000000000000000000000000056
:105A50000000000000000000000000000000020044
:105A600000200200002003FFFFE00380002003F07D
:105A7000002000FC0000001F00000007C000000123
:105A8000F00000007C0002001F80020007E003FF1E
:105A9000FFE0020000000200000000000000000023
:105AA00000000000000000000000000000000000F6
:105AB00000000000000000000000000000000000E6
:105AC00000000000000000000000000000000000D6
:105AD00000000000000000000000000000000000C6
