:020000040800F2
:1000000008050020490100088D0D0008710900084D
:10001000890D000835070008731C00080000000067
:100020000000000000000000000000004D14000867
:100030003907000800000000210E000861150008C3
:10004000630100086301000863010008D91100087A
:1000500063010008630100086301000863010008F0
:1000600063010008630100086301000863010008E0
:1000700063010008630100086301000863010008D0
:1000800063010008630100086301000863010008C0
:1000900063010008630100086301000863010008B0
:1000A00063010008630100086301000863010008A0
:1000B0006301000863010008630100086301000890
:1000C0006301000863010008630100086301000880
:1000D000630100086D19000863010008630100084E
:1000E0006301000863010008630100086301000860
:1000F0006301000863010008630100086301000850
:10010000630100086301000863010008630100083F
:10011000630100086301000863010008630100082F
:10012000630100086301000863010008630100081F
:10013000DFF810D000F0B0FA004800477532000830
:10014000AFF30080080500200648804706480047B6
:10015000FEE7FEE7FEE7FEE7FEE7FEE7FEE7FEE777
:10016000FEE7FEE7A11500083101000840EA01039F
:100170009B0703D009E008C9121F08C0042AFAD25D
:1001800003E011F8013B00F8013B521EF9D2704721
:100190002DE9FE4F804681EA0300C00F0C46009017
:1001A00021F0004123F00045B8EB0200A94105D23F
:1001B0004046214690461C460B46024623F000402E
:1001C000104347D0270DC7F30A00C3F30A5102902A
:1001D000401A019040286BDAC3F3130040F4801BEF
:1001E0000098924620B10023D2EB030A63EB0B0B7D
:1001F00001985946C0F14002504600F0BFF906464A
:100200000D4650465946019A00F0D7F910EB080008
:100210006141002487EA115284EAE7731A4340D00F
:10022000009A62B3019A012A4FEA075215DC001BBB
:1002300061EB02014FF0004202EA0752CDE90042B1
:10024000001C41F5801132462B4600F0D7F903B06F
:10025000BDE8F08F40462146F9E7001B61EB020143
:10026000001C41F5801300185B412018A2F500170F
:1002700047EB030140EAD570B6196D4111E06D08F6
:100280004FEA360645EAC0754FEA0752001B61EB9C
:100290000201001C41F5801149084FEA30000019A5
:1002A000514132462B4603B0BDE8F04F00F097B9FC
:1002B0000098012240000023D0EB020263EBE073C0
:1002C000009821464FEAE074B8EB000061EB0401AE
:1002D000E9E783F000435BE781F0004158E72DE94F
:1002E000FE4F81EA030404F0004421F00041009431
:1002F0004FF0000B23F0004350EA01045ED052EAB5
:1003000003045BD0C3F30A54C1F30A552C44A4F28E
:10031000F3340194A0FB0254C1F3130141F48011A2
:10032000C3F3130343F4801301FB024400FB034EA9
:10033000840A970A44EA815447EA8357A4FB076872
:1003400002958D0A05FB07854FEA932C04FB0C549C
:100350002705029D4FEA065847EA1637B5EB080510
:100360006EEB070C870E920E47EA811742EA831262
:10037000A7FB0201B6EB0B0164EB00042B0D43EA73
:100380000C335E1844EB1C50DA465146E7FB020181
:10039000C5F313044FEA0B3343EA14534FEA043214
:1003A000019C43EA0603A4F10C040294009CCDE9ED
:1003B00000B400F023F903B0BDE8F08F002001463F
:1003C000F9E72DE9F04D81EA030404F0004B21F038
:1003D000004514464FF0000A23F0004150EA0502A0
:1003E00020D054EA01021DD0C5F30A570246C5F3D6
:1003F0001303C1F31300C1F30A5640F4801543F40C
:100400008013A7EB0608101BD64608F2FD3873EBE5
:10041000050002D308F1010801E092185B41B8F130
:10042000000F03DA00200146BDE8F08D00204FF4F4
:100430008011064684460EE0171B73EB050705D3B3
:10044000121B63EB050306434CEA010C49084FEA13
:10045000300092185B4150EA0107EDD152EA0300E7
:1004600012D082EA040083EA0501084305D0101B7C
:10047000AB4106D20122002306E000224FF00043E8
:1004800002E06FF0010253101AEB06004CEB08512A
:1004900010EB0A0041EB0B01BDE8F04D00F09FB8F6
:1004A0000EB5C10F80EAE0700844CA07002140F28F
:1004B00033438DE80E000A460B4600F09FF803B068
:1004C00000BD0EB540F2334102910021CDE900118B
:1004D0000A460B4600F092F803B000BD70B5C1F3B8
:1004E0000A5201F000450024C1F3130140F2FF332A
:1004F00041F480119A4201DA002070BD40F233438A
:100500009A42A2F2334203DC524200F046F800E085
:1005100090402C43F1D0404270BD2DE9F05F05467C
:10052000002092469B4688460646814640241BE0B2
:10053000284641464746224600F02FF853465A4681
:10054000C01A914110D311461846224600F016F801
:100550002D1A67EB01084F4622460120002100F0CA
:100560000DF817EB00094E41201EA4F10104DFDC59
:10057000484631462A464346BDE8F09F202A04DB20
:10058000203A00FA02F1002070479140C2F12003A6
:1005900020FA03F3194390407047202A04DB203AE5
:1005A00021FA02F00021704721FA02F3D040C2F193
:1005B00020029140084319467047202A06DBCB17DA
:1005C000203A41FA02F043EAE07306E041FA02F30E
:1005D000D040C2F12002914008431946704710B53F
:1005E000141E73F1000408DA401C41F10001921856
:1005F0005B411A4301D120F0010010BD2DE9F04DFF
:1006000092469B4611B1B1FA81F202E0B0FA80F253
:1006100020329046FFF7B2FF04460F4640EA0A0038
:1006200041EA0B0153465A46084313D0114653EA98
:10063000010019D0C8F140025046FFF7AEFF054651
:100640000E46504659464246FFF798FF084305D0EC
:10065000012004E020463946BDE8F08D0020054326
:1006600046EAE0762C4337430A986305E40AA0EB98
:1006700008000022FD0A44EA47540A3002D500204F
:100680000146E9E7010510196941DDE9084500194E
:100690006941BDE8F04DA2E7064C074D06E0E06871
:1006A00040F0010394E8070098471034AC42F6D3B9
:1006B000FFF742FD787E0008987E000870B521F0B3
:1006C000004303430CD0C1F30A550024D5EB0405C5
:1006D00064EB0403D617AD1AB34102DB00200146D8
:1006E00070BD201841EB025170BD10B5012000F023
:1006F000C9FB002000F0C6FB10BD000008B5014694
:100700000020009003480090009808440090009852
:10071000008808BD006C004008B500220092044A21
:100720000092009A02440092009A116008BD0000F5
:10073000006C004000BFFEE77047000051B182002E
:10074000A2F1C042126842F001038200A2F1C0424D
:10075000136009E08200A2F1C0421268034B1A4004
:100760008300A3F1C0431A6070470000FEFF0F0032
:10077000D0E901121143C268114302691143426971
:10078000114382691143C2691143026A1143426AEB
:100790001143826A1143C26A1143026B114302681A
:1007A0009200A2F1C0421160816808290BD1016852
:1007B0008900A1F1C041096841F040020168890047
:1007C000A1F1C0410A60416B0968426B526841EA7D
:1007D0000211426B926841EA0221426B928941EA1E
:1007E0000241426B128A41EA0251426B127D41EA98
:1007F0000261426B926911430268521C9200A2F19D
:10080000C0421160C16AB1F5804F1BD1816B09688C
:10081000826B526841EA0211826B926841EA0221BE
:10082000826B128A41EA0251826B127D41EA0261B7
:10083000826B9269114302689200A2F1C042C2F831
:10084000041107E06FF0704201688900A1F1C04116
:10085000C1F8042170472DE9F04102460025002629
:10086000002000230024002791F803C00CF00F059E
:1008700091F803C00CF0100CBCF1000F03D091F8FC
:1008800002C04CEA050591F800C0BCF1000F31D060
:10089000146800202BE04FF0010C0CFA00F3B1F8C3
:1008A00000C00CEA03069E4220D183004FF00F0CDB
:1008B0000CFA03F7BC4305FA03FC4CEA040491F874
:1008C00003C0BCF1280F06D14FF0010C0CFA00FC5C
:1008D000C2F814C00AE091F803C0BCF1480F05D17A
:1008E0004FF0010C0CFA00FCC2F810C0401C0828A4
:1008F000D1D31460B1F800C0BCF1FF0F34DD5468EF
:1009000000202EE000F1080C4FF0010808FA0CF36B
:10091000B1F800C00CEA03069E4221D183004FF0DB
:100920000F0C0CFA03F7BC4305FA03FC4CEA040471
:1009300091F803C0BCF1280F05D100F1080C08FAAA
:100940000CF8C2F8148091F803C0BCF1480F07D12D
:1009500000F1080C4FF0010808FA0CF8C2F81080FA
:10096000401C0828CED35460BDE8F0810161704777
:1009700000BFFEE70146CA1701EB92729210A1EB8D
:10098000820292B9642091FBF0F200FB121050B980
:100990004FF4C87091FBF0F200FB121008B901206F
:1009A00070470020FCE70120FAE70020F8E700008C
:1009B00070B506460F484088401E83B20D48008837
:1009C000401E82B20021084600F0B6F800240CE078
:1009D000002504E0304600F0A9F9681C85B20548FE
:1009E0004088A842F6DC601C84B202480088A0421D
:1009F000EEDC70BD1800002000B502460F48827181
:100A00006AB9362000F086F94C2000F089F94FF4DD
:100A1000F0700A4948804FF4A07008800CE036203E
:100A200000F078F92C2000F07BF94FF4A070034916
:100A300048804FF4F070088000BD000018000020CE
:100A400070B504460D4616462B46224629462046DA
:100A500000F072F8304600F069F970BD2DE9FF4FE3
:100A600084B081468A460020039002900698A0EB4D
:100A700009050798A0EB0A06CDF80490CDF800A070
:100A8000002D01DD012705E00DB9002702E04FF040
:100A9000FF376D42002E02DD4FF0010806E016B967
:100AA0004FF0000802E04FF0FF387642B54201DD1A
:100AB0002C4600E034464FF0000B21E0009A91B242
:100AC000019A90B200F022F803982844039002980B
:100AD000304402900398A04205DD0398001B039068
:100AE0000198384401900298A04205DD0298001B4D
:100AF00002900098404400900BF101001FFA80FB27
:100B0000601C8345DADD08B0BDE8F08F30B50446DF
:100B10000D462B4622462946204600F00DF8024895
:100B2000008800F003F930BD14000020014800885F
:100B3000704700000008006C30B504460D462A20BE
:100B400000F0E8F8201200F0EBF8E0B200F0E8F86E
:100B5000101200F0E5F8D0B200F0E2F82B2000F01F
:100B6000D9F8281200F0DCF8E8B200F0D9F8181231
:100B700000F0D6F8D8B200F0D3F82C2000F0CAF874
:100B800030BD00002DE9F84F80460E4617461C4642
:100B9000B3462046E31704EB5373DB1021464FEABC
:100BA000E47C04EB5C7C4FEAEC0CA4EBCC0CBCF1D9
:100BB000000F02D04FF0010C01E04FF0000C634435
:100BC000224604EBD27C4FEA6C0C03FB0CF3DBB245
:100BD0000093A7F12000C7B2002556E00C2C07D1E6
:100BE00007EB47002B4901EB800010F8059013E05C
:100BF000102C05D1284800EB071010F805900BE0E9
:100C0000182C07D107EBC700244901EB800010F82E
:100C1000059001E0BDE8F88F4FF0000A2FE009F0E1
:100C2000800030B11E48028831464046FFF708FF79
:100C300007E00A9828B91B48028831464046FFF76A
:100C4000FFFE4FEA49604FEA1069701C86B21648F1
:100C50004088B04200DCDDE7A6EB0B00A0420AD1E1
:100C60005E4608F101001FFA80F80F4800884045F1
:100C700000DCCFE706E00AF1010000F0FF0ABAF15C
:100C8000080FCCDB00BF681CC5B200988542A5DB0D
:100C900000BFBFE7283400089C3800088C3E0008DD
:100CA0001400002016000020180000202DE9F8474D
:100CB00004460D4690469946DDE9096704F0FF0AAF
:100CC00008EB04001FFA80F809EB05001FFA80F911
:100CD00016E0444502DB5446A81985B24D4500DBB9
:100CE00014E0002000903A78334629462046FFF76A
:100CF00049FF304606EBD07104EB61018CB27F1CDA
:100D000038787E2802DC38782028E2DA00BFBDE897
:100D1000F88700000149088070470000FE07006C5A
:100D200001490880704700000008006C0112024A67
:100D30001180C1B2118070470008006C08B5012114
:100D4000482000F08FF82020ADF8000010208DF82A
:100D5000030003208DF8020069460948FFF77BFD78
:100D600020210748FFF702FE2020ADF80000694669
:100D70000448FFF770FD20210248FFF7F7FD08BD8A
:100D8000000C01400018014000BFFEE77047000062
:100D900070B5002100230F22C47804B3154C2468D9
:100DA00004F4E064C4F5E064210AC1F10403CA401C
:100DB000447804FA03F184781440214309010E4C6D
:100DC0000678A155047804F01F050124AC4005788D
:100DD0006D11AD0005F1E025C5F8004109E004788A
:100DE00004F01F050124AC40044D0678761145F847
:100DF000264070BD0CED00E000E400E080E100E082
:100E000002490143024A1160704700000000FA05E0
:100E10000CED00E0014908627047000000000E423E
:100E20007047000029B1064A52690243044B5A61D7
:100E300004E0034A52698243014B5A617047000043
:100E40000010024029B1064AD2690243044BDA611C
:100E500004E0034AD2698243014BDA617047000023
:100E60000010024029B1064A92690243044B9A617C
:100E700004E0034A92698243014B9A617047000083
:100E800000100240014908607047000040044242DF
:100E900030B500210022002400232D4D6D6805F09F
:100EA0000C0121B1042905D0082923D105E0294DE1
:100EB000056022E0274D05601FE0254D6D6805F4B3
:100EC0007012234D6D6805F48034022505EB9242C3
:100ED0001CB9214D554305600BE01D4D6D6805F4AF
:100EE00000351DB11C4D5543056002E0194D5543B9
:100EF000056002E0174D056000BF00BF144D6D682E
:100F000005F0F0010909154D6B5C0568DD40456091
:100F10000F4D6D6805F4E061090A104D6B5C456882
:100F2000DD4085600A4D6D6805F46051C90A0B4DBE
:100F30006B5C4568DD40C560054D6D6805F440415A
:100F4000890B074D6B5CC568B5FBF3F5056130BDDA
:100F50000010024000127A0000093D00000000204D
:100F60001000002010B501460022002300204A1185
:100F7000012A02D1094C236806E0022A02D1074C5B
:100F8000236A01E0054C636A01F01F0201249440CA
:100F90001C400CB1012000E0002010BD00100240F8
:100FA00000210B4A11700A4A203A82F820100128C9
:100FB00002D0042808D103E00121054A117004E0A1
:100FC0000521034A117000E000BF00BF7047000018
:100FD0002010024001490860704700003C04424272
:100FE0000249096A0143014A116270470010024038
:100FF000024909888143014A118070470428004052
:101000000348008840F01000014908807047000044
:1010100004280040034800884FF6EF71084001495A
:10102000088070470428004070B500260024002581
:1010300000F07AF806463848B6FBF0F437480088E6
:10104000A0423CD035490C8040F2B27510E02846F1
:10105000FFF790FC40B1B4F5B77F02D3A4F5B774A5
:1010600004E0681C85B206E0A4F26D14681C85B229
:10107000B4F5B67FEBD800BF29488580002516E07F
:1010800027498888FFF776FC30B1012D04D11D2C4B
:1010900001D31D3C09E00CE02248405DA04203D88A
:1010A0002048405D241A00E003E0681C85B21C2C37
:1010B000E6D200BF681C1A498871601CC8711648C6
:1010C000B6FBF0F100FB11644FF46160B4FBF0F08B
:1010D000134908704FF46160B4FBF0F100FB11405C
:1010E0003C21B0FBF1F00E4948704FF46160B4FB55
:1010F000F0F100FB11403C21B0FBF1F201FB1200CA
:10110000074988700B46DA799979988800F028F8B1
:1011100003490872002070BD8051010022000020A8
:10112000340000204C7D0008002103480188001F86
:10113000008841EA004070471C280040014600201A
:10114000064A12880A40D0B2044A121F12880A4086
:1011500012B108B1012000E00020704704280040CF
:10116000F0B503460C461546642093FBF0F0C6B27A
:10117000642093FBF0F700FB1730C1B2132E02DDA1
:1011800001F16400C1B20846CF1701EB977701EB7C
:10119000A707BAB2072092FBF0F700FB172082B234
:1011A0005719601EDFF82CC01CF80000384482B2CA
:1011B000CF1701EB9777BF10A1EB87071FB9032C5F
:1011C00001DA501E82B2072092FBF0F700FB1720D5
:1011D000C0B2F0BD407D000810B50120FFF7AEFFA2
:1011E00020B1012009490870FFF71EFF0220FFF718
:1011F000A5FF20B10220FFF7FBFEFFF715FF05203A
:10120000FFF7F6FE00F006F910BD000020000020F8
:1012100029B1064A12880243044B1A8004E0034AAB
:1012200012888243014B1A8070470000002800405A
:101230001CB5002401214FF0C050FFF703FE012030
:10124000FFF7E8FD0420FFF759FA4AF2A0018842AF
:1012500040D0FFF74AFA0120FFF7A2FE04E0601C2D
:10126000C4B20A2001F02AFA4120FFF77BFE08B938
:10127000FA2CF4DBFA2C01DB01201CBD4FF480704A
:10128000FFF7AEFE0120FFF7A5FE00F0C3F800F067
:10129000CBF801210846FFF7BBFF00F0BBF8FFF7D2
:1012A000AFFE47F6FF7000F0A5F800F0B3F8372066
:1012B000222111230122CDE900100B2140F2E3701D
:1012C00000F026F8FFF7A6FE4AF2A0010420FFF77F
:1012D00023FA07E000F0A8F801210846FFF798FF7D
:1012E00000F098F800F004F8FFF79EFE0020C4E735
:1012F00008B503208DF8000000208DF801008DF85E
:10130000020001208DF803006846FFF741FD08BD8B
:101310002DE9F05F06460F4690469946DDE90AAB97
:10132000002440F2B270864203DB40F6330086426E
:1013300002DD0120BDE8F09F40F2B2750AE02846C8
:10134000FFF718FB10B12048044401E01F48044493
:10135000681C85B2B542F2DB781EC7B2002510E0EA
:101360001B48405D40F2A321484304EBC0143046C3
:10137000FFF700FB18B1012D01D116480444681C89
:1013800085B2BD42ECDBA8F1010040F2A321484345
:1013900004EBC014C9EB4910C0EB092004EB0014A6
:1013A000CAEB0A1004EB80045C4401214FF0C050EA
:1013B000FFF748FD0120FFF72DFD204600F00CF857
:1013C00000F028F80020B5E70085E2018033E10154
:1013D0004C7D00088051010000B50246FFF710FE69
:1013E000100C03490880091D0A80FFF713FE00BD99
:1013F0001828004000B50246FFF702FEC2F3034082
:1014000003490880091D0A80FFF704FE00BD0000A3
:101410000828004000BF0348008800F02000002892
:10142000F9D0704704280040074800884FF6F7714C
:1014300008400549088000BF0348008800F0080004
:101440000028F9D07047000004280040704710B50C
:1014500000F002F810BD00000CB5002001900090D3
:101460003348006840F480303149086000BF30489C
:10147000006800F4003000900198401C0190009832
:1014800018B90198B0F5A06FF1D12948006800F4AF
:10149000003010B10120009001E000200090009881
:1014A000012843D12348006840F01000214908601A
:1014B0000846006820F0030008600846006840F015
:1014C000020008601A4840681949486008464068A8
:1014D00048600846406840F48060486008464068BC
:1014E00020F47C1048600846406840F4E8104860EA
:1014F0000846006840F08070086000BF0C48006833
:1015000000F000700028F9D00948406820F003007E
:10151000074948600846406840F00200486000BF44
:101520000348406800F00C000828F9D10CBD000009
:101530000010024000200240042808D14FF0E021B2
:10154000096941F004014FF0E022116107E04FF01A
:10155000E021096921F004014FF0E0221161704798
:101560007047000010B504466FF00400FFF7E4FF79
:10157000E11704EB5171C1F3C701074A117010461E
:10158000007800EB4001C1EBC0104FF6FF7101EA9B
:10159000C0000249088010BD240000202600002061
:1015A00010B51348006840F0010011490860084672
:1015B0004068104908400E494860084600680E49D6
:1015C00008400B4908600846006820F48020086045
:1015D0000846406820F4FE0048604FF41F00886011
:1015E000FFF735FF4FF000600449086010BD0000B0
:1015F000001002400000FFF8FFFFF6FE08ED00E0DB
:1016000000B59DB001210802FFF70CFC01200790F6
:10161000002008900F20099000200A900B900C9059
:101620000D9015200090019005200290002003905D
:1016300004900590069006200E9000200F901090C8
:101640001020119000201290149013901590169075
:101650004FF480501790002018904FF4804019905C
:1016600000201A9007A81B90CDF870D00EA8FFF7A5
:101670007FF801210620FFF761F81DB000BD0000D2
:1016800008B501214FF4B470FFF7ECFB4CF2337056
:10169000ADF8000018208DF8030003208DF802003B
:1016A00069461848FFF7D7F84FF68070ADF800008C
:1016B00018208DF8030003208DF8020069461248B7
:1016C000FFF7C9F841F20100ADF8000018208DF8CD
:1016D000030003208DF8020069460C48FFF7BBF8B1
:1016E0000120ADF8000010208DF8030003208DF8D4
:1016F000020069460648FFF7AEF801200549086078
:1017000008BD000000140140001801400020014005
:10171000000C01408081214210B5FFF7B1FFFFF7B7
:101720006FFF322000F0CAFFD020FFF7F3FAFFF777
:10173000FDF989498880FFF7F9F9874988800846CB
:10174000818886A000F098FA1120FFF7E3FA4FF4A1
:10175000FA7401E0601E84B2002CFBDCB920FFF7B4
:10176000D9FAFF20FFF7DCFA8320FFF7D9FA5720D8
:10177000FFF7D6FA4FF4FA7401E0601E84B2002C31
:10178000FBDCB120FFF7C6FA0020FFF7C9FA1420EE
:10179000FFF7C6FA1C20FFF7C3FA1C20FFF7C0FAB8
:1017A000C320FFF7BDFA4420FFF7BAFA7020FFF715
:1017B000B7FA4FF4FA7401E0601E84B2002CFBDC2F
:1017C000B420FFF7A7FA2220FFF7AAFA4020FFF77C
:1017D000A7FA0020FFF7A4FA2A20FFF7A1FA2A208F
:1017E000FFF79EFA2020FFF79BFA9120FFF798FA67
:1017F0004FF4FA7401E0601E84B2002CFBDC36204A
:10180000FFF788FA4C20FFF78BFAC020FFF782FA27
:101810005020FFF785FA5020FFF782FA0120FFF7EA
:101820007FFA3C20FFF77CFAC820FFF779FA0820FE
:10183000FFF776FA0020FFF773FA0820FFF770FA37
:101840000420FFF76DFA4FF4FA7401E0601E84B2D1
:10185000002CFBDC4FF4FA7401E0601E84B2002C13
:10186000FBDCE020FFF756FA0B20FFF759FA1120B6
:10187000FFF756FA1E20FFF753FA3020FFF750FA11
:101880003A20FFF74DFA4320FFF74AFA4E20FFF7C0
:1018900047FA5620FFF744FA4520FFF741FA3F2068
:1018A000FFF73EFA3920FFF73BFA3220FFF738FA0C
:1018B0002F20FFF735FA2A20FFF732FA2920FFF709
:1018C0002FFA2120FFF72CFA0B20FFF729FA11201D
:1018D000FFF726FA1E20FFF723FA3020FFF720FA41
:1018E0003A20FFF71DFA4320FFF71AFA4E20FFF7C0
:1018F00017FA5620FFF714FA4520FFF711FA3F2098
:10190000FFF70EFA3920FFF70BFA3220FFF708FA3B
:101910002F20FFF705FA2A20FFF702FA2920FFF708
:10192000FFF92120FFF7FCF90020FFF7F9F901206A
:10193000FFF7F6F93A20FFF7EDF90520FFF7F0F988
:101940002920FFF7E7F90020FFF756F84FF6FF7060
:10195000FFF72EF810BD000018000020204C434473
:101960002049443A25780D0A0000000010B540F2E5
:1019700025511D4800F0B8F810B31B4800F070F96D
:10198000C4B21A48008800F40040C8B9174800885B
:1019900000F4804060B10A2C03D000201349088075
:1019A00020E01248008840F400401049088019E007
:1019B0000D2C06D10D48008840F480400B4908806A
:1019C00010E00A480088C0F30D0009490C5407488C
:1019D0000088401C0549088008460088C72801DDAA
:1019E0000020088010BD00000038014028000020C1
:1019F0003E00002010B586B0044601210420FFF708
:101A000031FA01218803FFF72DFA4FF40070ADF889
:101A1000140003208DF8160018208DF8170005A972
:101A20001E48FEF718FF4FF48060ADF81400042044
:101A30008DF8170005A91948FEF70DFF0194002045
:101A4000ADF80800ADF80A00ADF80C00ADF81000D4
:101A50000C20ADF80E0001A9114800F095F8012105
:101A60000F4800F028F840210D4800F01BF8012233
:101A700040F225510A4800F061F825208DF8000059
:101A800003208DF801008DF8020001208DF803007D
:101A90006846FFF77DF906B010BD00000008014060
:101AA0000038014001F40072B2F5007F00D100BFA0
:101AB000CA430280704721B1828942F40052828178
:101AC00004E082894DF6FF731A4082817047024616
:101AD0000020B1F5007F00D100BF13880B400BB18F
:101AE000012000E00020704770B50246002400236A
:101AF0000025002040F66A16B14200D100BFC1F3B4
:101B0000421501F01F03012606FA03F3012D02D14D
:101B10009689334006E0022D02D1168A334001E057
:101B2000968A33400C12012606FA04F416883440D3
:101B300013B10CB1012000E0002070BDF0B50346E8
:101B4000002400260025002040F66A17B94200D183
:101B500000BF1846C1F3421401F01F06012707FA1F
:101B600006F5012C01D10C3004E0022C01D110301B
:101B700000E014301AB107682F43076002E00768DD
:101B8000AF430760F0BD00002DE9F04786B0054681
:101B90000E460024A24600BFA1460027B08900B12E
:101BA00000BF2F462C8A4CF6FF700440F088044397
:101BB0002C82AC894EF6F3100440B088318908437A
:101BC000718908430443AC81AC8A4FF6FF4004405E
:101BD000B0890443AC8201A8FFF75AF91F48874235
:101BE00002D1DDF810A001E0DDF80CA0A88900F416
:101BF000004040B10AEBCA0000EB0A10316849000E
:101C0000B0FBF1F807E00AEBCA0000EB0A103168FC
:101C10008900B0FBF1F86420B8FBF0F00401200962
:101C2000642101FB1089A88900F4004040B13220F2
:101C300000EBC900B0FBF1F000F00700044308E03E
:101C4000322000EB09106421B0FBF1F000F00F002E
:101C500004432C8106B0BDE8F08700000038014045
:101C600001468888C0F308007047C1F308028280EB
:101C7000704700BFFEE700000FB4054B10B503A985
:101C8000044A029800F066FB10BC5DF814FB0000EB
:101C9000893100082C0000200FB4084B10B504A9AE
:101CA00002AA039800F056FB044602A9002000F0A7
:101CB000B1FC204610BC5DF814FB0000152600089E
:101CC000490050EAC12018BF04204A0D18BF40F057
:101CD000010040F2FF72B2EB515F08BF40F002001A
:101CE000012808BF052070472DE9F74F144694B02E
:101CF0000021C4E902111599079121F00045C94955
:101D00008D4206DC1599C4E9000117B00020BDE83A
:101D1000F08FC549DFF814A3A9423CDD0799C44EF2
:101D20000029C44FC44A1599534619DDFEF7D1FA6C
:101D3000554506D0C14AC24BFEF7CBFAC4E90001B3
:101D40000AE04FF0D352BE4BFEF7C3FA32463B4691
:101D5000FEF7BFFAC4E9000117B00120BDE8F08F1B
:101D6000FEF716FA554506D0B44AB54BFEF710FA01
:101D7000C4E900010AE04FF0D352B14BFEF708FA74
:101D800032463B46FEF704FAC4E9000117B04FF0B3
:101D9000FF30BDE8F08FAB49A942159978DB21F0FF
:101DA000004183468846A84AA84BFEF798FA0022CD
:101DB000A74BFEF7EDF9FEF791FB0990FEF770FBDC
:101DC00006460F469C4A5346FEF789FA43465A4652
:101DD000FEF782FA80468A46984A994B3046394641
:101DE000FEF77DFA2A0D01250B9242465346FEF777
:101DF00073FA032DC4E9000139D00B98C1F30A51DD
:101E0000401A05EB45111139814230DA9148C34639
:101E1000784400EB0510CDF80CA00C90D0E900231D
:101E200030463946FEF75BFA02460B4604910690AF
:101E300058460399FEF74DFA80468A4602460B46FD
:101E400058460399FEF745FA049B069AFEF741FAB5
:101E500083460C9803913946D0E902233046FEF7B9
:101E60003EFA5A46039BFEF734FA6D1CBDE707980D
:101E70000028A2BF099817B0BDE8F08F616881F013
:101E800000416160099817B04042BDE8F08FFFE75C
:101E900084461598C1F31301C0F30A50A0F2F5303F
:101EA0004FEA601800F01F06C6F1200013900020D2
:101EB0000690079041F4801E05206D4676B1664A73
:101EC00008EB00017A4452F8213002EB8101B34063
:101ED0004A68139922FA01F1194305E05F4908EBBA
:101EE0000002794451F82210A1FB0E27A1FB0C132C
:101EF0001A449A4234BF0123002303EB070A05EB7F
:101F00008003D3E901B70F448F4234BF0121002180
:101F100093448B4411B1934502D903E0934501D218
:101F2000012100E00021C3E901B7514445F8201028
:101F3000011EA0F10100C1DC0298059F00F10050D4
:101F4000800F12900298DDE903568000FEF7A8FA90
:101F5000834628460D91FEF7B4FA6FF01D02FEF796
:101F6000ADFBCDE90E013046FEF7ABFA6FF03D0256
:101F7000FEF7A4FB80468A463846FEF7A2FA6FF0C9
:101F80005D02FEF79BFB0746424653461191FEF762
:101F9000FFF8DDE90E23FEF7FBF85A460D9BFEF72E
:101FA000F7F800250E465A4628460D9BFEF791F994
:101FB000DDE90E23FEF78DF942465346FEF789F917
:101FC0003A46119BFEF788F9DFF898A0244A534659
:101FD000FEF785F907468846234A244B31462846B2
:101FE000FEF77DF93A464346FEF7D2F807468846A3
:101FF0004FF0A842534631462846FEF770F93A465C
:102000004346FEF7C5F8159A12F0004F04D0129A15
:1020100081F0004152421292C4E90001129817B0B7
:10202000BDE8F08FFB21E93F7CD90240FB21F93F5D
:102030007370032E8A19A33B000040543163621A67
:1020400061B4D03DFB21394183C8C96D305FE43FA5
:102050000000E03F745F0000F05E0000D25E000010
:10206000182D4454FB21F93D3326A611460B113C93
:102070002DE9FF4D21F0004807460C46B8F1795F85
:1020800008DAFEF72BFA002801BF0020324904B01D
:10209000BDE8F08D3A46234610461946FEF71FF973
:1020A000054602462D480E460B460621784400F0B0
:1020B0005DF82A463346FEF712F9DDE9022382462F
:1020C0008B4638462146FEF70AF904460F4652462B
:1020D0005B4628463146FEF702F922463B46FEF7AC
:1020E000F8F807468A464FF0FF3228463146FEF799
:1020F000E5FA1B4A90450ADA3A465346FEF7E9F8F4
:1021000004B00022BDE8F04D134BFEF7E5B8154AC8
:102110004245A8BFA8F500154FF00004B8BF124D06
:1021200022462B46FEF7D5F80646884622462B4621
:1021300000200949FEF7CDF804460D463A465346BD
:1021400030464146FEF7C5F804B022462B46BDE8AE
:10215000F04DFEF7C1B800000000F03FA85C0000A1
:102160003333D33F0000E93F0000D23F2DE9F04177
:102170004F1E00EBC7010446D1E9000115461E467B
:1021800037F006020DD02A463346FEF7A8F87F1E28
:1021900004EBC703D3E90023FDF7FAFF37F006028B
:1021A000F1D1022F25D0042F13D0062F18BFBDE880
:1021B000F0812A463346FEF792F8D4E90A23FDF768
:1021C000E7FF2A463346FEF78AF8D4E90823FDF7ED
:1021D000DFFF2A463346FEF782F8D4E90623FDF7EF
:1021E000D7FF2A463346FEF77AF8D4E90423FDF7F1
:1021F000CFFF2A463346FEF772F8D4E90223FDF7F3
:10220000C7FF2A463346FEF76AF8D4E90023BDE843
:10221000F041FDF7BDBF00002DE9FF4D054621F05F
:10222000004084B00C46B0F1795F0BDA2846FFF726
:1022300047FD042808BF00F06FF8284608B0214683
:10224000BDE8F08D2A460B461046FEF748F80646D4
:102250000F462A462346FEF742F8804626488A461D
:1022600032463B4605217844FFF780FF83461098AD
:10227000029160B3214A224B40465146FEF72FF8A7
:10228000CDE900015A4640465146029BFEF727F829
:1022900082468846DDE906014FF0FF32FEF70EFA6E
:1022A00052464346FEF715F832463B46FEF717F80E
:1022B000DDE90623FEF70DF8DDE90023FEF709F856
:1022C00008B02A462346BDE8F04DFEF705B80B4698
:1022D0005A4630463946FEF702F8084A084BFDF7E1
:1022E00057FF42465346FDF7FAFF08B02A462346F9
:1022F000BDE8F04DFDF74CBFE65B00004955555574
:102300005555C5BF0122FEF7D9B900221346104624
:102310001146FEF756B80000024A00201107FEF7EA
:10232000CDB9000001FDFFFF02E008C8121F08C17F
:10233000002AFAD170477047002001E001C1121F46
:10234000002AFBD170470000014908607047000077
:10235000300000202DE9FF4F8DB09B460F4604460C
:10236000002606E025280BD05A460F999047641C9A
:10237000761C20780028F5D111B03046BDE8F08FEA
:102380000025A8460122984900E0054314F8013FC2
:10239000203B02FA03F00842F7D120782E2817D10B
:1023A00014F8010F45F004052A280ED06FF02F0213
:1023B0002078A0F1300109290AD808EB880102EB46
:1023C000410100EB0108641CF2E757F8048B641C20
:1023D00020786C280DD004DC4C2812D06A2811D14A
:1023E00004E074280DD07A280CD10AE045F40015D9
:1023F00007E0617845F48015814202D1641C05F53F
:102400008015641C2078692844D008DC0028B3D0EB
:10241000582867D063280FD0642808D13AE0702884
:1024200065D0732812D075285AD078285AD05A46C9
:102430000F999047761CD5E017F8040B8DF8000033
:1024400000208DF80100E946012003E057F8049BC5
:102450004FF0FF3069074FF0000501D40AE06D1C12
:1024600045450DDA8542FADB19F805100029F6D149
:1024700006E06D1C8542FCDB19F805100029F8D137
:102480002E4404E019F8010B5A460F9990476D1E2F
:10249000F8D2A7E00A200021CDE90801C5F30250D7
:1024A00002280CD001CFC117021E71F100020CDA14
:1024B0000023D0EB030063EB01012D2208E0FF1D98
:1024C00027F00707F7E80201EEE72A0504D52B22DB
:1024D0008DF8282001223CE0EA073AD02022F7E7D5
:1024E0000A2000E010200021CDE9080107E01020BB
:1024F000002145F00405CDE908014FF00808C5F3B7
:102500000250022810D001CF00214FF0000A2A0704
:1025100020D52278702A0DD0DDE908C38CF0100C8C
:102520005CEA030C0CD015E0FF1D27F00707F7E865
:102530000201EAE740228DF828204FF0010A0CE062
:1025400050EA010306D030238DF828308DF8292079
:10255000022292462278582A04D024A20DF12009A2
:102560000B9209E026A2F9E7DDE90823FDF7D5FF84
:102570000B9B9B5C09F8013D50EA0102F4D1ADEBE5
:10258000090020300890680701D44FF0010808992D
:10259000884503DD0898A8EB000000E00020804695
:1025A000002506E00AA85A46405D0F9990476D1C29
:1025B000761C5545F6DB04E030205A460F999047CB
:1025C000761CB8F10001A8F10108F5DC05E019F866
:1025D000010B5A460F999047761C0899481E08909F
:1025E0000029F4DC641CC4E60928010030313233D0
:1025F000343536373839616263646566000000003F
:102600003031323334353637383941424344454628
:10261000000000000A68531C0B6010707047000037
:1026200000B5244B21F0004287B09A42DCBF002263
:10263000134629DD204B9A4208D140B94FF00100E2
:10264000FFF782FEFFF761FE07B000BD03DBFFF777
:1026500059FE07B000BD02AAFFF746FB10F00301C8
:1026600004BF0DF1080C9CE80F000DD001200129DA
:102670000ED0022914D00DF1080C00909CE80F0038
:10268000FFF7CAFD07B000BDFFF7F2FC07B000BDC1
:102690000DF1080C00909CE80F00FFF7BDFD05E070
:1026A0000DF1080C9CE80F00FFF7E2FC07B081F089
:1026B000004100BDFB21E93F0000F07F0146114AC7
:1026C00012884A434FF0E0235A6100229A611A4669
:1026D000126942F001021A6100BF4FF0E022106956
:1026E00000F001021AB100F48032002AF5D04FF058
:1026F000E022126922F001024FF0E0231A61002269
:102700009A6170472600002010B54FF6E0736422EE
:10271000C821104600F04AFD4FF6E0736322C8213D
:10272000642000F043FD4FF6E0736222C82164206C
:1027300000F03CFD4FF6E0736122C821642000F0F8
:1027400035FD4FF6E0730522C821642000F02EFD10
:1027500010BD00002DE9F04F95B02422DB490CA8F4
:10276000FDF704FD0024ABE12046FDF7AAFED84AA0
:10277000D84BCDE90001FDF7B2FD0022D64BCDE9E3
:102780000201FDF71EFECDE9040100F0EBFD002281
:10279000D24BCDE90601FDF7A2FD0022D04BCDE9D9
:1027A0000801FDF7F5FCCDE90A01FDF797FE0546A6
:1027B0002046FDF786FEC64AC64BCDE90001FDF76F
:1027C0008EFD0022C44BCDE90201FDF7FAFDCDE9F3
:1027D0000401FFF725FF0022C04BCDE90601FDF7FC
:1027E0007EFD0022BE4BCDE90801FDF775FDCDE968
:1027F0000A01FDF773FE06462046FDF762FEB44A65
:10280000B44BCDE90001FDF76AFD0022B24BCDE9E2
:102810000201FDF7D6FDCDE9040100F0A3FD002281
:10282000B04BCDE90601FDF75AFD0022AC4BCDE9D6
:102830000801FDF7ADFCCDE90A01FDF74FFE0746A3
:102840002046FDF73EFEA24AA24BCDE90001FDF76E
:1028500046FD0022A04BCDE90201FDF7B2FDCDE916
:102860000401FFF7DDFE00229E4BCDE90601FDF7D6
:1028700036FD00229A4BCDE90801FDF72DFDCDE98B
:102880000A01FDF72BFE80464FF4784096490880F8
:1028900008F1640C1FFA8CF3BAB206F1640C1FFA4B
:1028A0008CF1A8B2FEF7DAF8052094FBF0F100FBFA
:1028B000114000287DD12046FDF703FE844A854B58
:1028C000CDE90001FDF70BFD0022834BCDE90201AC
:1028D000FDF777FDCDE9040100F044FD0022834BB4
:1028E000CDE90601FDF7FBFC00227D4BCDE9080197
:1028F000FDF74EFCCDE90A01FDF7F0FD0546204647
:10290000FDF7DFFD724A734BCDE90001FDF7E7FCEF
:102910000022714BCDE90201FDF753FDCDE9040121
:10292000FFF77EFE0022714BCDE90601FDF7D7FCD3
:1029300000226B4BCDE90801FDF7CEFCCDE90A0181
:10294000FDF7CCFD06462046FDF7BBFD604A614B16
:10295000CDE90001FDF7C3FC00225F4BCDE9020188
:10296000FDF72FFDCDE9040100F0FCFC00225D4BDA
:10297000CDE90601FDF7B3FC0022594BCDE9080172
:10298000FDF706FCCDE90A01FDF7A8FD0746204644
:10299000FDF797FD4E4A4F4BCDE90001FDF79FFC37
:1029A00000224D4BCDE90201FDF70BFDCDE90401FD
:1029B00000E083E0FFF734FE00224A4BCDE9060138
:1029C000FDF78DFC0022464BCDE90801FDF784FCA4
:1029D000CDE90A01FDF782FD804608F1640C1FFA7B
:1029E0008CF3BAB206F1640C1FFA8CF1A8B2FEF7B0
:1029F00035F82046FDF765FD354A364BCDE9000137
:102A0000FDF76DFC0022344BCDE90201FDF7D9FC46
:102A1000CDE9040100F0A6FC0022354BCDE906010A
:102A2000FDF75DFC00222D4BCDE90801FDF7B0FB61
:102A3000CDE90A01FDF752FD81462046FDF741FD33
:102A4000234A244BCDE90001FDF749FC0022224B2B
:102A5000CDE90201FDF7B5FCCDE90401FFF7E0FD8A
:102A60000022234BCDE90601FDF739FC00221B4B68
:102A7000CDE90801FDF730FCCDE90A01FDF72EFD97
:102A800082464FF6E07018490880052094FBF0F06C
:102A900000EB40000CA900EB010B1020DFF854C044
:102AA000CDE9000BBCF80230BCF800200AF1640C40
:102AB0001FFA8CF11FFA89F0FEF7F8F8601CC4B217
:102AC0003C2CFFF651AE15B0BDE8F08F0434000881
:102AD0004AD8124DFB21094000003E4000005740FB
:102AE000000059400040584014000020004055406C
:102AF00000005440180000202DE9F74F92B089469D
:102B000092465046FDF7CCFC0746C54AC54BFDF73B
:102B1000E6FB0022C44BCDE90401FDF752FCCDE9F0
:102B200008014846FDF7BCFC0746BD4ABD4BFDF712
:102B3000D6FB0022BD4BCDE90001FDF742FCCDE9FB
:102B400004011298FDF7ACFC0746B54AB54BFDF7FA
:102B5000C6FB0022B64BCDE90001FDF732FCCDE902
:102B60000201DDE90423FDF713FBCDE90601DDE9F0
:102B70000823FDF70DFBCDE90A0100F0F3FB00226D
:102B8000AC4BCDE90C01FDF7AAFBCDE90E01FDF739
:102B9000A5FC83465046FDF783FC0746A04AA14B9F
:102BA000FDF79DFB0022A04BCDE90401FDF709FCD8
:102BB000CDE908014846FDF773FC0746984A994B52
:102BC000FDF78DFB0022994BCDE90001FDF7F9FBE4
:102BD000CDE904011298FDF763FC0746904A914B3A
:102BE000FDF77DFB0022924BCDE90001FDF7E9FBEB
:102BF000CDE90201DDE90423FDF7CAFACDE90601BA
:102C0000DDE90823FDF7C4FACDE90A01FFF708FD65
:102C10000022884BCDE90C01FDF761FBCDE90E01E7
:102C2000FDF75CFC11905046FDF73AFC07467C4AE4
:102C30007C4BFDF754FB00227B4BCDE90401FDF7F3
:102C4000C0FBCDE908014846FDF72AFC0746744A57
:102C5000744BFDF744FB0022774BCDE90401FDF7EF
:102C6000B0FBCDE90601DDE90823FDF791FACDE9D6
:102C70000A0100F077FB0022704BCDE90C01FDF753
:102C80002EFBCDE90E01FDF729FC04465046FDF769
:102C900007FC0746624A634BFDF721FB0022624BAB
:102CA000CDE90401FDF78DFBCDE908014846FDF7AC
:102CB000F7FB07465A4A5B4BFDF711FB00225E4BC0
:102CC000CDE90401FDF77DFBCDE90601DDE908232F
:102CD000FDF75EFACDE90A01FFF7A2FC0022574B8F
:102CE000CDE90C01FDF7FBFACDE90E01FDF7F6FB8E
:102CF00005465046FDF7D4FB0746494A494BFDF7C8
:102D0000EEFA00224C4BCDE90801FDF75AFBCDE964
:102D10000A0100F027FB0022494BCDE90C01FDF729
:102D2000DEFACDE90E01FDF7D9FB10905046FDF714
:102D3000B7FB07463A4A3B4BFDF7D1FA00223E4B20
:102D4000CDE90801FDF73DFBCDE90A01FFF768FC7D
:102D500000223B4BCDE90C01FDF7C1FACDE90E0194
:102D6000FDF7BCFB06464FF4784036490880062143
:102D7000119890FBF1F0C83087B29BFBF1F0C0F1E5
:102D800064001FFA80F8119AC2F1C80291B20BF1E7
:102D9000640290B23B464246FDF760FE1F2029497F
:102DA00008802F464FEAE57C05EB9C7C4FEAAC0C93
:102DB0000CF1C80C1FFA8CF3A0464FEAE47C04EB3C
:102DC0009C7C4FEAAC0CCCF1640C1FFA8CF2C5F180
:102DD000C80C1FFA8CF104F1640C1FFA8CF0FDF79B
:102DE0003DFE4FF4FC6017490880032096FBF0F08D
:102DF000C83087B20321109890FBF1F0C0F1640055
:102E00001FFA80F8C6F1C80291B2109A643290B2EB
:102E10003B464246FDF722FE15B0BDE8F08F0000AC
:102E20004AD8124DFB21094000209C40008076408A
:102E30000000184000004E4000003E400080564018
:102E400000005940140000202DE9F74F92B0894648
:102E500092465046FDF724FB0746C14AC14BFDF799
:102E60003EFA0022C04BCDE90401FDF7AAFACDE9F4
:102E700008014846FDF714FB0746B94AB94BFDF770
:102E80002EFA0022B94BCDE90001FDF79AFACDE9FF
:102E900004011298FDF704FB0746B14AB14BFDF758
:102EA0001EFA0022B24BCDE90001FDF78AFACDE906
:102EB0000201DDE90423FDF76BF9CDE90601DDE947
:102EC0000823FDF765F9CDE90A0100F04BFA00226D
:102ED000A84BCDE90C01FDF702FACDE90E01FDF793
:102EE000FDFA83465046FDF7DBFA07469C4A9D4BA8
:102EF000FDF7F5F900229C4BCDE90401FDF761FADD
:102F0000CDE908014846FDF7CBFA0746944A954BB0
:102F1000FDF7E5F90022954BCDE90001FDF751FAE7
:102F2000CDE904011298FDF7BBFA07468C4A8D4B98
:102F3000FDF7D5F900228E4BCDE90001FDF741FAEE
:102F4000CDE90201DDE90423FDF722F9CDE906010F
:102F5000DDE90823FDF71CF9CDE90A01FFF760FB65
:102F60000022844BCDE90C01FDF7B9F9CDE90E0142
:102F7000FDF7B4FA11905046FDF792FA0746784AE9
:102F8000784BFDF7ACF90022774BCDE90401FDF752
:102F900018FACDE908014846FDF782FA0746704A5B
:102FA000704BFDF79CF90022734BCDE90401FDF74E
:102FB00008FACDE90601DDE90823FDF7E9F8CDE9D6
:102FC0000A0100F0CFF900226C4BCDE90C01FDF7AE
:102FD00086F9CDE90E01FDF781FA04465046FDF76A
:102FE0005FFA07465E4A5F4BFDF779F900225E4BB8
:102FF000CDE90401FDF7E5F9CDE908014846FDF703
:103000004FFA0746564A574BFDF769F900225A4BCB
:10301000CDE90401FDF7D5F9CDE90601DDE9082385
:10302000FDF7B6F8CDE90A01FFF7FAFA0022534B93
:10303000CDE90C01FDF753F9CDE90E01FDF74EFA8C
:1030400005465046FDF72CFA0746454A454BFDF725
:1030500046F90022484BCDE90801FDF7B2F9CDE968
:103060000A0100F07FF90022454BCDE90C01FDF784
:1030700036F9CDE90E01FDF731FA10905046FDF713
:103080000FFA0746364A374BFDF729F900223A4B2B
:10309000CDE90801FDF795F9CDE90A01FFF7C0FA7E
:1030A0000022374BCDE90C01FDF719F9CDE90E01EE
:1030B000FDF714FA064600203249088006211198CF
:1030C00090FBF1F0C83087B29BFBF1F0C0F16400D7
:1030D0001FFA80F8119AC2F1C80291B20BF1640292
:1030E00090B23B464246FDF7B9FC2F464FEAE57CDD
:1030F00005EB9C7C4FEAAC0C0CF1C80C1FFA8CF36E
:10310000A0464FEAE47C04EB9C7C4FEAAC0CCCF18B
:10311000640C1FFA8CF2C5F1C80C1FFA8CF104F193
:10312000640C1FFA8CF0FDF799FC032096FBF0F07D
:10313000C83087B20321109890FBF1F0C0F1640011
:103140001FFA80F8C6F1C80291B2109A643290B2A8
:103150003B464246FDF782FC15B0BDE8F08F00000B
:103160004AD8124DFB21094000209C400080764047
:103170000000184000004E4000003E4000805640D5
:10318000000059401400002070B504460D46E1B21D
:103190000548FEF76AFD00BF80210348FEF797FC53
:1031A0000028F9D0204670BD003801402DE9F047D5
:1031B00006460F469146984600244D460320A0EB54
:1031C000490A52E01FFA88F27B1999B2331998B272
:1031D000FDF736FC1FFA88F27B1B99B2331998B2BF
:1031E000FDF72EFC1FFA88F27B1999B2331B98B2B7
:1031F000FDF726FC1FFA88F27B1B99B2331B98B2AD
:10320000FDF71EFC1FFA88F23B1999B2731998B2A8
:10321000FDF716FC1FFA88F23B1B99B2731998B29E
:10322000FDF70EFC1FFA88F23B1999B2731B98B296
:10323000FDF706FC1FFA88F23B1B99B2731B98B28C
:10324000FDF7FEFBBAF1000F06DA2046641C0621EA
:1032500001EB8000824408E02046641C29466D1E74
:10326000401A0A2101EB80008244AC42AADDBDE88D
:10327000F087000086B04820FEF774F94FF4A06094
:10328000FDF7BEFDFDF75AFD4FF41650FEF7B2FBF9
:10329000FEF742FA0020FDF78BFB4FF6E070234962
:1032A000088000202249088022A01021CDE90010CA
:1032B0002548438802880A210846FDF7F7FCFDF7F8
:1032C000B7FFFFF721FAFFF745FA2DE01F48007816
:1032D00001281AD11E4B9A7859781878FFF7B4FD57
:1032E00000201A490870FDF79FFE19488078009069
:1032F00017484378027817A103A8FEF7CDFC144BBA
:103300009A7859781878FFF7F7FBFFF7FDF9FFF780
:1033100021FA03A81021CDE900100B484388028848
:1033200032215020FDF7C2FCD0E70000140000203D
:10333000160000205468697320697320612052547C
:1033400043207465787421001800002020000020BC
:1033500034000020252E32643A252E32643A252E80
:103360003264000000B5254B21F0004287B09A423C
:1033700003DC0022134600922BE0214B9A4208D135
:1033800040B94FF00100FEF7DFFFFEF7BEFF07B0C8
:1033900000BD03DBFEF7B6FF07B000BD02AAFEF7D3
:1033A000A3FC10F003014FF001000DD0012914D04F
:1033B00002291AD00DF1080C9CE80F00FEF758FE08
:1033C00007B081F0004100BD0DF1080C00909CE8B1
:1033D0000F00FEF721FF07B000BD0DF1080C9CE8BF
:1033E0000F00FEF745FE07B000BD0DF1080C009080
:1033F0009CE80F00FEF710FFE2E70000FB21E93F29
:103400000000F07F31320031000032000033000054
:103410003400003500003600003700003800003965
:1034200000003130003131000000000000000000D9
:1034300000000000000000003F400000000000000D
:1034400000003000400030004000000009000BC0C8
:103450003D000BC03D00090018C024407FE0224021
:1034600031800000180024C01B000D803240018014
:1034700003801C4027401C80074000401000600073
:1034800000000000000000000000000000001F809D
:10349000204040200000402020401F80000000000D
:1034A000090006001F800600090000000400040057
:1034B0003F800400040000000010006000000000D5
:1034C00000000000040004000400040004000000E8
:1034D000000000400000000000000000002001C0CB
:1034E00006003800400000001F802040204020409F
:1034F0001F800000000010403FC00040000000009E
:1035000018C0214022402440184000001080204074
:10351000244024401B80000002000D0011003FC029
:10352000014000003C8024402440244023800000CF
:103530001F802440244034400380000030002000DD
:1035400027C03800200000001B8024402440244075
:103550001B8000001C0022C0224022401F8000006F
:103560000000000008400000000000000000000013
:103570000460000000000000000004000A001100C8
:1035800020804040090009000900090009000000EE
:1035900000004040208011000A00040018002000B4
:1035A00023402400180000001F80204027402940AD
:1035B0001F400000004007C039000F0001C000405C
:1035C00020403FC0244024401B8000001F8020403A
:1035D000204020403080000020403FC0204020405C
:1035E0001F80000020403FC024402E4030C000001B
:1035F00020403FC024402E00300000000F0010800B
:10360000204022403380020020403FC004000400DC
:103610003FC02040204020403FC0204020400000CC
:103620000060202020203FC02000200020403FC01C
:1036300024400B0030C0204020403FC020400040CC
:10364000004000C03FC03C0003C03C003FC0000041
:1036500020403FC00C4023003FC020001F8020407E
:10366000204020401F80000020403FC02440240014
:10367000180000001F802140214020E01FA0000012
:1036800020403FC02440260019C0004018C02440FC
:103690002440224031800000300020403FC02040C4
:1036A0003000000020003F80004000403F802000AC
:1036B00020003E0001C0070038002000380007C08D
:1036C0003C0007C038000000204039C0060039C067
:1036D000204000002000384007C038402000000093
:1036E000304021C02640384020C0000000000000CB
:1036F0007FE0402040200000000070000C000380AC
:10370000004000000000402040207FE0000000005A
:103710000000200040002000000000000010001009
:103720000010001000100010000000004000000019
:1037300000000000000002800540054003C000407A
:1037400020003FC0044004400380000000000380CC
:103750000440044006400000000003800440244070
:103760003FC00040000003800540054003400000CA
:10377000000004401FC0244024402000000002E05C
:10378000055005500650042020403FC0044004006E
:1037900003C000400000044027C0004000000000BB
:1037A00000100010041027E00000000020403FC07F
:1037B0000140070004C00440204020403FC00040BA
:1037C0000040000007C0040007C0040003C0000060
:1037D000044007C00440040003C000400000038010
:1037E0000440044003800000041007F0045004402B
:1037F00003800000000003800440045007F0001024
:10380000044007C00240040004000000000006401D
:103810000540054004C00000000004001F80044073
:1038200000400000040007800040044007C0004042
:103830000400070004C0018006000400060001C067
:10384000070001C006000000044006C0010006C0D9
:10385000044000000410071004E00180060004008A
:103860000000044005C006400440000000000000C5
:1038700004007BE040200000000000000000FFF09A
:1038800000000000000040207BE004000000000079
:1038900040008000400020002000400000000000A8
:1038A0000000000000000000000000000000000018
:1038B00000001FCC000C0000000000000000080009
:1038C000300060000800300060000000022003FCAF
:1038D0001E20022003FC1E200220000000000E1803
:1038E00011043FFF10840C78000000000F001084CA
:1038F0000F3800C0077818840078000000780F8423
:1039000010C411240E9800E4008400080800680028
:103910007000000000000000000000000000000037
:10392000000007E0181820044002000000004002D8
:103930002004181807E000000000000002400240C8
:1039400001800FF0018002400240000000800080F2
:1039500000800FF800800080008000000001000D52
:10396000000E0000000000000000000000000080C9
:103970000080008000800080008000800000000C3B
:10398000000C000000000000000000000000000625
:10399000001800600180060018002000000007F0F9
:1039A000080810041004080807F0000000000804CC
:1039B00008041FFC000400040000000000000E0CBE
:1039C00010141024104411840E0C000000000C1878
:1039D00010041104110412880C700000000000E0B3
:1039E0000320042408241FFC0024000000001F986A
:1039F000108411041104108810700000000007F0FA
:103A000008881104110418880070000000001C00D0
:103A1000100010FC13001C001000000000000E3805
:103A200011441084108411440E3800000000070077
:103A3000088C10441044088807F0000000000000C3
:103A40000000030C030C0000000000000000000058
:103A500000010106000000000000000000000080DE
:103A60000140022004100808100400000220022077
:103A70000220022002200220022000000000100488
:103A800008080410022001400080000000000E0021
:103A90001200100C106C10800F00000003E00C18D6
:103AA00013E4142417C4082807D000000004003CC5
:103AB00003C41C40074000E4001C000410041FFC69
:103AC0001104110411040E880070000003E00C18AA
:103AD00010041004100410081C10000010041FFC37
:103AE000100410041004080807F0000010041FFC64
:103AF0001104110417C410040818000010041FFC5E
:103B00001104110017C010000800000003E00C1899
:103B10001004100410441C780040000010041FFC26
:103B200010840080008010841FFC1004000010042A
:103B300010041FFC1004100400000000000300012A
:103B4000100110011FFE10001000000010041FFCE7
:103B5000110403801464181C1004000010041FFCDE
:103B60001004000400040004000C000010041FFCFA
:103B70001F0000FC1F001FFC1004000010041FFCAD
:103B80000C04030000E010181FFC100007F00808E8
:103B9000100410041004080807F0000010041FFCB3
:103BA00010841080108010800F00000007F00818AB
:103BB00010241024101C080A07F2000010041FFC37
:103BC0001104110011C011300E0C000400000E1C75
:103BD00011041084108410441C38000018001000D8
:103BE00010041FFC100410001800000010001FF843
:103BF00010040004000410041FF8100010001E0040
:103C000011E0001C007013801C0010001FC0103C4D
:103C100000E01F0000E0103C1FC000001004180C62
:103C2000163401C001C01634180C100410001C001A
:103C3000130400FC13041C00100000000804101CF6
:103C40001064108413041C0410180000000000000D
:103C500000007FFE400240024002000000003000F1
:103C60000C0003800060001C000300000000400204
:103C7000400240027FFE0000000000000000000043
:103C80002000400040004000200000000001000132
:103C900000010001000100010001000100004000DE
:103CA000400020000000000000000000000000981C
:103CB000012401440144014400FC000410001FFCE5
:103CC00000880104010400880070000000000070FA
:103CD0000088010401040104008800000000007055
:103CE00000880104010411081FFC0004000000F812
:103CF000014401440144014400C8000000000104E3
:103D000001040FFC1104110411001800000000D67A
:103D100001290129012901C90106000010041FFC25
:103D2000008401000100010400FC00040000010403
:103D3000190419FC00040004000000000000000346
:103D400000010101190119FE0000000010041FFC10
:103D50000024004001B4010C010400000000100424
:103D600010041FFC0004000400000000010401FC1A
:103D70000104010001FC0104010000FC010401FC3C
:103D8000008401000100010400FC0004000000F8B0
:103D9000010401040104010400F80000010101FF15
:103DA000008501040104008800700000000000701C
:103DB000008801040104010501FF00010104010460
:103DC00001FC00840104010001800000000000CC1F
:103DD00001240124012401240198000000000100B5
:103DE000010007F80104010400000000010001F8CF
:103DF000000400040004010801FC0004010001802B
:103E00000170000C001001600180010001F0010C44
:103E1000003001C00030010C01F00100000001047D
:103E2000018C00740170018C01040000010101810A
:103E30000171000E00180160018001000000018482
:103E4000010C013401440184010C00000000000059
:103E50000000000001003EFC4002400200000000A3
:103E600000000000FFFF0000000000000000400212
:103E700040023EFC01000000000000000000600065
:103E80008000800040004000200020000000000072
:103E90000000000000000000000000000000000022
:103EA0000000000000000000000000000000000012
:103EB0000000000000000000000000000000000FF3
:103EC00080380FFE380F803800000000000000002E
:103ED00000000000000000000000010000060000DB
:103EE0000C00003800003100000600000C00003813
:103EF000000030000000000000000000618000674A
:103F0000F807F980006180006180006180006180B5
:103F10000067F807F98000618000000000000000E1
:103F2000000001C0E003E0F00630080418081FFF9D
:103F3000FE040E080787F00381E000000000000087
:103F400001F000060C00040408060C7001F9C00022
:103F50000E00003BE000EC18070808040C180003F2
:103F6000E00000000001E00007F003F818041C085E
:103F700004170807E1D003C0E00023B0003C0800AC
:103F800020080000100000000000000100003100C7
:103F9000003200001C0000000000000000000000D3
:103FA0000000000000000000000000000000000011
:103FB0000000000000000000000000007F0001FF82
:103FC000C00780F00C001810000420000200000060
:103FD0000000002000021000040C00180780F0010F
:103FE000FFC0007F00000000000000000000000093
:103FF00000000000000000004200006600006600B3
:10400000003C0000180003FFC0001800003C000046
:104010006600006600004200000000000800000882
:104020000000080000080000080001FFC0000800B0
:104030000008000008000008000008000000000060
:10404000000100003100003200001C0000000000F0
:104050000000000000000000000000000000000060
:104060000000000008000008000008000008000030
:104070000800000800000800000800000800000810
:1040800000000000000000000000000038000038C0
:1040900000003800000000000000000000000000E8
:1040A000000000000000000000000000000600000A
:1040B0001C000070000180000E0000380000C000ED
:1040C0000700001C0000300000000000000000009D
:1040D0007F8001FFE00380700600180400080400E0
:1040E0000806001803807001FFE0007F80000000D8
:1040F00000000000000001000801000801000803A2
:10410000FFF807FFF80000080000080000080000A2
:104110000000000000000001C03802C058040098F0
:10412000040118040218040418061C1803F81801E6
:10413000E0F800000000000000000001C0E003C043
:10414000F004000804080804080806180803F41816
:1041500001E7F00001E000000000000000000000A6
:104160000300000D00001100006100008108030140
:104170000807FFF80FFFF800010800010800000021
:104180000000000000E007FCD00608080610080642
:104190001008061008061838060FF00607C00000C1
:1041A00000000000000000003F8001FFE0038430B9
:1041B0000208180410080410080410080718100357
:1041C0000FF00007C000000000000000000003C066
:1041D000000700000600000600F80607F8061800B1
:1041E00006E00007000006000000000000000001DB
:1041F000E1E003F7F0063410041808041808040C72
:1042000008040C0806161803F3F001C1E0000000D2
:1042100000000000F80003FC300306380402080424
:1042200002080402080404100308F001FFC0007F24
:10423000000000000000000000000000000000007E
:104240000000000070380070380070380000000076
:10425000000000000000000000000000000000005E
:104260000000000000000000301A00301C000000B8
:10427000000000000000000000000000000000003E
:10428000000000080000140000220000410000802F
:104290008001004002002004001008000800000017
:1042A000000000002100002100002100002100008A
:1042B0002100002100002100002100002100002138
:1042C00000000000000000000000080008040010CA
:1042D0000200200100400080800041000022000018
:1042E000140000080000000000000003C00004C02B
:1042F00000040000080038080F38080838081000CB
:104300000C300007E00003C00000000000000000C7
:104310003F8000FFE0038070020F1006708804C029
:1043200088048308047F8802C09003012000FE40B7
:104330000000080000180001F8003E0801C2000754
:10434000020007E20000FE00001FC80001F80000A4
:104350003800000804000807FFF807FFF804080801
:1043600004080804080804080806180803F41801DB
:10437000E7F00001E0000000000000003F8001FFC6
:10438000E00380700200180400080400080400081C
:104390000400100600200780C00000000400080789
:1043A000FFF807FFF80400080400080400080400F0
:1043B0001802001003807001FFE0007F8000000001
:1043C00004000807FFF807FFF804080804080804B9
:1043D0000808040808043E08040008060018010044
:1043E0006000000004000807FFF807FFF804080851
:1043F000040800040800040800043E00060000064B
:104400000000018000000000000000003F8001FF6C
:10441000E003807006001804000804020804020883
:104420000203F00783F00002000002000400080706
:10443000FFF807FFF804080800080000080000085B
:104440000000080004080807FFF807FFF804000848
:104450000000000000000400080400080400080731
:10446000FFF807FFF8040008040008040008000033
:10447000000000000000000000060000070000012E
:1044800004000104000104000307FFFE07FFFC0411
:10449000000004000004000004000807FFF807FF04
:1044A000F8040C08001800003E0004C7800503C88B
:1044B0000600F8040038040018000008040008078B
:1044C000FFF807FFF80400080000080000080000DB
:1044D000080000080000080000180000600000004C
:1044E00004000807FFF807800807FC00007FC000F1
:1044F00003F80007C000780007800807FFF807FFEF
:10450000F804000804000807FFF807000803C000CB
:1045100000E000003800001E000007000001C00499
:1045200000F007FFF8040000000000007F8001FF9A
:10453000E003807006001804000804000806001854
:1045400003003001FFE0007F800000000400080746
:10455000FFF807FFF804040804040004040004043E
:1045600000040400060C0003F80001F00000000045
:10457000000000007F8001FFE003807006008804D7
:1045800000880400C806003C03003E01FFE6007FEF
:104590008400000004000807FFF807FFF80408087B
:1045A000040800040C00040F00040BC00610F00304
:1045B000F03801E00800000800000001E0F803F016
:1045C00030063010041808041808040C08040C08FD
:1045D0000206180207F00781E000000001800006D3
:1045E000000004000004000004000807FFF807FFB3
:1045F000F804000804000004000006000001800028
:1046000004000007FFE007FFF004001800000800A6
:10461000000800000800000800000804001007FF60
:10462000E004000004000006000007E00007FE00B0
:10463000041FE00001F80000380001E0043E00071C
:10464000C00006000004000004000007E00007FFAF
:10465000C0041FF80007C007F80007FF80043FF8F8
:104660000007C004F8000700000400000000000478
:10467000000806001807C07805F1C8003E00001FBA
:10468000800463E80780F8060018040008000000B2
:1046900004000006000007800007E008047C080012
:1046A0001FF80007F800180804E0080700000600DB
:1046B000000400000000000100080600380400F8B3
:1046C0000403E8040F08047C0805F00807C0080785
:1046D000001804006000000000000000000000005E
:1046E000000000000000003FFFFE2000022000024A
:1046F0002000022000022000020000000000000054
:10470000000008000007000000C00000380000069C
:10471000000001C000003000000E00000100000099
:104720000000000000002000022000022000022003
:1047300000022000023FFFFE000000000000000019
:104740000000000000000000000000000008000061
:1047500010000030000020000030000010000008B1
:104760000000000000000000000001000001000047
:104770000100000100000100000100000100000133
:104780000000010000010000010000010000000025
:1047900000000000002000002000001000001000B9
:1047A0000000000000000000000000000000000009
:1047B0000000000000F00019F8001B18002208009B
:1047C0002608002408002410003FF8001FF800000D
:1047D0000800001800000004000007FFF80FFFF0B9
:1047E00000181800100800200800200800301800E9
:1047F0001FF0000FC00000000000000007C0001FF5
:10480000F0001830002008002008002008003C08B4
:10481000001C10000060000000000000000000000C
:1048200007C0001FF00038180020080020080020F2
:104830000804101007FFF80FFFF000001000000040
:104840000000000000000007C0001FF00012300050
:104850002218002208002208003208001E10000E54
:1048600020000000000000002000002008002008B8
:1048700001FFF803FFF806200804200804200807B9
:10488000200003000000000000000000000E000EE9
:104890006E001FF30031B10020B10020B100319152
:1048A000001F13002E1E00200E0030000000000428
:1048B000000807FFF80FFFF8001008002000002094
:1048C00000002008003FF8001FF80000080000006A
:1048D000000000000000002008002008002008065A
:1048E0003FF8063FF800000800000800000800003C
:1048F00000000000000000000000000003000003B2
:10490000002001002001002003063FFE063FFC00BE
:10491000000000000000000000000004000807FF85
:10492000F80FFFF8000188000300002FC00038F8DE
:1049300000203800200800000800000000000000EF
:10494000000004000804000804000807FFF80FFF37
:10495000F800000800000800000800000000000047
:10496000002008003FF8003FF80010080020000079
:104970003FF8003FF8001008002000003FF8003F1B
:10498000F8000008000000002008003FF8003FF891
:10499000001008001000002000002008003FF80070
:1049A0001FF80000080000000000000007C0000F12
:1049B000F0001830003008002008002008003008FF
:1049C000001830000FF00007C000000000000000D9
:1049D0002001003FFF003FFF0010110020090020D0
:1049E00008002008003038001FF0000FC000000051
:1049F0000000000007C0001FF00038180020080069
:104A00002008002009001011001FFF003FFF0000D8
:104A100001000000002008002008002008003FF8E6
:104A2000003FF800080800100800200800200000DF
:104A30003000003000000000000000000000000C0A
:104A400078001E1800330800230800210800218880
:104A50000021980030F000386000000000000000E5
:104A6000200000200000200000FFF003FFF80020DD
:104A700008002008002008000030000000000000AE
:104A8000000000002000003FF0007FF80000180048
:104A90000008000008002010003FF8007FF0000030
:104AA00010000000000000002000003000003C006A
:104AB000003F800023F00000780000700023800099
:104AC0003C00003000002000002000003C00003FBF
:104AD000E00023F80000E0002700003E00003FE077
:104AE0000021F80001E0003E00002000000000006E
:104AF0002008002008003838003E680027800003A6
:104B0000C8002CF8003838002018002008000000E9
:104B1000000000002000003003003C01003F830043
:104B200023EC000070002380003C000020000020E7
:104B300000000000000000000000003808002038DD
:104B40000020F80023E8002F88003E080038080005
:104B500020180000700000000000000000000000AD
:104B6000000000000000000008000014001FF7FC17
:104B700030000620000200000000000000000000DD
:104B80000000000000000000000000000000FFFF27
:104B9000FF00000000000000000000000000000016
:104BA0000000000000002000023000061FF7FC009B
:104BB00014000008000000000000000000000000D9
:104BC000000000000000001800006000004000002D
:104BD0004000002000001000000800000400000455
:104BE00000000C00001000000000000000000000A9
:104BF00000000000000000000000000000000000B5
:104C000000000000000000000000000000000000A4
:104C10000000000000000000000000000000000094
:104C20000000000000000000000000000000000084
:104C30000000000000000000000000000000000074
:104C40000000000000000000000000000000000064
:104C50000000000000000000000000000000000054
:104C60000000000000000000000000000000000044
:104C70000000000000000000000000000000000034
:104C800007F000C007FFE1E007F001E0000000C00E
:104C90000000000000000000000000000000000014
:104CA0000000000000000000000000000000000004
:104CB00000000000000000000000000000000000F4
:104CC00000000000000000000000000000000000E4
:104CD00000000000000000000000000000000000D4
:104CE00000000000000000000000000000000000C4
:104CF0000020000001C00000078000001F0000002D
:104D00001E0000001C20000001C000000780000001
:104D10001F0000001E0000001C000000000000003A
:104D20000000000000000000000000000000000083
:104D30000000000000000000000000000000000073
:104D40000000000000000000000000000000000063
:104D50000000000000000000000000000000000053
:104D600000000000000000000000000000180C001F
:104D700000180C0000180FE0001FFC0003F80C00E6
:104D800000180C0000180C0000180C0000180C0093
:104D900000180FE0001FFC0003F80C0000180C00C6
:104DA00000180C00000000000000000000000000DF
:104DB00000000000000000000000000000000000F3
:104DC00000000000000000000000000000000000E3
:104DD00000000000000000000000000000000000D3
:104DE00000000000000000000000000000000000C3
:104DF00000000780007807C000FC0640010E00207C
:104E000003070020020380200FFFFFFC0201C020E7
:104E10000200E0600130704001F03F8000F01F00B0
:104E20000000000000000000000000000000000082
:104E30000000000000000000000000000000000072
:104E40000000000000000000000000000000000062
:104E50000000000000000000000000000000000052
:104E6000000000000000000000FE000001FF000044
:104E70000301800002008060030181C001FF070080
:104E800000FE18000000E0000003BF00000CFFC09F
:104E90000071806001C10020030180600000FFC03C
:104EA00000003F00000000000000000000000000C3
:104EB00000000000000000000000000000000000F2
:104EC00000000000000000000000000000000000E2
:104ED00000000000000000000000000000000000D2
:104EE000000000000000000000001F0000007FC064
:104EF00000FCC0C001FF80600303E02002027820B4
:104F000002061E2003FC074001F00380000103C0DD
:104F100000011C600001E0200001002000010040B1
:104F20000000018000000000000000000000000000
:104F30000000000000000000000000000000000071
:104F40000000000000000000000000000000000061
:104F50000000000000000000000000000000000051
:104F60000000000000000000000000000020000021
:104F70001C6000001C4000001F8000000F000000AB
:104F80000000000000000000000000000000000021
:104F90000000000000000000000000000000000011
:104FA0000000000000000000000000000000000001
:104FB00000000000000000000000000000000000F1
:104FC00000000000000000000000000000000000E1
:104FD00000000000000000000000000000000000D1
:104FE00000000000000000000000000000000000C1
:104FF00000000000000000000000000000000000B1
:10500000000000000007F800003FFF00007807C024
:1050100001C000E0030000300400000808000004A4
:10502000100000020000000000000000000000006E
:105030000000000000000000000000000000000070
:105040000000000000000000000000000000000060
:105050000000000000000000000000000000000050
:10506000000000000000000000000000100000022E
:1050700008000004040000080300003001C000E044
:10508000007807C0003FFF000007F80000000000A4
:105090000000000000000000000000000000000010
:1050A0000000000000000000000000000000000000
:1050B00000000000000000000000000000000000F0
:1050C00000000000000000000000000000000000E0
:1050D00000000000000000000000000000000000D0
:1050E00000000000000000000000000000000000C0
:1050F000000C1800000E3800000E380000063000CA
:10510000000360000061438000FFFF8000614300F6
:105110000003600000063000000E3800000E38006A
:10512000000C18000000000000000000000000005B
:10513000000000000000000000000000000000006F
:10514000000000000000000000000000000000005F
:10515000000000000000000000000000000000004F
:10516000000000000000000000000000000000003F
:10517000000080000000800000008000000080002F
:105180000000800000008000007FFF000000800021
:10519000000080000000800000008000000080000F
:1051A000000080000000000000000000000000007F
:1051B00000000000000000000000000000000000EF
:1051C00000000000000000000000000000000000DF
:1051D00000000000000000000000000000000000CF
:1051E00000000000000000000000000000000001BE
:1051F000000000E3000000E2000000FC0000007876
:10520000000000000000000000000000000000009E
:10521000000000000000000000000000000000008E
:10522000000000000000000000000000000000007E
:10523000000000000000000000000000000000006E
:10524000000000000000000000000000000000005E
:10525000000000000000000000000000000000004E
:1052600000000000000000000000000000008000BE
:10527000000080000000800000008000000080002E
:10528000000080000000800000008000000080001E
:10529000000080000000800000008000000080000E
:1052A000000080000000000000000000000000007E
:1052B00000000000000000000000000000000000EE
:1052C00000000000000000000000000000000000DE
:1052D00000000000000000000000000000000000CE
:1052E00000000000000000000000000000000000BE
:1052F000000000C0000001E0000001E0000000C06C
:10530000000000000000000000000000000000009D
:10531000000000000000000000000000000000008D
:10532000000000000000000000000000000000007D
:10533000000000000000000000000000000000006D
:10534000000000000000000000000000000000005D
:10535000000000000000000000000000000000004D
:105360000000000000000000000000000000000C31
:1053700000000038000000E00000038000000E0084
:10538000000038000000E00000038000000E000074
:105390000038000000E00000038000000E00000064
:1053A00018000000000000000000000000000000E5
:1053B00000000000000000000000000000000000ED
:1053C00000000000000000000000000000000000DD
:1053D00000000000000000000000000000000000CD
:1053E00000000000000000000000000000000000BD
:1053F000000FF800007FFF0000F00780018000C070
:1054000003000060020000200200002002000020D3
:1054100003000060018000C000E00380007FFF0007
:10542000000FF80000000000000000000000000075
:10543000000000000000000000000000000000006C
:10544000000000000000000000000000000000005C
:10545000000000000000000000000000000000004C
:10546000000000000000000000000000000000003C
:10547000000000000080002000800020008000204C
:105480000080006001FFFFE003FFFFE0000000601C
:1054900000000020000000200000002000000000AC
:1054A00000000000000000000000000000000000FC
:1054B00000000000000000000000000000000000EC
:1054C00000000000000000000000000000000000DC
:1054D00000000000000000000000000000000000CC
:1054E00000000000000000000000000000000000BC
:1054F000007800E000980160010002600200046092
:10550000020008600200106002002060020040609B
:10551000030080600183006001FE00E0007C0780E2
:10552000000000000000000000000000000000007B
:10553000000000000000000000000000000000006B
:10554000000000000000000000000000000000005B
:10555000000000000000000000000000000000004B
:10556000000000000000000000000000000000003B
:1055700000F0078001F007C0010000400200002099
:10558000020100200201002002010020030380200C
:105590000186804001FCC0C000787F8000001E00B2
:1055A00000000000000000000000000000000000FB
:1055B00000000000000000000000000000000000EB
:1055C00000000000000000000000000000000000DB
:1055D00000000000000000000000000000000000CB
:1055E00000000000000000000000000000000800B3
:1055F0000000380000004800000188000006080094
:10560000000C0810003008100040081001FFFFF0E7
:1056100003FFFFF003FFFFF0000008100000081078
:105620000000081000000000000000000000000062
:10563000000000000000000000000000000000006A
:10564000000000000000000000000000000000005A
:10565000000000000000000000000000000000004A
:10566000000000000000000000000000000000003A
:1056700000000780001F864003E100200302002095
:10568000030400200304002003040020030400207E
:1056900003060040030301C00301FF8003007E00F6
:1056A00000000000000000000000000000000000FA
:1056B00000000000000000000000000000000000EA
:1056C00000000000000000000000000000000000DA
:1056D00000000000000000000000000000000000CA
:1056E00000000000000000000000000000000000BA
:1056F0000007FC00003FFF000070C380008180C0F5
:1057000001010060030200200202002002020020CA
:10571000020200200203004001C180C000C0FF80DF
:1057200000007E00000000000000000000000000FB
:105730000000000000000000000000000000000069
:105740000000000000000000000000000000000059
:105750000000000000000000000000000000000049
:105760000000000000000000000000000000000039
:1057700000F0000003C000000380000003000000F0
:10578000030007E003003FE00301C0000306000040
:105790000318000003600000038000000300000005
:1057A00000000000000000000000000000000000F9
:1057B00000000000000000000000000000000000E9
:1057C00000000000000000000000000000000000D9
:1057D00000000000000000000000000000000000C9
:1057E00000000000000000000000000000001F009A
:1057F00000783F8000FC60C0018EC040030780201D
:105800000203002002018020020180200201C0204A
:105810000301E040018670C000FC3F8000781F005B
:105820000000000000000000000000000000000078
:105830000000000000000000000000000000000068
:105840000000000000000000000000000000000058
:105850000000000000000000000000000000000048
:10586000000000000000000000000000003F0000F9
:1058700000FF81C001C0C1C00100602002002020E3
:10588000020020200200202002002060020040C010
:105890000100C18000C18F00007FFE00001FF000EA
:1058A00000000000000000000000000000000000F8
:1058B00000000000000000000000000000000000E8
:1058C00000000000000000000000000000000000D8
:1058D00000000000000000000000000000000000C8
:1058E00000000000000000000000000000000000B8
:1058F00000000000000000000000000000000000A8
:10590000000300C0000781E0000781E0000300C041
:105910000000000000000000000000000000000087
:105920000000000000000000000000000000000077
:105930000000000000000000000000000000000067
:105940000000000000000000000000000000000057
:105950000000000000000000000000000000000047
:105960000000000000000000000000000000000037
:105970000000000000000000000000000000000027
:10598000000600660006007800000000000000002D
:105990000000000000000000000000000000000007
:1059A00000000000000000000000000000000000F7
:1059B00000000000000000000000000000000000E7
:1059C00000000000000000000000000000000000D7
:1059D00000000000000000000000000000000000C7
:1059E00000000000000000000000000000000000B7
:1059F000000080000001C0000003600000063000CD
:105A0000000C180000180C000030060000600300B5
:105A100000C00180010000400200002004000010CE
:105A20000000000000000000000000000000000076
:105A30000000000000000000000000000000000066
:105A40000000000000000000000000000000000056
:105A50000000000000000000000000000000000046
:105A60000000000000000000000000000004100022
:105A700000041000000410000004100000041000D6
:105A800000041000000410000004100000041000C6
:105A900000041000000410000004100000041000B6
:105AA00000041000000000000000000000000000E2
:105AB00000000000000000000000000000000000E6
:105AC00000000000000000000000000000000000D6
:105AD00000000000000000000000000000000000C6
