:020000040800F2
:10000000E8040020490100089D0E0008410C00088A
:10001000990E0008B9090008EF140008000000005C
:100020000000000000000000000000003510000883
:10003000BD09000800000000250F00084911000854
:100040006301000863010008630100086301000800
:1000500063010008630100086301000863010008F0
:1000600063010008630100086301000863010008E0
:1000700063010008630100086301000863010008D0
:1000800063010008630100086301000863010008C0
:1000900063010008630100086301000863010008B0
:1000A00063010008630100086301000863010008A0
:1000B0006301000863010008630100086301000890
:1000C0006301000863010008630100086301000880
:1000D00063010008E91100086301000863010008DA
:1000E0006301000863010008630100086301000860
:1000F0006301000863010008630100086301000850
:10010000630100086301000863010008630100083F
:10011000630100086301000863010008630100082F
:10012000630100086301000863010008630100081F
:10013000DFF810D000F0D0FA004800471D18000882
:10014000AFF30080E80400200648804706480047D7
:10015000FEE7FEE7FEE7FEE7FEE7FEE7FEE7FEE777
:10016000FEE7FEE789110008310100082DE9FE4F86
:10017000804681EA0300C00F0C46009021F0004148
:1001800023F00045B8EB0200A94105D240462146C4
:1001900090461C460B46024623F00040104347D0D1
:1001A000270DC7F30A00C3F30A510290401A0190C9
:1001B00040286BDAC3F3130040F4801B009892468A
:1001C00020B10023D2EB030A63EB0B0B01985946D5
:1001D000C0F14002504600F0B9F906460D465046BF
:1001E0005946019A00F0D1F910EB08006141002452
:1001F00087EA115284EAE7731A4340D0009A62B347
:10020000019A012A4FEA075215DC001B61EB02013B
:100210004FF0004202EA0752CDE90042001C41F5CE
:10022000801132462B4600F008FA03B0BDE8F08F8B
:1002300040462146F9E7001B61EB0201001C41F535
:10024000801300185B412018A2F5001747EB03014B
:1002500040EAD570B6196D4111E06D084FEA3606D7
:1002600045EAC0754FEA0752001B61EB0201001C12
:1002700041F5801149084FEA3000001951413246DA
:100280002B4603B0BDE8F04F00F0C8B9009801223A
:1002900040000023D0EB020263EBE073009821469C
:1002A0004FEAE074B8EB000061EB0401E9E783F08A
:1002B00000435BE781F0004158E72DE9FE4F81EAFA
:1002C000030404F0004421F0004100944FF0000BBF
:1002D00023F0004350EA01045ED052EA03045BD0ED
:1002E000C3F30A54C1F30A552C44A4F2F334019425
:1002F000A0FB0254C1F3130141F48011C3F31303B3
:1003000043F4801301FB024400FB034E840A970A66
:1003100044EA815447EA8357A4FB076802958D0A93
:1003200005FB07854FEA932C04FB0C542705029D1F
:100330004FEA065847EA1637B5EB08056EEB070C8F
:10034000870E920E47EA811742EA8312A7FB020149
:10035000B6EB0B0164EB00042B0D43EA0C335E1883
:1003600044EB1C50DA465146E7FB0201C5F3130487
:100370004FEA0B3343EA14534FEA0432019C43EA39
:100380000603A4F10C040294009CCDE900B400F033
:1003900054F903B0BDE8F08F00200146F9E72DE9DC
:1003A000F04D81EA030404F0004B21F000451446AF
:1003B0004FF0000A23F0004150EA050220D054EA31
:1003C00001021DD0C5F30A570246C5F31303C1F35A
:1003D0001300C1F30A5640F4801543F48013A7EBD1
:1003E0000608101BD64608F2FD3873EB050002D351
:1003F00008F1010801E092185B41B8F1000F03DA3F
:1004000000200146BDE8F08D00204FF48011064623
:1004100084460EE0171B73EB050705D3121B63EB35
:10042000050306434CEA010C49084FEA30009218D4
:100430005B4150EA0107EDD152EA030012D082EA93
:10044000040083EA0501084305D0101BAB4106D226
:100450000122002306E000224FF0004302E06FF08B
:10046000010253101AEB06004CEB085110EB0A0086
:1004700041EB0B01BDE8F04D00F0D0B8962300220F
:10048000114600F09DB870B5C1F30A5201F0004565
:100490000024C1F3130140F2FF3341F480119A426A
:1004A00001DA002070BD40F233439A42A2F2334297
:1004B00003DC524200F059F800E090402C43F1D0A8
:1004C000404270BD00F0004230F000400AD0C10D43
:1004D00001F56071C0F3160042EA0151C2084007FD
:1004E000114370470020014670472DE9F05F054633
:1004F000002092469B4688460646814640241BE0E3
:10050000284641464746224600F02FF853465A46B1
:10051000C01A914110D311461846224600F016F831
:100520002D1A67EB01084F4622460120002100F0FA
:100530000DF817EB00094E41201EA4F10104DFDC89
:10054000484631462A464346BDE8F09F202A04DB50
:10055000203A00FA02F1002070479140C2F12003D6
:1005600020FA03F3194390407047202A04DB203A15
:1005700021FA02F00021704721FA02F3D040C2F1C3
:1005800020029140084319467047202A06DBCB170A
:10059000203A41FA02F043EAE07306E041FA02F33E
:1005A000D040C2F12002914008431946704700290B
:1005B000A8BF7047401C490008BF20F001007047E9
:1005C00010B4B0FA80FC00FA0CF050EA010404BF49
:1005D00010BC704749B1CCF1200421FA04F411FA9F
:1005E0000CF118BF012121430843A3EB0C01CB1DE3
:1005F0004FEA00614FEA102042BF002010BC704754
:1006000000EBC35010440029A4BF10BC7047401C2D
:10061000490008BF20F0010010BC704710B5141E3F
:1006200073F1000408DA401C41F1000192185B41AB
:100630001A4301D120F0010010BD2DE9F04D924682
:100640009B4611B1B1FA81F202E0B0FA80F2203299
:100650009046FFF77BFF04460F4640EA0A0041EA56
:100660000B0153465A46084313D0114653EA010082
:1006700019D0C8F140025046FFF777FF05460E46F5
:10068000504659464246FFF761FF084305D0012016
:1006900004E020463946BDE8F08D0020054346EAD7
:1006A000E0762C4337430A986305E40AA0EB080080
:1006B0000022FD0A44EA47540A3002D500200146D0
:1006C000E9E7010510196941DDE9084500196941AB
:1006D000BDE8F04DA2E70000064C074D06E0E068DB
:1006E00040F0010394E8070098471034AC42F6D379
:1006F000FFF722FD581900087819000821B1826817
:1007000042F00102826003E0826822F0010282600E
:100710007047014600208A6802F004020AB10120F5
:1007200000E0002070470146C86C80B27047024666
:10073000002013680B400BB1012000E0002070473F
:10074000014600208A6802F008020AB1012000E098
:100750000020704730B502460020002350680F4C3F
:1007600020400D790C6844EA0524204350609068CD
:100770000B4C2040D1E902542C434D7944EA450406
:1007800020439060D06A20F470000C7C641EE4B2B8
:10079000234340EA0350D06230BD0000FFFEF0FF6B
:1007A000FDF7F1FF00B587B0012148F2800000F0AD
:1007B000C7FB4FF4004000F0B7FB4FF48070ADF87A
:1007C000180000208DF81B0006A9184800F0F7F863
:1007D000002001908DF808008DF809004FF460208A
:1007E00003900020049001208DF8140001A9104806
:1007F000FFF7B0FF01210E48FFF780FF0C4800F023
:1008000075F800BF0A48FFF79BFF0028FAD1084897
:1008100000F07CF800BF0648FFF77BFF0028FAD104
:100820000121034800F067F807B000BD001C01403B
:10083000003C0140F0B504460D4600200021092D82
:1008400011DDE068A5F10A0606EB4607072606FA61
:1008500007F18843A5F10A0606EB460603FA06F1FE
:100860000843E0600CE0206905EB4507072606FA1F
:1008700007F1884305EB450603FA06F108432061BA
:10088000072A0FDA606B561E06EB86071F2606FA4C
:1008900007F18843561E06EB860605FA06F1084363
:1008A000606322E00D2A0FDA206BD61F06EB860765
:1008B0001F2606FA07F18843D61F06EB860605FABF
:1008C00006F10843206310E0E06AA2F10D0606EB92
:1008D00086071F2606FA07F18843A2F10D0606EBEC
:1008E000860605FA06F10843E062F0BD816841F032
:1008F00008018160704721B1826842F4A0028260E1
:1009000003E0826822F4A00282607047816841F0AF
:10091000040181607047000030B10749096841F463
:100920000001054A116005E00349096821F400014E
:10093000014A1160704700000824014000B585B0ED
:100940000121480200F0FCFA4FF4004000F0ECFAFC
:100950000120FFF7E1FF002000908DF804008DF8E2
:1009600005004FF4602002900020039001208DF8D4
:10097000100069460F48FFF7EDFE01210D48FFF713
:10098000BDFE0C48FFF7B2FF00BF0A48FFF7D8FED4
:100990000028FAD10748FFF7B9FF00BF0548FFF765
:1009A000B8FE0028FAD101210248FFF7A4FF05B0E4
:1009B00000BD00000024014000BFFEE770472DE9A4
:1009C000F0410246002500260020002300240027D5
:1009D00091F803C00CF00F0591F803C00CF0100C57
:1009E000BCF1000F03D091F802C04CEA050591F864
:1009F00000C0BCF1000F31D0146800202BE04FF094
:100A0000010C0CFA00F3B1F800C00CEA03069E4298
:100A100020D183004FF00F0C0CFA03F7BC4305FA0A
:100A200003FC4CEA040491F803C0BCF1280F06D182
:100A30004FF0010C0CFA00FCC2F814C00AE091F867
:100A400003C0BCF1480F05D14FF0010C0CFA00FCBB
:100A5000C2F810C0401C0828D1D31460B1F800C0FF
:100A6000BCF1FF0F34DD546800202EE000F1080CCB
:100A70004FF0010808FA0CF3B1F800C00CEA0306C5
:100A80009E4221D183004FF00F0C0CFA03F7BC43B8
:100A900005FA03FC4CEA040491F803C0BCF1280FEA
:100AA00005D100F1080C08FA0CF8C2F8148091F88E
:100AB00003C0BCF1480F07D100F1080C4FF001084A
:100AC00008FA0CF8C2F81080401C0828CED35460F5
:100AD000BDE8F0810246002093680B400BB1012075
:100AE00000E00020704741617047016170470000DD
:100AF0002DE9F04105460C46002607230122294630
:100B00000F48FFF797FE002713E001210C48FFF77D
:100B1000F2FE00BF02210A48FFF709FE0028F9D0C3
:100B20000748FFF700FE0644052000F019FE781C78
:100B3000C7B2A742E9DBB6FBF4F080B2BDE8F081B2
:100B4000003C01402DE9F04105460C4600260723F4
:100B5000012229460F48FFF76DFE002713E001210F
:100B60000C48FFF7C8FE00BF02210A48FFF7DFFD6F
:100B70000028F9D00748FFF7D6FD0644052000F00D
:100B8000EFFD781CC7B2A742E9DBB6FBF4F080B2F8
:100B9000BDE8F0810024014010B50A210620FFF7CE
:100BA000A7FF0446B4F57A6F01D94FF47A64282080
:100BB000B4FBF0F0C0F16400C0B210BD2DE9F05FED
:100BC0000A211020FFF7BEFF83465846FFF756FC68
:100BD0008046FFF777FC06464FF06632114BFFF771
:100BE0006CFB04460D4622462B460F480F49FFF783
:100BF0005EFB80460E4A0F4BFFF7D1FB06460022F4
:100C00000D4BFFF7B3FA04460D4600220B4B20466E
:100C10002946FFF752FB0646FFF735FC8246504651
:100C2000BDE8F09F66664A3FE17A14AE47E1F63FC1
:100C300022FDF675E09C713F0000394000005940EC
:100C400000BFFEE710B54FF400610248FFF74DFF0B
:100C500010BD00000020014008B54FF40060ADF861
:100C6000000004208DF8030069460248FFF7A7FE44
:100C700008BD00000020014010B54FF4006102489B
:100C8000FFF731FF10BD00000020014008B54FF410
:100C90000060ADF8000010208DF8030003208DF8EF
:100CA000020069460148FFF78AFE08BD00200140A6
:100CB00010B54FF400610448FFF70CFF08B10120A4
:100CC00010BD0020FCE700000020014010B50446E4
:100CD0000CB90A2010BD5021012000F063F808B9BA
:100CE0000B20F7E7232000F061FDFFF7E1FF207004
:100CF0007821002000F056F808B90C20EAE700201F
:100D0000E8E7F8B505460DB91420F8BD00F024F861
:100D100006460EB13046F8E7002419E000202855B9
:100D2000002711E06846FFF7D1FF06460EB13046B6
:100D3000EBE7285D4006000E2855285D9DF8001061
:100D400008432855781CC7B2082FEBDB601CC4B2DF
:100D5000052CE3DB0020D8E710B5FFF797FFFFF77E
:100D60008BFF142000F0FCFCFFF76CFF1E2000F04E
:100D70001DFDFFF771FF6421002000F013F808B992
:100D8000022010BD6421012000F00CF808B90320F6
:100D9000F7E76421002000F005F808B90420F0E727
:100DA0000020EEE770B504460D4608E0FFF780FF2F
:100DB000A04201D1012070BD012000F0F7FC281EE7
:100DC000A5F101018DB2F1D100BFF4E710B5012109
:100DD000080200F0B5F8FFF759FFFFF733FF0220D4
:100DE00000F0BEFC002010BD7CB504460CB901200B
:100DF0007CBD002521E06846FFF783FF0646CEB99B
:100E00009DF800009DF8011008449DF80210084468
:100E10009DF803100844C0B29DF80410884200D029
:100E200009E09DF800002070FFF730FFFFF70AFF90
:100E30000020DDE700BF681CC5B2022DDBDBFFF739
:100E400025FFFFF7FFFE0520D2E7000008B50121CE
:100E5000482000F075F82020ADF8000010208DF833
:100E6000030003208DF8020069460948FFF7A7FD3B
:100E700020210748FFF739FE2020ADF80000694621
:100E80000448FFF79CFD20210248FFF72EFE08BD15
:100E9000000C01400018014000BFFEE77047000051
:100EA00070B5002100230F22C47804B3154C2468C8
:100EB00004F4E064C4F5E064210AC1F10403CA400B
:100EC000447804FA03F184781440214309010E4C5C
:100ED0000678A155047804F01F050124AC4005787C
:100EE0006D11AD0005F1E025C5F8004109E0047879
:100EF00004F01F050124AC40044D0678761145F836
:100F0000264070BD0CED00E000E400E080E100E070
:100F100002490143024A1160704700000000FA05CF
:100F20000CED00E07047000001460020034A5068C5
:100F300020F4404008435060704700000010024019
:100F400029B1064A92690243044B9A6104E0034ABC
:100F500092698243014B9A61704700000010024081
:100F600030B500210022002400232D4D6D6805F0CE
:100F70000C0121B1042905D0082923D105E0294D10
:100F8000056022E0274D05601FE0254D6D6805F4E2
:100F90007012234D6D6805F48034022505EB9242F2
:100FA0001CB9214D554305600BE01D4D6D6805F4DE
:100FB00000351DB11C4D5543056002E0194D5543E8
:100FC000056002E0174D056000BF00BF144D6D685D
:100FD00005F0F0010909154D6B5C0568DD404560C1
:100FE0000F4D6D6805F4E061090A104D6B5C4568B2
:100FF000DD4085600A4D6D6805F46051C90A0B4DEE
:101000006B5C4568DD40C560054D6D6805F4404189
:10101000890B074D6B5CC568B5FBF3F5056130BD09
:101020000010024000127A0000093D00000000207C
:1010300010000020704710B500F002F810BD00004D
:101040000CB50020019000903348006840F48030D7
:101050003149086000BF3048006800F4003000905B
:101060000198401C0190009818B90198B0F5A06F44
:10107000F1D12948006800F4003010B1012000903F
:1010800001E0002000900098012843D12348006827
:1010900040F01000214908600846006820F0030075
:1010A00008600846006840F0020008601A4840687E
:1010B000194948600846406848600846406840F45E
:1010C000806048600846406820F47C10486008460C
:1010D000406840F4E81048600846006840F08070BE
:1010E000086000BF0C48006800F000700028F9D0CC
:1010F0000948406820F003000749486008464068F6
:1011000040F00200486000BF0348406800F00C0057
:101110000828F9D10CBD0000001002400020024058
:10112000042808D14FF0E021096941F004014FF093
:10113000E022116107E04FF0E021096921F004018C
:101140004FF0E022116170477047000010B504466F
:101150006FF00400FFF7E4FFE11704EB5171C1F3F6
:10116000C701074A11701046007800EB4001C1EB3F
:10117000C0104FF6FF7101EAC0000249088010BD9F
:10118000140000201600002010B51348006840F03D
:1011900001001149086008464068104908400E499E
:1011A0004860084600680E4908400B490860084638
:1011B000006820F4802008600846406820F4FE00A3
:1011C00048604FF41F008860FFF735FF4FF0006064
:1011D0000449086010BD0000001002400000FFF844
:1011E000FFFFF6FE08ED00E010B540F225511D4866
:1011F00000F0B8F810B31B4800F070F9C4B21A48F8
:10120000008800F40040C8B91748008800F4804006
:1012100060B10A2C03D000201349088020E0124856
:10122000008840F400401049088019E00D2C06D1D8
:101230000D48008840F480400B49088010E00A48BF
:101240000088C0F30D0009490C5407480088401C71
:101250000549088008460088C72801DD002008806D
:1012600010BD0000003801401800002020000020C0
:1012700010B586B0044601210420FFF761FE01216C
:101280008803FFF75DFE4FF40070ADF814000320F3
:101290008DF8160018208DF8170005A91E48FFF7D5
:1012A0008EFB4FF48060ADF8140004208DF8170019
:1012B00005A91948FFF783FB01940020ADF8080049
:1012C000ADF80A00ADF80C00ADF810000C20ADF838
:1012D0000E0001A9114800F095F801210F4800F017
:1012E00028F840210D4800F01BF8012240F225515A
:1012F0000A4800F061F825208DF8000003208DF8E1
:1013000001008DF8020001208DF803006846FFF708
:10131000C7FD06B010BD00000008014000380140C4
:1013200001F40072B2F5007F00D100BFCA43028011
:10133000704721B1828942F40052828104E082899F
:101340004DF6FF731A408281704702460020B1F5C6
:10135000007F00D100BF13880B400BB1012000E0DB
:101360000020704770B502460024002300250020AD
:1013700040F66A16B14200D100BFC1F3421501F038
:101380001F03012606FA03F3012D02D1968933408B
:1013900006E0022D02D1168A334001E0968A3340DE
:1013A0000C12012606FA04F41688344013B10CB16D
:1013B000012000E0002070BDF0B5034600240026A7
:1013C0000025002040F66A17B94200D100BF184638
:1013D000C1F3421401F01F06012707FA06F5012C9C
:1013E00001D10C3004E0022C01D1103000E01430A7
:1013F0001AB107682F43076002E00768AF43076030
:10140000F0BD00002DE9F04786B005460E460024E9
:10141000A24600BFA1460027B08900B100BF2F46F9
:101420002C8A4CF6FF700440F08804432C82AC896F
:101430004EF6F3100440B08831890843718908439F
:101440000443AC81AC8A4FF6FF400440B0890443AA
:10145000AC8201A8FFF784FD1F48874202D1DDF866
:1014600010A001E0DDF80CA0A88900F4004040B114
:101470000AEBCA0000EB0A1031684900B0FBF1F832
:1014800007E00AEBCA0000EB0A1031688900B0FBE4
:10149000F1F86420B8FBF0F004012009642101FB9D
:1014A0001089A88900F4004040B1322000EBC90047
:1014B000B0FBF1F000F00700044308E0322000EB3D
:1014C00009106421B0FBF1F000F00F0004432C81FF
:1014D00006B0BDE8F087000000380140014688886A
:1014E000C0F308007047C1F308028280704700BF54
:1014F000FEE700000FB4054B10B503A9044A02989B
:1015000000F018F810BC5DF814FB0000F917000893
:101510001C00002002E008C8121F08C1002AFAD1EE
:1015200070477047002001E001C1121F002AFBD163
:10153000704700002DE9FF4F8BB09A460F460446D6
:10154000002606E025280BD052460D999047641CD2
:10155000761C20780028F5D10FB03046BDE8F08F1A
:101560000025A94601227D4900E0054314F8013F0A
:10157000203B02FA03F00842F7D120782E2817D139
:1015800014F8010F45F004052A280ED06FF02F0241
:101590002078A0F1300109290AD809EB890102EB72
:1015A000410100EB0109641CF2E757F8049B641C3D
:1015B00020786C280DD004DC4C2812D06A2811D178
:1015C00004E074280DD07A280CD10AE045F4001507
:1015D00007E0617845F48015814202D1641C05F56D
:1015E0008015641C207869283ED006DC0028B3D022
:1015F00063280BD0642804D136E0732810D07528F6
:101600005CD052460D999047761CA5E017F8040B64
:101610008DF8000000208DF80100E846012003E06D
:1016200057F8048B4FF0FF3069074FF0000501D4E5
:101630000AE06D1C4D450DDA8542FADB18F80510FD
:101640000029F6D106E06D1C8542FCDB18F8051078
:101650000029F8D12E4404E018F8010B52460D99E8
:1016600090476D1EF8D277E000200A90C5F3025033
:101670004FF00A0B02280CD001CFC117021E71F1E6
:1016800000020CDA0023D0EB030063EB01012D22F2
:1016900008E0FF1D27F00707F7E80201EEE72A053B
:1016A00004D52B228DF82420012203E0EA070FD075
:1016B0002022F7E70DF12008089218E000200A9098
:1016C000C5F302504FF00A0B022803D001CF0021CE
:1016D0000022EFE7FF1D27F00707F7E80201F7E711
:1016E0005A460A9BFEF701FF303208F8012D50EAF6
:1016F0000102F5D1ADEB080000F1200B680701D421
:101700004FF00109D94502DDA9EB0B0000E00020F4
:101710008146002506E009A85246405D0D99904794
:101720006D1C761C08988542F5DB04E0302052469B
:101730000D999047761CB9F10001A9F10109F5DC7A
:1017400005E018F8010B52460D999047761CBBF145
:101750000001ABF1010BF4DC641CFAE6092801007E
:101760000146114A12884A434FF0E0235A61002291
:101770009A611A46126942F001021A6100BF4FF0E5
:10178000E022106900F001021AB100F48032002A50
:10179000F5D04FF0E022126922F001024FF0E02371
:1017A0001A6100229A617047160000200146114A12
:1017B00012784A434FF0E0235A6100229A611A4698
:1017C000126942F001021A6100BF4FF0E022106975
:1017D00000F001021AB100F48032002AF5D04FF077
:1017E000E022126922F001024FF0E0231A61002288
:1017F0009A6170471400002070B504460D46E1B2AE
:101800000548FFF770FE00BF80210348FFF79DFDEC
:101810000028F9D0204670BD003801401CB50024D6
:101820000025002600270020019080464820FFF771
:101830008DFC4FF4A060FFF76BFBFFF707FB4FF445
:10184000E130FFF715FDFFF779F8FEF7ABFFFFF783
:10185000BDFA3AE0601C84B20A35322094FBF0F104
:1018600000FB114038B91948006808B9012000E0B0
:10187000002016490860642094FBF0F100FB114041
:1018800000281FD1FFF79AF90646FFF785F90746AA
:1018900001A8FFF7A9FA08B9012000E0002080465E
:1018A000B8F1000F08D000959DF804303A46314653
:1018B00007A0FFF71FFE05E02B463A4631461448C5
:1018C000FFF718FE0A20FFF74BFFC3E79481214280
:1018D0007B2274656D705F63656E7469223A25645E
:1018E0002C226C69676874223A25752C2268756D04
:1018F0006964697479223A25752C2274696D65735F
:1019000074616D705F6D73223A256C757D0D0A00F0
:10191000141900087B2274656D705F63656E7469CD
:10192000223A25642C226C69676874223A25752C4A
:101930002268756D6964697479223A6E756C6C2CD5
:101940002274696D657374616D705F6D73223A25E1
:101950006C757D0D0A000000781900080000002059
:10196000200000001415000898190008200000202D
:10197000C804000024150008000000000102030450
:10198000010203040607080902040608000000001B
:0819900000000000000000004F
:0400000508000131BD
:00000001FF
