:020000040800F2
:100000003811002049010008551400089711000814
:10001000511400085D050008A31B00080000000043
:10002000000000000000000000000000F5150008BE
:100030006D07000800000000DD1400081517000817
:100040006301000863010008630100086301000800
:1000500063010008630100086301000863010008F0
:1000600063010008630100086301000863010008E0
:1000700063010008630100086301000863010008D0
:1000800063010008630100086301000863010008C0
:1000900063010008630100086301000863010008B0
:1000A00063010008630100086301000863010008A0
:1000B0006301000863010008630100086301000890
:1000C0006301000863010008630100086301000880
:1000D00063010008B917000863010008051900084A
:1000E0006301000863010008630100086301000860
:1000F0006301000863010008630100086301000850
:10010000630100086301000863010008630100083F
:10011000630100086301000863010008630100082F
:10012000630100086301000863010008630100081F
:10013000DFF810D000F07EF900480047452800089D
:10014000AFF300803811002006488047064800477A
:10015000FEE7FEE7FEE7FEE7FEE7FEE7FEE7FEE777
:10016000FEE7FEE7591700083101000840EA0103E5
:100170009B0703D009E008C9121F08C0042AFAD25D
:1001800003E011F8013B00F8013B521EF9D2704721
:10019000D2B201E000F8012B491EFBD270470022C9
:1001A000F6E710B513460A4604461946FFF7F0FF76
:1001B000204610BD30B505462A460B4612F8010B05
:1001C00013F8014B08B1A042F8D01CB1002802D0AE
:1001D0006D1CF1E7284630BDCAB2401E10F8011F61
:1001E0008A4202D00029F9D100207047421C10F841
:1001F000011B0029FBD1801A704710B5002200E0D6
:10020000521C835C8C5CA34201D1002BF8D1D8B284
:10021000E1B2401A10BD30B505460020034600E0AB
:100220005B1C934205D2EC5CC85C201A01D1002C07
:10023000F6D130BDF0B480EA0102D40F4200B2EB37
:10024000410F02D20246084611464A0042D0C30D71
:10025000DDB2C1F3C752AD1A202D35DAC1F3160154
:1002600041F4000204B15242C5F1200602FA06F13F
:100270002A411044B3EBD05F23D0C4B1012DA0EBD1
:10028000C35009DCF0BC4FF0004202EAC352DBB2BB
:1002900000F5000000F09FB8400000F1807000EB16
:1002A000C350A0F1807040EAD170490009E04908CC
:1002B00041EAC071A0EBC35000F50000400800EB1C
:1002C000C350F0BC00F07EB86142012202EB410154
:1002D000001BF6E7F0BC704781F00041AAE780F010
:1002E0000040A7E780EA010210B502F00043400099
:1002F00022D04A001FD0010E01EB1261C0F356005C
:10030000C2F3560240F4000042F40002A0FB0220B7
:1003100000047F39140400D0401C50EA124001D47C
:100320004000491EC2B20C0604EBD010401C40082D
:10033000802A02D003E0002010BD20F00100002937
:1003400000DA0020184310BD96230022114600F069
:1003500042B800F0004220F00040C10DC0F316008A
:1003600040F400007F2901DA00207047962903DC61
:10037000C1F19601C84001E096398840002AF4D0C6
:1003800040427047002801DBC0F10040002901DB3A
:10039000C1F100418842704730B50B46014600204C
:1003A0002022012409E021FA02F59D4205D303FA37
:1003B00002F5491B04FA02F52844151EA2F10102B8
:1003C000F1DC30BD0029A8BF7047401C490008BFC0
:1003D00020F00100704710B4B0FA80FC00FA0CF075
:1003E00050EA010404BF10BC704749B1CCF12004AD
:1003F00021FA04F411FA0CF118BF0121214308433A
:10040000A3EB0C01CB1D4FEA00614FEA102042BF65
:10041000002010BC704700EBC35010440029A4BF5B
:1004200010BC7047401C490008BF20F0010010BC00
:1004300070470000064C074D06E0E06840F00103FD
:1004400094E8070098471034AC42F6D3FFF774FEE7
:10045000583100087831000810B501F041FE04461B
:1004600001F052F900F5FA6001490860204610BD1C
:100470001800002000B5014609B9002000BD054B59
:100480000DCB81E80D0000F007F808720148407AB2
:10049000F4E70000600000200348006808B901206C
:1004A00070470020FCE700009481214210B5002035
:1004B0000C4908604860087248720B4908700B4983
:1004C000086000F063F80AA001F018FC002000F0BA
:1004D00033F8FFF7C1FF01F017F900F5FA6003499F
:1004E000086010BD600000201400002018000020EB
:1004F0005B53454E534F525D20444854313120697F
:100500006E697420646F6E650D0A000010B501F00D
:10051000FBF804460748006818B1064800688442A2
:1005200007D301F0DDFD01F0EFF800F5FA600149B5
:10053000086010BD1800002010B504460CB1012160
:1005400000E00021084601F0BFFD0CB1012000E0F1
:1005500000200149087210BD6000002000BFFEE7C6
:1005600010B518210148FFF71AFE10BD4800002001
:1005700010B5044604B910BD182203492046FFF700
:10058000F5FD00BFF7E700004800002010B501218D
:10059000042000F0B5FF01F003FF4FF48071034821
:1005A00000F0F7FDFFF7DCFF10BD00000008014080
:1005B0002DE9F04385B004460D4604B145B901204C
:1005C00001F0D6FE01F0B8FE002005B0BDE8F083D2
:1005D00001F0E6FE4FF48071554800F0D8FD14207C
:1005E00001F0E8FD4FF48071514800F0D2FD1E206B
:1005F00001F02AFE01F0C2FE7821002001F0E2FEA7
:1006000030B9022001F0B4FE01F096FE0020DCE7D4
:100610007821012001F0D6FE30B9032001F0A8FEB8
:1006200001F08AFE0020D0E77821002001F0CAFE08
:1006300030B9042001F09CFE01F07EFE0020C4E7EA
:1006400004A801F035FE18B901F076FE0020BCE7E1
:1006500003A801F02DFE18B901F06EFE0020B4E7EA
:1006600002A801F025FE18B901F066FE0020ACE7F3
:1006700001A801F01DFE18B901F05EFE0020A4E7FC
:10068000684601F015FE18B901F056FE00209CE7FF
:100690009DF81000274948749DF80C102548817476
:1006A0009DF80810C1749DF8041001759DF80010A4
:1006B00041759DF810009DF80C1008449DF8081035
:1006C00008449DF804100844C6B29DF80000864214
:1006D00006D0062001F04CFE01F02EFE002074E74B
:1006E0009DF80C00FFF730FE81461349FFF7FAFD35
:1006F00007469DF81000FFF727FE80463946FFF7B2
:1007000099FD28609DF80400FFF71EFE81460A4906
:10071000FFF7E8FD07469DF80800FFF715FE804645
:100720003946FFF787FD206001F016FE01204CE7F7
:100730000008014048000020CDCCCC3D10B501F0B0
:100740002FFE4FF48071074800F023FD022001F0D6
:1007500031FD01F013FE0448C068401C0249C86026
:1007600010BD000000080140480000207047000054
:1007700010B50446012C04D11021044800F009FDF5
:1007800003E01021014800F002FD10BD0008014007
:1007900000200249A1F800040870704736050020C7
:1007A0002DE9F84304460D461646994614B9002033
:1007B000BDE8F8830F48006800F101080D48C0F853
:1007C0000080204601F042FE0746FFF7E1FF214688
:1007D000404601F061FE204601F008FF15B90EB950
:1007E0000120E5E74B46324629464046009701F096
:1007F0005BFFDDE73400002010B50120FFF7B8FFF4
:1008000000F05AFB00201B4908701B49086001F0EA
:10081000B1FE002410E0194951F8240001F0B8FE9F
:1008200040B1164850F824001349086001201149CE
:10083000087003E0601CC4B2042CECDB00BF0D4860
:10084000007820B90EA001F059FA002010BD0A4826
:1008500001681BA001F052FA4FF41673002220A188
:1008600020A0FFF79DFF10B920A001F047FA01205A
:10087000ECE700003C000020380000204831000870
:100880005B4553505D20696E6974206661696C65D3
:10089000643A206E6F20415420726573706F6E73DE
:1008A00065206F6E20393630302F3131353230309F
:1008B0002F37343838302F35373630300D0A0000B6
:1008C0005B4553505D20696E697420737563636581
:1008D00073732C20626175643D256C750D0A0000F0
:1008E0004F4B000041544530000000005B45535021
:1008F0005D2041544530206661696C65642C20633D
:100900006F6E74696E75650D0A0000000648007808
:1009100038B10648007820B10548007808B10120B8
:1009200070470020FCE700003C0000203D00002054
:100930003F00002070B5AAB006460D46304601F0D3
:100940007DFD00B115B900202AB070BD002000F077
:1009500011FA08B90020F7E7334610A2A02102A837
:10096000009501F0DBF90446002C01DDA02C01DB31
:100970000020E9E742F6E0630DA20EA102A8FFF70E
:100980000FFF18B900200E490870DDE701200C495F
:1009900008700CA001F0B2F90120D5E741542B43B7
:1009A000574A41503D222573222C222573220000F4
:1009B0004F4B00005749464920474F5420495000AB
:1009C0003D0000205B574946495D20636F6E6E65B0
:1009D000637465640D0A000070B5AAB005460E4642
:1009E000284601F02BFD10B900202AB070BD40F25E
:1009F000DC5315A215A116A0FFF7D2FE2B4618A2B4
:100A0000A02102A8009601F089F90446002C01DD1E
:100A1000A02C01DB0020E8E742F210730BA216A124
:100A200002A8FFF7BDFE18B9002017490870DCE7DF
:100A3000012016490870144908703246294614A04E
:100A400001F05CF90120D0E7455252004F4B000005
:100A500041542B4D515454434C45414E3D300000C0
:100A600041542B4D515454434F4E4E3D302C222572
:100A700073222C25752C30002B4D515454434F4E6E
:100A80004E454354454400003F0000203E000020F6
:100A90005B4D5154545D20636F6E6E656374656485
:100AA00020746F2025733A25750D0A002DE9FF4F3C
:100AB00083B00F4691469846039848B147B1B8F1C4
:100AC000000F05D0B9F1020F02D31098022803D20B
:100AD000002007B0BDE8F08F0020387088F80000D3
:100AE00022210398FFF778FB06460EB90020F0E7B5
:100AF000761C22213046FFF76FFB8246BAF1000FC9
:100B000001D10020E5E72C215046FFF765FB834625
:100B1000BBF1000F01D10020DBE72C210BF101001C
:100B2000FFF75AFB0290029808B90020D1E7AAEB20
:100B3000060080B201900198484503DBA9F101004D
:100B400080B2019031463846019AFFF70FFB002131
:100B5000019839540298451C00E06D1C2878202823
:100B6000FBD028780928F8D02C4600E0641C2078B7
:100B700028B120780D2802D020780A28F6D100E08C
:100B8000641EAC4207D914F8010C2028F8D014F8E0
:100B9000010C0928F4D02878222807D1AC4205D9C5
:100BA00014F8010C222801D16D1C641E601B80B258
:100BB000009010990098884203DB1098401E80B284
:100BC000009029464046009AFFF7D0FA002100988D
:100BD00008F8001001207CE7F8B504460D461646DB
:100BE0001F4624B11EB1022D01D3022F01D20020D5
:100BF000F8BD0B48007808B90020F9E70020084943
:100C0000087008A10B4801F01FFD08B90020EFE7AC
:100C100033462A46214607480097FFF747FFE7E794
:100C2000400000202B4D51545453554252454356D9
:100C30003A000000380900202DE9F041AEB0074627
:100C40000D46384601F0FAFB00B11DB900202EB068
:100C5000BDE8F0812846FFF7C9FA86B23B461BA2E1
:100C6000B42101A8009601F059F80446002C01DDDA
:100C7000B42C01DB0020EAE71B48006800F1010802
:100C80001948C0F80080FFF783FD01A9404601F034
:100C900003FC01A801F0AAFC00204FF4FA6302460D
:100CA00012A10090404601F0FFFC08B90020CEE7F9
:100CB0003146284601F07EFC002041F270730CA200
:100CC0000CA10090404601F0EFFCC0E741542B4DD1
:100CD0005154545055425241573D302C22257322D5
:100CE0002C25752C302C3000340000203E000000F4
:100CF0004F4B00002B4D5154545055423A4F4B002E
:100D000070B5AAB005460E46284601F097FB10B90B
:100D100000202AB070BD2B460AA2A02102A800968E
:100D200000F0FCFF0446002C01DDA02C01DB0020BC
:100D3000EFE740F2DC5309A20DA102A8FFF730FD56
:100D4000E7E7000041542B4D5154545355423D3078
:100D50002C222573222C257500000000414C5245A1
:100D600041445920535542534352494245000000E3
:100D70004F4B000010B5044624B1012C0AD0022CC0
:100D800018D10FE04FF47A730BA20EA10EA0FFF75B
:100D900007FD10BD4FF47A7307A20AA10DA0FFF75B
:100DA000FFFCF6E74FF47A7303A206A10CA0FFF74D
:100DB000F7FCEEE70020ECE76E6F206368616E677A
:100DC000650000004F4B000041542B43574D4F44EA
:100DD000453D310041542B43574D4F44453D320072
:100DE00041542B43574D4F44453D330010B51848EF
:100DF000007800B910BD1748007828B100201549C7
:100E0000087015A000F07AFF1D48B0F80004C00B70
:100E100000B9EFE74FF480611A4801F0F3FA0120BE
:100E200019490870FFF7B4FC18A1164801F00CFC32
:100E300048B91AA1134801F007FC20B919A11148BB
:100E400001F002FC08B101F095FB00BFD2E7000001
:100E50003C000020320000205B4552524F525D2082
:100E600045535038323636205258206275666665D2
:100E700072206F766572666C6F770D0A0000000055
:100E80003605002038090020400000205749464917
:100E900020444953434F4E4E45435400434C4F5317
:100EA000454400002B4D515454444953434F4E4E3A
:100EB00045435445443A000010B54FF400410A48F8
:100EC00000F065F9C82001F075F94FF400410648BB
:100ED00000F05FF94FF4487001F06CF9FFF758FC2F
:100EE00000200249087010BD0008014040000020A9
:100EF00030B595B0044623460AA2502101A800F05F
:100F00000DFF0546002D01DD502D02DB002015B040
:100F100030BD4FF47A7300220AA101A8FFF740FC0C
:100F2000F5E7000041542B4D515454434F4E4E436E
:100F300046473D302C25752C302C22222C22222C89
:100F4000302C30004F4B0000F0B5B5B007460D46D1
:100F50001646384601F072FA08B105B116B90020FC
:100F600035B0F0BD3B460BA2C82103A8CDE9005621
:100F700000F0D4FE0446002C01DDC82C01DB00206B
:100F8000EEE740F2DC530EA211A103A8FFF708FC24
:100F9000E6E7000041542B4D5154545553455243FC
:100FA00046473D302C312C222573222C22257322DA
:100FB0002C222573222C302C302C22220000000001
:100FC000414C5245415920434F4E4E454354000039
:100FD0004F4B00002DE9F04102460025002600207D
:100FE00000230024002791F803C00CF00F0591F8AE
:100FF00003C00CF0100CBCF1000F03D091F802C03C
:101000004CEA050591F800C0BCF1000F31D014681E
:1010100000202BE04FF0010C0CFA00F3B1F800C0F7
:101020000CEA03069E4220D183004FF00F0C0CFA0D
:1010300003F7BC4305FA03FC4CEA040491F803C02F
:10104000BCF1280F06D14FF0010C0CFA00FCC2F8DD
:1010500014C00AE091F803C0BCF1480F05D14FF06D
:10106000010C0CFA00FCC2F810C0401C0828D1D3B7
:101070001460B1F800C0BCF1FF0F34DD54680020EB
:101080002EE000F1080C4FF0010808FA0CF3B1F85B
:1010900000C00CEA03069E4221D183004FF00F0CE2
:1010A0000CFA03F7BC4305FA03FC4CEA040491F87C
:1010B00003C0BCF1280F05D100F1080C08FA0CF8A8
:1010C000C2F8148091F803C0BCF1480F07D100F1B9
:1010D000080C4FF0010808FA0CF8C2F81080401C08
:1010E0000828CED35460BDE8F0810000F0B50A4670
:1010F000002300240021002500F00046B6F1004F37
:1011000002D11D4EF16901E01B4E7168C0F3034529
:1011100083B200F44016B6F5401F08D121F070618B
:10112000154E766826F07066134F7E6012E000F46C
:101130008016B6F5801F06D1032606FA05F4A143F2
:1011400041F0706106E0460D360103FA06F6B14340
:1011500041F0706122B1460D360103FA06F63143C3
:1011600000F00046B6F1004F02D1034EF16101E0FC
:10117000014E7160F0BD00000000014002460020F9
:1011800093680B400BB1012000E0002070474161E3
:1011900070470161704700BFFEE7000008B50121FC
:1011A000482000F0ADF92020ADF8000010208DF8A7
:1011B000030003208DF8020069460948FFF70AFF83
:1011C00020210748FFF7E5FF2020ADF80000694621
:1011D0000448FFF7FFFE20210248FFF7DAFF08BDB1
:1011E000000C01400018014010B512A118A000F039
:1011F00085FD1CA122A000F081FD40F25B7226A1BA
:1012000029A000F07BFD01F083FF30B92BA000F096
:1012100075FD00203949087010BD0120374908705C
:1012200000F072FA3649086000203649086000BFB5
:10123000F2E70000656E765F6C65645F6E6F6465F3
:101240002F626F6172643030312F757000000000C2
:101250005B4346475D20746F7069632075703D2560
:10126000730D0A00656E765F6C65645F6E6F646512
:101270002F626F6172643030312F646F776E0000BF
:101280005B4346475D20746F70696320646F776EBF
:101290003D25730D0A0000003139322E3136382ECB
:1012A0003133372E310000005B4346475D206D71BE
:1012B00074743D25733A25750D0A00005B4346475B
:1012C0005D20574946495F535349442F5749464982
:1012D0005F50415353574F5244206E6F7420636FD9
:1012E0006E666967757265642C206D717474206414
:1012F000697361626C65640D0A0000001C000020C7
:10130000200000202400002010B5B8B02748007845
:1013100008B938B010BD00F0F7F90446234800784A
:10132000072806D1FFF7F2FA18B921A001F08CFEC8
:10133000EFE71E48007807282ED180236A466021F7
:1013400020A8FFF749FC002810D06A4620A91DA05C
:1013500000F0D4FC24A120A8FEF74FFF30B9684666
:1013600001F0DCFB10B927A000F0C8FC2E48006893
:1013700018B12D48006884420DD301F013FC38B138
:1013800000F0C2F941F2883108442749086002E0C0
:1013900026A001F059FEBCE72C480068844200D228
:1013A000B7E701F0D1FC00BFB3E700001C0000204C
:1013B0005B4D5154545D20646973636F6E6E656359
:1013C000746564005B4D5154545D207265637620F2
:1013D000746F7069633D2573207061796C6F61640F
:1013E0003D25730D0A000000656E765F6C65645FD5
:1013F0006E6F64652F626F6172643030312F646F7D
:10140000776E00005B4D5154545D20696E76616CBF
:10141000696420646F776E6C696E6B207061796CA3
:101420006F61640D0A000000240000205B4D5154E0
:10143000545D20706572696F646963207075626CB9
:10144000697368206661696C656400002000002093
:1014500000BFFEE77047000070B5002100230F2297
:10146000C47804B3154C246804F4E064C4F5E06463
:10147000210AC1F10403CA40447804FA03F18478D4
:101480001440214309010E4C0678A155047804F05C
:101490001F050124AC4005786D11AD0005F1E02574
:1014A000C5F8004109E0047804F01F050124AC40B0
:1014B000044D0678761145F8264070BD0CED00E02D
:1014C00000E400E080E100E002490143024A1160CB
:1014D000704700000000FA050CED00E070470000C6
:1014E00029B1064AD2690243044BDA6104E0034A97
:1014F000D2698243014BDA6170470000001002405C
:1015000029B1064A92690243044B9A6104E0034AF6
:1015100092698243014B9A617047000000100240BB
:1015200030B500210022002400232D4D6D6805F008
:101530000C0121B1042905D0082923D105E0294D4A
:10154000056022E0274D05601FE0254D6D6805F41C
:101550007012234D6D6805F48034022505EB92422C
:101560001CB9214D554305600BE01D4D6D6805F418
:1015700000351DB11C4D5543056002E0194D554322
:10158000056002E0174D056000BF00BF144D6D6897
:1015900005F0F0010909154D6B5C0568DD404560FB
:1015A0000F4D6D6805F4E061090A104D6B5C4568EC
:1015B000DD4085600A4D6D6805F46051C90A0B4D28
:1015C0006B5C4568DD40C560054D6D6805F44041C4
:1015D000890B074D6B5CC568B5FBF3F5056130BD44
:1015E0000010024000127A0000093D0000000020B7
:1015F00010000020704710B500F002F810BD000088
:101600000CB50020019000903348006840F4803011
:101610003149086000BF3048006800F40030009095
:101620000198401C0190009818B90198B0F5A06F7E
:10163000F1D12948006800F4003010B10120009079
:1016400001E0002000900098012843D12348006861
:1016500040F01000214908600846006820F00300AF
:1016600008600846006840F0020008601A484068B8
:10167000194948600846406848600846406840F498
:10168000806048600846406820F47C104860084646
:10169000406840F4E81048600846006840F08070F8
:1016A000086000BF0C48006800F000700028F9D006
:1016B0000948406820F00300074948600846406830
:1016C00040F00200486000BF0348406800F00C0092
:1016D0000828F9D10CBD0000001002400020024093
:1016E000042808D14FF0E021096941F004014FF0CE
:1016F000E022116107E04FF0E021096921F00401C7
:101700004FF0E02211617047014800687047000007
:101710002C0000207047000010B504466FF0040054
:10172000FFF7DEFFE008094908700846007800EB83
:101730004001C1EBC0104FF6FF7101EAC00004493F
:10174000088000200349086010BD00002800002028
:101750002A0000202C00002010B51348006840F03B
:1017600001001149086008464068104908400E49C8
:101770004860084600680E4908400B490860084662
:10178000006820F4802008600846406820F4FE00CD
:1017900048604FF41F008860FFF72DFF4FF0006096
:1017A0000449086010BD0000001002400000FFF86E
:1017B000FFFFF6FE08ED00E010B540F2255122488B
:1017C00000F02BF900283DD01F4800F0E1F9C4B229
:1017D0001E48008800F4004058BB1C48008800F4F4
:1017E000804060B10A2C06D11848008840F40040BF
:1017F0001649088021E00020144908801DE00D2CC6
:1018000006D11248008840F480401049088014E056
:101810000E480088C0F30D00C7280BD20B48008883
:10182000C0F30D000A490C5408480088401C0749C1
:10183000088002E000200549088040F22551024856
:1018400000F0C3F810BD0000003801403000002057
:101850006C00002010B586B0044601210420FFF77B
:101860004FFE01218803FFF74BFE4FF40070ADF8E7
:10187000140003208DF8160018208DF8170005A914
:101880001E48FFF7A7FB4FF48060ADF8140004205A
:101890008DF8170005A91948FFF79CFB019400205B
:1018A000ADF80800ADF80A00ADF80C00ADF8100076
:1018B0000C20ADF80E0001A9114800F0FDF801213F
:1018C0000F4800F091F840210D4800F075F8012212
:1018D00040F225510A4800F0CAF825208DF8000092
:1018E00003208DF801008DF8020001208DF803001F
:1018F0006846FFF7B1FD06B010BD000000080140CA
:101900000038014038B540F22551284800F085F8EC
:1019100010B3264800F03CF9C5B22548B0F80004E1
:10192000C0F30E0040F2FF31884216D22049B1F8D0
:101930000014C1F30E00411C1D4AB2F8002461F3EB
:101940000E021B49A1F800240D540020B1F8001428
:10195000C1F30E01164A505402E0012015490870E7
:1019600040F22441114800F058F801281DD11048D8
:10197000B0F80004C0F30E04B4F5806F01D340F258
:10198000FF3400200A4908550846B0F8000420F446
:10199000004000F50040A1F80004044800880090D1
:1019A0000248001D0088009000BF38BD004800407C
:1019B000360500203200002001F40072B2F5007FED
:1019C00000D100BFCA430280704710B50022002337
:1019D00040F66A14A14200D100BF0A1201249440CB
:1019E000A3B2DC43048010BD21B1828942F40052CD
:1019F000828104E082894DF6FF731A40828170472C
:101A000002460020B1F5007F00D100BF13880B40D3
:101A10000BB1012000E00020704770B502460024A1
:101A200000230025002040F66A16B14200D100BF15
:101A3000C1F3421501F01F03012606FA03F3012D3D
:101A400002D19689334006E0022D02D1168A334036
:101A500001E0968A33400C12012606FA04F4168837
:101A6000344013B10CB1012000E0002070BDF0B58E
:101A70000346002400260025002040F66A17B942DC
:101A800000D100BF1846C1F3421401F01F06012720
:101A900007FA06F5012C01D10C3004E0022C01D12B
:101AA000103000E014301AB107682F43076002E0DD
:101AB0000768AF430760F0BD2DE9F04786B00546E3
:101AC0000E460024A24600BFA1460027B08900B1FF
:101AD00000BF2F462C8A4CF6FF700440F088044368
:101AE0002C82AC894EF6F3100440B088318908434B
:101AF000718908430443AC81AC8A4FF6FF4004402F
:101B0000B0890443AC8201A8FFF70AFD1F48874251
:101B100002D1DDF810A001E0DDF80CA0A88900F4E6
:101B2000004040B10AEBCA0000EB0A1031684900DE
:101B3000B0FBF1F807E00AEBCA0000EB0A103168CD
:101B40008900B0FBF1F86420B8FBF0F00401200933
:101B5000642101FB1089A88900F4004040B13220C3
:101B600000EBC900B0FBF1F000F00700044308E00F
:101B7000322000EB09106421B0FBF1F000F00F00FF
:101B800004432C8106B0BDE8F08700000038014016
:101B900001468888C0F308007047C1F308028280BC
:101BA000704700BFFEE7000000B587B00121880440
:101BB000FFF796FC01210820FFF7A2FC0121042079
:101BC000FFF79EFC01210846FFF79AFC01213648E9
:101BD000FFF78CFA48F21000ADF8180010208DF8CD
:101BE0001B0003208DF81A0006A93048FFF7F2F910
:101BF00010212E48FFF7CBFA4FF400412B48FFF796
:101C0000C8FA4FF48060ADF8180018208DF81B005A
:101C100003208DF81A0006A92548FFF7DBF94FF4D9
:101C20000060ADF8180004208DF81B0006A92048BC
:101C3000FFF7D0F94FF4165002900020ADF80C00D9
:101C4000ADF80E00ADF81000ADF814000C20ADF8A2
:101C5000120002A91748FFF72FFF012240F2255179
:101C60001448FFF704FF012240F224411148FFF716
:101C7000FEFE01210F48FFF7B7FE00200E49A1F834
:101C8000000408700D49087027208DF8040000201A
:101C90008DF805008DF8060001208DF8070001A8D9
:101CA000FFF7DAFB07B000BD00023000000801407A
:101CB000000C0140004800403605002032000020A2
:101CC0001FB5044600210C48FFF78EFE009400204B
:101CD000ADF80400ADF80600ADF80800ADF80C0052
:101CE0000C20ADF80A0069460348FFF7E5FE012124
:101CF0000148FFF779FE1FBD004800400FB4054BB7
:101D000010B503A9044A029800F032F810BC5DF83F
:101D100014FB000021280008440000200FB47CB50B
:101D20000C0009AD01D0611E00E00021CDE90001E9
:101D3000064B6A462946089800F01AF8002C02D093
:101D4000009A002111707CBC5DF814FBB3200008E0
:101D500002E008C8121F08C1002AFAD17047704774
:101D6000002001E001C1121F002AFBD170470000D2
:101D70002DE9FF4F8BB088460546002606E0252852
:101D80000BD0DDE90D1290476D1C761C28780028D9
:101D9000F5D10FB03046BDE8F08F0024A146A24631
:101DA0000122AE4900E0044315F8013F203B02FA4E
:101DB00003F00842F7D128782A2810D06FF02F02BC
:101DC0002878A0F13001092915D809EB890102EB27
:101DD000410144F0020400EB01096D1CF0E758F8E2
:101DE000041B5FEA010903D544F40054C9F100095A
:101DF00044F002046D1C28782E2817D115F8010F25
:101E000044F004042A280ED06FF02F022878A0F1A5
:101E1000300109290AD80AEB8A0102EB410100EBE3
:101E2000010A6D1CF2E758F804AB6D1C28786C2889
:101E30000FD006DC4C2817D068280DD06A2814D1A2
:101E400004E0742810D07A280FD10DE044F4001477
:101E50000AE044F4801401E044F4401469788142BB
:101E600002D104F580146D1C6D1C2878692865D09A
:101E700006DC00288DD0632827D0642806D15DE0D9
:101E80006E2808D073282AD0752877D0DDE90D1286
:101E90009047761CE0E0C4F30250022809D00328E2
:101EA0000DD0D8F8001004280DD00E6008F10408F9
:101EB000D2E0D8F80010F217C1E90062F6E7D8F8CE
:101EC00000100E80F2E70E70F0E718F8041B8DF892
:101ED000001000208DF80100EB46012003E058F8C7
:101EE00004BB4FF0FF3061074FF0000701D40AE058
:101EF0007F1C57450DDA8742FADB1BF807100029D3
:101F0000F6D106E07F1C8742FCDB1BF80710002996
:101F1000F8D1DDE90D23A9EB07008146214600F049
:101F2000B1F83044C61904E0DDE90D121BF8010BCD
:101F300090477F1EF8D22146484688E058F8040BA7
:101F4000C4F302514FF00A0B032900D100B2042957
:101F500000D140B2002802DA40422D2102E02105E2
:101F600005D52B218DF82410012104E006E0E107BE
:101F700010D02021F6E708AF089113E058F8040BC1
:101F8000C4F302514FF00A0B032900D180B2042997
:101F900000D1C0B20021EEE75946FEF7FDF930311D
:101FA00007F8011D0028F7D1ADEB070000F1200B69
:101FB000600702D524F4803401E04FF0010ADA45CD
:101FC00002DDAAEB0B0000E00020824600EB0B01D3
:101FD00008980144A9EB01000A90E00306D4DDE96A
:101FE0000D2321460A9800F04DF806444FF00009F1
:101FF00008E009A911F80900DDE90D12904709F17F
:102000000109761C08998945F3DBE0030CD5DDE96D
:102010000D2321460A9800F035F8064404E0DDE976
:102020000D1230209047761CBAF10001AAF1010A86
:10203000F5DC05E0DDE90D1217F8010B9047761C81
:10204000BBF10001ABF1010BF4DC0A982146DDE99C
:102050000D2300F005F806446D1C97E609280100E1
:102060002DE9F041044600251E461746880404D495
:1020700005E039462020B0476D1C641EF9D528467E
:10208000BDE8F0812DE9F041044600251E4690464A
:10209000C80301D5302700E02027880404D505E0D7
:1020A00041463846B0476D1C641EF9D52846BDE848
:1020B000F0814A68002A06D00A68531C0B60107031
:1020C0004868401E4860704718B10021034A1160FB
:1020D00002E00121014A1160704700009481214211
:1020E00000B589B000200890079007A908A8FEF75E
:1020F0005FFA50B1114908980860079848600120BC
:1021000048720F49087009B000BD01A8FEF730FA07
:102110009DF814100BA0049B029AFFF7EFFD0848EE
:10212000007830B101200549487216A0FFF7E6FD9E
:1021300002E00020014948720020E4E7600000202E
:10214000140000205B53454E534F525D20444854C9
:1021500031312072656164206661696C65642C2090
:102160006572723D2575206661696C3D256C752030
:102170006175746F5F72657365743D256C750D0ACA
:10218000000000005B53454E534F525D206B656568
:1021900070206C6173742076616C69642073616D6A
:1021A000706C653A20542F48206361636865640D44
:1021B0000A00000070B504464FF40770B4FBF0F05D
:1021C000C6B24FF40770B4FBF0F100FB114505E017
:1021D0004FF4077000F00AF8701EC6B2002EF7D157
:1021E00015B1284600F002F870BD00000146144AFF
:1021F00012884A434FF0E0235A6100229A611A463E
:10220000126942F001021A6100BF4FF0E02210692A
:1022100000F001021AB100F48032002AF5D04FF02C
:10222000E022126922F001024FF0E0231A6100223D
:102230009A61044A12680A44024B1A60704700000F
:102240002A0000202C0000200146114A12784A433F
:102250004FF0E0235A6100229A611A46126942F057
:1022600001021A6100BF4FF0E022106900F0010284
:102270001AB100F48032002AF5D04FF0E022126942
:1022800022F001024FF0E0231A6100229A617047A8
:102290002800002010B505488068052804D3FEF703
:1022A0004DFA00200149886010BD00004800002060
:1022B0002DE9F04105460024002629E050210020A8
:1022C00000F080F810B90020BDE8F0815021012015
:1022D00000F078F808B90020F6E700270CE0781C39
:1022E00080B20746782804D9052000F041F8002084
:1022F000EAE70120FFF7A8FF00F010F80028EED170
:102300006006040E282F01D944F00104701CC6B2E7
:10231000082ED3D32C700120D6E7000010B54FF45F
:1023200080710448FEF72AFF08B1012010BD00208B
:10233000FCE700000008014010B506484068401C5A
:102340000449486008468068401C8860FFF7A2FF87
:1023500010BD00004800002004480068401C0349EC
:102360000860002088600874704700004800002062
:1023700001490874704700004800002008B54FF478
:102380008070ADF8000003208DF8020004208DF865
:10239000030069460148FEF71DFE08BD0008014024
:1023A00008B54FF48070ADF8000003208DF80200EE
:1023B00014208DF8030069460148FEF70BFE08BDA6
:1023C0000008014070B504460D4608E0FFF7A6FF7F
:1023D000A04201D1012070BD0120FFF735FF281E6A
:1023E000A5F101018DB2F1D100BFF4E701466129E9
:1023F00005DB7A2903DCA1F12000C0B27047084652
:10240000FCE7000070B506460C460EB1022C00D267
:1024100070BD0948B0F80004C0F30E05601EA84264
:1024200000D885B22A4604493046FDF79FFE0020B9
:10243000705500BFECE7000036050020014619B1D9
:10244000087808B1012070470020FCE710B5044669
:102450000CB9002010BD092208A12046FDF7DBFEC3
:1024600008B90120F6E70F2207A12046FDF7D3FEA9
:1024700008B90120EEE70020ECE7000041542B43AF
:10248000574A41503D00000041542B4D5154545582
:102490005345524346473D0070B594B006460D463D
:1024A0000DB914B070BD2846FFF7D0FF00280FD03B
:1024B000092212A12846FDF7AEFE20B9314612A02E
:1024C000FFF71CFC03E0314619A0FFF717FCE8E713
:1024D0002846FDF78BFE84B2502C00DB4F242246A9
:1024E00029466846FDF742FE00200DF804006A46C2
:1024F00031461AA0FFF702FC00BFD2E741542B433C
:10250000574A41503D0000005B4553505F434D44E6
:1025100020256C755D2054583A2041542B43574A6E
:1025200041503D3C68696464656E3E0D0A000000E0
:102530005B4553505F434D4420256C755D205458D6
:102540003A2041542B4D515454555345524346471C
:102550003D3C68696464656E3E0D0A005B455350FE
:102560005F434D4420256C755D2054583A202573F7
:102570000D0A000000200349087003490870034950
:10258000087070473D0000203E0000203F00002002
:1025900010B504462046FFF793FB4FF41673002254
:1025A00002A103A0FEF7FCF810BD00004F4B000095
:1025B0004154000070B505460E4605B106B970BD20
:1025C00000240CE0295D0848FFF7E7FA00BF8021EE
:1025D0000548FFF715FA0028F9D0601C84B2B44210
:1025E000F0DB00BFEBE700000048004010B50446F8
:1025F00004B910BD0BE014F8011B1248FFF7CDFA27
:1026000000BF80210F48FFF7FBF90028F9D02078A0
:102610000028F0D10D210B48FFF7BFFA00BF802141
:102620000848FFF7EDF90028F9D00A210548FFF71F
:10263000B4FA00BF80210348FFF7E2F90028F9D07F
:1026400000BFD6E7004800402DE9F04707460C469A
:1026500017B10CB1207810B90020BDE8F0873D46D5
:102660001CE0A84626460DE098F80000FFF7BEFEE5
:1026700081463078FFF7BAFE814500D008E008F1C6
:102680000108761C98F8000010B130780028EBD1D2
:1026900000BF307808B90120DFE76D1C28780028DA
:1026A000DFD100BFD9E700002DE9F047ADF5806D1F
:1026B00007460D4614469846DDF82094002657E05C
:1026C0000A20FFF777FD0A362D48007828B1002050
:1026D0002B4908702BA0FFF711FB3448B0F8000419
:1026E000C00B00B944E04FF480616846FFF78AFEF2
:1026F000FEF74EF8B9F1000F06D16B463246394667
:102700002BA0FFF7FBFA09E06846FDF76FFD824654
:102710005346324639462EA0FFF7F0FA25B1294636
:102720006846FDF747FD88B924B121466846FDF7A4
:1027300041FD58B925B129466846FFF785FF28B9FC
:102740004CB121466846FFF77FFF20B101200DF50F
:10275000806DBDE8F08727A16846FFF775FF20B9B7
:1027600026A16846FFF770FF08B10020EFE700BF21
:102770004645A5D323A0FFF7C1FA0020E7E70000F4
:10278000320000205B4552524F525D204553503875
:1027900032363620525820627566666572206F7632
:1027A0006572666C6F770D0A000000003605002028
:1027B0005B4553505F434D4420256C755D20525856
:1027C00028256C75206D73293A2025730D0A0000A9
:1027D0005B4553505F434D4420256C755D20525836
:1027E00028256C75206D732C6C656E3D2575290D43
:1027F0000A0000004552524F520000004641494C29
:10280000000000005B4552524F525D204553503846
:102810003236362074696D656F75740D0A000000DC
:1028200070B504460D46E1B20548FFF7B6F900BFA2
:1028300080210348FFF7E4F80028F9D0204670BD56
:10284000003801404820FEF767FF4FF4A060FEF714
:102850003BFE4FF4E130FEF7FDFFFEF79FFCFFF774
:10286000A3F9FDF723FE10A0FFF748FA19A0FFF720
:1028700045FA40F25B7220A123A0FFF73FFA28A29D
:102880002AA12EA0FFF73AFA31A0FFF737FAFEF798
:10289000ABFC08E0FDF73AFEFEF7A8FAFEF734FDC0
:1028A0000A20FFF787FCF5E70D0A3D3D3D3D3D3D24
:1028B0003D3D3D3D3D3D3D3D3D3D3D3D3D3D3D3D48
:1028C0003D3D3D3D3D3D3D3D3D3D3D3D3D3D0D0A9B
:1028D0000000000053544D333246313033202B205A
:1028E00045535038323636202B2069424F4F542002
:1028F0004D5154540D0A00003139322E3136382EE4
:102900003133372E310000004D5154542062726F24
:102910006B65723A2025733A25750D0A0000000098
:10292000626F61726430303100000000656E765F66
:102930006C65645F6E6F64650000000044657669D5
:1029400063653A202573202F2025730D0A000000AF
:102950003D3D3D3D3D3D3D3D3D3D3D3D3D3D3D3DA7
:102960003D3D3D3D3D3D3D3D3D3D3D3D3D3D3D3D97
:102970003D3D3D3D0D0A00000146412905DB5A2938
:1029800003DC01F12000C0B270470846FCE70000FC
:1029900010B540F25B7102A0FEF71EF810BD0000FA
:1029A0003139322E3136382E3133372E3100000096
:1029B00030B5A1B005460C4605B114B9002021B0D0
:1029C00030BD802201A9284600F07CF80EA101A8A4
:1029D000FDF7F0FB20B90EA101A8FDF70EFC10B920
:1029E00001202070EBE70BA101A8FDF7E3FB20B964
:1029F0000AA101A8FDF701FC18B9002020700120F0
:102A0000DDE70020DBE70000226C6564223A31003C
:102A100031000000226C6564223A30003000000072
:102A20002DE9FC4780460D4616460DB1052E01D214
:102A3000BDE8FC8700214046FDF7A4FC0DD81B49EA
:102A40004046FDF74FFC82464FF07C51FDF7F2FB0C
:102A50008146FDF77EFC04460CE014494046FDF734
:102A600041FC82464FF07C51FDF736FC8146FDF774
:102A700070FC0446002C01DA604200E02046074664
:102A80000A20B7FBF0F100FB1179B7FBF0FACDE9B2
:102A900000A9002C01DA06A000E006A0034606A269
:102AA00031462846FFF73AF900BFC1E70000204150
:102AB0002D000000000000002573256C752E256C8C
:102AC000750000002DE9F04105460E4617464FF00F
:102AD000000815B10EB1022F01D2BDE8F08111E05E
:102AE000202C05D0092C03D00D2C01D00A2C00D1AC
:102AF00008E02046FFF740FF41464A1C1FFA82F8D3
:102B0000705400BF15F8014B1CB108F10100B84228
:102B1000E6D3002006F8080000BFDEE738B504461B
:102B200069462046FFF744FF08B9002038BD9DF8EC
:102B30000000FDF701FD9DF8001006A0FFF7DEF88C
:102B400000F030F820B90AA0FFF7D8F80020EDE730
:102B50000120EBE75B4C45445D20636F6E74726F40
:102B60006C20726573756C743D25750D0A0000004C
:102B70005B4D5154545D20737461746520726570AF
:102B800075626C697368206661696C656420616652
:102B9000746572204C454420636F6E74726F6C0DC7
:102BA0000A0000000EB56846FDF764FC80B9FDF729
:102BB00053FC20B90AA0FFF7A1F801200EBD68461A
:102BC000FDF758FC20B912A0FFF798F80120F5E7AF
:102BD0009DF80820DDE9000100F02CF8EEE7000088
:102BE0005B53454E534F525D206E6F2076616C698A
:102BF0006420656E762073616D706C652C20736B3C
:102C00006970207075626C6973680D0A00000000BD
:102C10005B53454E534F525D20656E762063616372
:102C2000686520756E617661696C61626C650D0A1C
:102C300000000000F0B5A3B007460D46164610226E
:102C40001FA93846FFF7ECFE10221BA92846FFF704
:102C5000E7FE0EB1012000E000201BA91FAB11A26E
:102C6000CDE90010602103A8FFF758F80446002CB6
:102C700001DD602C02DB002023B0F0BD03AA14A10B
:102C80001AA0FFF73BF803A911A0FDF7D5FF20B963
:102C900020A0FFF733F80020EEE724A0FFF72EF87E
:102CA0000120E9E77B2274656D706572617475724D
:102CB00065223A25732C2268756D696469747922DE
:102CC0003A25732C226C6564223A25757D0000003C
:102CD000656E765F6C65645F6E6F64652F626F61B1
:102CE00072643030312F7570000000005B4D51541C
:102CF000545D207075626C69736820746F706963CD
:102D00003D2573207061796C6F61643D25730D0AF8
:102D1000000000005B4D5154545D207075626C6979
:102D20007368206661696C65640D0A005B4D5154DF
:102D3000545D207075626C69736820737563636598
:102D400073730D0A0000000010B549480078072889
:102D50007ED2DFE800F08A04193146596B0045A0A5
:102D6000FEF7CCFFFDF748FD50B147A0FEF7C6FFC8
:102D700002203F490870FEF7C7FC4949086002E09D
:102D800048A000F061F971E04BA14FA0FEF7B6FF3B
:102D900054A149A0FDF7CEFD50B155A0FEF7AEFFFE
:102DA000032033490870FEF7AFFC3D49086002E09C
:102DB00055A000F049F959E038A238A157A0FEF714
:102DC000C3F850B15BA0FEF799FF042028490870B2
:102DD000FEF79AFC3249086002E05DA000F034F989
:102DE00044E03C20FEF784F850B15FA0FEF786FF78
:102DF00005201F490870FEF787FC2949086002E09A
:102E000060A000F021F931E0FFF7C2FD50B163A0EE
:102E1000FEF774FF062016490870FEF775FC20497E
:102E2000086002E064A000F00FF91FE000F038F93C
:102E3000B8B167A16DA0FEF761FF07200C490870CB
:102E4000FFF7B0FE48B1FEF75FFC41F2883100E0C9
:102E50000BE008446D49086006E06DA000F0F4F84E
:102E600002E073A000F0F0F800E000BF00BF10BD6A
:102E70001C0000205B4553505D20696E697420730F
:102E8000746172740D0A00005B4553505D20696ED9
:102E9000697420737563636573730D0A0000000025
:102EA000200000205B4553505D20696E69742066E8
:102EB00061696C65640000004445534B544F502DCC
:102EC000364E4D37305400005B574946495D206A05
:102ED0006F696E696E6720535349443D25730D0A2F
:102EE000000000004C464C2D6C61622D32303400E5
:102EF0005B574946495D206A6F696E20737563634D
:102F00006573730D0A0000005B574946495D206AEE
:102F10006F696E206661696C65640000656E765F3E
:102F20006C65645F6E6F64655F626F6172643030A0
:102F3000310000005B4D5154545D20757365722063
:102F400063666720737563636573730D0A00000021
:102F50005B4D5154545D2075736572206366672024
:102F60006661696C656400005B4D5154545D20637B
:102F70006F6E6E2063666720737563636573730D90
:102F80000A0000005B4D5154545D20636F6E6E204B
:102F9000636667206661696C656400005B4D51542F
:102FA000545D20636F6E6E65637420737563636533
:102FB00073730D0A000000005B4D5154545D206393
:102FC0006F6E6E656374206661696C6564000000F5
:102FD000656E765F6C65645F6E6F64652F626F61AE
:102FE00072643030312F646F776E00005B4D515446
:102FF000545D2073756273637269626520737563D3
:10300000636573733A2025730D0A000024000020C5
:103010005B4D5154545D20696E697469616C207018
:1030200075626C697368206661696C656400000094
:103030005B4D5154545D20737562736372696265B0
:10304000206661696C65640010B504461CB12146B8
:1030500007A0FEF753FE012007490870FEF754FB56
:1030600000F6B8300549086005A0FEF747FE10BD20
:1030700025730D0A000000001C0000202000002025
:103080005B4D5154545D207265636F6E6E65637461
:10309000207363686564756C65640D0A0000000048
:1030A00010B5002101A0FDF72BFE10BD656E765F07
:1030B0006C65645F6E6F64652F626F61726430303F
:1030C000312F646F776E0000014619B1087808B19E
:1030D000012070470020FCE710B504462046FFF7AA
:1030E000F3FF08B9012010BD052207A12046FDF716
:1030F00092F808B90120F6E720783C2801D1012098
:10310000F1E70020EFE70000594F55525F00000043
:1031100010B506A0FFF7E0FF28B908A0FFF7DCFF15
:1031200008B9012010BD0020FCE700004445534BC6
:10313000544F502D364E4D37305400004C464C2DD8
:103140006C61622D323034008025000000C2010025
:103150008024010000E10000783100080000002018
:1031600048000000501D0008C03100084800002041
:10317000F0100000601D00080000000001020304C0
:103180000102030406070809020406080000000003
:10319000000000000000000000000000000000002F
:1031A000000000000000000000000000000000001F
:1031B000000000000000000000000000000000000F
:0400000508000131BD
:00000001FF
