:020000040800F2
:10000000301900204901000805230008E11F0008FD
:1000100001230008310E00086B2A000800000000D0
:10002000000000000000000000000000BD240008E7
:10003000350E0008000000008D230008DD250008B3
:100040006301000863010008630100086301000800
:1000500063010008630100086301000863010008F0
:1000600063010008630100086301000863010008E0
:1000700063010008630100086301000863010008D0
:1000800063010008630100086301000863010008C0
:1000900063010008630100086301000863010008B0
:1000A00063010008630100086301000863010008A0
:1000B0006301000863010008630100086301000890
:1000C0006301000863010008630100086301000880
:1000D000630100088126000863010008CD2700089D
:1000E0006301000863010008630100086301000860
:1000F0006301000863010008630100086301000850
:10010000630100086301000863010008630100083F
:10011000630100086301000863010008630100082F
:10012000630100086301000863010008630100081F
:10013000DFF810D000F072FC00480047A93E00082C
:10014000AFF300803019002006488047064800477A
:10015000FEE7FEE7FEE7FEE7FEE7FEE7FEE7FEE777
:10016000FEE7FEE7212600083101000840EA01030E
:100170009B0703D009E008C9121F08C0042AFAD25D
:1001800003E011F8013B00F8013B521EF9D2704721
:1001900030B505462A460B4612F8010B13F8014B01
:1001A00008B1A042F8D01CB1002802D06D1CF1E7C4
:1001B000284630BDCAB2401E10F8011F8A4202D044
:1001C0000029F9D100207047421C10F8011B0029BA
:1001D000FBD1801A704710B5002200E0521C835CEE
:1001E0008C5CA34201D1002BF8D1D8B2E1B2401A05
:1001F00010BD30B504460020034600E05B1C93426E
:1002000003D2E05CCD5C401BF8D030BD30B5054674
:100210000020034600E05B1C934205D2EC5CC85C06
:10022000201A01D1002CF6D130BDF0B480EA0102D1
:10023000D40F4200B2EB410F02D2024608461146EB
:100240004A0042D0C30DDDB2C1F3C752AD1A202D12
:1002500035DAC1F3160141F4000204B15242C5F18E
:10026000200602FA06F12A411044B3EBD05F23D0F6
:10027000C4B1012DA0EBC35009DCF0BC4FF000422B
:1002800002EAC352DBB200F5000000F00CBB4000F4
:1002900000F1807000EBC350A0F1807040EAD17093
:1002A000490009E0490841EAC071A0EBC35000F5DC
:1002B0000000400800EBC350F0BC00F0EBBA614214
:1002C000012202EB4101001BF6E7F0BC704781F010
:1002D0000041AAE780F00040A7E780EA010210B5DC
:1002E00002F00043400022D04A001FD0010E01EB73
:1002F0001261C0F35600C2F3560240F4000042F40B
:100300000002A0FB022000047F39140400D0401C2E
:1003100050EA124001D44000491EC2B20C0604EB60
:10032000D010401C4008802A02D003E0002010BDFD
:1003300020F00100002900DA0020184310BD30B47D
:1003400080EA010202F0004530F0004221F0004056
:1003500013D090B1C30DD40DC2F31601C0F3160033
:10036000E41A41F4000140F400027D34914201D3CB
:10037000641C00E04900002C02DA30BC0020704709
:100380004FF400000023914201D3891A034340082F
:100390004FEA4101F7D151B1914202D14FF00041F2
:1003A00005E002D24FF0010101E06FF0010103EB23
:1003B000C450284430BC00F06DBA2DE9FE4F804691
:1003C00081EA0300C00F0C46009021F0004123F0A9
:1003D0000045B8EB0200A94105D2404621469046AF
:1003E0001C460B46024623F00040104347D0270D21
:1003F000C7F30A00C3F30A510290401A0190402843
:100400006BDAC3F3130040F4801B0098924620B1CE
:100410000023D2EB030A63EB0B0B01985946C0F1A2
:100420004002504600F005FA06460D465046594631
:10043000019A00F01DFA10EB08006141002487EAE0
:10044000115284EAE7731A4340D0009A62B3019ACA
:10045000012A4FEA075215DC001B61EB02014FF045
:10046000004202EA0752CDE90042001C41F580112A
:1004700032462B4600F054FA03B0BDE8F08F4046F8
:100480002146F9E7001B61EB0201001C41F58013D6
:1004900000185B412018A2F5001747EB030140EA62
:1004A000D570B6196D4111E06D084FEA360645EA80
:1004B000C0754FEA0752001B61EB0201001C41F5B9
:1004C000801149084FEA30000019514132462B464D
:1004D00003B0BDE8F04F00F014BA009801224000CC
:1004E0000023D0EB020263EBE073009821464FEA51
:1004F000E074B8EB000061EB0401E9E783F000432E
:100500005BE781F0004158E72DE9FE4F81EA0304E3
:1005100004F0004421F0004100944FF0000B23F060
:10052000004350EA01045ED052EA03045BD0C3F3F7
:100530000A54C1F30A552C44A4F2F3340194A0FBED
:100540000254C1F3130141F48011C3F3130343F4C4
:10055000801301FB024400FB034E840A970A44EA1D
:10056000815447EA8357A4FB076802958D0A05FB6F
:1005700007854FEA932C04FB0C542705029D4FEA94
:10058000065847EA1637B5EB08056EEB070C870EE1
:10059000920E47EA811742EA8312A7FB0201B6EBEB
:1005A0000B0164EB00042B0D43EA0C335E1844EBA3
:1005B0001C50DA465146E7FB0201C5F313044FEA2B
:1005C0000B3343EA14534FEA0432019C43EA060317
:1005D000A4F10C040294009CCDE900B400F0A0F951
:1005E00003B0BDE8F08F00200146F9E72DE9F04D9A
:1005F00081EA030404F0004B21F0004514464FF05B
:10060000000A23F0004150EA050220D054EA01021A
:100610001DD0C5F30A570246C5F31303C1F31300F7
:10062000C1F30A5640F4801543F48013A7EB060883
:10063000101BD64608F2FD3873EB050002D308F113
:10064000010801E092185B41B8F1000F03DA0020C5
:100650000146BDE8F08D00204FF480110646844627
:100660000EE0171B73EB050705D3121B63EB0503A5
:1006700006434CEA010C49084FEA300092185B41EE
:1006800050EA0107EDD152EA030012D082EA0400D9
:1006900083EA0501084305D0101BAB4106D20122B5
:1006A000002306E000224FF0004302E06FF0010259
:1006B00053101AEB06004CEB085110EB0A0041EB0B
:1006C0000B01BDE8F04D00F01CB9C10F80EAE070ED
:1006D0000844CA079623002100F0E5B896230022BB
:1006E000114600F0E0B800F0004220F00040C10DDB
:1006F000C0F3160040F400007F2901DA00207047A3
:10070000962903DCC1F19601C84001E09639884082
:10071000002AF4D04042704770B5C1F30A5201F08C
:1007200000450024C1F3130140F2FF3341F480116E
:100730009A4201DA002070BD40F233439A42A2F29D
:10074000334203DC524200F083F800E090402C4337
:10075000F1D0404270BD00F0004230F000400AD0BD
:10076000C10D01F56071C0F3160042EA0151C208E3
:10077000400711437047002001467047002801DB05
:10078000C0F10040002901DBC1F100418142704706
:10079000002801DBC0F10040002901DBC1F100416C
:1007A0008842704730B50B460146002020220124C4
:1007B00009E021FA02F59D4205D303FA02F5491B2F
:1007C00004FA02F52844151EA2F10102F1DC30BD45
:1007D0002DE9F05F0546002092469B468846064676
:1007E000814640241BE0284641464746224600F009
:1007F0002FF853465A46C01A914110D31146184655
:10080000224600F016F82D1A67EB01084F462246E3
:100810000120002100F00DF817EB00094E41201EC9
:10082000A4F10104DFDC484631462A464346BDE8D0
:10083000F09F202A04DB203A00FA02F100207047E2
:100840009140C2F1200320FA03F31943904070470E
:10085000202A04DB203A21FA02F00021704721FA15
:1008600002F3D040C2F1200291400843194670477C
:10087000202A06DBCB17203A41FA02F043EAE07364
:1008800006E041FA02F3D040C2F120029140084351
:10089000194670470029A8BF7047401C490008BF8F
:1008A00020F00100704710B4B0FA80FC00FA0CF0A0
:1008B00050EA010404BF10BC704749B1CCF12004D8
:1008C00021FA04F411FA0CF118BF01212143084365
:1008D000A3EB0C01CB1D4FEA00614FEA102042BF91
:1008E000002010BC704700EBC35010440029A4BF87
:1008F00010BC7047401C490008BF20F0010010BC2C
:10090000704710B5141E73F1000408DA401C41F161
:10091000000192185B411A4301D120F0010010BD83
:100920002DE9F04D92469B4611B1B1FA81F202E0F9
:10093000B0FA80F220329046FFF77BFF04460F4664
:1009400040EA0A0041EA0B0153465A46084313D0D5
:10095000114653EA010019D0C8F140025046FFF792
:1009600077FF05460E46504659464246FFF761FF5F
:10097000084305D0012004E020463946BDE8F08D4B
:100980000020054346EAE0762C4337430A98630586
:10099000E40AA0EB08000022FD0A44EA47540A30AA
:1009A00002D500200146E9E7010510196941DDE99A
:1009B000084500196941BDE8F04DA2E7C1F30A52AC
:1009C000C1F3130140F2FF3341F480119A4202DA7D
:1009D00000200146704740F233439A42A2F233426C
:1009E00002DC5242FFF734BFFFF723BF30B5041ECD
:1009F00071F1000404DB4FF00044404264EB01015C
:100A0000141E73F1000405DB1C464FF000435242F4
:100A100063EB0403994208BF904230BD064C074D7A
:100A200006E0E06840F0010394E8070098471034BE
:100A3000AC42F6D3FFF780FBC0570008E057000830
:100A400021B1826842F00102826003E0826822F0F4
:100A5000010282607047014600208A6802F00402A9
:100A60000AB1012000E0002070470146C86C80B246
:100A700070470246002013680B400BB1012000E0D4
:100A800000207047014600208A6802F008020AB17F
:100A9000012000E00020704730B50246002000230E
:100AA00050680F4C20400D790C6844EA052420431F
:100AB000506090680B4C2040D1E902542C434D7992
:100AC00044EA450420439060D06A20F470000C7C16
:100AD000641EE4B2234340EA0350D06230BD0000FC
:100AE000FFFEF0FFFDF7F1FF00B587B0012148F2EE
:100AF000800001F069FC4FF4004001F049FC4FF424
:100B00008070ADF8180000208DF81B0006A9184869
:100B100001F0E6F8002001908DF808008DF809003A
:100B20004FF4602003900020049001208DF8140001
:100B300001A91048FFF7B0FF01210E48FFF780FF21
:100B40000C4800F075F800BF0A48FFF79BFF00282B
:100B5000FAD1084800F07CF800BF0648FFF77BFF99
:100B60000028FAD10121034800F067F807B000BD62
:100B7000001C0140003C0140F0B504460D46002039
:100B80000021092D11DDE068A5F10A0606EB4607F4
:100B9000072606FA07F18843A5F10A0606EB460682
:100BA00003FA06F10843E0600CE0206905EB450715
:100BB000072606FA07F1884305EB450603FA06F116
:100BC00008432061072A0FDA606B561E06EB860782
:100BD0001F2606FA07F18843561E06EB860605FA1D
:100BE00006F10843606322E00D2A0FDA206BD61F5E
:100BF00006EB86071F2606FA07F18843D61F06EB89
:100C0000860605FA06F10843206310E0E06AA2F1C7
:100C10000D0606EB86071F2606FA07F18843A2F1A8
:100C20000D0606EB860605FA06F10843E062F0BD04
:100C3000816841F008018160704721B1826842F407
:100C4000A002826003E0826822F4A0028260704702
:100C5000816841F0040181607047000030B10749AC
:100C6000096841F40001054A116005E0034909687B
:100C700021F40001014A116070470000082401407E
:100C800000B585B00121480201F09EFB4FF4004001
:100C900001F07EFB0120FFF7E1FF002000908DF8BE
:100CA00004008DF805004FF46020029000200390AE
:100CB00001208DF8100069460F48FFF7EDFE012175
:100CC0000D48FFF7BDFE0C48FFF7B2FF00BF0A4812
:100CD000FFF7D8FE0028FAD10748FFF7B9FF00BF99
:100CE0000548FFF7B8FE0028FAD101210248FFF7B6
:100CF000A4FF05B000BD00000024014010B502F0C3
:100D000053FC044601F064FC00F5FA6001490860F8
:100D1000204610BD1800002010B5014609B900207A
:100D200010BD054C1DCC81E81D0000F007F80873CC
:100D30000148407BF4E700005400002003480068AD
:100D400008B9012070470020FCE70000948121428F
:100D500010B500200E490860486088600873487329
:100D60000C4908700C490860FFF78AFFFFF7BCFECA
:100D70000AA10EA001F026FF002000F047F8FFF7BF
:100D8000BDFF01F025FC00F5FA600349086010BDC5
:100D90005400002014000020180000205046382085
:100DA00028414443335F4348362900005B53454E96
:100DB000534F525D204144432074656D702F6C6920
:100DC00067687420696E697420646F6E652C206C8E
:100DD000696768745F70696E3D25730D0A000000D5
:100DE00010B501F0F5FB04460748006818B1064845
:100DF0000068844207D302F0D7FB01F0E9FB00F55D
:100E0000FA600149086010BD1800002010B50446C2
:100E10000CB1012100E00021084602F05DFB0CB19D
:100E2000012000E000200149087310BD540000209B
:100E300000BFFEE77047000010B50446012C04D146
:100E40001021044801F022F803E01021014801F0CC
:100E50001BF810BD0008014000200249A1F8000461
:100E6000087070472E05002010B54FF4FA6306A2F3
:100E700007A108A000F018F80446002008490870EF
:100E800008490870204610BD434C4F5345440000AC
:100E90004F4B000041542B434950434C4F534500A6
:100EA00046000020470000202DE9F84304460D4687
:100EB0001646994614B90020BDE8F8830F4800682B
:100EC00000F101080D48C0F80080204602F06EFCD9
:100ED0000746FFF7C1FF2146404602F08DFC204641
:100EE00002F0B2FD15B90EB90120E5E74B463246D6
:100EF00029464046009702F0B1FEDDE73C000020A5
:100F000030B589B005460DB1012000E00020034650
:100F10000AA2202101A801F065FE0446002C01DD93
:100F2000202C02DB002009B030BD4FF47A7307A2F9
:100F30000AA101A8FFF7B8FFF5E7000041542B43D1
:100F400049504D55583D2564000000006C696E6B9A
:100F5000206973206275696C646564004F4B000002
:100F600010B50120FFF768FF00F026FC00201B49A8
:100F700008701B49086002F0DDFC002410E01949EC
:100F800051F8240002F0E4FC40B1164850F8240067
:100F90001349086001201149087003E0601CC4B2C5
:100FA000042CECDB00BF0D48007820B90EA001F046
:100FB00009FE002010BD0A4801681BA001F002FED6
:100FC0004FF41673002220A120A0FFF76DFF10B987
:100FD00020A001F0F7FD0120ECE700004400002014
:100FE00040000020645700085B4553505D20696E47
:100FF0006974206661696C65643A206E6F204154A3
:1010000020726573706F6E7365206F6E2039363095
:10101000302F3131353230302F37343838302F35AA
:10102000373630300D0A00005B4553505D20696E45
:10103000697420737563636573732C2062617564D2
:101040003D256C750D0A00004F4B000041544530A2
:10105000000000005B4553505D2041544530206640
:1010600061696C65642C20636F6E74696E75650DC3
:101070000A0000000648007838B10648007820B120
:101080000548007808B1012070470020FCE7000007
:1010900044000020450000204700002070B5AAB0A1
:1010A00006460D46304602F059FB00B115B9002046
:1010B0002AB070BD002000F043FA08B90020F7E71D
:1010C000334618A2A02102A8009501F08BFD04462A
:1010D000002C01DDA02C01DB0020E9E744F62063B1
:1010E00015A216A102A8FFF7DFFE90B9002016494D
:1010F000087040F2DC5310A214A117A0FFF7D4FE31
:1011000040F2DC5317A20CA118A0FFF7CDFE00207F
:10111000CEE701200C49087017A001F053FD012013
:10112000C6E7000041542B43574A41503D222573E6
:10113000222C2225732200004F4B000057494649BC
:1011400020474F5420495000450000202B4357535F
:10115000544154453A00000041542B4357535441E5
:1011600054453F00535441495000000041542B4323
:1011700049465352000000005B574946495D2063D1
:101180006F6E6E65637465640D0A000070B5AAB079
:1011900005460E46284602F0E1FA10B900202AB0B2
:1011A00070BD40F2DC5318A218A119A0FFF77CFE15
:1011B0002B461BA2A02102A8009601F013FD0446B5
:1011C000002C01DDA02C01DB0020E8E742F21073C7
:1011D0000EA219A102A8FFF767FE48B900201A491C
:1011E00008701AA002F076FB02F0C4FB0020D6E7DC
:1011F000012019490870144908703246294617A081
:1012000001F0E0FC0120CAE7455252004F4B0000BC
:1012100041542B4D515454434C45414E3D300000F8
:1012200041542B4D515454434F4E4E3D302C2225AA
:1012300073222C25752C30002B4D515454434F4EA6
:101240004E45435445440000470000205B4D515437
:10125000545F41545D000000460000205B4D515436
:10126000545D20636F6E6E656374656420746F20D7
:1012700025733A25750D0A002DE9FF4F83B00F46FF
:1012800091469846039848B147B1B8F1000F05D090
:10129000B9F1020F02D31098022803D2002007B040
:1012A000BDE8F08F0020387088F8000022210398F4
:1012B000FEF780FF06460EB90020F0E7761C2221DB
:1012C0003046FEF777FF8246BAF1000F01D10020C9
:1012D000E5E72C215046FEF76DFF8346BBF1000F7A
:1012E00001D10020DBE72C210BF10100FEF762FFAA
:1012F0000290029808B90020D1E7AAEB060080B25C
:1013000001900198484503DBA9F1010080B20190EA
:1013100031463846019AFEF729FF002101983954D9
:101320000298451C00E06D1C28782028FBD0287806
:101330000928F8D02C4600E0641C207828B12078D9
:101340000D2802D020780A28F6D100E0641EAC42B5
:1013500007D914F8010C2028F8D014F8010C09283A
:10136000F4D02878222807D1AC4205D914F8010C12
:10137000222801D16D1C641E601B80B20090109960
:101380000098884203DB1098401E80B200902946E6
:101390004046009AFEF7EAFE0021009808F8001087
:1013A00001207CE7F8B504460D4616461F4624B1D9
:1013B0001EB1022D01D3022F01D20020F8BD0B482F
:1013C000007808B90020F9E700200849087008A152
:1013D0000B4802F013FC08B90020EFE733462A4619
:1013E000214607480097FFF747FFE7E74C0000203A
:1013F0002B4D515454535542524543563A00000028
:10140000300900202DE9F041AEB007460D463846C0
:1014100002F0A4F900B11DB900202EB0BDE8F081A2
:101420002846FEF7D1FE86B23B461BA2B42101A896
:10143000009601F0D7FB0446002C01DDB42C01DB43
:101440000020EAE71B48006800F101081948C0F8CD
:101450000080FFF701FD01A9404602F0CDF901A887
:1014600002F0F2FA00204FF4FA63024612A1009053
:10147000404602F0F3FB08B90020CEE7314628468B
:1014800002F0C6FA002041F270730CA20CA1009089
:10149000404602F0E3FBC0E741542B4D51545450F9
:1014A00055425241573D302C222573222C25752C54
:1014B000302C30003C0000203E0000004F4B00006C
:1014C0002B4D5154545055423A4F4B0070B5AAB071
:1014D00005460E46284602F041F910B900202AB010
:1014E00070BD2B460AA2A02102A8009601F07AFB4B
:1014F0000446002C01DDA02C01DB0020EFE740F2C8
:10150000DC5309A20DA102A8FFF7CEFCE7E700001B
:1015100041542B4D5154545355423D302C22257388
:10152000222C257500000000414C524541445920B1
:101530005355425343524942450000004F4B00006F
:1015400010B5044624B1012C0AD0022C18D10FE0AA
:101550004FF47A730BA20EA10EA0FFF7A5FC10BDED
:101560004FF47A7307A20AA10DA0FFF79DFCF6E7DE
:101570004FF47A7303A206A10CA0FFF795FCEEE7E7
:101580000020ECE76E6F206368616E676500000005
:101590004F4B000041542B43574D4F44453D3100C4
:1015A00041542B43574D4F44453D320041542B434A
:1015B000574D4F44453D330070B5AAB005460E4621
:1015C000284602F0CBF810B900202AB070BD0020E8
:1015D000FFF796FC08B90020F7E72B4611A2A021DF
:1015E00002A8009601F0FEFA0446002C01DDA02CB2
:1015F00001DB0020E9E742F2107311A211A102A859
:10160000FFF752FC48B900201049087010A002F002
:1016100061F902F0AFF90020D7E701200B4908700B
:1016200000BFD2E741542B43495053544152543DDB
:1016300022544350222C222573222C2575000000B1
:101640004F4B0000434F4E4E454354004600002090
:101650005B5443505D00000030B599B00546284604
:1016600002F07CF810B9002019B030BD2B4615A24D
:10167000602101A801F0B6FA0446002C01DD602CBF
:1016800001DB0020F0E741F2883312A212A101A889
:10169000FFF70AFC20B912A002F01CF90020E3E7D2
:1016A00011A1134802F0AAFA20B912A1104802F0C1
:1016B000A5FA20B10AA002F00DF90020D4E701201C
:1016C000D2E7000041542B50494E473D222573225A
:1016D000000000004F4B00002B50494E473A0000DD
:1016E0005B50494E475D000054494D454F555400ED
:1016F000300D00204552524F5200000010B51548E1
:10170000007800B910BD1448007828B100201249B3
:10171000087012A001F056FA1A48B0F80004C00B85
:1017200000B9EFE702F0BEF9FFF796FB16A11A48E1
:1017300002F064FA48B919A1174802F05FFA20B91B
:1017400018A1154802F05AFA08B102F0F3F800BFE8
:10175000D8E70000440000203A0000205B455252C8
:101760004F525D2045535038323636205258206251
:101770007566666572206F766572666C6F770D0AA6
:10178000000000002E0500205749464920444953D7
:10179000434F4E4E4543540030090020434C4F53B5
:1017A000454400002B4D515454444953434F4E4E31
:1017B00045435445443A000010B54FF400410A48EF
:1017C00000F062FBC82001F057FF4FF400410648CB
:1017D00000F05CFB4FF4487001F04EFFFFF73CFB5C
:1017E00000200249087010BD000801404C00002094
:1017F0002DE9F04FADF6240D82460F464FF000095B
:101800000024A346BAF1000F00D027B900200DF63E
:10181000240DBDE8F08F3B467DA220210DF604008B
:1018200001F0E0F90546002D01DD202D01DB00204F
:10183000EDE77B48006800F101087948C0F80080B6
:10184000FFF70AFB0DF60401404601F0D5FF0DF647
:10185000040002F0F9F800204FF4FA63024671A187
:101860000090404602F0FAF930B96FA002F032F869
:1018700002F080F80020CAE73946504602F0C8F866
:1018800000206C4908708DF80400A3E00A2001F0E4
:10189000F3FE09F10A096848007828B1002066497A
:1018A000087066A001F08EF96E48B0F80004C00B15
:1018B00000B98FE04FF480610DF2044001F032FF77
:1018C0000DF20440FEF780FC86B2DEB140F2FF303C
:1018D000844217DAA019B0F5806F03DB40F2FF30C5
:1018E000001B86B201A9081932460DF20441FEF729
:1018F0003DFCA01984B2002001A90855621C4D4886
:10190000FEF734FC0DF204434A46414656A001F06E
:1019100059F95DA10DF20440FEF73AFC20B95AA135
:1019200001A8FEF735FC18B1FFF796FA01206EE723
:1019300057A10DF2044002F061F9D0B956A10DF2A1
:10194000044002F05BF9A0B955A10DF2044002F089
:1019500055F970B94EA101A802F050F948B94EA14D
:1019600001A802F04BF920B94DA101A802F046F9F7
:1019700010B1FFF771FA32E04BA10DF20440FEF70F
:1019800007FC20B948A101A8FEF702FC20B14FF0E6
:10199000010BFFF761FA1DE045A10DF20440FEF7CF
:1019A000F7FB20B942A101A8FEF7F2FB78B10DF2D6
:1019B000044001F0DBFE20B10DF2044002F0C8F853
:1019C00001E002F06FF8FFF747FA01201FE7FFF789
:1019D00043FA00BF41F270708145FFF457AF00BF7A
:1019E0003548007888B9BBF1000F07D0334800783C
:1019F00020B1334801F0E6F8012008E70AA001F021
:101A000069FF01F0B7FF002001E70120FFE60000B9
:101A100041542B43495053454E443D257500000029
:101A20003C0000203E0000005B5443505F53454E95
:101A3000445D0000300D00203A0000205B4552520A
:101A40004F525D204553503832363620525820626E
:101A50007566666572206F766572666C6F770D0AC3
:101A6000000000002E0500205B4553505F434D44AD
:101A700020256C755D20525828256C75206D7329C2
:101A80003A2025730D0A000053454E44204F4B0069
:101A90004552524F520000004641494C00000000A0
:101AA000434C4F53454400005265637620000000CC
:101AB0002B4950442C0000004C0000204600002020
:101AC0007457000808B1012100E00021014A11709B
:101AD000704700004700002008B1012100E000210C
:101AE000014A1170704700004600002030B595B0E3
:101AF000044623460AA2502101A801F073F80546C6
:101B0000002D01DD502D02DB002015B030BD4FF45B
:101B10007A7300220AA101A8FFF7C6F9F5E70000D1
:101B200041542B4D515454434F4E4E4346473D3044
:101B30002C25752C302C22222C22222C302C3000EB
:101B40004F4B0000F0B5B5B007460D461646384677
:101B500001F004FE08B105B116B9002035B0F0BDA2
:101B60003B460BA2C82103A8CDE9005601F03AF884
:101B70000446002C01DDC82C01DB0020EEE740F21A
:101B8000DC530EA211A103A8FFF78EF9E6E70000CF
:101B900041542B4D515454555345524346473D30C3
:101BA0002C312C222573222C222573222C222573E2
:101BB000222C302C302C222200000000414C5245B7
:101BC000415920434F4E4E45435400004F4B0000B7
:101BD0002DE9FC4782460E4617463CA103C9CDE9D4
:101BE0000001BAF1000F01D006B117B90020BDE81D
:101BF000FC87002038803748007808B90020F6E7D5
:101C0000002034490870002409E0334908190522EE
:101C10006946FEF7EEFA00B907E0601C84B2601D69
:101C200080B22E4909888842EFDD00BF601D80B276
:101C30002A490988884201DD0020D8E7601D84B266
:101C4000002518E02448005D3A2800D117E022481A
:101C5000005D302803DB2048005D392801DD0020CD
:101C6000C5E71D48005D303805EB850100EB4100FC
:101C700085B2601C84B2194800888442E2DB00BF50
:101C800016480088844203DA1348005D3A2801D0E0
:101C90000020ACE7601C1FFA80F909EB050080B258
:101CA0000E490988884201DD0020A0E7A846454684
:101CB000B04500DDB046084800EB090142465046F9
:101CC000FEF754FAA7F80080012090E72B49504412
:101CD0002C0000004C000020301100204E0000209D
:101CE0002DE9F041024600250026002000230024B3
:101CF000002791F803C00CF00F0591F803C00CF019
:101D0000100CBCF1000F03D091F802C04CEA05059D
:101D100091F800C0BCF1000F31D0146800202BE016
:101D20004FF0010C0CFA00F3B1F800C00CEA030606
:101D30009E4220D183004FF00F0C0CFA03F7BC43F6
:101D400005FA03FC4CEA040491F803C0BCF1280F27
:101D500006D14FF0010C0CFA00FCC2F814C00AE0E6
:101D600091F803C0BCF1480F05D14FF0010C0CFAFB
:101D700000FCC2F810C0401C0828D1D31460B1F890
:101D800000C0BCF1FF0F34DD546800202EE000F1EC
:101D9000080C4FF0010808FA0CF3B1F800C00CEA87
:101DA00003069E4221D183004FF00F0C0CFA03F77B
:101DB000BC4305FA03FC4CEA040491F803C0BCF1EF
:101DC000280F05D100F1080C08FA0CF8C2F81480AD
:101DD00091F803C0BCF1480F07D100F1080C4FF097
:101DE000010808FA0CF8C2F81080401C0828CED36D
:101DF0005460BDE8F0810000F0B50A4600230024DD
:101E00000021002500F00046B6F1004F02D11D4E22
:101E1000F16901E01B4E7168C0F3034583B200F421
:101E20004016B6F5401F08D121F07061154E766856
:101E300026F07066134F7E6012E000F48016B6F54F
:101E4000801F06D1032606FA05F4A14341F0706114
:101E500006E0460D360103FA06F6B14341F0706123
:101E600022B1460D360103FA06F6314300F0004672
:101E7000B6F1004F02D1034EF16101E0014E7160F5
:101E8000F0BD0000000001404161704701617047F2
:101E90002DE9F04105460C4600260723012229467C
:101EA0000F48FEF769FE002713E001210C48FEF7FA
:101EB000C4FE00BF02210A48FEF7DBFD0028F9D06E
:101EC0000748FEF7D2FD0644052001F0D5FB781C3B
:101ED000C7B2A742E9DBB6FBF4F080B2BDE8F081FF
:101EE000003C01402DE9F04105460C460026072341
:101EF000012229460F48FEF73FFE002713E001218B
:101F00000C48FEF79AFE00BF02210A48FEF7B1FD19
:101F10000028F9D00748FEF7A8FD0644052001F087
:101F2000ABFB781CC7B2A742E9DBB6FBF4F080B28A
:101F3000BDE8F0810024014010B50A210620FFF71A
:101F4000A7FF0446B4F57A6F01D94FF47A642820CC
:101F5000B4FBF0F0C0F16400C0B210BD2DE9F05F39
:101F60000A211020FFF7BEFF83465846FEF7B6FB56
:101F70008046FEF7F0FB06464FF06632114BFEF747
:101F8000C3FA04460D4622462B460F480F49FEF77A
:101F9000B5FA80460E4A0F4BFEF728FB0646002294
:101FA0000D4BFEF70AFA04460D4600220B4B204665
:101FB0002946FEF7A9FA0646FEF7AEFB82465046D2
:101FC000BDE8F09F66664A3FE17A14AE47E1F63F0E
:101FD00022FDF675E09C713F000039400000594039
:101FE00000BFFEE708B50121482000F0EDF92020F0
:101FF000ADF8000010208DF8030003208DF80200DA
:1020000069460948FFF76CFE20210748FFF73EFFAD
:102010002020ADF8000069460448FFF761FE20214A
:102020000248FFF733FF08BD000C014000180140D3
:1020300010B513A119A000F0C5FD1DA123A000F04B
:10204000C1FD40F25B7227A12AA000F0BBFD03F0A6
:1020500041FB30B92CA000F0B5FD00203A490870D2
:1020600010BD01203849087000203849087000F080
:10207000AFFA3749086000203649086000BFEFE733
:10208000656E765F6C65645F6E6F64652F626F610D
:1020900072643030312F7570000000005B4346479A
:1020A0005D20746F7069632075703D25730D0A00A3
:1020B000656E765F6C65645F6E6F64652F626F61DD
:1020C00072643030312F646F776E00005B43464797
:1020D0005D20746F70696320646F776E3D25730DAA
:1020E0000A0000003139322E3136382E3133372E86
:1020F000310000005B4346475D206D7174743D25DF
:10210000733A25750D0A00005B4346475D20574929
:1021100046495F535349442F574946495F504153FD
:1021200053574F5244206E6F7420636F6E66696719
:10213000757265642C206D717474206469736162BA
:102140006C65640D0A0000002000002021000020C2
:10215000240000202800002010B5B8B02C480078DA
:1021600008B938B010BDFFF7C9FA00F031FA0446DB
:1021700027480078072806D1FEF77CFF18B925A06C
:1021800003F090F9EDE722480078072836D1802344
:102190006A46602120A802F03DFA002818D06A465D
:1021A00020A921A000F00EFD28A120A8FEF713F819
:1021B00050B92DA000F006FD684602F0ADFA38B91E
:1021C00033A000F0FFFC03E020A93AA000F0FAFCE5
:1021D0004148006818B14048006884420DD302F0BD
:1021E00085FB38B100F0F4F941F2883108443A49EE
:1021F000086002E039A003F055F9B2E73F480068F3
:10220000844200D2ADE702F0CDFF00BFA9E7000095
:10221000200000205B4D5154545D20646973636F4E
:102220006E6E6563746564005B4D5154545D20723D
:1022300065637620746F7069633D257320706179E2
:102240006C6F61643D25730D0A000000656E765F5A
:102250006C65645F6E6F64652F626F6172643030AD
:10226000312F646F776E00005B4D5154545D2064D4
:102270006F776E6C696E6B206D6174636865642046
:10228000636F6E74726F6C20746F7069630D0A00F7
:102290005B4D5154545D20696E76616C69642064B5
:1022A0006F776E6C696E6B207061796C6F61640D15
:1022B0000A0000005B4D5154545D20646F776E6CD2
:1022C000696E6B2069676E6F72656420746F7069E8
:1022D000633D25730D0A0000280000205B4D51541A
:1022E000545D20706572696F646963207075626CFB
:1022F000697368206661696C6564000024000020D1
:1023000000BFFEE77047000070B5002100230F22D8
:10231000C47804B3154C246804F4E064C4F5E064A4
:10232000210AC1F10403CA40447804FA03F1847815
:102330001440214309010E4C0678A155047804F09D
:102340001F050124AC4005786D11AD0005F1E025B5
:10235000C5F8004109E0047804F01F050124AC40F1
:10236000044D0678761145F8264070BD0CED00E06E
:1023700000E400E080E100E002490143024A11600C
:10238000704700000000FA050CED00E07047000007
:1023900001460020034A506820F440400843506042
:1023A000704700000010024029B1064AD26902437A
:1023B000044BDA6104E0034AD2698243014BDA61DB
:1023C000704700000010024029B1064A926902439A
:1023D000044B9A6104E0034A92698243014B9A617B
:1023E000704700000010024030B500210022002498
:1023F00000232D4D6D6805F00C0121B1042905D095
:10240000082923D105E0294D056022E0274D05600C
:102410001FE0254D6D6805F47012234D6D6805F4BD
:102420008034022505EB92421CB9214D55430560CD
:102430000BE01D4D6D6805F400351DB11C4D554375
:10244000056002E0194D5543056002E0174D056037
:1024500000BF00BF144D6D6805F0F0010909154D6E
:102460006B5C0568DD4045600F4D6D6805F4E0610B
:10247000090A104D6B5C4568DD4085600A4D6D684A
:1024800005F46051C90A0B4D6B5C4568DD40C560C1
:10249000054D6D6805F44041890B074D6B5CC568BF
:1024A000B5FBF3F5056130BD0010024000127A0063
:1024B00000093D000000002010000020704710B50A
:1024C00000F002F810BD00000CB500200190009053
:1024D0003348006840F480303149086000BF30481C
:1024E000006800F4003000900198401C01900098B2
:1024F00018B90198B0F5A06FF1D12948006800F42F
:10250000003010B10120009001E000200090009800
:10251000012843D12348006840F010002149086099
:102520000846006820F0030008600846006840F094
:10253000020008601A484068194948600846406827
:1025400048600846406840F480604860084640683B
:1025500020F47C1048600846406840F4E810486069
:102560000846006840F08070086000BF0C480068B2
:1025700000F000700028F9D00948406820F00300FE
:10258000074948600846406840F00200486000BFC4
:102590000348406800F00C000828F9D10CBD000089
:1025A0000010024000200240042808D14FF0E02132
:1025B000096941F004014FF0E022116107E04FF09A
:1025C000E021096921F004014FF0E0221161704718
:1025D0000148006870470000340000207047000088
:1025E00010B504466FF00400FFF7DEFFE00809496C
:1025F00008700846007800EB4001C1EBC0104FF6B0
:10260000FF7101EAC0000449088000200349086006
:1026100010BD0000300000203200002034000020F7
:1026200010B51348006840F00100114908600846E1
:102630004068104908400E494860084600680E4945
:1026400008400B4908600846006820F480200860B4
:102650000846406820F4FE0048604FF41F00886080
:10266000FFF72DFF4FF000600449086010BD000027
:10267000001002400000FFF8FFFFF6FE08ED00E04A
:1026800010B540F22551224800F02BF900283DD02A
:102690001F4800F0E1F9C4B21E48008800F4004071
:1026A00058BB1C48008800F4804060B10A2C06D159
:1026B0001848008840F400401649088021E00020B6
:1026C000144908801DE00D2C06D11248008840F402
:1026D00080401049088014E00E480088C0F30D00C7
:1026E000C7280BD20B480088C0F30D000A490C54D0
:1026F00008480088401C0749088002E0002005497E
:10270000088040F22551024800F0C3F810BD0000D7
:1027100000380140380000206400002010B586B069
:10272000044601210420FFF74FFE01218803FFF733
:102730004BFE4FF40070ADF8140003208DF8160026
:1027400018208DF8170005A91E48FFF7C9FA4FF4A5
:102750008060ADF8140004208DF8170005A9194811
:10276000FFF7BEFA01940020ADF80800ADF80A00AA
:10277000ADF80C00ADF810000C20ADF80E0001A96A
:10278000114800F0FDF801210F4800F091F84021B8
:102790000D4800F075F8012240F225510A4800F07A
:1027A000CAF825208DF8000003208DF801008DF86F
:1027B000020001208DF803006846FFF7A5FD06B072
:1027C00010BD0000000801400038014038B540F25B
:1027D0002551284800F085F810B3264800F03CF950
:1027E000C5B22548B0F80004C0F30E0040F2FF3136
:1027F000884216D22049B1F80014C1F30E00411CE2
:102800001D4AB2F8002461F30E021B49A1F800240E
:102810000D540020B1F80014C1F30E01164A5054B3
:1028200002E001201549087040F22441114800F0EF
:1028300058F801281DD11048B0F80004C0F30E0468
:10284000B4F5806F01D340F2FF3400200A490855E7
:102850000846B0F8000420F4004000F50040A1F85C
:1028600000040448008800900248001D0088009081
:1028700000BF38BD004800402E0500203A0000206F
:1028800001F40072B2F5007F00D100BFCA4302809C
:10289000704710B50022002340F66A14A14200D10F
:1028A00000BF0A1201249440A3B2DC43048010BD8F
:1028B00021B1828942F40052828104E082894DF67E
:1028C000FF731A408281704702460020B1F5007FF5
:1028D00000D100BF13880B400BB1012000E00020A5
:1028E000704770B50246002400230025002040F602
:1028F0006A16B14200D100BFC1F3421501F01F03B7
:10290000012606FA03F3012D02D19689334006E031
:10291000022D02D1168A334001E0968A33400C1210
:10292000012606FA04F41688344013B10CB10120D4
:1029300000E0002070BDF0B503460024002600250D
:10294000002040F66A17B94200D100BF1846C1F313
:10295000421401F01F06012707FA06F5012C01D1E8
:102960000C3004E0022C01D1103000E014301AB118
:1029700007682F43076002E00768AF430760F0BDB8
:102980002DE9F04786B005460E460024A24600BF5A
:10299000A1460027B08900B100BF2F462C8A4CF613
:1029A000FF700440F08804432C82AC894EF6F3108B
:1029B0000440B08831890843718908430443AC81DD
:1029C000AC8A4FF6FF400440B0890443AC8201A8B2
:1029D000FFF70AFD1F48874202D1DDF810A001E091
:1029E000DDF80CA0A88900F4004040B10AEBCA0051
:1029F00000EB0A1031684900B0FBF1F807E00AEB80
:102A0000CA0000EB0A1031688900B0FBF1F86420BD
:102A1000B8FBF0F004012009642101FB1089A889AA
:102A200000F4004040B1322000EBC900B0FBF1F0EF
:102A300000F00700044308E0322000EB0910642195
:102A4000B0FBF1F000F00F0004432C8106B0BDE8AC
:102A5000F08700000038014001468888C0F3080074
:102A60007047C1F308028280704700BFFEE7000094
:102A700000B587B001218804FFF796FC01210820EA
:102A8000FFF7A2FC01210420FFF79EFC012108466C
:102A9000FFF79AFC01213648FFF7AEF948F2100023
:102AA000ADF8180010208DF81B0003208DF81A00D7
:102AB00006A93048FFF714F910212E48FFF7E4F972
:102AC0004FF400412B48FFF7E1F94FF48060ADF877
:102AD000180018208DF81B0003208DF81A0006A995
:102AE0002548FFF7FDF84FF40060ADF8180004200A
:102AF0008DF81B0006A92048FFF7F2F84FF4165096
:102B000002900020ADF80C00ADF80E00ADF81000FA
:102B1000ADF814000C20ADF8120002A91748FFF719
:102B20002FFF012240F225511448FFF704FF012234
:102B300040F224411148FFF7FEFE01210F48FFF744
:102B4000B7FE00200E49A1F8000408700D49087076
:102B500027208DF8040000208DF805008DF8060070
:102B600001208DF8070001A8FFF7CEFB07B000BDDC
:102B70000002300000080140000C01400048004005
:102B80002E0500203A0000201FB5044600210C4805
:102B9000FFF78EFE00940020ADF80400ADF80600AB
:102BA000ADF80800ADF80C000C20ADF80A0069463D
:102BB0000348FFF7E5FE01210148FFF779FE1FBD3D
:102BC000004800400FB4054B10B503A9044A029811
:102BD00000F0F4F810BC5DF814FB0000853E00081E
:102BE000500000200FB47CB50C0009AD01D0611E6F
:102BF00000E00021CDE90001064B6A46294608980D
:102C000000F0DCF8002C02D0009A002111707CBC8E
:102C10005DF814FBC334000802E008C8121F08C1A5
:102C2000002AFAD170477047002001E001C1121F4D
:102C3000002AFBD1704700002DE9FF5F82B0002120
:102C4000DDE90430020DDDF840B0034318D044F64E
:102C50001050A2F2FF3242431514119801281FD0E0
:102C6000A5EB0B00401C5FEA000A4FF000064E4F38
:102C7000DFF83891B046504615D5CAF1000413E08C
:102C8000119801244AA3012801D16FEA0B0102988F
:102C9000119AC0E90031C0E9024206B0BDE8F09FD8
:102CA000CBF10000DFE704460021404A491842EB1F
:102CB0000450CDE9001012E0E00707D032463B4651
:102CC00040464946FDF720FC8046894632463B4651
:102CD00010461946FDF718FC06460F466410002CF6
:102CE000EAD1DDE90401DDE90023BAF1000F06DADB
:102CF000FDF70AFC42464B46FDF706FC05E0FDF7F2
:102D000075FC42464B46FDF771FC04460E46002218
:102D1000284BFDF76BFE03D84FF0FF30014607E06C
:102D20000022254B20463146FDF747FBFDF746FEC6
:102D3000102409E0002C0ADB0A220023FDF748FDDD
:102D4000039B30321A55641E50EA0102F2D1641C12
:102D5000039AC4F111031444119A012A03D00122E9
:102D600008430DD10AE0084304D000204FF0110BB6
:102D7000119072E7A3EB0B056D1E0DE05B4504DDC2
:102D80004FF0000205F1010504E003DA4FF0000204
:102D9000A5F10105002AECD002981199C0E9023191
:102DA000C0E9004579E70000000014400000F03F52
:102DB000300000000000F0430000E03F2DE9FF4F2D
:102DC00095B09A46884606460025EEE1252877D13B
:102DD00000242746F94A0121039400E0044316F831
:102DE000013F203B01FA03F01042F7D130782A2846
:102DF00011D06FF02F033078A0F13002092A16D8D5
:102E0000039A44F0020402EB820203EB42021044F4
:102E1000761C0390EFE758F8042B0392002A03DA9C
:102E2000504244F40054039044F00204761C30787D
:102E30002E2816D116F8010F44F004042A280DD0CC
:102E40006FF02F023078A0F13003092B09D807EB7F
:102E5000870302EB4303C718761CF3E758F8047B9B
:102E6000761C30786C280FD006DC4C2817D06828E8
:102E70000DD06A2814D104E0742810D07A280FD11C
:102E80000DE044F400140AE044F4801401E044F43A
:102E900040147278824202D104F58014761C761CAC
:102EA000307866280BD013DC582877D009DC00284E
:102EB00075D04528F6D04628F4D047281AD193E19A
:102EC00018E0632835D0642879D0652812D18BE1C9
:102ED000702873D008DC6728F1D069286FD06E287D
:102EE0000DD06F2806D1ACE073282CD0752874D093
:102EF000782853D05246179990476D1C54E1C4F37B
:102F00000250022809D003280DD0D8F80010042858
:102F10000DD00D6008F1040846E1D8F80010EA175A
:102F2000C1E90052F6E7D8F800100D80F2E70D7005
:102F3000F0E718F8041B8DF8001000208DF8010050
:102F4000EB46012003E058F804BB4FF0FF30610767
:102F50004FF0000102D40DE009F101018946B942A8
:102F60000FDA8145F8DB1BF809100029F4D108E0DD
:102F700009F1010189468142FADB1BF80910002999
:102F8000F6D103985346A0EB090721463846179A15
:102F900000F080FA284400EB090507E044E008E16E
:102FA0000DE01BF8010B524617999047B9F1010942
:102FB000F7D2534621463846179AF2E039E00A2103
:102FC000C4F302524FF0000B0091022A06D058F8C9
:102FD000040BC117032A09D00AE023E008F1070017
:102FE00020F00702F2E80201904605E000B2C117A6
:102FF000042A01D140B2C117002906DA0A4600218D
:10300000404261EB02012D2202E0220504D52B2271
:103010008DF80420012203E0E20701D02022F7E727
:10302000914657E00A2100E010214FF0000B00917B
:103030000BE010214FF0000B44F00404082700912E
:1030400003E008204FF0000B0090C4F30252022A64
:1030500005D058F8040B0021032A08D008E008F135
:10306000070020F00702F2E80201904603E080B278
:10307000042A00D1C0B24FF0000922072AD53278C5
:10308000702A07D0DDF800C08CF0100C5CEA0B0C45
:1030900005D00EE040228DF80420012208E050EA1D
:1030A000010306D030238DF804308DF8052002226C
:1030B0009146009B83F0080353EA0B030AD150EAC0
:1030C000010201D1620705D530228DF804204FF0AE
:1030D00001097F1E3278582A04D039A20C920CAA1A
:1030E00002920BE03BA2F9E75B46009AFDF770FB0A
:1030F0000C9B9B5C029A521E0292137050EA0102D2
:10310000F2D1029804A9081A00F1200B600702D539
:1031100024F4803400E001275F4502DDA7EB0B00BB
:1031200000E0002000EB0B01009003984944401A96
:103130000390E00306D453462146179A039800F003
:10314000A9F90544002706E001A85246C05D179979
:1031500090476D1C7F1C4F45F6DBE0030CD55346B2
:103160002146179A039800F095F9054404E03020B1
:103170005246179990476D1C0099481E00900029EF
:10318000F5DC08E00298029952460078491C029149
:10319000179990476D1CBBF10001ABF1010BF1DCFD
:1031A0005BE100F065F90544761C307800287FF477
:1031B0000DAE19B02846BDE8F08F000009280100C7
:1031C000303132333435363738396162636465669D
:1031D000000000003031323334353637383941425F
:1031E0004344454600000000600700D4062708F16C
:1031F000070020F00700F0E80223804603F0004CAF
:103200005FEA0C0001D097A009E0200501D596A047
:1032100005E0E00701D095A001E0AFF24C0013906B
:10322000307823F0004365280CD006DC452809D00F
:1032300046281DD047287FD13BE0662818D0672854
:103240007AD136E00021112F01DB112000E0781C3B
:10325000CDE9000104A90CA8FFF7EEFCDDE90D01A2
:103260000C9A4FF0000B07F10109109200914EE00B
:103270004FF000400097CDE9011004A90CA8FFF71A
:10328000DBFCDDE90D020C9B0F994FF0000B914622
:103290001093009211B9791C00EB0109B7EB0900FA
:1032A00003D4C0F1FF3B07F10109A9EB070001902E
:1032B00042E0012F00DA01270021112F01DD11204A
:1032C00000E03846CDE9000104A90CA8FFF7B4FCE2
:1032D000DDE90D010C9A00914FF0000BB9461092F8
:1032E00021070FD4009A4A4503DA914601E0A9F17B
:1032F0000109B9F1010F05DD109AA9F10101515C35
:103300003029F4D0B84202DA10F1040F03DA0121B7
:10331000CDE9011010E0002803DC8344A9EB000193
:1033200002E0411C494500DD8946A0EB0B00401C32
:1033300001904FF000400290200705D401984845C5
:1033400002DB4FF0FF30019000208DF84B00029817
:103350000DF14B07B0F1004F25D002200C902B202F
:103360000D90029800280CDA404202902D200D901A
:1033700007E00A210298FDF715FA3031029007F8AC
:10338000011D0C99481E0C900029F2DC02980028BF
:10339000EFD1791E0D980870307800F0200040F0D1
:1033A000450007F8020D11A8C01BC01D029013981C
:1033B000007800B1012000EB0901019801EBE071F8
:1033C000029801440398401A401E0390E00306D47B
:1033D00053462146179A039800F05CF80544139869
:1033E000007818B15246179990476D1CE00323D519
:1033F00053462146179A039800F04CF805441BE009
:10340000BBF1000F07DB0098584504DD10981799B1
:1034100010F80B0001E017993020524690470198B0
:103420000BF1010B401E05F10105019004D12E2086
:103430005246179990476D1CB9F10001A9F1010995
:10344000DEDC05E017F8010B5246179990476D1C1A
:103450000299481E02900029F4DC53462146179A2F
:1034600003989EE62D0000002B00000020000000C5
:103470002DE9F041044600251E461746880404D471
:1034800005E039462020B0476D1C641EF9D528465A
:10349000BDE8F0812DE9F041044600251E46904626
:1034A000C80301D5302700E02027880404D505E0B3
:1034B00041463846B0476D1C641EF9D52846BDE824
:1034C000F0814A68002A06D00A68531C0B6010700D
:1034D0004868401E4860704718B10021034A1160D7
:1034E00002E00121014A11607047000094812142ED
:1034F0002DE9F84F05460C4622480078401C14215F
:10350000B0FBF1F201FB12001E490870C4F1640027
:10351000FDF7E4F881461C49FCF7DFFE07461B492E
:103520002846FCF7D4FE81461949FCF7D6FE8046B2
:1035300014480078FDF7D2F816490090FCF7C7FE52
:1035400083461549FCF7C9FE814639461348FCF706
:103550006CFE83464146FCF7BAFE82464946FCF7BC
:1035600064FE06460E493046FDF708F901D20C4EBE
:1035700005E00C493046FDF70BF900D2094E304604
:10358000BDE8F88F1C000020EC51383E0000C84117
:103590003333B33E000020419A99193F000068423E
:1035A00000000C420000AA422DE9FF5FFEF7D6FCA6
:1035B0000446FEF7C1FC05462046FDF786F807469F
:1035C0001B49FCF7BCFE06461A48066029463046F1
:1035D000FFF78EFF174948602846FDF77FF8154929
:1035E00088600120487314490870FDF7A7FB8346E3
:1035F00010494868FDF7AFF807468846002C01DB04
:10360000204600E06042642190FBF1F201FB1209C8
:1036100094FBF1FA4A46514608A0CDE9025BCDE998
:103620000078FFF7CFFA012004B0BDE8F09F00005A
:103630000000C84254000020140000205B53454E97
:10364000534F525D2074656D703D25642E253032D8
:1036500064432068756D2873696D293D252E316698
:103660002525206C696768743D25752525206C65C6
:10367000643D25750D0A000070B504464FF40770CF
:10368000B4FBF0F0C6B24FF40770B4FBF0F100FBEE
:10369000114505E04FF4077000F00AF8701EC6B23D
:1036A000002EF7D115B1284600F002F870BD0000D9
:1036B0000146144A12884A434FF0E0235A6100221F
:1036C0009A611A46126942F001021A6100BF4FF076
:1036D000E022106900F001021AB100F48032002AE1
:1036E000F5D04FF0E022126922F001024FF0E02302
:1036F0001A6100229A61044A12680A44024B1A6055
:10370000704700003200002034000020014661298B
:1037100005DB7A2903DCA1F12000C0B2704708461E
:10372000FCE7000070B506460C460EB1022C00D234
:1037300070BD0948B0F80004C0F30E05601EA84231
:1037400000D885B22A4604493046FCF70FFD002018
:10375000705500BFECE700002E050020014619B1AE
:10376000087808B1012070470020FCE710B5044636
:103770000CB9002010BD07A12046FCF709FD20B9B7
:1037800006A12046FCF704FD08B10120F2E7002065
:10379000F0E700002B4950442C0000002B4D515401
:1037A00054535542524543563A00000010B5044662
:1037B0000CB9002010BD092208A12046FCF726FD07
:1037C00008B90120F6E70F2207A12046FCF71EFDED
:1037D00008B90120EEE70020ECE7000041542B433C
:1037E000574A41503D00000041542B4D515454550F
:1037F0005345524346473D0070B594B006460D46CA
:103800000DB914B070BD2846FFF7D0FF00280FD0C7
:10381000092212A12846FCF7F9FC20B9314612A072
:10382000FFF7D0F903E0314619A0FFF7CBF9E8E73D
:103830002846FCF7C9FC84B2502C00DB4F242246FA
:1038400029466846FCF792FC00200DF804006A4601
:1038500031461AA0FFF7B6F900BFD2E741542B4317
:10386000574A41503D0000005B4553505F434D4473
:1038700020256C755D2054583A2041542B43574AFB
:1038800041503D3C68696464656E3E0D0A0000006D
:103890005B4553505F434D4420256C755D20545863
:1038A0003A2041542B4D51545455534552434647A9
:1038B0003D3C68696464656E3E0D0A005B4553508B
:1038C0005F434D4420256C755D2054583A20257384
:1038D0000D0A000010B5044604B907A40848007892
:1038E00028B1074A214607A0FFF76CF903E02146FB
:1038F00009A0FFF767F910BD5B4553505D0000005C
:10390000300D00202573206C617374207265706C1B
:10391000793A2025730D0A002573206C6173742099
:103920007265706C793A203C656D7074793E0D0A51
:103930000000000000200349087003490870034993
:103940000870704745000020460000204700002016
:1039500010B504462046FFF717F94FF416730022FE
:1039600002A103A0FDF7A0FA10BD00004F4B00001C
:103970004154000010B50CA0FFF724F940F2DC53CD
:1039800011A212A114A0FDF78FFA40F2DC530EA28F
:1039900014A116A0FDF788FA40F2DC530AA216A182
:1039A00017A0FDF781FA10BD5B4553505D5B44499C
:1039B00041475D207175657279206C696E6B20736B
:1039C000746174650D0A00004F4B00002B43575380
:1039D000544154453A00000041542B43575354413D
:1039E00054453F00535441495000000041542B437B
:1039F00049465352000000005354415455533A0075
:103A000041542B4349505354415455530000000036
:103A100070B505460E4605B106B970BD00240CE030
:103A2000295D0848FFF71DF800BF80210548FEF713
:103A30004BFF0028F9D0601C84B2B442F0DB00BF19
:103A4000EBE700000048004010B5044604B910BD83
:103A50000BE014F8011B1248FFF703F800BF8021A8
:103A60000F48FEF731FF0028F9D020780028F0D168
:103A70000D210B48FEF7F5FF00BF80210848FEF737
:103A800023FF0028F9D00A210548FEF7EAFF00BF0E
:103A900080210348FEF718FF0028F9D000BFD6E7C1
:103AA0000048004010B51C48B0F80004C0F30E00F8
:103AB0001A49088008460088B0F5806F02D340F2AA
:103AC000FF3008801548028813491548FCF74EFB63
:103AD00000201349114A128888541048028811485E
:103AE000FCF744FB00200F490C4A128888540E480A
:103AF0000068401C0C49086001200C490870094806
:103B0000FFF734FE30B1054802880748016808A075
:103B1000FFF758F810BD00002E0500204E000020D1
:103B20003011002030090020480000204C00002007
:103B30005B4553505D5B4153594E4320256C755D89
:103B4000205258206C656E3D25750D0A000000005E
:103B500070B505461DB12846FFF708FE00B970BDD7
:103B60002846FCF731FB84B2B4F5806F01D340F2F4
:103B7000FF34224629461048FCF7F8FA00200E4987
:103B80000855224629460D48FCF7F0FA00200B495B
:103B900008550B4804800B480068401C0949086020
:103BA000012009490870064802880648016807A0F4
:103BB000FFF708F800BFD2E73011002030090020DD
:103BC0004E000020480000204C0000205B45535070
:103BD0005D5B4153594E4320256C755D20707265C5
:103BE0007365727665642066726F6D2073796E639B
:103BF000206C656E3D25750D0A0000002DE9F0472B
:103C000007460C4617B10CB1207810B90020BDE86A
:103C1000F0873D461CE0A84626460DE098F80000D7
:103C2000FFF774FD81463078FFF770FD814500D0C5
:103C300008E008F10108761C98F8000010B130780F
:103C40000028EBD100BF307808B90120DFE76D1CF8
:103C500028780028DFD100BFD9E700002DE9F04F18
:103C6000ADF6040D81460E4615469A46DDF828B895
:103C70004FF00008002400208DF804005849087017
:103C8000A6E00A20FFF7F8FC08F10A08554800787A
:103C900028B100205349087053A0FEF793FF5C48F9
:103CA000B0F80004C00B00B992E04FF480610DF24F
:103CB0000440FFF737FDFDF7CFF80DF20440FCF7A5
:103CC00083FA87B2DFB140F2FF30844217DAE0199D
:103CD000B0F5806F03DB40F2FF30001B87B201A913
:103CE00008193A460DF20441FCF740FAE01984B293
:103CF000002001A90855621C3948FCF737FABBF1CE
:103D0000000F07D10DF204434246494641A0FEF799
:103D100059FF0AE00DF20440FCF756FA034642460A
:103D20004946009043A0FEF74DFF0DF20440FFF717
:103D30001DFD18B901A8FFF719FD18B10DF20440D7
:103D4000FFF706FF2EB131460DF20440FCF720FAD2
:103D500060BB2DB129460DF20440FCF719FA28BBCF
:103D60002EB131460DF20440FFF748FFF0B92DB1F6
:103D700029460DF20440FFF741FFB8B926B131469C
:103D800001A8FCF705FA88B925B1294601A8FCF776
:103D9000FFF958B926B1314601A8FFF72FFF28B91E
:103DA0004DB1294601A8FFF729FF20B101200DF6EA
:103DB000040DBDE8F08F28A101A8FFF71FFF20B96F
:103DC00027A101A8FFF71AFF08B10020EFE700BF05
:103DD000D045FFF456AF24A0FEF7F4FE0020E6E73E
:103DE000300D00203A0000205B4552524F525D20BA
:103DF0004553503832363620525820627566666513
:103E000072206F766572666C6F770D0A0000000095
:103E10002E0500205B4553505F434D4420256C75B3
:103E20005D20525828256C75206D73293A20257322
:103E30000D0A00005B4553505F434D4420256C75CF
:103E40005D20525828256C75206D732C6C656E3D75
:103E50002575290D0A0000004552524F52000000FE
:103E60004641494C000000005B4552524F525D20D4
:103E7000455350383236362074696D656F75740D50
:103E80000A00000070B504460D46E1B20548FEF791
:103E9000E8FD00BF80210348FEF716FD0028F9D099
:103EA000204670BD003801404820FEF799FB4FF4D2
:103EB000A060FEF761FA4FF4E130FEF72FFCFEF749
:103EC00091F8FEF7D5FDFCF743FF18A0FEF77AFE48
:103ED00021A0FEF777FE40F25B7228A12BA0FEF72F
:103EE00071FE30A232A136A0FEF76CFE39A13FA0D0
:103EF000FEF768FE42A148A0FEF764FE4BA0FEF765
:103F000061FE53A156A0FEF75DFE59A0FEF75AFED2
:103F1000FEF78EF808E0FCF763FFFDF7EFFBFEF716
:103F20001BF90A20FFF7A8FBF5E700000D0A3D3D4D
:103F30003D3D3D3D3D3D3D3D3D3D3D3D3D3D3D3DB1
:103F40003D3D3D3D3D3D3D3D3D3D3D3D3D3D3D3DA1
:103F50003D3D0D0A0000000053544D3332463130D0
:103F600033202B2045535038323636202B206942DF
:103F70004F4F54204D5154540D0A00003139322E08
:103F80003136382E3133372E310000004D51545424
:103F90002062726F6B65723A2025733A25750D0A9F
:103FA00000000000626F6172643030310000000078
:103FB000656E765F6C65645F6E6F6465000000001F
:103FC0004465766963653A202573202F2025730D9B
:103FD0000A0000005553415254332054583D50427A
:103FE00031302052583D5042313100004553503855
:103FF00032363620554152543A2025730D0A0000BE
:10400000454E2F43485F50443D5041342052535455
:104010003D5041313500000045535038323636208E
:104020004354524C3A2025730D0A000053656E73B9
:104030006F72733A20696E7465726E616C2074657C
:104040006D70202B206C696768740D0A00000000F9
:104050005046382028414443335F43483629000006
:104060004C696768742050494E3A2025730D0A0048
:104070003D3D3D3D3D3D3D3D3D3D3D3D3D3D3D3D70
:104080003D3D3D3D3D3D3D3D3D3D3D3D3D3D3D3D60
:104090003D3D3D3D0D0A00000146412905DB5A2901
:1040A00003DC01F12000C0B270470846FCE70000C5
:1040B00010B509A0FEF786FD40F25B710FA0FDF779
:1040C00065F818B101201149087010BD10A0FEF765
:1040D00079FD00F001FDF8E75B4D5154545D20631C
:1040E0006F6E6E656374207472793A204553502D5B
:1040F0004154204D5154540D0A0000003139322EE4
:104100003136382E3133372E3100000021000020A7
:104110005B4D5154545D204553502D4154204D5119
:10412000545420636F6E6E656374206661696C65BC
:10413000642C2066616C6C6261636B20746F20720A
:10414000617720544350204D5154540D0A00000013
:104150002DE9F04399B0074688469146002517B1EE
:10416000B8F1000F02D119B0BDE8F0833B4620A2A0
:10417000602101A8CDF80090FEF734FD0446002C24
:1041800000DCF0E7602C00DB5F24A5B2002625E010
:10419000281D80B2602807DB01A919A0FEF712FDD7
:1041A000002500208DF8040018F80630C5F16001E4
:1041B00001AA501914A2FEF715FD0446002C00DCDC
:1041C0000EE0C5F16000A04204DC5F25002001A9DB
:1041D000485505E0281985B2701C86B24E45D7DBDC
:1041E00000BF1DB101A906A0FEF7ECFC00BFBAE7B5
:1041F0002573206C656E3D257520646174613D00FA
:1042000025730D0A00000000253032582000000000
:1042100030B50246002000BF01F07F03C90909B193
:1042200043F080030446451CA8B213550029F3D17E
:1042300030BD000030B5A1B005460C4605B114B93B
:10424000002021B030BD802201A9284600F0B6F937
:1042500001A94CA0FEF7B6FC52A101A8FBF798FFFC
:10426000002840D151A101A8FBF792FF00283AD1C4
:1042700051A101A8FBF78CFF002834D151A101A85E
:10428000FBF786FF00282ED152A101A8FBF780FF83
:10429000002828D151A101A8FBF77AFF002822D1DC
:1042A00051A101A8FBF774FFE8B952A101A8FBF7DF
:1042B0006FFFC0B953A101A8FBF76AFF98B953A1DA
:1042C00001A8FBF765FF70B952A101A8FBF760FFD9
:1042D00048B953A101A8FBF75BFF20B94AA101A887
:1042E000FBF779FF10B901202070AAE74FA101A8C0
:1042F000FBF74EFF00283FD14EA101A8FBF748FF76
:10430000002839D14EA101A8FBF742FF002833D184
:104310004EA101A8FBF73CFF00282DD14FA101A819
:10432000FBF736FF002827D14EA101A8FBF730FF8D
:1043300010BB4FA101A8FBF72BFFE8B94FA101A8C3
:10434000FBF726FFC0B951A101A8FBF721FF98B9DF
:1043500050A101A8FBF71CFF70B950A101A8FBF701
:1043600017FF48B950A101A8FBF712FF20B948A1D7
:1043700001A8FBF730FF18B900202070012060E78A
:1043800000205EE75B4D5154545D206E6F726D618D
:104390006C697A656420646F776E6C696E6B3D251D
:1043A000730D0A00226C6564223A3100226C656448
:1043B000223A223122000000226C6564223A747293
:1043C00075650000226C6564223A2274727565225C
:1043D000000000007B6C65643A317D007B6C656495
:1043E0003A2231227D0000007B6C65643A7472755C
:1043F000657D00007B6C65643A2274727565227D70
:10440000000000006C65643A310000006C65643A9D
:10441000223122006C65643A7472756500000000F8
:104420006C65643A2274727565220000226C6564C2
:10443000223A3000226C6564223A223022000000C9
:10444000226C6564223A66616C736500226C656457
:10445000223A2266616C7365220000007B6C656401
:104460003A307D007B6C65643A2230227D0000008A
:104470007B6C65643A66616C73657D007B6C65641A
:104480003A2266616C7365227D0000006C65643AB7
:10449000300000006C65643A223022006C65643A9A
:1044A00066616C73650000006C65643A2266616C3D
:1044B000736522002DE9FC4780460D4616460DB176
:1044C000052E01D2BDE8FC8700214046FCF760F9CB
:1044D0000DD81B494046FBF700FF82464FF07C5148
:1044E000FBF7A3FE8146FCF7FEF804460CE01449F6
:1044F0004046FBF7F2FE82464FF07C51FBF7E7FEA9
:104500008146FCF7F0F80446002C01DA604200E036
:10451000204607460A20B7FBF0F100FB1179B7FBF4
:10452000F0FACDE900A9002C01DA06A000E006A00F
:10453000034606A231462846FEF754FB00BFC1E7FA
:10454000000020412D000000000000002573256CB4
:10455000752E256C7500000070B5A8B005460E4696
:1045600005B10EB928B070BD3046FBF72DFE84B200
:10457000A02C00DB9F24224631466846FBF7F6FD5F
:1045800000200DF804006A46294602A0FEF71AFB37
:1045900000BFE7E725732025730D0A000648008851
:1045A000401C054908800846008808B90120088099
:1045B00001480088704700002C0000202DE9F041E0
:1045C00005460E4617464FF0000815B10EB1022FF2
:1045D00001D2BDE8F08111E0202C05D0092C03D0D8
:1045E0000D2C01D00A2C00D108E02046FFF754FD25
:1045F00041464A1C1FFA82F8705400BF15F8014B5F
:104600001CB108F10100B842E6D3002006F808000A
:1046100000BFDEE7F0B5B3B004460D4616461F46B0
:104620001F480078012807D13B46324629462046DC
:10463000FCF7B8FE33B0F0BD19480078022801D06D
:104640000020F7E702AAC02103A8FDF7C1FA08B9C4
:104650000020EFE7BDF8082003A912A0FFF778FDBE
:104660002B462246CDE90067BDF8081003A800F0EC
:10467000E3FB70B9BDF8080010B19DF80C0000E034
:1046800000200246BDF808100AA0FEF79BFA0020A1
:10469000D0E73246214615A0FEF794FA0120C9E77B
:1046A000210000205B4D5154545D5B5241575D2009
:1046B000525800005B4D5154545D5B5241575D2090
:1046C000646F776E6C696E6B2070617273652073B6
:1046D0006B6970706564206C656E3D25752074791A
:1046E00070653D3078253032580D0A005B4D5154CD
:1046F000545D5B5241575D207075626C6973682030
:10470000746F7069633D2573207061796C6F6164AB
:104710003D25730D0A0000002DE9F04188B00446E4
:1047200007A92046FFF786FD38B9214620A0FFF7EC
:1047300013FF002008B0BDE8F0819DF81C1026A0F2
:10474000FEF740FA9DF81C00FCF760FBFCF7F6FA58
:1047500005462A469DF81C1024A0FEF733FA03A84C
:10476000FCF7DAFA98B10498FBF7F5FF05460E4618
:104770000398FBF7F0FF07469DF818003A460B46F2
:10478000CDE90056029022A0FEF71CFA02E02FA00D
:10479000FEF718FA00F0AAF820B93AA0FEF712FACC
:1047A0000020C7E744A0FEF70DFA0120C2E7000091
:1047B0005B4D5154545D20756E737570706F7274DB
:1047C000656420646F776E6C696E6B207061796CC4
:1047D0006F61643D000000005B4C45445D207265E4
:1047E00071756573743D25750D0A00005B4C454479
:1047F0005D20636F6E74726F6C20726573756C747C
:104800003D25752061637475616C3D25750D0A0049
:104810005B4D5154545D2072657075626C697368AC
:1048200020616674657220646F776E6C696E6B20B0
:1048300074656D703D252E31662068756D3D252EA1
:104840003166206C65643D25750D0A005B4D515441
:10485000545D2072657075626C697368206166745E
:10486000657220646F776E6C696E6B207573696E0C
:10487000672066726573682073616D706C650D0AE0
:10488000000000005B4D5154545D207374617465E9
:104890002072657075626C697368206661696C6509
:1048A00064206166746572204C454420636F6E74A9
:1048B000726F6C0D0A0000005B4D5154545D207303
:1048C000746174652072657075626C6973682073B9
:1048D000756363657373206166746572204C45442B
:1048E00020636F6E74726F6C0D0A00001FB568460E
:1048F000FCF712FA88B9FCF701FA28B90AA0FEF70A
:1049000061F9012004B010BD6846FCF705FA20B932
:1049100011A0FEF757F90120F4E79DF80C20DDE91E
:10492000000100F02BF8EDE75B53454E534F525D0D
:10493000206E6F2076616C696420656E76207361ED
:104940006D706C652C20736B6970207075626C697A
:1049500073680D0A000000005B53454E534F525DD3
:1049600020656E7620636163686520756E6176618F
:10497000696C61626C650D0A00000000F0B5A3B0BF
:1049800007460D46164610221FA93846FFF792FD2E
:1049900010221BA92846FFF78DFD0EB1012000E073
:1049A00000201BA91FAB1AA2CDE90010602103A8AB
:1049B000FEF718F90446002C01DD602C02DB002014
:1049C00023B0F0BD03AA1DA123A0FEF7FBF82C48DD
:1049D0000078012809D103A918A0FCF713FD20B91C
:1049E00028A0FEF7EFF80020EAE725480078022823
:1049F00009D103A911A000F0C1FA20B927A0FEF740
:104A0000E1F80020DCE72DA0FEF7DCF80120D7E775
:104A10007B2274656D7065726174757265223A25CA
:104A2000732C2268756D6964697479223A25732C38
:104A3000226C6564223A25757D000000656E765F04
:104A40006C65645F6E6F64652F626F617264303095
:104A5000312F7570000000005B4D5154545D207083
:104A600075626C69736820746F7069633D2573208B
:104A70007061796C6F61643D25730D0A0000000060
:104A8000210000205B4D5154545D207075626C69AB
:104A90007368206661696C65640D0A005B4D515452
:104AA000545D5B5241575D207075626C697368207C
:104AB0006661696C65640D0A000000005B4D51542D
:104AC000545D207075626C697368207375636365EB
:104AD00073730D0A000000002DE9F047EAB076A0DC
:104AE000FEF770F87EA0FCF7B7FD18B980A0FEF7BE
:104AF00069F802E085A0FEF765F8FCF7B5F910B992
:104B000088A0FEF75FF840F25B7175A0FCF754FDDA
:104B100030B98EA0FEF756F800206AB0BDE8F087E5
:104B200092A0FEF74FF86DA000F04AFD80466BA002
:104B300000F046FD07460226B8F1000F01D046F00E
:104B400080060FB146F040064FF00A0900258FA3FA
:104B50002A4680211AA800F0D9FD05460DB900208B
:104B6000DBE7B8F1000F09D05CA32A4680211AA820
:104B700000F0CCFD05460DB90020CEE74FB157A39C
:104B80002A4680211AA800F0C1FD05460DB9002073
:104B9000C3E709EB05001FFA80FA10208DF8E80042
:104BA00001243AA908195146FFF732FB204484B288
:104BB00000222046611C8CB23AA90A5404222046E5
:104BC000611C8CB23AA90A544D222046611C8CB259
:104BD0003AA90A5451222046611C8CB23AA90A54BF
:104BE00054222046611C8CB23AA90A542046611C0A
:104BF0008CB23AA90A5404222046611C8CB23AA90C
:104C00000A542046611C8CB23AA90E540022204658
:104C1000611C8CB23AA90A543C222046611C8CB219
:104C20003AA90A5408192A461AA9FBF79FFA6019EB
:104C300084B221463AA800F06BFC20B959A0FDF7D8
:104C4000C1FF002069E74FF47A6001AB602202A93E
:104C50000090202000F0D8FC20B95BA0FDF7B2FF47
:104C600000205AE7BDF80400042806D39DF8090087
:104C7000022802D19DF80B0078B1BDF80400042889
:104C800002D39DF80B0000E0FF200146BDF8042090
:104C900055A0FDF797FF00203FE70120FCF71CFF20
:104CA0000120FCF70FFF02205A4908705AA0FDF7B7
:104CB00089FF012031E700005B4D5154545D5B5288
:104CC00041575D2066616C6C6261636B20636F6E3F
:104CD0006E6563742073746172740D0A00000000C5
:104CE0003139322E3136382E3133372E3100000033
:104CF0005B4D5154545D5B5241575D2070696E6746
:104D0000206661696C65640D0A0000005B4D5154BA
:104D1000545D5B5241575D2070696E67206F6B0D6B
:104D20000A0000005B4D5154545D5B5241575D20B9
:104D3000636C6F7365207374616C652054435020FD
:104D400069676E6F7265640D0A0000005B4D515417
:104D5000545D5B5241575D20544350206F70656E27
:104D6000206661696C65640D0A0000005B4D51545A
:104D7000545D5B5241575D20544350206F70656E07
:104D800020737563636573730D0A0000656E765F4B
:104D90006C65645F6E6F64655F626F617264303012
:104DA000310000005B4D5154545D5B5241575D2012
:104DB000434F4E4E4543542073656E6420666169CF
:104DC0006C65640D0A0000005B4D5154545D5B52EC
:104DD00041575D20434F4E4E41434B2074696D65F2
:104DE0006F75740D0A0000005B4D5154545D5B52A9
:104DF00041575D20434F4E4E41434B2072656A65DB
:104E0000637420636F64653D2575206C656E3D2578
:104E1000750D0A00210000205B4D5154545D5B521A
:104E200041575D20434F4E4E41434B2073756363A2
:104E30006573730D0A0000002DE9FF4F83B005462E
:104E40000E46904635B1052E04D3B8F1000F01D0BF
:104E5000109818B9002007B0BDE8F08F287800F04E
:104E6000F000302805D0297838A0FDF7ABFE0020EF
:104E7000F1E70124A3460020029011E0285D00F034
:104E80007F01029801FB0B000290285D00F080007A
:104E900010B9601C84B205E04FEACB1B601C84B2E1
:104EA000B442EBDB00BF311B0298814201D20020EB
:104EB000D1E7A01C80B2B04201DD0020CBE7601C2E
:104EC000285C295D40EA0127A01C84B2E01980B269
:104ED000B04201DD0020BEE7B9464F460698814545
:104EE00003DB0698401E1FFA80F929194A464046FE
:104EF000FBF73CF9002008F80900E01984B2287893
:104F0000C0F341000190019838B1A01C80B2B042BA
:104F100001DD00209FE7A01C84B2A64201DA002038
:104F200099E7301B1FFA80FA1198824503DB11982C
:104F3000401E1FFA80FA291952461098FBF716F9FD
:104F40000021109800F80A10012084E75B4D5154AD
:104F5000545D5B5241575D206E6F6E2D7075626CB3
:104F6000697368207061636B657420747970653D46
:104F70003078253032580D0A000000002DE9F0434A
:104F8000C1B006460F4606B11FB9002041B0BDE8CA
:104F9000F0833046FBF718F91FFA80F93846FBF723
:104FA00013F985B209F1020028441FFA80F8302075
:104FB0008DF80400012401A908194146FFF728F9DA
:104FC000204484B2334622464FF4807101A800F099
:104FD0009DFB04460CB90020D8E7601980B2B0F5FB
:104FE000807F01DD0020D1E701A908192A46394652
:104FF000FBF7BCF8601984B2214601A800F088FADA
:1050000020B903A0FDF7DEFD0020BFE70120BDE7CA
:105010005B4D5154545D5B5241575D205055424C9D
:105020004953482073656E64206661696C65640D40
:105030000A0000002DE9F041CAB006460F461EB92D
:1050400000204AB0BDE8F081FFF7A8FA05468220AB
:105050008DF8680001243046FBF7B6F8401D1FFAB2
:1050600080F81AA908194146FFF7D2F8204484B203
:105070002A0A2046611C8CB21AA90A542046611CD7
:105080008CB21AA90D5433462246C0211AA800F04A
:105090003DFB04460CB90020D3E72046611C8CB2CE
:1050A0001AA90F5421461AA800F032FA20B918A004
:1050B000FDF788FD0020C4E740F6B83001AB602260
:1050C00002A90090902000F09FFA20B919A0FDF7E6
:1050D00079FD0020B5E7BDF80400052803D39DF84D
:1050E0000C0080280DD1BDF80400052802D39DF8DE
:1050F0000C0000E0FF20014616A0FDF763FD002034
:105100009FE73A4629461CA0FDF75CFD012098E781
:105110005B4D5154545D5B5241575D205355425392
:1051200043524942452073656E64206661696C652F
:10513000640D0A005B4D5154545D5B5241575D2034
:1051400053554241434B2074696D656F75740D0A68
:10515000000000005B4D5154545D5B5241575D208F
:1051600053554241434B206661696C656420636F0F
:1051700064653D25750D0A005B4D5154545D5B52CD
:1051800041575D2053554241434B2073756363651E
:105190007373207069643D257520716F733D2575AB
:1051A0000D0A000010B54948007807287ED2DFE8D4
:1051B00000F08A04193146596B0045A0FDF702FD45
:1051C000FBF7CEFE50B147A0FDF7FCFC02203F49A3
:1051D0000870FDF7FDF94949086002E048A000F0B9
:1051E00061F971E04BA14FA0FDF7ECFC54A149A07F
:1051F000FBF754FF50B155A0FDF7E4FC0320334901
:105200000870FDF7E5F93D49086002E055A000F09F
:1052100049F959E038A238A157A0FCF793FC50B1E6
:105220005BA0FDF7CFFC042028490870FDF7D0F9FA
:105230003249086002E05DA000F034F944E03C200F
:10524000FCF754FC50B15FA0FDF7BCFC05201F49E2
:105250000870FDF7BDF92949086002E060A000F080
:1052600021F931E0FEF724FF50B163A0FDF7AAFC5D
:10527000062016490870FDF7ABF92049086002E0E6
:1052800064A000F00FF91FE000F05CF9B8B167A16D
:105290006DA0FDF797FC07200C490870FFF726FB6F
:1052A00048B1FDF795F941F2883100E00BE0084480
:1052B0006D49086006E06DA000F0F4F802E073A00C
:1052C00000F0F0F800E000BF00BF10BD200000209B
:1052D0005B4553505D20696E69742073746172740C
:1052E0000D0A00005B4553505D20696E69742073A0
:1052F0007563636573730D0A0000000024000020CD
:105300005B4553505D20696E6974206661696C6508
:10531000640000004445534B544F502D364E4D37DA
:10532000305400005B574946495D206A6F696E69D9
:105330006E6720535349443D25730D0A0000000059
:105340004C464C2D6C61622D323034005B5749461F
:10535000495D206A6F696E20737563636573730DB1
:105360000A0000005B574946495D206A6F696E205C
:105370006661696C65640000656E765F6C65645F8C
:105380006E6F64655F626F6172643030310000007F
:105390005B4D5154545D20757365722063666720C0
:1053A000737563636573730D0A0000005B4D5154A0
:1053B000545D207573657220636667206661696C51
:1053C000656400005B4D5154545D20636F6E6E2028
:1053D00063666720737563636573730D0A0000006D
:1053E0005B4D5154545D20636F6E6E206366672081
:1053F0006661696C656400005B4D5154545D2063C7
:105400006F6E6E65637420737563636573730D0AE5
:10541000000000005B4D5154545D20636F6E6E655B
:105420006374206661696C6564000000656E765F78
:105430006C65645F6E6F64652F626F61726430309B
:10544000312F646F776E00005B4D5154545D2073B3
:1054500075627363726962652073756363657373E4
:105460003A2025730D0A0000280000205B4D51549E
:10547000545D20696E697469616C207075626C6935
:105480007368206661696C65640000005B4D51546F
:10549000545D207375627363726962652066616929
:1054A0006C65640010B504461CB121460BA0FDF7E5
:1054B00089FB01200B49087000200B490870FCF79C
:1054C00001FB0020FCF708FBFDF782F800F6B8307E
:1054D0000649086006A0FDF775FB10BD25730D0A8F
:1054E00000000000200000202100002024000020F7
:1054F0005B4D5154545D207265636F6E6E656374CD
:10550000207363686564756C65640D0A00000000B3
:1055100070B504460D4604B10DB9002070BD2A4691
:10552000214604A0FEF714FE29462046FCF760F948
:10553000F4E700005B4D5154545D5B5241575D20D0
:105540005458000010B50C480078012804D10021FF
:105550000AA0FBF7BBFF10BD07480078022809D15D
:10556000002206A10CA0FDF72DFB002103A0FFF7F0
:1055700061FDF0E70020EEE721000020656E765F18
:105580006C65645F6E6F64652F626F61726430304A
:10559000312F646F776E00005B4D5154545D5B5248
:1055A00041575D2073756273637269626520746F21
:1055B0007069633D257320716F733D25750D0A0079
:1055C000014619B1087808B1012070470020FCE7B6
:1055D00010B504462046FFF7F3FF08B9012010BDBF
:1055E000052207A12046FAF711FE08B90120F6E7C7
:1055F00020783C2801D10120F1E70020EFE70000EE
:10560000594F55525F0000002DE9F84380460C4683
:1056100016461D46DDF820900CB106B115B90020E4
:10562000BDE8F88300202880FCF7D2FF074629E078
:10563000FCF764F86A4631462046FCF7C9FAF0B137
:10564000BDF80020214613A0FEF782FDBDF8000042
:1056500048B1207800F0F000404504D1BDF80000CA
:1056600028800120DCE7BDF8000008B1207800E0C8
:1056700000200146BDF800200AA0FDF7A3FA0A2089
:10568000FDF7FAFFFCF7A4FFC01B4845D0D300206C
:10569000C6E700005B4D5154545D5B5241575D209D
:1056A000525800005B4D5154545D5B5241575D2090
:1056B000736B6970207061636B65742074797065B9
:1056C0003D307825303258206C656E3D25750D0AC9
:1056D0000000000010B506A0FFF77AFF28B908A067
:1056E000FFF776FF08B9012010BD0020FCE700009D
:1056F0004445534B544F502D364E4D3730540000D7
:105700004C464C2D6C61622D323034002DE9F04155
:105710000646884614461F4626B11FB1A01C80B21B
:10572000404502DD0020BDE8F0813846FAF74CFD27
:1057300085B2A01C284480B2404501DD0020F2E77C
:105740002A0A2046611C8CB232542046611C8CB25D
:10575000355430192A463946FAF708FD601980B2E7
:10576000E1E700008025000000C201008024010064
:1057700000E100005B5443505F53454E445D206E92
:105780006F2053454E44204F4B2C2062757420529D
:10579000656376206279746573207365656E206138
:1057A0006E6420544350207374696C6C2075702CA7
:1057B00020617373756D652073656E740D0A00004A
:1057C000E05700080000002054000000182C0008DA
:1057D0003458000854000020DC180000282C000871
:1057E0000000000001020304010203040607080987
:1057F0000204060800000000000000000000000095
:105800000000000000000000000000000100000097
:105810000000000000000000000000000000000088
:105820000000000000000000000000000000000078
:045830000000000074
:0400000508000131BD
:00000001FF
