:020000040800F2
:100000007805002049010008991A00082F150008FA
:10001000951A0008330200081122000800000000B1
:10002000000000000000000000000000C51A0008E9
:1000300037020008000000009B1A0008C71A0008D9
:100040006301000863010008630100086301000800
:1000500063010008630100086301000863010008F0
:1000600063010008630100086301000863010008E0
:1000700063010008630100086301000863010008D0
:1000800063010008630100086301000863010008C0
:1000900063010008630100086301000863010008B0
:1000A00063010008630100086301000863010008A0
:1000B0006301000863010008630100086301000890
:1000C0006301000863010008630100086301000880
:1000D000630100089921000863010008630100081A
:1000E0006301000863010008630100086301000860
:1000F0006301000863010008630100086301000850
:10010000630100086301000863010008630100083F
:10011000630100086301000863010008630100082F
:10012000630100086301000863010008630100081F
:10013000DFF810D000F05CF800480047C92500083F
:10014000AFF3008078050020064880470648004746
:10015000FEE7FEE7FEE7FEE7FEE7FEE7FEE7FEE777
:10016000FEE7FEE73D1B0008310100082DE9F05FC6
:100170000546002092469B46884606468146402416
:100180001BE0284641464746224600F020F85346E9
:100190005A46C01A914110D311461846224600F023
:1001A00039F82D1A67EB01084F462246012000213D
:1001B00000F030F817EB00094E41201EA4F10104B5
:1001C000DFDC484631462A464346BDE8F09F202AF8
:1001D00004DB203A21FA02F00021704721FA02F3F1
:1001E000D040C2F1200291400843194670470000F8
:1001F000064C074D06E0E06840F0010394E8070074
:1002000098471034AC42F6D3FFF796FF3C1F010825
:100210005C1F0108202A04DB203A00FA02F10020CA
:1002200070479140C2F1200320FA03F31943904034
:10023000704700BFFEE7704770B50446B3F5804FC6
:1002400013D1D1E9000540EA05108D6840EA052088
:100250008D6928438D8940EA054054F82250064EA6
:100260003540284344F8220003E06FF0704044F822
:100270002200002070BD00000000F0CF30B5024623
:10028000086852F8200020F001000C6842F82400B1
:100290008868082801D1402300E0002348681843FB
:1002A0008C682043CC6820430C6920434C69204370
:1002B0008C692043CC6920430C6A20434C6A20435C
:1002C0008C6A2043CC6A20430C6B20434C6B204348
:1002D0000C6852F82440044D2C4020430C6842F82E
:1002E0002400002030BD00008000F0FF10B5034660
:1002F000D1E9000440EA04108C6840EA04208C89AB
:1003000040EA0444088A401E44EA0054087D801EE6
:1003100044EA00608C692043541C53F8244004F0E4
:1003200040442043541C43F82400002010BD00002A
:1003300070B50446002594F82100022803D004205B
:10034000A0630125C1E02068006820F00E0021684C
:1003500008602068006820F00100216808605C499E
:100360002068884252D95A4978392068884201D198
:10037000012047E0564964392068884201D11020A5
:1003800040E0534950392068884201D1801539E056
:100390004F493C392068884201D1801432E04C49F1
:1003A00028392068884202D14FF480302AE0484939
:1003B00014392068884202D14FF4801022E0444969
:1003C0002068884201D140041CE0424920688842EC
:1003D00001D1012016E03F4914312068884201D143
:1003E00010200FE03B4928312068884201D1801558
:1003F00008E038493C312068884201D1801401E08E
:100400004FF480303349091F086051E03049783992
:100410002068884201D1012047E02D4964392068D5
:10042000884201D1102040E0294950392068884293
:1004300001D1801539E026493C392068884201D134
:10044000801432E0224928392068884202D14FF4D2
:1004500080302AE01E4914392068884202D14FF4C6
:10046000801022E01A492068884201D140041CE033
:1004700018492068884201D1012016E0154914313D
:100480002068884201D110200FE0124928312068ED
:10049000884201D1801508E00E493C31206888422D
:1004A00001D1801401E04FF480300949803948605F
:1004B000012084F8210000BF002084F8200000BF44
:1004C000606B10B12046616B8847284670BD000004
:1004D00080000240080402402DE9F847024600234C
:1004E0009C467BE14FF0010808FA03F4D1F8008044
:1004F00008EA0400A0427DD1DFF8F4A2D1F804801C
:10050000A8EB0A09D0453AD014DCB8F1030F50D05B
:1005100009DCB8F1000F31D0B8F1010F1CD0B8F1EF
:10052000020F49D120E0B8F1110F18D0B8F1120F25
:1005300042D11EE0B9F5881F25D006DCB9F5803F11
:1005400020D0B9F5801F37D11AE0B9F5001F18D0B7
:10055000B9F5041F30D117E0D1F80CC02DE0D1F867
:100560000C8008F1040C28E0D1F80C8008F1080C8C
:1005700023E0D1F80C8008F10C0C1EE000BF00BF96
:1005800000BF00BF00BF00BFD1F80880B8F1000F66
:1005900002D14FF0040C0BE0D1F80880B8F1010F44
:1005A00003D14FF0080C146102E04FF0080C5461C5
:1005B00003E04FF0000C00E000BF00BFFF2801D8AF
:1005C000904601E002F104084646FF2802D84FEAAF
:1005D000830803E0A3F108084FEA88084746D6F8E5
:1005E00000804FF00F0909FA07F928EA09080CFA08
:1005F00007F900E07AE048EA0908C6F80080D1F877
:10060000048008F08058B8F1805F6FD100BFDFF838
:10061000E481D8F8188048F00108DFF8D891C9F8CB
:100620001880C846D8F8188008F00108CDF8008076
:1006300000BF00BF4FEAB9384FEA930958F8295074
:100640004FEA83784FEA18794FF00F0808FA09F853
:1006500025EA0805DFF8A081424502D14FF00008E5
:1006600024E0DFF89881424502D14FF001081DE0F7
:10067000DFF88C81424502D14FF0020816E0DFF826
:100680008481424502D14FF003080FE0DFF8788102
:10069000424502D14FF0040808E0DFF8708142457E
:1006A00002D14FF0050801E04FF006084FEA8379C8
:1006B0004FEA197908FA09F848EA0505DFF8508188
:1006C0004FEA930948F82950D1F8048008F480389B
:1006D000B8F5803F0BD1DFF83C81D8F8008048EABC
:1006E0000008DFF83091C9F800800AE075E0DFF813
:1006F0002481D8F8008028EA0008DFF81891C9F8AA
:100700000080D1F8048008F40038B8F5003F0ED11D
:10071000DFF8008108F10408D8F8008048EA0008F2
:10072000DFF8F09009F10409C9F800800DE0DFF866
:10073000E48008F10408D8F8008028EA0008DFF80F
:10074000D49009F10409C9F80080D1F8048008F4B4
:100750008018B8F5801F0ED1DFF8B88008F10808BE
:10076000D8F8008048EA0008DFF8A89009F10809E5
:10077000C9F800800DE0DFF89C8008F10808D8F87F
:10078000008028EA0008DFF88C9009F10809C9F810
:100790000080D1F8048008F40018B8F5001F0ED1CD
:1007A000DFF8708008F10C08D8F8008048EA0008EB
:1007B000DFF8609009F10C09C9F800800DE0DFF85E
:1007C000548008F10C08D8F8008028EA0008DFF807
:1007D000449009F10C09C9F800805B1CD1F8008035
:1007E00028FA03F8B8F1000F7FF47CAEBDE8F88773
:1007F000000011100010024000080140000C0140F0
:10080000001001400014014000180140001C01408C
:1008100008000140000401400AB1016101E00B043D
:100820000361704701480068704700000400002021
:100830000348006803490978084401490860704783
:10084000040000200C00002010B50848006840F0AB
:10085000100006490860052000F080F80F2000F025
:1008600007F800F02BF8002010BD00000020024027
:1008700070B504460E4800784FF47A71B1FBF0F081
:100880000C490968B1FBF0F5284600F085FC08B179
:10089000012070BD102C07D200222146501E00F00E
:1008A0001EF80548046001E00120F2E70020F0E7AF
:1008B0000C000020000000200800002070470146C6
:1008C0000846002809DB00F01F0301229A40430973
:1008D0009B0003F1E023C3F8002100BF70472DE91E
:1008E000F05F80460D461646002701F0A3FC074640
:1008F00039462A46334601F00700C0F1070ABAF12B
:10090000040F02D94FF0040A01E0C0F1070AD146F2
:1009100000F1040ABAF1070F02D24FF0000A01E019
:10092000A0F1030AD4464FF0010A0AFA09FAAAF123
:10093000010A0AEA020A0AFA0CFA4FF0010B0BFA52
:100940000CFBABF1010B0BEA030B4AEA0B0421464B
:10095000404601F077FCBDE8F09F000000BF00F0CA
:100960000702064B19684FF6FF031940044B0B436F
:1009700043EA0221014B196000BF70470CED00E013
:100980000000FA0570B504460D460CB9012070BD93
:100990005A48006800F00700A8420ED25748006885
:1009A00020F007002843554908600846006800F019
:1009B0000700A84201D00120E9E7207800F00200FA
:1009C00002281DD1207800F00400042805D14C48ED
:1009D000406840F4E0604A494860207800F0080030
:1009E000082805D14648406840F4605044494860B2
:1009F0004348406820F0F000A1680843404948603F
:100A0000207800F0010078B36068012806D13C48E6
:100A1000006800F4003090B90120B8E7606802284F
:100A200006D13748006800F0007040B90120AEE7F9
:100A30003348006800F0020008B90120A7E73048F9
:100A4000406820F00300616808432D494860FFF7C3
:100A5000E9FE064609E0FFF7E5FE801B41F288311A
:100A6000884202D9032092E707E02548406800F059
:100A70000C006168B0EB810FEDD12048006800F0F8
:100A80000700A8420ED91D48006820F0070028433F
:100A90001A4908600846006800F00700A84201D023
:100AA000012074E7207800F00400042807D11448DE
:100AB000406820F4E060E16808431149486020780C
:100AC00000F00800082808D10D48406820F4605064
:100AD000216940EAC1000A49486000F03FF808492E
:100AE0004968C1F30311074A515CC84006490860D0
:100AF00006480068FFF7BCFE002048E700200240DF
:100B0000001002400CD60008000000200800002061
:100B100001480068704700000000002000B5FFF7A2
:100B2000F7FF04494968C1F30221034A515CC840F8
:100B300000BD0000001002401CD6000800B5FFF701
:100B4000E7FF04494968C1F3C221034A515CC84028
:100B500000BD0000001002401CD60008F0B585B0B2
:100B60000FF26C0C9CE8E01001A8A0E8E0101CA5B6
:100B70002D68009500210022002300240020194D3B
:100B8000696801F00C05F5B1042D02D0082D19D1CA
:100B900001E0154819E001ADC1F38346AC5D01F4F5
:100BA000803555B10F4D6D68C5F340451DF80520E2
:100BB0000D4D6543B5FBF2F302E00C4D04FB05F36C
:100BC000184602E000BF084800BF00BF05B0F0BDF6
:100BD00002030405060708090A0B0C0D0E0F10107E
:100BE000010200000010024000127A0000093D00DE
:100BF000F8B504460CB90120F8BD207800F00100DA
:100C0000002878D0F848406800F00C0004280CD088
:100C1000F548406800F00C00082811D1F2484068FF
:100C200000F48030B0F5803F0AD1EF48006800F44E
:100C3000003000285FD0606800285CD10120DBE72D
:100C400000BF6068B0F5803F06D1E748006840F417
:100C50008030E549086028E0606858B9E2480068DB
:100C600020F48030E04908600846006820F48020C5
:100C700008601AE06068B0F5A02F0BD1DA48006870
:100C800040F48020D84908600846006840F480306D
:100C900008600AE0D448006820F48030D249086037
:100CA0000846006820F48020086000BF606888B1B2
:100CB000FFF7B8FD054606E0FFF7B4FD401B6428CA
:100CC00001D9032098E7C848006800F400300028E4
:100CD000F2D010E0FFF7A6FD054606E0FFF7A2FD03
:100CE000401B642801D9032086E7BF48006800F450
:100CF00000300028F2D1207800F00200022857D1FD
:100D0000B948406800F00C0050B1B748406800F0A6
:100D10000C00082818D1B448406800F4803098B915
:100D2000B148006800F0020020B12069012801D01C
:100D3000012061E7AC48006820F0F800616940EAF2
:100D4000C100A949086033E02069E8B10120A74942
:100D50000860FFF767FD054606E0FFF763FD401BEF
:100D6000022801D9032047E79F48006800F00200ED
:100D70000028F2D09C48006820F0F800616940EA41
:100D8000C1009949086013E0002098490860FFF706
:100D900049FD054606E0FFF745FD401B022801D945
:100DA000032029E79048006800F002000028F2D1F3
:100DB000207800F0080008282DD1A069B8B10120E2
:100DC0008B490860FFF72EFD054606E0FFF72AFD78
:100DD000401B022801D903200EE78348406A00F037
:100DE00002000028F2D0012000F058FE13E000209D
:100DF0007F490860FFF716FD054606E0FFF712FD84
:100E0000401B022801D90320F6E67748406A00F02B
:100E100002000028F2D1207800F00400042873D1E9
:100E200000277148C06900F0805070B900BF6E485B
:100E3000C06940F080506C49C8610846C06900F044
:100E40008050009000BF00BF01276A48006800F48E
:100E50008070B0B96748006840F4807065490860E8
:100E6000FFF7E0FC054606E0FFF7DCFC401B6428CA
:100E700001D90320C0E65F48006800F480700028B4
:100E8000F2D000BFE068012806D15748006A40F060
:100E900001005549086227E0E06858B95248006AE5
:100EA00020F00100504908620846006A20F0040062
:100EB000086219E0E06805280BD14B48006A40F051
:100EC0000400494908620846006A40F001000862CF
:100ED0000AE04548006A20F00100434908620846DC
:100EE000006A20F00400086200BFE068A0B1FFF7CC
:100EF00099FC054609E0FFF795FC401B41F288315B
:100F0000884202D9032077E622E03748006A00F0E1
:100F100002000028EFD012E0FFF784FC054608E04D
:100F2000FFF780FC401B41F28831884201D9032041
:100F300062E62D48006A00F002000028F0D1012F7F
:100F400005D12948C06920F080502749C86100BFF9
:100F5000E069C8B32448406800F00C00082860D05D
:100F6000E069022848D1002020490866FFF75AFCB2
:100F7000054606E0FFF756FC401B022801D9032076
:100F80003AE61948006800F000700028F2D1206AA3
:100F9000B0F5803F07D11448406820F40030A168C4
:100FA000084311494860D4E9080108430E494968DB
:100FB00021F4741108430C49486001200B4908666C
:100FC000FFF730FC054607E03DE0FFF72BFC401B38
:100FD000022801D903200FE60348006800F00070E2
:100FE0000028F2D02FE00000001002400000424232
:100FF0008004424200700040002014490866FFF758
:1010000011FC054606E0FFF70DFC401B022801D944
:101010000320F1E50E48006800F000700028F2D1CE
:1010200011E0E069012800D1E6E50948466806F4C8
:101030008031206A814204D106F47011606A8142D5
:1010400001D00120D8E50020D6E500000000424292
:101050000010024070B504460E4615460CB901203A
:1010600070BD94F8410028B9002084F84000204663
:1010700000F020F804F108012068FFF7FFF831467E
:10108000A2682068FFF732F92946236BD4E90102F0
:10109000FFF7D2F8A168206850F8210040F0010065
:1010A000A268216841F82200012084F84100002054
:1010B000D6E7000010B586B0044600BF2848406956
:1010C00040F48070264948610846406900F4807009
:1010D000019000BF00BF00BF0846806940F02000BB
:1010E00088610846806900F02000019000BF00BFC1
:1010F00000BF0846806940F040008861084680696A
:1011000000F04000019000BF00BF00BF08468069AA
:1011100040F4807088610846806900F48070019016
:1011200000BF00BF4CF233700290022003900120F8
:1011300004900320059002A90A48FFF7CDF94FF665
:101140008070029002A90848FFF7C6F941F2010039
:10115000029002A90548FFF7BFF906B010BD0000D4
:10116000001002400014014000180140002001401E
:10117000042808D14FF0E021096941F004014FF043
:10118000E022116107E04FF0E021096921F004013C
:101190004FF0E0221161704770B504462546681E85
:1011A000B0F1807F01D301200FE0681E4FF0E021F5
:1011B00048610F214FF0FF3001F044F800204FF05C
:1011C000E021886107200861002070BD704701465A
:1011D0000022002391F8392091F83A3042EA0300C6
:1011E000704700002DE9F047044620680568206834
:1011F000C668206847694FF00008C14605F00F082F
:10120000B8F1000F0AD105F0200038B106F0200037
:1012100020B1204600F068FEBDE8F087B8F1000F6D
:101220006DD007F0010018B906F49070002866D060
:1012300005F0010030B106F4807018B1E06B40F0A9
:101240000100E06305F0040030B107F0010018B1BF
:10125000E06B40F00200E06305F0020030B107F0FF
:10126000010018B1E06B40F00400E06305F00800F5
:1012700030B107F0010018B1E06B40F00800E06306
:10128000E06B68B305F0200028B106F0200010B133
:10129000204600F029FE20684069C0F38019E06B09
:1012A00000F0080010B9B9F1000F22D0204600F07C
:1012B000FBFD2068406900F04000B0B12068406943
:1012C00020F0400021684861606B50B11748616BA5
:1012D0004863606BFFF72CF810B1606B416B884777
:1012E0000CE02046FFF772FF08E02046FFF76EFF94
:1012F00004E02046FFF76AFF0020E0638CE705F07A
:10130000800030B106F0800018B1204600F010FFD8
:1013100082E705F0400030B106F0400018B12046E9
:1013200000F0D2FD78E700BF76E70000951E0008C8
:1013300010B504460CB9012010BDA06900B100E051
:1013400000BF94F8390028B9002084F838002046FE
:1013500000F028F8242084F839002068C06820F4C0
:1013600000502168C860204600F012FE2068006925
:1013700020F49040216808612068406920F02A002C
:10138000216848612068C06840F400502168C86046
:101390000020E063202084F8390084F83A0000201F
:1013A000CAE7000010B586B004461F49206888428D
:1013B00037D100BF1D48806940F004001B49886197
:1013C0000846806900F00400019000BF00BF00BF24
:1013D0000846806940F4804088610846806900F4CE
:1013E0008040019000BF00BF48150290022003908A
:1013F000012004900320059002A90D48FFF76CF826
:101400004FF4806002900020039002A90848FFF783
:1014100063F82520FFF753FA032211462520FFF732
:101420005EFA06B010BD0000003801400010024016
:101430000008014010B5034693F83A0020282FD148
:1014400001B10AB9012010BD00BF93F8380001288E
:1014500001D10220F7E7012083F8380000BF99622C
:101460009A85DA850020D863222083F83A0000BFED
:10147000002083F8380000BF1868C06840F480700E
:101480001C68E0601868406940F001001C686061F9
:101490001868C06840F020001C68E0600020D2E7B7
:1014A0000220D0E71D4A0168914236D11C490988C3
:1014B00001F4004189BB1A49098801F4804171B1E6
:1014C000184909780A2903D00021154A118024E01F
:1014D0001349098841F40041114A11801DE0114966
:1014E00009780D2906D10E49098841F480410C4A3A
:1014F000118012E00B490978094A1288C2F30D02E3
:10150000094B995406490988491C054A118011461E
:101510000988C72901DD002111807047003801408A
:101520002000002022000020B0000020704700BFF3
:10153000FEE7000070B506460F484088401E83B2A3
:101540000D480088401E82B20021084600F0A8F82D
:1015500000240CE0002504E0304600F053FA681C3B
:1015600085B205484088A842F6DC601C84B2024877
:101570000088A042EEDC70BD1200002000B50246DB
:101580000F4882716AB9362000F030FA4C2000F022
:1015900033FA4FF4F0700A4948804FF4A070088085
:1015A0000CE0362000F022FA2C2000F025FA4FF44F
:1015B000A070034948804FF4F070088000BD00001F
:1015C0001200002070B504460D4616462B462246F2
:1015D0002946204600F064F8304600F013FA70BD4A
:1015E0002DE9F04304460D4616461F46DDF81C80E3
:1015F000B44201DCBD4201DDBDE8F0833B4632462A
:101600002946204600F04CF8301B401C84B2781B61
:10161000401C85B20BE0A94602E0404600F0F2F91A
:10162000B9F10000A9F101011FFA81F9F5D1201EDD
:10163000A4F101018CB2EED100BFDDE701480088C2
:10164000704700000008006C2DE9F04104460D468B
:1016500000260027B04610480088A04203DD0E484F
:101660004088A84202DC0020BDE8F0812B462246DB
:101670002946204600F014F82E2000F0B7F907485C
:10168000068800884FF6FF7101EA002603480088AB
:1016900006433046E8E70000120000200008006C16
:1016A00030B504460D462A2000F0A0F9201200F0C3
:1016B000A3F9E0B200F0A0F9101200F09DF9D0B249
:1016C00000F09AF92B2000F091F9281200F094F91B
:1016D000E8B200F091F9181200F08EF9D8B200F0DB
:1016E0008BF92C2000F082F930BD00002DE9F84F75
:1016F00080460E4617461C46B3462046E31704EBC9
:101700005373DB1021464FEAE47C04EB5C7C4FEA28
:10171000EC0CA4EBCC0CBCF1000F02D04FF0010C90
:1017200001E04FF0000C6344224604EBD27C4FEA08
:101730006C0C03FB0CF3DBB20093A7F12000C7B2E3
:10174000002556E00C2C07D107EB47002B4901EB95
:10175000800010F8059013E0102C05D1284800EB0C
:10176000071010F805900BE0182C07D107EBC70005
:10177000244901EB800010F8059001E0BDE8F88FE6
:101780004FF0000A2FE009F0800030B11E480288B7
:1017900031464046FFF716FF07E00A9828B91B4874
:1017A000028831464046FFF70DFF4FEA49604FEA95
:1017B0001069701C86B216484088B04200DCDDE734
:1017C000A6EB0B00A0420AD15E4608F101001FFA09
:1017D00080F80F480088404500DCCFE706E00AF1BA
:1017E000010000F0FF0ABAF1080FCCDB00BF681C53
:1017F000C5B200988542A5DB00BFBFE724D600082C
:1018000098DA000888E000080E0000201000002090
:10181000120000202DE9F84F04460F461546A34656
:10182000009760E0002657E006EB8600C0EB8610CC
:101830002F4911F81000297888424BD106EB860019
:10184000C0EB86102A4901EB400040786978884255
:1018500040D14FF000083AE006EB8600C0EB86105E
:10186000234901EB4000801C10F808A04FF000094C
:1018700026E00AF08000802806D11E4802883946FA
:101880002046FFF79FFE05E01B48028839462046A8
:10189000FFF798FE4FF6FF7000EA4A0A601C84B218
:1018A000A4EB0B00202807D15C46781C87B2009877
:1018B000381A1D2800D1009F09F1010000F0FF092E
:1018C000B9F1080FD5DB08F1010000F0FF08B8F10D
:1018D000740FC1DB701CC6B2142EA5DBAD1C04F165
:1018E000200084B2A346287800289BD1BDE8F88F59
:1018F000641D01080E000020100000202DE9F84FA3
:1019000006460F4614461D464FF0000AD3460020F7
:1019100000907819401E83B23019401E82B23946B9
:101920003046FFF7BDFE04FB05F040000090D046B6
:1019300025E04FF000091CE00BF101010A9810F8B6
:1019400001A04FF6FF7000EA0A2A0A9810F80B006F
:1019500040EA0A0A07EB080291B206EB090290B2CC
:101960005246FFF72FFE0BF1020B09F101001FFA9F
:1019700080F9A145E0DB08F101001FFA80F8A845D5
:10198000D7DBBDE8F88F2DE9F84704460D469046B1
:101990009946DDE9096704F0FF0A08EB04001FFA25
:1019A00080F809EB05001FFA80F916E0444502DBD8
:1019B0005446A81985B24D4500DB14E00020009084
:1019C0003A78334629462046FFF790FE304606EB2C
:1019D000D07104EB61018CB27F1C38787E2802DC68
:1019E00038782028E2DA00BFBDE8F887014908808E
:1019F00070470000FE07006C014908807047000036
:101A00000008006C0112024A1180C1B211807047B7
:101A10000008006C00B585B000BF1B48806940F02D
:101A20000800194988610846806900F008000090A4
:101A300000BF00BF00BF0846806940F040008861D9
:101A40000846806900F04000009000BF00BF2020E1
:101A500001900120029003900320049001A90B48FB
:101A6000FEF73AFD2020019001A90948FEF734FD58
:101A7000012220210548FEF7CFFE01222021044843
:101A8000FEF7CAFE05B000BD00100240000C014088
:101A90000018014000BFFEE77047704708B50849CD
:101AA0000968C9084FF47A72B1FBF2F14143009121
:101AB00000BF00BF00994A1E00920029F9D108BD5D
:101AC00000000020704710B5FEF7B2FE10BD000008
:101AD00010B504460420FFF74BFB0148046010BD1D
:101AE0001C00002030B58FB0054600240120059071
:101AF000000406900020079002200C90C1030D9175
:101B00000E9505A8FFF774F804460CB100BFFEE778
:101B10000F20009002200190002002904FF480607E
:101B200003900020049002216846FEF72BFF044634
:101B30000CB100BFFEE70FB030BD000011480068D7
:101B400040F001000F490860084640680E4908400F
:101B50000C494860084600680C490840094908607B
:101B60000846006820F4802008600846406820F499
:101B7000FE0048604FF41F008860C80304490860F5
:101B800070470000001002400000FFF8FFFFF6FE63
:101B900008ED00E000B593B000BF2648806940F032
:101BA0000800244988610846806900F00800009018
:101BB00000BF00BF01200F901090119003201290E1
:101BC0000FA91D48FEF788FC4FF020401B49086014
:101BD0001B4848600620886000211848C1600161E8
:101BE0001021416100218161C16141624FF4805146
:101BF00081620021C1624FF4804101630021416391
:101C000081630F200890002009903C200A9000205A
:101C10000E9004900920019000200290082003906B
:101C20000020079001AA08A90448FFF713FA13B08F
:101C300000BD000000100240000C01402800002000
:101C4000040100A010B5FFF7A5FF322000F07EFCD4
:101C5000D020FFF7CBFEFFF7F1FC89498880FFF722
:101C6000EDFC874988800846818886A000F0D2FA7A
:101C70001120FFF7BBFE4FF4FA7401E0601E84B23E
:101C8000002CFBDCB920FFF7B1FEFF20FFF7B4FE0C
:101C90008320FFF7B1FE5720FFF7AEFE4FF4FA7432
:101CA00001E0601E84B2002CFBDCB120FFF79EFE39
:101CB0000020FFF7A1FE1420FFF79EFE1C20FFF777
:101CC0009BFE1C20FFF798FEC320FFF795FE4420E3
:101CD000FFF792FE7020FFF78FFE4FF4FA7401E0D9
:101CE000601E84B2002CFBDCB420FFF77FFE2220B4
:101CF000FFF782FE4020FFF77FFE0020FFF77CFE0B
:101D00002A20FFF779FE2A20FFF776FE2020FFF732
:101D100073FE9120FFF770FE4FF4FA7401E0601E2D
:101D200084B2002CFBDC3620FFF760FE4C20FFF76E
:101D300063FEC020FFF75AFE5020FFF75DFE5020E3
:101D4000FFF75AFE0120FFF757FE3C20FFF754FE35
:101D5000C820FFF751FE0820FFF74EFE0020FFF7D6
:101D60004BFE0820FFF748FE0420FFF745FE4FF426
:101D7000FA7401E0601E84B2002CFBDC4FF4FA74AC
:101D800001E0601E84B2002CFBDCE020FFF72EFE99
:101D90000B20FFF731FE1120FFF72EFE1E20FFF76C
:101DA0002BFE3020FFF728FE3A20FFF725FE4320C8
:101DB000FFF722FE4E20FFF71FFE5620FFF71CFE06
:101DC0004520FFF719FE3F20FFF716FE3920FFF7E9
:101DD00013FE3220FFF710FE2F20FFF70DFE2A2002
:101DE000FFF70AFE2920FFF707FE2120FFF704FE78
:101DF0000B20FFF701FE1120FFF7FEFD1E20FFF76D
:101E0000FBFD3020FFF7F8FD3A20FFF7F5FD4320FA
:101E1000FFF7F2FD4E20FFF7EFFD5620FFF7ECFD38
:101E20004520FFF7E9FD3F20FFF7E6FD3920FFF7EA
:101E3000E3FD3220FFF7E0FD2F20FFF7DDFD2A2034
:101E4000FFF7DAFD2920FFF7D7FD2120FFF7D4FDAA
:101E50000020FFF7D1FD0120FFF7CEFD3A20FFF76C
:101E6000C5FD0520FFF7C8FD2920FFF7BFFD0020B5
:101E7000FFF784FB4FF6FF70FFF75CFB10BD00001F
:101E800012000020204C43442049443A25780D0A92
:101E90000000000070B505466C6A0020E085E08413
:101EA0002046FFF793F970BD0168C96821F490716D
:101EB0000268D1600168496921F00101026851613D
:101EC000202180F83A10704710B504462068C06899
:101ED00020F040002168C860202084F839002046A6
:101EE000FFF724FB002010BD70B5044694F83A00BB
:101EF00022284AD1A068B0F5805F13D1A56A206975
:101F000040B920684068C0F308002880A06A801C9F
:101F1000A06219E020684068C0B22880A06A401C16
:101F2000A06211E0206938B920684068C1B2A26A95
:101F3000501CA062117007E02068406800F07F012B
:101F4000A26A501CA0621170E08D401E80B2E08534
:101F5000C8B92068C06820F020002168C8602068E7
:101F6000C06820F480702168C8602068406920F053
:101F7000010021684861202084F83A002046FFF7DC
:101F800091FA002070BD0020FCE70220FAE7000073
:101F900070B504462168096921F44051E268114393
:101FA000226811612269A1681143626941EA020550
:101FB0002168C96841F20C62914329432268D160CB
:101FC0002168496921F44071A26911432268516175
:101FD000564A2168914254D1FEF7B0FD00EBC00192
:101FE00001EB001162689200B1FBF2F100EBC0025C
:101FF00002EB001263689B00B2FBF3F26423B2FBB6
:10200000F3F202EBC20303EB0212A1EB82013222D4
:1020100002EB01116422B1FBF2F101F0F00100EBDF
:10202000C00202EB001263689B00B2FBF3F2642370
:10203000B2FBF3F201EB021200EBC00101EB001165
:1020400063689B00B1FBF3F100EBC00303EB0013EB
:102050006668B600B3FBF6F36426B3FBF6F303EB56
:10206000C30606EB0313A1EB8301322303EB01113B
:102070006423B1FBF3F101F00F0111442268916078
:1020800053E0FEF74BFD00EBC00101EB001162686D
:102090009200B1FBF2F100EBC00202EB00126368A8
:1020A0009B00B2FBF3F26423B2FBF3F202EBC20338
:1020B00003EB0212A1EB8201322202EB0111642236
:1020C000B1FBF2F101F0F00100EBC00202EB0012F3
:1020D00063689B00B2FBF3F26423B2FBF3F201EB03
:1020E000021200EBC00101EB001163689B00B1FB21
:1020F000F3F100EBC00303EB00136668B600B3FB1B
:10210000F6F36426B3FBF6F303EBC30606EB031307
:10211000A1EB8301322303EB01116423B1FBF3F143
:1021200001F00F0111442268916070BD0038014038
:10213000014691F8390021282CD18868B0F5805FDC
:102140000FD10A6A1088C0F308000B68586008694C
:1021500018B9086A801C086209E0086A401C086215
:1021600005E00B6A581C086218780B685860C88C28
:10217000401E80B2C88458B90868C06820F080004A
:102180000B68D8600868C06840F040000B68D860F1
:10219000002070470220FCE710B500240C48FFF730
:1021A00021F800BF01E0641C00BF0948FFF70FF8E9
:1021B0002028F8D100BF002401E0641C00BF0122E8
:1021C00004490348FFF736F90028F6D100BF10BDD7
:1021D000700000202200002010B5044609480A497A
:1021E00008600846446000218160C160016181612E
:1021F0000C214161FFF79CF8012204490248FFF7D6
:1022000019F910BD003801407000002022000020A4
:1022100000BFFEE70FB4054B10B503A9044A0298AE
:1022200000F034F810BC5DF814FB0000AD25000888
:102230002400002002480068C0F30220704700001C
:102240000CED00E010B5002804DB0A07130E054A68
:10225000135406E00A07140E034A00F00F031B1F75
:10226000D45410BD00E400E018ED00E002E008C81E
:10227000121F08C1002AFAD170477047002001E000
:1022800001C1121F002AFBD1704700002DE9FF4F4A
:102290008DB09B460F460446002606E025280BD04D
:1022A0005A460F999047641C761C20780028F5D177
:1022B00011B03046BDE8F08F0025A84601229849AC
:1022C00000E0054314F8013F203B02FA03F0084206
:1022D000F7D120782E2817D114F8010F45F0040506
:1022E0002A280ED06FF02F022078A0F130010929A2
:1022F0000AD808EB880102EB410100EB0108641CDD
:10230000F2E757F8048B641C20786C280DD004DCAD
:102310004C2812D06A2811D104E074280DD07A28F4
:102320000CD10AE045F4001507E0617845F480150A
:10233000814202D1641C05F58015641C207869284F
:1023400044D008DC0028B3D0582867D063280FD0C9
:10235000642808D13AE0702865D0732812D0752817
:102360005AD078285AD05A460F999047761CD5E013
:1023700017F8040B8DF8000000208DF80100E946E5
:10238000012003E057F8049B4FF0FF3069074FF03E
:10239000000501D40AE06D1C45450DDA8542FADBE3
:1023A00019F805100029F6D106E06D1C8542FCDB0A
:1023B00019F805100029F8D12E4404E019F8010B92
:1023C0005A460F9990476D1EF8D2A7E00A200021C7
:1023D000CDE90801C5F3025002280CD001CFC11786
:1023E000021E71F100020CDA0023D0EB030063EB54
:1023F00001012D2208E0FF1D27F00707F7E8020181
:10240000EEE72A0504D52B228DF8282001223CE096
:10241000EA073AD02022F7E70A2000E01020002146
:10242000CDE9080107E01020002145F00405CDE9C1
:1024300008014FF00808C5F30250022810D001CF60
:1024400000214FF0000A2A0720D52278702A0DD0EB
:10245000DDE908C38CF0100C5CEA030C0CD015E02D
:10246000FF1D27F00707F7E80201EAE740228DF891
:1024700028204FF0010A0CE050EA010306D0302377
:102480008DF828308DF82920022292462278582A89
:1024900004D024A20DF120090B9209E026A2F9E74D
:1024A000DDE90823FDF762FE0B9B9B5C09F8013D0B
:1024B00050EA0102F4D1ADEB090020300890680722
:1024C00001D44FF001080899884503DD0898A8EB6E
:1024D000000000E000208046002506E00AA85A46D9
:1024E000405D0F9990476D1C761C5545F6DB04E066
:1024F00030205A460F999047761CB8F10001A8F198
:102500000108F5DC05E019F8010B5A460F999047D0
:10251000761C0899481E08900029F4DC641CC4E667
:1025200009280100303132333435363738396162A9
:10253000636465660000000030313233343536376D
:1025400038394142434445460000000030B5044656
:10255000002504E04FF47A7000F004F86D1CA542E9
:10256000F8D330BD70B5034600224FF0E026756900
:102570000D4E366803FB06F44FF0E026B16910E01B
:102580004FF0E026B06988420BD0884202D20E1A82
:10259000324402E02E1A0E4432440146A24200D3D5
:1025A00000E0EDE700BF70BD1C00002000BF054A41
:1025B000126802F04002002AF9D0C2B2014B1B1D82
:1025C0001A607047003801401CB500240025FEF752
:1025D0003BF94FF4E010FFF785FA4820FFF778FA4F
:1025E0004FF4E130FFF7F8FDFFF714FAFFF72AFB8D
:1025F00000203449088034A00C21CDE90010364871
:10260000438802880A210846FFF7BDF92EA0102151
:10261000CDE900103048438802881E210A20FFF7C8
:10262000B2F929A01821CDE900102B48438802886F
:1026300032210A20FFF7A7F928A250210A20FFF72C
:10264000E9F829A01821CDE9001023484388028821
:1026500078210A20FFF797F948F23040B4233C2252
:10266000962100900A20FEF7BBFFA0211420FEF760
:10267000EBFF0546B4239622114664200095FEF731
:10268000AFFF29461CA0FFF7C5FD1E487023C822D6
:10269000DC2100901420FFF731F912E0601CC4B275
:1026A000142094FBF0F100FB114038B91648006883
:1026B00008B9012000E00020134908600A20FFF754
:1026C00045FFEBE70E00002048656C6C6F20576FEC
:1026D000726C64210000000012000020C6D5D6D024
:1026E000BFC6BCBC000000007777772E70726563B0
:1026F00068696E2E636E0000636F6C6F723D2578A3
:102700000D0A00000C270008948121428A4A8A4A57
:102710008A4A8A4A8A4A8A4A8A4A8A4A8A4A8A4A19
:102720008A4A8A4A8A4A8A4AAA52AA52AA52AA5269
:10273000AA52AA52AB52AB52AB52AB52AB52CB5293
:10274000CB52CB52CB52CB52CB52CB52CB52CB52A1
:10275000EB5ACB52CB52EB5AEB5AEB5AEC5AEB5AA0
:10276000EC5A0C5B0C5B0C5BEC5A0C5B0C5B0C5B73
:102770000C5B0C5B0C5B2C632C630C5B2C630C5BA9
:102780002C630C632C5B2C630C5BEB5A4D634D6329
:102790004D634D6BEC5A2C630C5B6E6BAA5224217B
:1027A000A218E3184529042104212421E318C318A1
:1027B000A218C318C318A218A218C218A210821017
:1027C000A210A21082106108610840084108610847
:1027D000821061104008610841088210A210E320B5
:1027E000C318C318E320653108420842EB5AAB52C4
:1027F0004D6B4D634D634D634D634D634D636D6B29
:102800004D634D6B4D6B4D634D634D634D634D6338
:102810004D634D634D632D634D632D632D632D63B8
:102820002C632C632C630C632C630C630C630C5BB8
:102830000C630C630C5B0C630C630C5BEC5AEC5A82
:10284000EC5AEC5AEC5AEC5AEC5AEC5AEB5AEB5A5A
:10285000CB5AEB5ACB5AEB5ACB5ACB5ACB5ACB5218
:10286000CB5AAB52AB52AB52AB52AB52AB52AA5259
:10287000AA528A52AA528A52AA528A528A528A5218
:102880008A528A528A528A528A528A4A8A4A8A5278
:102890006A4A8A4A8A4A8A4A6A4A8A4A8A4A8A4AD8
:1028A0008A4A8A4A8A4A8A4A8A4A8A4A8A4A8A4A88
:1028B0008A4AAA528A4AAA52AA52AA52AA52AA5288
:1028C000AA52AB52AA52AB52AB52CB52CB52CB52C2
:1028D000CB52CB52CB52CB52CB52CB52EB5ACB52E8
:1028E000CB52CB52EB5AEB5AEB5AEC5AEB5AEC5A0E
:1028F0000C5B0C5B0C5B0C5B0C5B0C5B0C5B0C5BA0
:102900000C5B2C632C630C5B2C632C632C632D639E
:102910000C630C632C632C634D63EC5A2C634D6B7E
:102920004D6BCB5A4D6B0C5B6C6B86316110A310F9
:102930000421252904210421E420E318C318A31845
:10294000C318C318A318821081108210A21861083E
:1029500041088210611061082108400861082008C0
:1029600041086108821061088210410861088210E4
:10297000E3200421C318A210C3186529C739AA523D
:102980006A4A4D636E6B4D638E6B4D636D6B6D6B01
:102990006D6B6D6B6D6B6D6B4D6B4D6B4D6B4D6BF7
:1029A0004D634D634D634D634D6B4D634D632D63BF
:1029B0002D632C632D632C632C632C632C632C639D
:1029C0000C630C630C630C630C5B0C5B0C5B0C5BAF
:1029D0000C5BEC5A0C5B0C5BEC5AEC5AEC5AEB5A65
:1029E000EB5AEB5ACB5ACB5AEB5ACB5ACB5ACB5A5F
:1029F000CB52CB5ACB52CB52AB52AB52AB52AB5267
:102A0000AA52AA52AA528A528A52AA528A528A5266
:102A10008A528A528A528A528A4A8A4A8A528A52E6
:102A20008A4A6A4A6A4A8A4A6A4A8A4A8A4A8A4A66
:102A30008A4A8A4A8A4A8A4A8A4A8A4A8A4AAA52CE
:102A4000AA528A4AAA52AA52AA52AA52AA52AA52CE
:102A5000AB52AB52AA52CB52AB52CB52CB52CB520F
:102A6000CB52CB52CB52CB52CB52CB52EB5AEB5A2E
:102A7000EB5AEB5AEB5AEB5AEB5AEC5AEC5A0C5B0A
:102A80000C5B0C5B0C5B0C5B0C5B0C5B0C5B0C5B0E
:102A90000C5B2C632C632C632C632C630C632D6305
:102AA0004D630C5B0C5B4D632C632C630C634D63BB
:102AB000EB5A4D6B2C63EB5AE3206110C3182529A8
:102AC000042124214529252904210421E320E32090
:102AD000C318A218A218A210610841086110C318F7
:102AE000811081108110A21061088210A218A21812
:102AF0008210821081108110A21021084108410823
:102B00006210E3206529242182108210E3188631A7
:102B10008A528A520C636D6B4D638E6B8E6B6E6B3B
:102B20008E6B6D6B6D6B6D6B6D6B6D6B4D6B4D6B04
:102B30006D6B6D6B4D634D6B4D6B4D6B4D6B4D6B9D
:102B40002D634D634D632D632C632C632C632C63C9
:102B50002C632C632C632C5B0C5B0C5B0C630C5B9D
:102B60000C5B0C5B0C5B0C5B0C5B0C5BEC5AEB5A70
:102B7000EC5AEC5AEB5AEB5AEB5AEB5ACB5ACB5A6B
:102B8000CB5ACB5ACB5ACB52AB52AB52AB52AB52C5
:102B9000AB52AA52AA52AA52AA528A52AA528A5294
:102BA0008A528A528A528A528A528A528A528A5245
:102BB000894A8A4A6A4A6A4A8A4A8A528A4A8A4AAE
:102BC0008A4A8A4A8A4A8A4A8A4A8A4A8A4AAA523D
:102BD0008A4AAA52AA52AA52AA52AA52AA52AA523D
:102BE000AA52AB52AB52AB52AB52CB52CB52CB529E
:102BF000CB52CB52CB52EB5ACB52EB5AEB5AEB5A4D
:102C0000EB5AEB5AEB5AEC5AEC5A0C5B0C5B0C5B34
:102C10000C5B0C5B0C5B0C5B0C5B0C5B0C5B0C5B7C
:102C20002C632C632C632C632C632D632C634D630A
:102C30004D632D632C632C634D6B2D63EB5AEC5A63
:102C40004D6BEC5A69528110A218E320042124290B
:102C5000452945292421E318C318E320C31882100D
:102C6000C318C318E320A218A2188210A210A21041
:102C7000C2188210A218C318E318A2188210A21852
:102C80008210611061088210811082106110610849
:102C90006108A210A218252945290421821061107B
:102CA00024292842694A0C634D6B8E6B8E6B8E6BA8
:102CB0008E6B6E6B6E6B6E6B6E6B6D6B6D6B6D6B2F
:102CC0006D6B6D6B6D6B4D6B6D6B4D6B4D6B4D6BC4
:102CD0004D6B4D6B4D634D634D634D634D632C6385
:102CE0002C632C632C632C630C630C630C5B0C5BFC
:102CF0000C5B0C5B0C5B0C5B0C5B0C5BEC5AEC5ADE
:102D0000EB5AEB5AEB5AEB5AEB5AEB5ACB5ACB5ADB
:102D1000CB5ACB5ACB5ACB5ACB52AB52AB52AB520B
:102D2000AB52AB52AA52AA52AA52AA528A528A5201
:102D30008A528A528A528A528A528A528A4A8A52BB
:102D40008A4A8A528A4A8A4A6A4A8A528A4A8A4AF3
:102D50008A4A8A4A8A4A8A4A8A4A8A4A8A4A8A4AD3
:102D60008A4AAA52AA52AA52AA52AA52AA52AA52AB
:102D7000AB52AA52CB52CB52CB52CB52CB52CB52AC
:102D8000CB52EB5AEB5AEB5ACB52CB52EB5AEB5A93
:102D9000EB5AEB5AEB5AEB5AEC5AEC5A0C5B0C5BC5
:102DA0000C5B0C5B0C5B0C5B0C5B2C632C632C6373
:102DB0002C632C632D632C634D634D634D632D6336
:102DC0006D6B2C634D632C634D6B4D6BAA520C6382
:102DD0000C63284A8110C218E320042125296529A3
:102DE0004529E320242104210421C318C318C31852
:102DF000A21061108110E3200421C31882108110F9
:102E0000C3180421E320A218C318A218821061106D
:102E100061104110811061108210A21082104008D0
:102E2000811061088210C318242924212529E42057
:102E3000821004212842694A0C5B2C638E6B8E6BD6
:102E40008E6B8E6B8E6B8E6B6E6B8E6B8E6B6E6BFA
:102E50006D6B6D6B6D6B6D6B4D6B4D6B4D6B4D6B32
:102E60006D6B4D6B4D6B4D634D634D634D632D63CA
:102E70002D632C632C632C630C632C632C5B0C5B29
:102E80000C5B0C5B0C5B0C63EC5A0C63EC5AEC5A5D
:102E9000EC5AEC5AEB5AEB5AEC5AEB5ACB5AEB5A27
:102EA000CB5ACB5ACB5ACB5ACB5ACB52CB52AB5232
:102EB000AB52AB52AA52AA52AB528A528A52AA526F
:102EC0008A528A528A528A528A528A528A528A5222
:102ED0008A4A8A4A8A526A4A6A4A8A528A4A8A4A82
:102EE0008A4A8A4A8A4A8A4A8A4AAA52AA52AA52CA
:102EF000AA528A528A52AA52AA52AA52AA52AB5231
:102F0000AB52AA52CB52CB52CB52CB52CB52CB521A
:102F1000CB52EB5AEB5ACB52EB5AEB5AEB5AEB5AD9
:102F2000EB5AEC5AEB5A0C5B0C5BEC5A0C5B0C5BEF
:102F30000C5B0C5B0C5B2C632C632C632C632C6391
:102F40002C632D632D632D632D634D634D634D63A2
:102F50002C636D6B6D6B2D632C632C630C638A5239
:102F6000C6398110A2180421242124298631042184
:102F7000042145290421E320C318C3180321E320B9
:102F8000C318E320E320E320E32004212429453172
:102F9000653103210321E320A218A218A218821090
:102FA000821082108210611081106110A2106108DD
:102FB000200841086108C218C31845294529E320A3
:102FC000E318A218E318A63989520C630C636E6BE0
:102FD0008E738E6B8E6B8E6B8E6B8E6B6D6B6E6B62
:102FE0008E6B6E6B6E6B6D6B6E6B6E6B6D6B6D6BFC
:102FF0006D6B6D6B4D6B4D6B4D634D634D634D63F1
:103000004D634D632D632C632C632C632C632C6305
:103010002C630C5B0C5B0C5B0C5B0C630C630C5B40
:103020000C5BEC5AEC5AEC5AEB5AEB5AEB5AEB5A53
:10303000EB5ACB5ACB5ACB52CB52CB5ACB5ACB5260
:10304000CB52AB52AB52AA52AB52AA528A528A52BC
:10305000AA52AA528A528A528A528A528A528A5250
:103060008A528A528A526A4A6A4A8A528A4A8A4AE0
:103070008A4A8A4A8A4A8A4AAA52AA528A4AAA5238
:10308000AA52AA52AA52AA52AA52AA52AA52AB525F
:10309000AB52AB52CB52CB52CB52CB52CB52CB5288
:1030A000CB52CB52EB5AEB5AEB5AEB5AEC5AEB5A47
:1030B000EC5AEC5AEC5A0C5B0C5B0C5B0C5B0C5B3B
:1030C0000C5B2C632C632C632C632C632C632D63AF
:1030D0002D634D634D634D634D634D634D636D6B68
:1030E0004D634D638E6B6D6B0C63AB522C63A639D5
:1030F0008110C3184529252924214529242124216B
:10310000452924292429042104212429821061101D
:10311000C318C318A2108210E31844294429242993
:1031200024292429E320C318A218C318C218821026
:103130008210821082108210A210A2108210A21897
:1031400061106108A210C218E3182429242924213F
:10315000E318E318C318C21865298A522C632D633B
:103160004D6BAE73AE73AE736E6B6E6B8E6B8E6BA0
:103170008E6B8E6B8E6B8E6B8E6B6E6B8E6B6E6BC7
:103180006E6B6D6B6D6B6D6B6D6B4D634D634D63F6
:103190004D634D634D634D632D632C632C632C6332
:1031A0002C632C632C632C5B0C630C630C630C5B37
:1031B0000C63EC5AEC5AEC5AEC5AEB5AEC5AEB5AB8
:1031C000EB5AEB5AEB5ACB5ACB52CB5ACB5ACB5A7F
:1031D000CB5ACB52AB52AB52AB52AB52AA52AA52C1
:1031E000AA52AA528A528A528A528A528A528A52BF
:1031F0008A528A528A4A8A4A8A4A8A528A4A8A4A17
:103200008A4A8A4A8A4A8A4AAA52AA52AA52AA527E
:10321000AA52AA52AA52AA52AA52AA52AB52AB52CC
:10322000CB52CB52CB52CB52CB52CB52CB52CB52B6
:10323000EB5AEB5AEB5AEB5AEB5AEB5AEB5AEC5A65
:10324000EC5A0C5BEC5A0C5B0C5B0C5B0C5B0C5B88
:103250000C5B2C632C632C632C632D632D634D63FB
:103260004D634D634D634D634D634D636D6B6D6B8E
:103270004D6B4D6B2C636D6BCA5A2C63853161109D
:10328000A2180421042124294529E31845294529A8
:103290002429452904210321E3204108A210C31851
:1032A00004210429452986316531242944294429EA
:1032B0000321C3200321E320E32061106110821069
:1032C00061104108410861106110A218611082105C
:1032D000A21061086108A210C318E318E420E318E3
:1032E000E320A210C318A318A2104529CB5A2D63BE
:1032F0004D6B4D6B6D6B8E6BAE73AE738E6B8E6B59
:103300008E6B8E6B8E6B8E6B8E6B8E6B8E6B8E73ED
:103310008E6B6D6B8E6B6D6B6D6B6D6B4D6B6D6BCB
:103320004D634D6B4D634D634D634D634D632C6336
:103330002C632C632C632C630C630C630C630C6395
:103340000C630C5B0C5BEC5AEC5AEC5AEB5AEB5AE4
:10335000EB5AEB5AEB5ACB5ACB5ACB5ACB5ACB5AE5
:10336000CB52CB52CB52AB52AB52AA52AB52AA5217
:10337000AA52AA52AA528A528A528A528A528A520D
:10338000AA528A528A528A528A4A8A528A4A8A4A55
:103390008A4A8A4A8A4AAA528A4AAA52AA52AA52ED
:1033A000AA52AA52AA52AA52AA52AB52AB52AB523A
:1033B000CB52CB52CB52CB52CB52CB52CB5AEB5AF5
:1033C000EB5AEB5AEB5AEB5AEB5AEC5AEC5AEC5AD2
:1033D000EC5AEC5A0C5B0C5B0C5B0C5B0C5B2C63CF
:1033E0002C632C632C632C632C632D634D634D6322
:1033F0004D634D634D634D636D6B6D6B6D6B6D6BAD
:103400004D6B6D6B4D6BCB5A0C5BA6398110A318BD
:10341000E320042145290421E4206531863165310A
:10342000042104210421C218821004216529A6392F
:10343000853165318539242924294431E320C21896
:10344000E320A218611061108210E320811041086E
:10345000611081106110611061088210811061108B
:103460006110A21861106110A218E32025294529D6
:10347000E420C31882108210C318A21024296D6B97
:103480000C630C5B6D6B6E6BAE738E6B8E6B8E6BA9
:103490008E6B8E6B8E6B8E6B8E6B8E6B8E6B8E6B64
:1034A0008E6B8E6B8E6B8E6B8E6B6D6B6D6B6D6BB7
:1034B0006D6B4D6B4D634D634D634D634D632D637C
:1034C0004D632C632C632C632C630C630C630C63C3
:1034D0000C5B0C630C5B0C5B0C63EC5AEC5AEB5A08
:1034E000EB5AEC5AEB5ACB5AEB5ACB5ACB5ACB5A33
:1034F000CB5ACB52CB52CB52AB52AA52AB52AA525E
:10350000AA52AA52AA528A528A528A528A528A527B
:103510008A528A528A528A528A4A8A528A4A8A4AE3
:103520008A4A8A4AAA528A4AAA52AA52AA52AA5233
:10353000AA52AA52AA52AA52AB52AB52AB52AB52A7
:10354000CB52CB52CB52CB52CB52CB5AEB5ACB5A5B
:10355000EB5AEB5AEB5AEB5AEC5AEB5A0C5B0C5BFE
:103560000C5B0C5B0C5B0C5B0C5B0C5B2C632C63D3
:103570002C632C632D632C632C634D634D634D636F
:103580004D636D6B6D6B6D6B6D6B6D6B6D6B8E6B82
:103590006D6B6E6B0C63CB5A07426110C318E31856
:1035A00024214529242904216531A63904214529EE
:1035B00025292429E32004216531A63165316531AF
:1035C000A639653124292429E320C320E320C21829
:1035D000A218A2108210C21882108210E320C31811
:1035E000A2108110611040088210811081106110BA
:1035F00061108110821041088210A21804216631E6
:103600002429E318C318A2188210C218C218032173
:103610000C634D6B2D63EB5A4D6B8E73AF73AF73B1
:10362000AF73AF73AE73AE738E6BAE738E6BAE73E0
:103630008E6B8E6B8E6B8E6B8E6B6E6B6E6B6D6B23
:103640006D6B6D6B6D6B4D634D634D634D634D6382
:103650004D634D632D632C632C632C632C632C63AF
:103660002C5B0C5B0C630C5B0C5B0C5BEC5AEC5A3C
:10367000EC5AEB5AEB5AEB5AEB5ACB5AEB5ACB5A61
:10368000CB5ACB5ACB5ACB52CB52AB52AA52AA529C
:10369000AA52AA52AA52AA52AA52AA528A528A528A
:1036A0008A528A528A528A528A52AA528A4A8A4A2A
:1036B0008A4AAA52AA52AA52AA52AA52AA52AA5252
:1036C000AA52AA52AA52AA52AA52AB52AB52CB52F7
:1036D000CB52CB52CB52CB52CB52EB52EB5AEB5A92
:1036E000EB5AEB5AEB5AEC5AEB5A0C5B0C5B0C5B4B
:1036F0000C5B0C5B0C5B0C5B0C5B2C632C632C631A
:103700002C632C634D634D634D634D634D634D637B
:103710004D636D6B6D6B6D6B6D6B6E6B6D6B8E6BEF
:103720006D6B0C63CB52694A8110A218C318042137
:103730004529E3202429863165310421863165310C
:10374000452924292429452945296631A639863960
:10375000653124292429242944294429E320E3200C
:10376000A218C318C3188210A218811081108210E9
:103770006110A218821861108210A21082108110AC
:10378000821061108210611061086110A218C320BC
:10379000653165310421A318C318A210C218A218FC
:1037A0008631CB5A0C63AF734D6B4D6BCF73AE73D9
:1037B000AE73AE73AF73AE73AE73AE73AE73AE7300
:1037C000AE738E6BAE738E6B8E6B8E6B8E6B6E6B01
:1037D0006E6B6E6B6D6B6D6B6D6B4D6B4D634D6397
:1037E0004D634D634D632D632D632C632C630C631C
:1037F0002C632C630C5B0C630C630C630C5B0C5B29
:10380000EC5AEC5AEC5AEB5AEB5AEB5AEB5ACB5AAD
:10381000CB5ACB5ACB5ACB5ACB5AAB52AB52AB52F8
:10382000AB52AB52AB52AB52AA52AA52AA52AA52B4
:10383000AA528A528A528A528A528A528A4A8A4A98
:103840008A4AAA52AA528A4AAA52AA52AA52AA52E8
:10385000AA52AA52AB52AB52AB52AB52CB52CB5242
:10386000CB52CB52CB52CB52EB5AEB5AEB5AEB5AD0
:10387000EB5AEC5AEC5AEC5AEC5A0C5B0C5B0C5BB6
:103880000C5B0C5B0C5B2C632C632C632C632C6338
:103890002C632D634D634D634D634D634D634D63E9
:1038A0006D6B6D6B6D6B6D6B6E6B8E6B6E6B8E730C
:1038B0000C630C63CA5AA218A218C3182429242125
:1038C000C31865316531452945296531452986315A
:1038D0004529242965316531C639A6392429242989
:1038E0006531653145314429E320C318C218A21857
:1038F000C318A218A218C318A218A2188210611027
:10390000821082106110A218821082108210821020
:10391000A21882106110811061088210C218C318A9
:10392000C318E3206531E32061108210A218A218A9
:103930008210E7392C632C638E6B0C632D63CF737D
:10394000CF73AE73AE73AE73AE73AF73CF73AF732B
:10395000AF73AE73AE73AE738E6B8E738E6B8E6BF6
:103960006E6B8E6B6D6B6D6B6D6B6D6B6D6B4D639D
:103970004D634D6B4D634D632D632D632D632C6340
:103980002C632C632C630C630C630C630C630C5B67
:10399000EC5A0C5BEC5AEC5AEB5AEC5AEB5AEB5AD9
:1039A000CB5ACB5ACB5ACB5ACB5ACB52AB52AB5247
:1039B000AB52AB52AB52AA52AA52AA52AA528A5244
:1039C0008A52AA528A528A528A528A528A4A8A4A07
:1039D000AA528A4A8A4AAA52AA52AA52AA52AA5257
:1039E000AA52AA52AA52AB52AB52AB52CB52CB52B2
:1039F000CB52CB52CB52EB5AEB5ACB5AEB5AEB5A37
:103A0000EC5AEB5AEC5AEC5AEC5A0C5B0C5B0C5B24
:103A10000C5B0C5B0C5B2C632C632C632C632C63A6
:103A20004D634D634D634D634D636D6B6D6B6D6B9E
:103A30006D6B6D6B6D6B6E6B8E6B6E6B8E6B6D6B82
:103A40000C63AA5224298210A2180421E420E3184E
:103A500024214529042145294529653185318631AF
:103A600044298531A639C641A63965318639A6393A
:103A7000653185312429E320C32004210421E3207A
:103A8000C318A218A218611082108210A218821006
:103A9000811081108110A210A218A2188110A21802
:103AA000A218E3208210A21861104108A218E32096
:103AB0002529242904214529E31882104108811071
:103AC0008210E3208A526D6BAE738E734D6B8E73D2
:103AD000F07BCF73CF73CF73CF73CF73CF73CF73AD
:103AE000CF73AF73AF73AE73AE73AE738E6B8E6BFB
:103AF0008E6B8E6B8E6B8E6B6E6B6E6B6D6B6D6B80
:103B00006D634D6B4D6B4D634D634D634D634D6305
:103B10002D632C630C630C630C630C630C630C63EC
:103B20000C5B0C5B0C5BEC5AEC5AEB5AEC5AEB5A04
:103B3000CB5AEB5ACB5ACB5ACB5ACB5ACB5AAB5265
:103B4000AB52AB52AB52AB52AA52AA52AA52AA5291
:103B50008A52AA52AA528A528A528A528A4A8A4A55
:103B6000AA528A4AAA528A4AAA52AA52AA52AA52C5
:103B7000AA52AA52AB52AB52AB52CB52CB52CB52FF
:103B8000CB52CB52CB52CB52EB5AEB5AEB5AEB5AAD
:103B9000EC5AEB5A0C5B0C5B0C5B0C5B0C5B0C5B30
:103BA0000C5B0C5B2C632C632C634D632C634D63AB
:103BB0004D634D634D636D6B4D636D6B6D6B6D6BE5
:103BC0006E6B6D6B6E6B8E6B8E6B8E6B8E6B8E6B8E
:103BD000AA52A63182108210E320C31804210421C6
:103BE00024290421452904216531653165310421E9
:103BF0006531A639A63965316531A63924294531A3
:103C00004429E320C31824294531E320C318A2180E
:103C1000C318C318C318E320A21882108210A21878
:103C2000C218A218A218A218A218C218E320A2183B
:103C3000C218C218C218A218611041086110A21857
:103C40000421452924290421E320C218A218611067
:103C50008210A21804218A522D63EF7BAF730C5B94
:103C6000CF7BEF7BEF7BEF7BCF73CF73CF73CF73C4
:103C7000CF73CF73CF73CF73AF73AE73AE73AE73B7
:103C8000AE738E6B8E6B8E6B8E6B6E6B6E6B6D6BA5
:103C90006E6B4D6B4D6B4D6B4D634D634D634D6363
:103CA0004D632D632C632C632C630C630C630C63DA
:103CB0000C630C5B0C5BEC5AEC5AEC5AEB5AEB5A6B
:103CC000EB5ACB5ACB5ACB5ACB5ACB5ACB5ACB5AAC
:103CD000AB52AB52AB52AB52AB52AA52AA52AA52FF
:103CE000AA52AA528A528A528A528A528A4AAA529C
:103CF000AA528A4AAA52AA52AA52AA52AA52AA520C
:103D0000AB52AB52CB52AB52CB52CB52CB52CB522B
:103D1000CB52CB52CB52EB5AEB5AEB5AEC5AEC5AF1
:103D2000EB5AEC5A0C5B0C5B0C630C630C5B0C5B8E
:103D30002C632C632C632D634D632D634D634D63A6
:103D40004D634D636D6B4D636D6B6D6B6D6B6D6B2B
:103D50008E6B6E6B8E6B8E6B8E6B8E6B8E6B2C6325
:103D60002842A2108218A218C318E3200421452972
:103D70002429452924296531863165314529653154
:103D8000C739C639A6396531863145296531452996
:103D90006531442945290429E320E320C218821013
:103DA000821081108108821082108210821082108D
:103DB000A218A218C318C318E320E3204429E32063
:103DC000E3200321032144292429A2188210410859
:103DD0006110821004210421E320C318A21882106C
:103DE0008110A210821804216D6B4D6BAF7331846A
:103DF0000C63EF7BCF73CF73EF7BEF7BEF7BEF7BBE
:103E0000EF7BEF7BCF73CF73CF73AF73AF73AF73B2
:103E1000AF73AE738E6B8E6B8E6B8E6B8E6B8E6B89
:103E20008E6B6D6B6D6B6D6B4D6B4D634D6B4D6341
:103E30004D634D634D632D632C632C630C630C63E6
:103E40000C630C630C63EC5A0C5BEC5AEC5AEB5AA7
:103E5000EB5AEB5ACB5AEB5AEB5ACB5ACB5ACB52C2
:103E6000CB5ACB52CB52AB52AB52AB52AA52AA5204
:103E7000AA52AA528A528A528A52AA528A4AAA52EA
:103E80008A4AAA52AA52AA52AA52AA52AA52AA527A
:103E9000AB52AB52AB52CB52CB52CB52CB52CB529A
:103EA000CB52EB5AEB52EB5AEB5AEB5AEC5AEC5A18
:103EB0000C5B0C5B0C5B0C5B0C630C630C632C638A
:103EC0002C632C632C632C634D634D634D634D63F6
:103ED0004D636D6B6D6B6D6B6D6B6D6B6D6B8E6B29
:103EE0008E6B8E6B8E6B8E6BAE6BAF736D6B895200
:103EF000E320A218A318C318E3202429032145298D
:103F00000421242945294529663145296531C741C0
:103F1000A639A63986318631653165314531242986
:103F20002429442903290421C31882108210A218CD
:103F3000C318E320E320E320C318C318E320C32001
:103F400003210321042924310321653145316539D9
:103F50004531453144318539E641A639A2188210F0
:103F6000A210C318C318C3182421C318C318821081
:103F700081108110C218A218A6398E6B2D6310848F
:103F8000CF738E6B107CF07BF07BF07BEF7BEF7B55
:103F9000EF7BEF7BEF7BCF73CF73CF73CF73CF7399
:103FA000AF73AE73AE73AE73AE738E6B8E6B8E6B80
:103FB0008E6B6E6B8E6B6D6B6D6B4D6B6D6B4D6B3E
:103FC0004D6B4D6B4D6B4D632D632C632C630C63FC
:103FD0000C630C630C630C630C630C5BEC5AEC5AC3
:103FE000EC5AEB5AEB5AEB5ACB5ACB5ACB5ACB5A28
:103FF000CB5ACB5AAB52CB52AB52AB52AB52AA526A
:10400000AA52AA528A52AA528A52AA52AA528A4A38
:104010008A4AAA52AA52AA52AA52AA52AA52AA52E8
:10402000AB52AB52AB52CB52CB52CB52CB52CB5208
:10403000CB52EB5AEB5AEB5AEB5AEB5AEC5A0C5B5D
:104040000C5B0C5B0C5B0C5B0C630C630C632C63F8
:104050002C632C632D634D634D634D634D634D6342
:104060004D636D6B6D6B6D6B6D6B8E6B8E6B6E6B75
:104070008E6B8E6B8E6B8E6BAE73CF73AA52A6391E
:104080008210A218C318E320E320E3202429242966
:10409000E32065318631452945296531A639A639A0
:1040A000A63986318639653165312429242986313E
:1040B0002429C320E3208210C320042924290421B9
:1040C000E3200421442924292429452924292429B9
:1040D00024296531A63985398539A539074AA63994
:1040E000C741084AE741074A895AE7416531E32059
:1040F000E318E42004210421C318E320C318A21804
:10410000811082108210A218C318EC628E730C63A7
:1041100051844D633184107C107C107C107C107CA9
:10412000F07BEF7BF07BF07BF07BCF73CF73CF73B3
:10413000CF73CF73AF73AE73AF73AE738E6B8E6B83
:104140008E6B8E6B8E6B6E6B6E6B6E6B6D6B6D6B49
:104150004D6B4D6B4D6B4D6B4D632D632D632C6320
:104160002C630C630C630C630C630C5B0C5BEC5AF0
:10417000EC5AEC5AEB5AEB5AEB5ACB5ACB5ACB5A75
:10418000CB5ACB5ACB5ACB52AB52AB52AA52AA52B1
:10419000AA52AA528A528A528A52AA52AA528A4AC7
:1041A000AA52AA52AA52AA52AA52AA52AB52AB522D
:1041B000CB52CB52CB52CB52CB52CB52CB52CB5217
:1041C000CB52EB5ACB5AEB5AEC5AEB5AEC5A0C5BEB
:1041D0000C5B0C5B0C5B0C5B0C630C630C632C6367
:1041E0002C632C632D634D634D6B4D634D636D6B81
:1041F0006D6B6D6B6D6B6E6B6E6B8E6B8E6B8E6B9A
:104200008E6B8E6BAE73AE73CF730C63CB5A811013
:10421000A218C318C3180421E32024290321E32092
:10422000653124294429452966318631A6398631EC
:104230006631A639653166312429653186312429F4
:104240002429E320042945310429E320E3202429FB
:1042500024292429042944316531243185398539BB
:1042600044318539C641C641E6414852685A285210
:10427000685ACA62685A2C73AA62C641A639442990
:1042800004210421242924290421C318A218A218D6
:10429000A210811082108210821044296D6B8E73DF
:1042A0002C63EF7BCF7331843084107C107C107CC6
:1042B000107C107C107CF07BF07BF07BF07BF07B43
:1042C000CF73CF73CF73CF73AF73AF73AF73AE735F
:1042D0008E6B8E6B8E6B8E6B8E6B6E6B6E6B6D6B77
:1042E0006D6B6D6B4D6B4D6B4D6B4D632D632D6326
:1042F0002C632C630C630C630C630C630C63EC5A2F
:10430000EC5AEC5AEC5AEB5AEB5AEB5ACB5ACB5AC2
:10431000CB5ACB5ACB5ACB5ACB52AB52AB52AB52F5
:10432000AA52AA52AA52AA528A52AA528A4A8A4A1D
:10433000AA52AA52AA52AA52AA52AA52AB52CB527B
:10434000CB52CB52CB52CB52CB52CB52CB52CB5285
:10435000EB5AEB5AEB5AEB5AEC5AEC5A0C5B0C5BEF
:104360000C5B0C5B0C5B0C5B0C632C632C632C6395
:104370002D634D634D634D634D6B4D6B4D636D6BA5
:104380006D6B6D6B8E6B6E6B6E6B8E6B8E6B8E6BE7
:10439000AE73AE738E6BAE73AF73EB5A652982103A
:1043A000A218C318E320E320E320E320E32024291C
:1043B00004210321042124292429E7416531863978
:1043C000653165318531032165316531E32004298B
:1043D000E3200321C318A210E318242924296531FE
:1043E00086398531C6418539E7412852695A695A6B
:1043F0002752C6410752685A6852685A0B73685A66
:104400002B7B8C83EA6A2B732852074AC641863974
:10441000653124290421E320C318C318C318A21846
:10442000A21881108210A2188210A21869522C635F
:1044300010842C638E6B51843184308430843184B9
:10444000107C107C107C107C107CF07BF07BF07B6F
:10445000F07BEF73CF73CF73CF73CF73AF73AF7343
:10446000AE73AE738E6BAE6B8E6B8E6B8E6B8E6B14
:104470006E6B6D6B6D6B6D6B4D6B4D634D6B4D630B
:104480002C632C632C632C630C630C630C5B0C5B44
:10449000EC5AEC5AEC5AEB5AEC5AEB5AEB5ACB5A10
:1044A000CB5ACB5ACB5ACB52CB52AB52AA52AA526E
:1044B000AA52AA52AA52AA52AA52AA52AA528A4A44
:1044C000AA52AA52AA52AA52AB52AA52AB52AB5209
:1044D000CB52CB52CB52CB52CB52CB52CB52EB5ACC
:1044E000EB5AEB5AEB5AEC5A0C5BEC5A0C5B0C5B3C
:1044F0000C5B0C5B0C5B0C5B2C632C632D632D63E2
:104500002D634D634D634D634D634D6B6D6B6D6BF3
:104510006E6B6E6B8E6B6E6B6E6B8E6BAE738E6B2B
:10452000AE73AE738E6BCF730C6369526110A218B9
:10453000C218C318C318E320E320E3200321042199
:10454000E320032104214529A639653165318639E7
:10455000653145316531A6394531E32024292429C7
:10456000C318C318E32045294529A639284A4852CB
:1045700048526852895A89628962A9620B738D8395
:104580004F9C4B7B0A730B730B7B89628C8B2B7B51
:10459000AC8BCD8B2B7B274AE741C641A6416531C9
:1045A0002429E320E320E320C318A218A2188210D4
:1045B000A21081108210A218C218A2180429EB5A66
:1045C0002C638E73CB5A10843184107C30843184F8
:1045D000318431843084107C107C107C107CF07B22
:1045E000F07BF07BF07BEF7BCF73CF73CF73CF7318
:1045F000CF73AF73AF738F738E6B8E6B8E6B8E6B4F
:104600006E6B6E6B6D6B6D6B4D6B6D634D634D6B58
:104610004D632D632C632C630C632C5B0C5B0C6370
:104620000C5BEC5A0C5BEC5AEC5AEB5ACB5ACB5A5B
:10463000CB5ACB5ACB5ACB5AAB52AB52AB52AB52F2
:10464000AA52AB52AA52AA52AA52AB52AA52AA5288
:10465000AA52AA52AA52AA52AB52AB52CB52CB5236
:10466000CB52CB52CB52CB52EB52EB5AEB5AEB5ACA
:10467000EB5AEB5AEC5AEC5AEC5A0C5B0C5B0C5BA9
:104680000C5B2C630C5B2C632C632C632C634D63E1
:104690004D634D634D634D634D636D6B6D6B6E6B21
:1046A0006E6B8E6B8E6B6E6B8E738E6BAE73AE732A
:1046B000AE73AE73CF73AE73EB5A0321A218C21858
:1046C000A218C318E320E320C318E3200421E32049
:1046D000C31804210429453185396531653186398E
:1046E000452945318639453145314429C320821851
:1046F000E3204529A639E749CA62EB6AAE8BCE8B27
:104700004F9C0E94EE93EE93AD8B8D8B8C8B8C8B9C
:104710002E9C90AC0E9C4FA44FA490AC2B7BAC8BEA
:104720004FA40E944C7B0B73485A074A8539653168
:104730002429E3208210A218C318A2186110611066
:104740006108811081108210A218E320A21828426B
:104750008E738E732D638E73518C518431843084AB
:10476000107C31843084308431843084107C107C1F
:10477000107C107CF07BF07BF07BCF73CF73CF731A
:10478000CF73CF73AF73AF73AF738E6BAE738E6B2C
:104790008E6B6E6B6E6B6E6B6D6B4D6B6D6B4D6B75
:1047A0004D634D634D632D632C630C630C630C638D
:1047B0000C630C630C5B0C5BEC5AEC5AEB5AEB5A37
:1047C000EB5AEB5ACB5ACB5ACB5ACB52CB52AB52B9
:1047D000AB52AA52AB52AA52AA52AB52AA52AA52F6
:1047E000AA52AA52AA52AA52AB52AB52CB52CB52A5
:1047F000CB52CB52CB52CB52CB52CB5AEB5AEB5A79
:10480000EB5AEB5AEC5A0C5B0C5B0C5B0C5B0C5BD5
:104810000C5B2C630C5B2C632C632D632D634D634D
:104820004D634D634D636D6B6D6B6D6B6E6B8E6B1E
:104830006E6B8E6B8E6B8E6BAE73AE73AE73AF732F
:10484000CF73CF73EF7B4D6B2842A2108210C31839
:10485000C218C318C318C318E320C318E320A21852
:10486000E320C318E320863945316531A639242970
:10487000863986394431863924298218C31845314E
:10488000C641074A4852EB6A0E9491A4D1B433BD95
:1048900073C594CDD5D574CD94CD33C5D1B4B1B451
:1048A000B1B4D1BC32C5F2BC94CD12BD2FA46FAC53
:1048B0000EA4CD93AD8BCA6A895A074AC641853981
:1048C0002429E3200421E32082106110811061106B
:1048D0006108611061108210A2108210C3200321B0
:1048E000EB5AAF738E73CA52308451845184518411
:1048F00051845184107C318431843184107C107C4B
:10490000107C107C107CF07BF07BF07BF07BCF7315
:10491000CF73CF73CF73AF73AF73AF73AE73AE7329
:104920008E6B8E6B8E6B8E6B6E6B6E6B6D6B4D6B61
:104930004D6B4D6B4D634D632C632C630C632C638B
:104940000C630C630C630C63EC5AEC5AEB5AEC5A94
:10495000EB5AEB5AEB5AEB5ACB5ACB5ACB5ACB52B7
:10496000AB52AB52AB52AA52AA52AB52AA52AA5263
:10497000AA52AA52AA52AB52AB52CB52CB52CB52F2
:10498000CB52CB52CB52CB52CB52EB5AEB5AEB5AC7
:10499000EB5AEB5AEB5A0C5B0C5B0C5B0C5B0C5B45
:1049A0002C632C632C632D632D632D634D634D634A
:1049B0006D6B4D636D6B6D6B6D6B6D6B8E6B8E6B1D
:1049C0008E6B8E6B6E6BAE73AE73AE73CF73CF7335
:1049D000CF73CF73EF7BAA52E32082108210A2180C
:1049E000C318C318C318E320A218C318C218A2180A
:1049F000E320C318242965314531653145296539DE
:104A0000863945316539C320C2204431E7492852EF
:104A1000AA62CA6A6C7B70A412BDB5CD37DE57DEC0
:104A200078E637DE57E637E637DE37DE37E694CD11
:104A300053CD13C533C512C5B5D533C5B1B46FACAD
:104A4000AD93EA7A2B7B0A73685AE7498539653159
:104A5000653965310421C318A218821061106110F4
:104A600061106110610861088210C318A218E32068
:104A7000C6396D6BCF7B8E730C63EF7B10845184D2
:104A800051845184518431843184518431843184FE
:104A900011843084107C107C107CF07BF07BF07BE8
:104AA000CF73CF73CF73CF73CF73CF73AF73AF7336
:104AB000AE738E6B8E6B8E6B8E6B6E6B6D6B6D6B68
:104AC0006D6B4D6B4D6B4D634D632D632C632C6390
:104AD0002C630C630C630C630C63EC5AEC5AEC5AB9
:104AE000EC5AEB5AEB5ACB5ACB5ACB5ACB5ACB5A3D
:104AF000AB52AB52AB52AB52AA52AB52AA52AA52D1
:104B0000AA52AA52AA52AA52CB52CB52CB52CB5241
:104B1000CB52CB52CB52CB52EB5AEB5AEB5AEB5A0D
:104B2000EB5AEB5AEC5A0C5B0C5B0C5B0C5B0C5BB2
:104B30000C5B2C632C634D632D634D634D634D63A0
:104B40004D636D6B6D6B6D6B6E6B6E6B8E6B8E6B89
:104B50008E6B8E738E6BAF73AF73CF73CF73CF7358
:104B6000CF73F07B4D6BA63982108210E320A21820
:104B7000A218C318C320A218C318C3188210C318E0
:104B8000C318E320863145294529863165316531D1
:104B900065316531E3202429C649A96A2B7B8C8BBA
:104BA000AD9390A412B594C516D678E678E6B9EE22
:104BB000B9EEB9EE98EE99EE98EE78EE57E636DE5D
:104BC000D5D5B5D5B5D5B5D5B5D594D533C590B46E
:104BD00070AC0E9C4EA44B7BC96A8962074AA63909
:104BE00086394429C318C318A218A218A218821023
:104BF000611061086108610861088218A218E32049
:104C000024298952F07BEF7BEB5AEF7B10843184AF
:104C100051845184728C728C3184518451845184BA
:104C2000318431843084107C107C107C107CF07BCB
:104C3000F07BF07BEF73CF73CF73CF73AF73AF7332
:104C4000AF73AE738E6B8E6B8E6B8E6B6E6B6D6B8C
:104C50006E6B6D6B4D6B4D6B4D6B4D6B2D632D63A3
:104C60002C630C630C630C630C630C5BEC5AEC5A06
:104C7000EB5AEC5AEB5ACB5ACB5ACB5ACB5ACB52B3
:104C8000CB52AB52AB52AB52AA52AB52AA52AA521F
:104C9000AA52AA52AB52CB52AB52CB52CB52CB52AE
:104CA000CB52CB52CB52EB5AEB5AEB5AEB5AEB5A54
:104CB000EB5A0C5B0C5B0C5B0C5B0C5B2C632C638E
:104CC0002C632D634D634D634D634D634D636D6B7D
:104CD0006D6B6D6B6E6B6E6B6E6B8E6B8E6B8E6BAE
:104CE0008E6BAE738E6BAF73CF73CF73CF73CF7387
:104CF000EF7BCF73EB5AA2188210C318A218A21828
:104D0000A218C318A218A218C318A218A218C31870
:104D1000C318242945292429653165316531653158
:104D20004531E3208539A96AEE9B6FB4F2C453CDB7
:104D300074CDD5CD36DE78E698E6B9EEFAEEFAF621
:104D4000FAF6FAF6D9EED9EED9EEB9F698EE57E6BC
:104D500037E6F6DDD5D5B5D594CDB5D553CD94CDC3
:104D6000F2BCB0BC90B4ED9BE9728862074AE7419F
:104D700065394431E320A2186110611041088210A6
:104D8000821081108110610861086110A218C31897
:104D90000421C739CB5A3184CF7BEF7BCF7B107C8A
:104DA000518C718C5184728C728C318451845184F9
:104DB00051845184318430843084107C107C107C88
:104DC000107CF07BF07BF07BEF73CF73CF73CF73EE
:104DD000AF73AF73AF73AE73AE738E6B8E6B8E6B40
:104DE0006D6B6D6B6D6B4D6B4D6B4D632D632D63FB
:104DF0002C630C632C630C630C630C630C5BEC5A2C
:104E0000EC5AEC5AEB5AEB5ACB5ACB5ACB5ACB5AF8
:104E1000CB52CB5ACB5AAB52AA52AB52AA52AA523D
:104E2000AA52AB52AA52AB52AB52CB52CB52CB523C
:104E3000CB52CB5ACB5AEB5AEB5AEB5AEB5AEB5AB2
:104E4000EC5A0C5BEC5A0C5B0C5B0C5B2C632C631C
:104E50002C632D632D634D634D634D634D636D6B0B
:104E60006D6B6D6B6E6B6E6B8E6B8E6B8E6B8E6BFC
:104E7000AE73AE73AE73CF73CF73CF73CF73EF7365
:104E8000CF7B8E73A63961108210C318A218A218A6
:104E9000A218C318C318A2188210A218A218A21828
:104EA000A218653124298531653145314531653197
:104EB000C320C6416C8B12C5D5DDF6E516E6D5DDFF
:104EC00037E698EEB9EEB9EEDAEEFAF6FAF61BF737
:104ED0001AF7FAF6FAF6FAF6FAEEFAF6B9EE98EEEC
:104EE00058EE17E616DED5D5D5D594CDB5D595D5E2
:104EF00012C553CD4FACD2BCED93C972A96A07520B
:104F00008539442944294529A21862104108200006
:104F100061088210610882108210410861108210BD
:104F2000C3182429294A6D6B928C4D6B51843084AF
:104F3000F07B728C7184928C728C5184718C718C28
:104F40005184518451843184118431843084107CA3
:104F5000107C107C107CF07BEF7BEF7BEF7BCF73C2
:104F6000CF73AF73AF73AE73AE738E738E736E6B9E
:104F70008E6B6E6B6E6B6D6B4D6B4D6B4D634D63DE
:104F80002D632D632C630C630C630C630C630C5B4F
:104F9000EC5AEC5AEB5AEB5AEB5ACB5ACB5ACB5A47
:104FA000CB5ACB5ACB52CB52AB52CB52AA52AA526B
:104FB000AA52AB52AB52AB52CB52CB52CB52CB5A82
:104FC000CB52CB52CB5AEB5AEB5AEB5AEB5AEC5A28
:104FD0000C5B0C5B0C5B0C5B0C5B0C5B2C632C6349
:104FE0002D632D634D634D634D634D636D6B6D6B31
:104FF0006D6B6D6B6E6B8E6B8E6B8E6B8E6BAE7323
:10500000AF73AF73AE73CF73CF73CF73EF7B107C7F
:105010006D6BAE73C318A218C218A218A218821022
:10502000C320A218A218A2188210A2188210C218B7
:105030000429242944296531453186394531E3184D
:1050400085416C8B74D537EE37E657E698EE99EECE
:10505000B9EEDAEEDAF6FAF61AF71BF71BF73BFFB2
:105060001BF71BF71BF71BF7FBF6DAF6D9F698EEE2
:1050700078EE57E616DEF6DDD5D5B4D594D5B5D5A0
:1050800053C574CDB0BCD1BCB0B4AD8BCA6A685A3C
:10509000C641A639443124290421821082106210AD
:1050A00041084108821041104108821061106110CE
:1050B000A2180421A639AA52CF731084AF73F07BD3
:1050C0009294F07B518C728C518451845184728CF7
:1050D000728C718C51843184318431843184108498
:1050E000107C107C107C107CF07BF07BF07BCF730D
:1050F000CF73CF73CF73CF73AE73AE73AE738E6B4C
:105100008E6B8E6B6E6B6D6B6D6B4D6B4D6B4D6BFC
:105110002D632D632D630C630C630C630C630C63B4
:105120000C5BEC5AEC5AEC5AEB5AEB5AEB5ACB5A52
:10513000CB5ACB5ACB5ACB52AB52AB52AA52AA52F1
:10514000AA52AB52CB52CB52CB52CB52CB5ACB5AA8
:10515000EB52CB52EB5AEB5AEB5AEB5AEB5AEC5A56
:105160000C5B0C5B0C5B0C5B2C632C630C5B2C638F
:105170002D634D634D634D634D636D6B6D6B6D6B57
:105180008E6B8E6B8E6B8E6B8E6BAE73AF73AF73DD
:10519000CF73CF73AE73CF73EF7BEF7BF07BAE73C8
:1051A0001184084281108210C318C3188210A218FB
:1051B000A218A218C2188110A2188210A2180321E6
:1051C0000321E3204531242965396531E328653120
:1051D000CA7A12CD37E678EE78EE78EEB9F6D9F6DF
:1051E000FAF6FAF6FAF61BF71BF71BF73BFF3BFF45
:1051F0003BFF1BF71BF71BF71BF7FAF6DAF6B9F6BE
:1052000098EE57E617E6F6DDD5D5D5DDD5D574CDC4
:1052100053CD74D511C54FA40FA42F9C2B7BCA6A04
:105220004852C641853924292429A31861108210C7
:105230004108610821086110611041086110821065
:105240008110C3180421A6398E6B518CCF73318421
:10525000CF73928CEF7BB294928C718C5184518479
:105260005184728C718C5184518451845184318465
:1052700011843084107C107C107C107CF07BF07BDF
:10528000CF73CF73CF73CF73CF73AF73AF73AE736F
:10529000AE6B8E6B8E736E6B6D6B6D6B4D6B4D6B02
:1052A0004D632D632D632C632C630C630C630C63C3
:1052B0000C63EC5AEC5AEC5AEB5AEB5ACB5AEB5AB9
:1052C000CB5ACB5ACB5ACB52CB52CB5AAA52AA5218
:1052D000AA52AB52CB52CB52CB52CB5ACB5ACB5A0F
:1052E000EB52CB52EB5AEB5AEB5AEC5AEC5A0C5BA2
:1052F0000C5B0C5B0C5B0C5B2C632C632C632D63D5
:105300004D634D634D634D636D6B6D6B6D6B8E6B5C
:105310008E6B8E6B8E6B8E6BAE73AE73AE73AE7325
:10532000CF73CF73AE73F07BEF7BF07B107C8E730B
:105330001084A2188210C218C318C2188210C31891
:105340008210A218A218A218A218C218E320E32003
:10535000E3204429452945314531042904290752D0
:105360008FB416E657EE78EE98EEB9F6FAF6FAF63E
:105370001AF71BF71BF73BFF3BFF3BFF3CFF3CFFD4
:105380003BFF3BFF3BFF3BFF1BF7FAF6FAF6B9F694
:1053900098EE78EE37E617E6F6DDF5DDD5DDB5D526
:1053A000D5DD53CD12C54FACAD93EE932B7BA96ADF
:1053B000485AC64186392429A318C318A210610887
:1053C000621041084108410841086110400861101D
:1053D00082108210C218AA5A28423084AF735184B6
:1053E000518C518C728C5184B394728C928C928CAF
:1053F000928C51843184728C718C5184518451848B
:10540000318431843184107C107C107C107CF07BE2
:10541000F07BF07BEF7BCF73CF73CF73AF73AE7343
:10542000AE738E6B8E6B8E6B6E6B6D6B6D6B6D6B0F
:105430004D6B4D634D632D632C630C630C630C63E8
:105440000C630C5B0C5BEC5AEC5AEB5AEB5ACB5AE4
:10545000CB5ACB5ACB5ACB5ACB52CB5AAB52AA527D
:10546000AB52CB52CB52CB52CB52EB52CB52CB5A4C
:10547000EB52EB5AEB5AEC5AEC5AEB5A0C5B0C5BC6
:105480000C5B0C5B0C5B2C630C5B2C632C634D6323
:105490004D634D636D6B4D636D6B6D6B6E6B8E6BA2
:1054A0008E6B8E6BAE73AE73AE73AF73AE73CF7322
:1054B000CF73EF7BCF73EF7BF07B107C8E6B5184CF
:1054C000CB5A6110A218C318C218A218A218C31888
:1054D000A218A218A2188210C3188210C218E320C2
:1054E000E320242924296539E320242965396C9394
:1054F000B4DD57EE78EE78EE99F6D9F6FAF61AF7AB
:105500001BF73BFF3BFF3BFF5CFF5CFF5CFF3CFF8F
:105510003BFF3BFF3BFF3BFF3BFF1AF7FAF6D9F699
:10552000B9F678EE57EE37E617E616E6F5DDB5D5AF
:10553000F6DD94D5B0BCD1BCCD9B0A732B7BEA724F
:10554000685A074A86392429E32082108210821083
:105550006108410841084108610881108110410833
:1055600061108110A218652908428E73728C107C1C
:10557000928CCF7BD394718CB394928CB294B2946E
:10558000928C928C928C3184728C718C7184518447
:1055900051845184318431843084107C107C107C9F
:1055A000107CF07BF07BF07BEF73CF73CF73CF7306
:1055B000AF73AE738E6B8E6B8E6B6E6B6E6B6D6B33
:1055C0004D6B4D6B4D634D632D632C632C630C63EE
:1055D0000C630C630C630C5BEC5AEB5AEC5AEB5A01
:1055E000EB5ACB5ACB5ACB5ACB5ACB5AAB52AB52C3
:1055F000CB52CB52CB52CB52CB52CB52CB52EB52A3
:10560000EB5AEB5AEB5AEC5AEB5A0C5B0C5B0C5B0B
:105610000C5B0C5B0C5B2C632C632C634D634D6348
:105620004D636D6B6D6B6D6B6D6B6E6B8E6B8E6B9F
:105630008E6BAE73AE73AE73AF73AF73CF73CF7346
:10564000CF73EF7BEF7BCF73EF7BF07B8E6B51845F
:1056500004218210C218C318C218A218C318C21895
:10566000A218A218A218C3188210A218C2182429BE
:105670002429E3286531E32824294531A97212CD74
:1056800016E657EE98EEB9F6B9F6DAF61BF71BF701
:105690003BFF1BF73CFF5CFF3CFF5CFF5CFF5CFFDC
:1056A0003CFF5CFF5CFF3BFF3BFF1BF71AF7D9F6A3
:1056B000B9EE78EE57EE57E637E637E616E6F6DD52
:1056C000F5DDB5DD32CD4FAC0EA46C83CA6A0B7329
:1056D000AA62285286394429E320C3188210821016
:1056E0006210621061088210410841104108611087
:1056F000410841086110E3200321AA5A92948E7355
:10570000F49C107C718CF39C718CB294B394B39420
:10571000B394928C928C928C5184728C728C718C1A
:105720005184518451843184318411843084107CBB
:10573000107C107CF07BEF7BEF7BEF7BCF73CF7324
:10574000CF73AE73AE738E738E738E6B6E6B6D6B29
:105750006D6B4D6B4D6B4D6B2D632D632C632C630B
:105760000C630C630C5B0C63EC5AEC5AEC5AEB5A6E
:10577000EB5AEB5ACB5ACB5ACB5AEB5AAB52AB52F1
:10578000AB52CB52CB52CB52CB52CB52CB52EB5A29
:10579000EB5AEB5AEC5AEC5AEC5A0C5B0C5B0C5B78
:1057A0000C5B0C5B2C632C632D632D634D634D638D
:1057B0004D636D6B6D6B6D6B6E6B8E6B8E6B8E6BED
:1057C0008E6BAE73AF73AF73AF73CF73CF73CF7393
:1057D000CF73F07BEF7B107C107CAF73107C4D6B34
:1057E0008218A218A218E320A218A218A218A218C0
:1057F000A218C320A218C320A218C2182429E3208B
:10580000042945314531E3284431C6514EACF5E514
:1058100037EE78EE98EEB9F6D9F6DAF61BF73BFFDD
:105820003BFF3BFF3CFF5CFF3CFF5CFF5CFF5CFF22
:105830005CFF5CFF5CFF5CFF3BFF1BF71AF7D9F6D0
:10584000B9F698EE78EE58EE57E637E617E616E624
:10585000F5DDF5DD94D5D1BCD1BCAD934C7B89622F
:105860008A5A4952E74186394529E420C3188210F3
:10587000A2108210821061102108200841084108FE
:10588000611061106110A218A2188531AE733184C5
:10589000928CD394CF7BF39C728CB394D394B394B7
:1058A000B3949294B294928C728C728C728C728C2F
:1058B000728C518451845184518431843184318477
:1058C0003084107C107C107CF07BEF7BEF7BCF73FF
:1058D000CF73CF73AF73AE738E738E6B8E6B8E6B15
:1058E0006E6B6D6B6D6B4D6B4D6B4D632C632C63F1
:1058F0000C632C630C630C630C63EC5AEC5AEC5A8B
:10590000EB5AEB5AEB5AEB5ACB5ACB5AAB52CB521F
:10591000CB52CB52CB52CB52CB52CB52EB5AEB5A4F
:10592000EB5AEB5AEC5AEC5A0C5B0C5B0C5B0C5BC5
:105930000C5B0C5B2C632C632D634D634D634D63DB
:105940006D6B6D6B6D6B6E6B6E6B8E738E6B8E6B2A
:10595000AE73AE73CF73CF73CF73CF73CF73CF7379
:10596000EF7BF07B107C107C3084AF733184863108
:105970008210C318A218E320A210A218C318A218FC
:10598000C318A218C320C320A2180321E3200429AE
:10599000032924310329453164316C9353D536E60C
:1059A00057EE78F699F6D9F6DAF6FAF61BF73BFFDA
:1059B0003BFF3BFF5CFF5CFF5CFF5CFF5CFF5CFF51
:1059C0005CFF5CFF5CFF5CFF3BFF1BF71AF7D9F63F
:1059D000B9F699EE78EE78EE78EE57EE37E636E6E1
:1059E000F6DDD5DDD5DD53CDF2C4D1BC6C832B7390
:1059F0006952695AE74165310421C318A310621046
:105A00008210A218821061106110410861106110AB
:105A10004108611081108110A218C3184429518CCB
:105A20003184728C92943084B394B294D394D3948E
:105A3000B394B394B394B294B294718C928C928CCC
:105A4000728C728C718C5184518451845184318454
:105A500031843084107C107C107CF07BF07BF07BF8
:105A6000CF73CF73CF73AF73AE73AE738E6B8E6B1A
:105A70006E6B6D6B6D6B6D6B4D6B4D6B4D632D6315
:105A80002D632C630C630C630C630C630C5BEC5A8E
:105A9000EC5AEB5AEB5AEB5AEB5AEB5AAB52CB524D
:105AA000CB52CB52EB52CB52CB52EB5AEB5AEB5A76
:105AB000EB5AEC5AEB5A0C5B0C5B0C5B0C5B0C5B13
:105AC0000C5B2C632D632D634D634D634D634D6300
:105AD0006D6B6E6B8E6B8E6B8E6B8E6B8E6BAE7317
