:020000040800F2
:1000000020040020490100085D04000807040008DE
:1000100059040008DF010008550A0008000000002C
:100020000000000000000000000000008D05000836
:10003000E30100080000000075040008A1060008A4
:100040006301000863010008630100086301000800
:1000500063010008630100086301000863010008F0
:1000600063010008630100086301000863010008E0
:1000700063010008630100086301000863010008D0
:1000800063010008630100086301000863010008C0
:1000900063010008630100086301000863010008B0
:1000A00063010008630100086301000863010008A0
:1000B0006301000863010008630100086301000890
:1000C0006301000863010008630100086301000880
:1000D0006301000863010008630100086301000870
:1000E0006301000863010008630100086301000860
:1000F0006301000863010008630100086301000850
:10010000630100086301000863010008630100083F
:10011000630100086301000863010008630100082F
:10012000630100086301000863010008630100081F
:10013000DFF810D000F030F800480047890C0008C4
:10014000AFF300802004002006488047064800479F
:10015000FEE7FEE7FEE7FEE7FEE7FEE7FEE7FEE777
:10016000FEE7FEE7E10600083101000830B50B4666
:10017000014600202022012409E021FA02F59D42D7
:1001800005D303FA02F5491B04FA02F52844151EAB
:10019000A2F10102F1DC30BD064C074D06E0E0683B
:1001A00040F0010394E8070098471034AC42F6D3BE
:1001B000FFF7C2FF900D0008B00D000810B54820F1
:1001C00000F070FA4FF4A06000F04AF94FF4E1300B
:1001D00000F078FB00F01AF900F004F810BD00BF41
:1001E000FEE7704700B589B00121052000F054F901
:1001F0000121022000F040F94020ADF82000182035
:100200008DF8230003208DF8220008A91A4800F079
:100210006DF84720ADF814000020ADF8160040F24C
:10022000E730ADF818000020ADF81A008DF81C007A
:1002300005A9124800F0F4FA6020ADF8040001208E
:10024000ADF806000020ADF80A00ADF80C0001A9D9
:100250000A4800F08DFA0821084800F0D5FA01217B
:10026000064800F06DFA0121044800F075FA00F02C
:1002700019F809B000BD000000080140000400406A
:1002800010B50446B4F57A7F01D94FF47A74034867
:1002900004802146024800F0C0FA10BD140000207E
:1002A0000004004010B50020FFF7EAFF10BD000079
:1002B00010B5002412E00B4931F81400FFF7E0FFFD
:1002C0000948006808B9012000E0002006490860DC
:1002D00040F2DC5000F08AFC601CC4B2052CEADB62
:1002E00010BD0000840D0008948121422DE9F041E9
:1002F000024600250026002000230024002791F854
:1003000003C00CF00F0591F803C00CF0100CBCF109
:10031000000F03D091F802C04CEA050591F800C027
:10032000BCF1000F31D0146800202BE04FF0010C1D
:100330000CFA00F3B1F800C00CEA03069E4220D18B
:1003400083004FF00F0C0CFA03F7BC4305FA03FCD3
:100350004CEA040491F803C0BCF1280F06D14FF019
:10036000010C0CFA00FCC2F814C00AE091F803C0BA
:10037000BCF1480F05D14FF0010C0CFA00FCC2F89B
:1003800010C0401C0828D1D31460B1F800C0BCF1E3
:10039000FF0F34DD546800202EE000F1080C4FF010
:1003A000010808FA0CF3B1F800C00CEA03069E42FB
:1003B00021D183004FF00F0C0CFA03F7BC4305FA70
:1003C00003FC4CEA040491F803C0BCF1280F05D1EA
:1003D00000F1080C08FA0CF8C2F8148091F803C078
:1003E000BCF1480F07D100F1080C4FF0010808FAE2
:1003F0000CF8C2F81080401C0828CED35460BDE829
:10040000F0810161704700BFFEE7000008B50121DF
:10041000482000F041F82020ADF8000010208DF8B1
:10042000030003208DF8020069460948FFF75EFFCC
:1004300020210748FFF7E5FF2020ADF800006946BE
:100440000448FFF753FF20210248FFF7DAFF08BDF9
:10045000000C01400018014000BFFEE7704700009B
:1004600002490143024A1160704700000000FA058A
:100470000CED00E07047000029B1064AD269024342
:10048000044BDA6104E0034AD2698243014BDA612A
:10049000704700000010024029B1064A92690243E9
:1004A000044B9A6104E0034A92698243014B9A61CA
:1004B000704700000010024030B5002100220024E7
:1004C00000232D4D6D6805F00C0121B1042905D0E4
:1004D000082923D105E0294D056022E0274D05605C
:1004E0001FE0254D6D6805F47012234D6D6805F40D
:1004F0008034022505EB92421CB9214D554305601D
:100500000BE01D4D6D6805F400351DB11C4D5543C4
:10051000056002E0194D5543056002E0174D056086
:1005200000BF00BF144D6D6805F0F0010909154DBD
:100530006B5C0568DD4045600F4D6D6805F4E0615A
:10054000090A104D6B5C4568DD4085600A4D6D6899
:1005500005F46051C90A0B4D6B5C4568DD40C56010
:10056000054D6D6805F44041890B074D6B5CC5680E
:10057000B5FBF3F5056130BD0010024000127A00B2
:1005800000093D000000002010000020704710B559
:1005900000F002F810BD00000CB5002001900090A2
:1005A0003348006840F480303149086000BF30486B
:1005B000006800F4003000900198401C0190009801
:1005C00018B90198B0F5A06FF1D12948006800F47E
:1005D000003010B10120009001E000200090009850
:1005E000012843D12348006840F0100021490860E9
:1005F0000846006820F0030008600846006840F0E4
:10060000020008601A484068194948600846406876
:1006100048600846406840F480604860084640688A
:1006200020F47C1048600846406840F4E8104860B8
:100630000846006840F08070086000BF0C48006801
:1006400000F000700028F9D00948406820F003004D
:10065000074948600846406840F00200486000BF13
:100660000348406800F00C000828F9D10CBD0000D8
:100670000010024000200240042808D14FF0E02181
:10068000096941F004014FF0E022116107E04FF0E9
:10069000E021096921F004014FF0E0221161704767
:1006A0007047000010B504466FF00400FFF7E4FF48
:1006B000E11704EB5171C1F3C701074A11701046ED
:1006C000007800EB4001C1EBC0104FF6FF7101EA6A
:1006D000C0000249088010BD16000020180000204C
:1006E00010B51348006840F0010011490860084641
:1006F0004068104908400E494860084600680E49A5
:1007000008400B4908600846006820F48020086013
:100710000846406820F4FE0048604FF41F008860DF
:10072000FFF735FF4FF000600449086010BD00007E
:10073000001002400000FFF8FFFFF6FE08ED00E0A9
:1007400021B1028842F08002028004E002884FF664
:100750007F731A400280704721B1028842F0010283
:10076000028004E002884FF6FE731A400280704750
:1007700070B5002400220023058C4FF6FE7635402C
:100780000584028C8388048B4FF68F752C40B51E30
:100790002C400D882C43751E2A400D892A434D8814
:1007A0002A43144DA8420BD0134DA84208D0134D34
:1007B000A84205D0124DA84202D0124DA84213D132
:1007C0004FF6F7752A404D892A434FF6FB752A40AC
:1007D0008D882A434FF6FF652B404FF6FF552B407F
:1007E0008D892B43CD892B4383800483CD888586D7
:1007F000028470BD002C01400034014000400140E3
:1008000000440140004801400A460021018B4FF698
:10081000F7731940114301837047818670470000C8
:10082000002202881D4B98420ED01D4B98420BD0DF
:10083000B0F1804F08D01B4B984205D01A4B98421C
:1008400002D01A4B984204D14FF68F731A404B884E
:100850001A43174B984207D0164B984204D04FF6D4
:10086000FF431A40CB881A4302808B8883850B880C
:1008700003850A4B98420BD0094B984208D00E4B87
:10088000984205D00D4B984202D00D4B984201D1B1
:100890000B7A03860123838270470000002C0140FD
:1008A000003401400004004000080040000C0040FB
:1008B000001000400014004000400140004401408E
:1008C0000048014038B50446012144F20400FFF716
:1008D000E3FD4FF40070ADF8000003208DF8020036
:1008E00018208DF8030069460948FFF7FFFC4FF414
:1008F0008060ADF8000004208DF8030069460448CC
:10090000FFF7F4FC2146034800F014FA38BD00005C
:10091000000801400038014010B504462146024855
:1009200000F021FA10BD00000038014010B5044667
:100930002146024800F017FA10BD000000480040B0
:1009400021B1828942F40052828104E082894DF60D
:10095000FF731A408281704702460020B1F5007F84
:1009600000D100BF13880B400BB1012000E0002034
:10097000704700002DE9F04786B005460E4600247A
:10098000A24600BFA1460027B08900B100BF2F4694
:100990002C8A4CF6FF700440F08804432C82AC890A
:1009A0004EF6F3100440B08831890843718908433A
:1009B0000443AC81AC8A4FF6FF400440B089044345
:1009C000AC8201A8FFF778FD1F48874202D1DDF80D
:1009D00010A001E0DDF80CA0A88900F4004040B1AF
:1009E0000AEBCA0000EB0A1031684900B0FBF1F8CD
:1009F00007E00AEBCA0000EB0A1031688900B0FB7F
:100A0000F1F86420B8FBF0F004012009642101FB37
:100A10001089A88900F4004040B1322000EBC900E1
:100A2000B0FBF1F000F00700044308E0322000EBD7
:100A300009106421B0FBF1F000F00F0004432C8199
:100A400006B0BDE8F087000000380140C1F308029D
:100A50008280704700BFFEE70FB4054B10B503A9B5
:100A6000044A029800F018F810BC5DF814FB00006E
:100A7000710C00081C00002002E008C8121F08C109
:100A8000002AFAD170477047002001E001C1121F0F
:100A9000002AFBD1704700002DE9FF4F89B09B462B
:100AA0000446002506E025280BD05A460B999047AE
:100AB000641C6D1C20780028F5D10DB02846BDE8D7
:100AC000F08F0027B8460122474900E0074314F899
:100AD000013F203B02FA03F00842F7D120782E288C
:100AE00019D114F8010F47F004072A280ED06FF02F
:100AF0002F022078A0F1300109290CD808EB8801D9
:100B000002EB410100EB0108641CF2E70A98641C47
:100B100050F8048B0A9020780028CED0642808D0A2
:100B2000692806D075281ED05A460B9990476D1C2F
:100B300058E00A994FF00A0901C90A91002802DA1F
:100B400040422D2102E0390504D52B218DF82010DB
:100B5000012103E0F90704D02021F7E78A4608AE17
:100B60000DE00021FAE70A994FF00A0901C90A913C
:100B7000F7E74946FFF7FAFA303106F8011D002879
:100B8000F7D1ADEB060000F12009780701D44FF052
:100B90000108C84502DDA8EB090000E000208046FE
:100BA000002706E008A85A46C05D0B9990476D1CC7
:100BB0007F1C5745F6DB04E030205A460B999047DE
:100BC0006D1CB8F10001A8F10108F5DC05E016F88C
:100BD000010B5A460B9990476D1CB9F10001A9F120
:100BE0000109F4DC641C65E70928010070B50446BE
:100BF0004FF4077094FBF0F0C6B24FF4077094FB0B
:100C0000F0F100FB114085B205E04FF4077000F0F1
:100C100009F8701EC6B2002EF7D115B1284600F0B3
:100C200001F870BD0146114A12884A434FF0E02393
:100C30005A6100229A611A46126942F001021A6151
:100C400000BF4FF0E022106900F001021AB100F479
:100C50008032002AF5D04FF0E022126922F0010222
:100C60004FF0E0231A6100229A61704718000020BB
:100C700070B504460D46E0B2FFF74EFEE0B2FFF756
:100C800055FE204670BD0000FFF798FA012010497C
:100C900008601049C1F894014FF42F70FFF7F0FA83
:100CA0000DA0FFF7D9FE14A0FFF7D6FE4FF42F7169
:100CB00019A0FFF7D1FE09E0FFF7FAFA1C48006817
:100CC00008B9012000E0002019490860F4E700009D
:100CD00094812142000023420D0A505A2053544D62
:100CE0003332463130332066616E206D6F746F721F
:100CF0002064656D6F0D0A0050574D206F7574703C
:100D000075743A20504136202854494D335F43488A
:100D100031290D0A0000000044656661756C74207D
:100D2000647574793A2025752F313030300D0A0002
:100D3000940123427FB505460C4600940020ADF88F
:100D40000400ADF80600ADF80800ADF80C000C206A
:100D5000ADF80A0069462846FFF70CFE0121284637
:100D6000FFF7EEFD7FBD70B504460D4600BF802144
:100D70002046FFF7F1FD0028F9D029462046FFF76D
:100D800065FE70BD90012602BC025203E80300001C
:100D9000B00D00080000002020000000780A0008C4
:100DA000D00D00082000002000040000880A000880
:100DB0000000000001020304010203040607080901
:100DC000020406080000000000000000000000000F
:0400000508000131BD
:00000001FF
