:020000040800F2
:1000000098050020490100087D1C00088916000899
:10001000791C0008C50E0008172700080000000022
:10002000000000000000000000000000551E000855
:10003000C90E000800000000051D0008751F00081B
:100040006301000863010008630100086301000800
:1000500063010008630100086301000863010008F0
:1000600063010008630100086301000863010008E0
:1000700063010008630100086301000863010008D0
:1000800063010008630100086301000863010008C0
:1000900063010008630100086301000863010008B0
:1000A00063010008630100086301000863010008A0
:1000B0006301000863010008630100086301000890
:1000C0006301000863010008630100086301000880
:1000D000630100089D230008630100080125000852
:1000E0006301000863010008630100086301000860
:1000F0006301000863010008630100086301000850
:10010000630100086301000863010008630100083F
:10011000630100086301000863010008630100082F
:10012000630100086301000863010008630100081F
:10013000DFF810D000F048FC004800479535000873
:10014000AFF3008098050020064880470648004726
:10015000FEE7FEE7FEE7FEE7FEE7FEE7FEE7FEE777
:10016000FEE7FEE7B91F00083101000840EA01037D
:100170009B0703D009E008C9121F08C0042AFAD25D
:1001800003E011F8013B00F8013B521EF9D2704721
:1001900010B5044604E00B7800F8013B03B1491C9C
:1001A000521EF8D2204610BD10B5002200E0521CAD
:1001B000835C8C5CA34201D1002BF8D1D8B2E1B2B0
:1001C000401A10BD034611F8012B00F8012B002A3C
:1001D000F9D118467047F0B480EA0102D40F42000A
:1001E000B2EB410F02D20246084611464A0042D005
:1001F000C30DDDB2C1F3C752AD1A202D35DAC1F3FC
:10020000160141F4000204B15242C5F1200602FA7F
:1002100006F12A411044B3EBD05F23D0C4B1012DC5
:10022000A0EBC35009DCF0BC4FF0004202EAC3521D
:10023000DBB200F5000000F00CBB400000F1807064
:1002400000EBC350A0F1807040EAD170490009E092
:10025000490841EAC071A0EBC35000F50000400816
:1002600000EBC350F0BC00F0EBBA6142012202EB9C
:100270004101001BF6E7F0BC704781F00041AAE79E
:1002800080F00040A7E780EA010210B502F00043C9
:10029000400022D04A001FD0010E01EB1261C0F3D2
:1002A0005600C2F3560240F4000042F40002A0FBE4
:1002B000022000047F39140400D0401C50EA124090
:1002C00001D44000491EC2B20C0604EBD010401C01
:1002D0004008802A02D003E0002010BD20F0010079
:1002E000002900DA0020184310BD30B480EA010272
:1002F00002F0004530F0004221F0004013D090B1F0
:10030000C30DD40DC2F31601C0F31600E41A41F474
:10031000000140F400027D34914201D3641C00E0EE
:100320004900002C02DA30BC002070474FF4000076
:100330000023914201D3891A034340084FEA410147
:10034000F7D151B1914202D14FF0004105E002D204
:100350004FF0010101E06FF0010103EBC4502844AC
:1003600030BC00F06DBA2DE9FE4F804681EA0300F3
:10037000C00F0C46009021F0004123F00045B8EB7F
:100380000200A94105D24046214690461C460B4634
:10039000024623F00040104347D0270DC7F30A0060
:1003A000C3F30A510290401A019040286BDAC3F35C
:1003B000130040F4801B0098924620B10023D2EB3A
:1003C000030A63EB0B0B01985946C0F140025046FB
:1003D00000F005FA06460D4650465946019A00F0CF
:1003E0001DFA10EB08006141002487EA115284EAEB
:1003F000E7731A4340D0009A62B3019A012A4FEA88
:10040000075215DC001B61EB02014FF0004202EACB
:100410000752CDE90042001C41F5801132462B46BF
:1004200000F054FA03B0BDE8F08F40462146F9E7EA
:10043000001B61EB0201001C41F5801300185B41B9
:100440002018A2F5001747EB030140EAD570B61952
:100450006D4111E06D084FEA360645EAC0754FEA76
:100460000752001B61EB0201001C41F58011490895
:100470004FEA30000019514132462B4603B0BDE827
:10048000F04F00F014BA0098012240000023D0EB96
:10049000020263EBE073009821464FEAE074B8EB88
:1004A000000061EB0401E9E783F000435BE781F0C2
:1004B000004158E72DE9FE4F81EA030404F00044AF
:1004C00021F0004100944FF0000B23F0004350EA6C
:1004D00001045ED052EA03045BD0C3F30A54C1F3B3
:1004E0000A552C44A4F2F3340194A0FB0254C1F346
:1004F000130141F48011C3F3130343F4801301FB90
:10050000024400FB034E840A970A44EA815447EAF6
:100510008357A4FB076802958D0A05FB07854FEA00
:10052000932C04FB0C542705029D4FEA065847EA1A
:100530001637B5EB08056EEB070C870E920E47EAEF
:10054000811742EA8312A7FB0201B6EB0B0164EBB1
:1005500000042B0D43EA0C335E1844EB1C50DA46C2
:100560005146E7FB0201C5F313044FEA0B3343EA9C
:1005700014534FEA0432019C43EA0603A4F10C042D
:100580000294009CCDE900B400F0A0F903B0BDE8EE
:10059000F08F00200146F9E72DE9F04D81EA0304D0
:1005A00004F0004B21F0004514464FF0000A23F000
:1005B000004150EA050220D054EA01021DD0C5F3E3
:1005C0000A570246C5F31303C1F31300C1F30A56D9
:1005D00040F4801543F48013A7EB0608101BD646A1
:1005E00008F2FD3873EB050002D308F1010801E0C1
:1005F00092185B41B8F1000F03DA00200146BDE814
:10060000F08D00204FF48011064684460EE0171B43
:1006100073EB050705D3121B63EB050306434CEA96
:10062000010C49084FEA300092185B4150EA01077B
:10063000EDD152EA030012D082EA040083EA0501F8
:10064000084305D0101BAB4106D20122002306E06F
:1006500000224FF0004302E06FF0010253101AEB4A
:1006600006004CEB085110EB0A0041EB0B01BDE812
:10067000F04D00F01CB9C10F80EAE0700844CA07D1
:100680009623002100F0E5B896230022114600F0E1
:10069000E0B800F0004220F00040C10DC0F31600A9
:1006A00040F400007F2901DA00207047962903DC1E
:1006B000C1F19601C84001E096398840002AF4D083
:1006C0004042704770B5C1F30A5201F00045002462
:1006D000C1F3130140F2FF3341F480119A4201DA71
:1006E000002070BD40F233439A42A2F2334203DC51
:1006F000524200F083F800E090402C43F1D0404299
:1007000070BD00F0004230F000400AD0C10D01F58C
:100710006071C0F3160042EA0151C208400711435C
:100720007047002001467047002801DBC0F10040FF
:10073000002901DBC1F1004181427047002801DB43
:10074000C0F10040002901DBC1F10041884270473F
:1007500030B50B46014600202022012409E021FA91
:1007600002F59D4205D303FA02F5491B04FA02F58E
:100770002844151EA2F10102F1DC30BD2DE9F05F25
:100780000546002092469B46884606468146402400
:100790001BE0284641464746224600F02FF85346C4
:1007A0005A46C01A914110D311461846224600F00D
:1007B00016F82D1A67EB01084F462246012000214A
:1007C00000F00DF817EB00094E41201EA4F10104C2
:1007D000DFDC484631462A464346BDE8F09F202AE2
:1007E00004DB203A00FA02F1002070479140C2F188
:1007F000200320FA03F3194390407047202A04DBBA
:10080000203A21FA02F00021704721FA02F3D04089
:10081000C2F120029140084319467047202A06DBA6
:10082000CB17203A41FA02F043EAE07306E041FABE
:1008300002F3D040C2F120029140084319467047AC
:100840000029A8BF7047401C490008BF20F00100E4
:10085000704710B4B0FA80FC00FA0CF050EA0104C2
:1008600004BF10BC704749B1CCF1200421FA04F454
:1008700011FA0CF118BF012121430843A3EB0C012D
:10088000CB1D4FEA00614FEA102042BF002010BC90
:10089000704700EBC35010440029A4BF10BC704740
:1008A000401C490008BF20F0010010BC704710B583
:1008B000141E73F1000408DA401C41F10001921883
:1008C0005B411A4301D120F0010010BD2DE9F04D2C
:1008D00092469B4611B1B1FA81F202E0B0FA80F281
:1008E00020329046FFF77BFF04460F4640EA0A009D
:1008F00041EA0B0153465A46084313D0114653EAC6
:10090000010019D0C8F140025046FFF777FF0546B5
:100910000E46504659464246FFF761FF084305D050
:10092000012004E020463946BDE8F08D0020054353
:1009300046EAE0762C4337430A986305E40AA0EBC5
:1009400008000022FD0A44EA47540A3002D500207C
:100950000146E9E7010510196941DDE9084500197B
:100960006941BDE8F04DA2E7C1F30A52C1F313019A
:1009700040F2FF3341F480119A4202DA002001462E
:10098000704740F233439A42A2F2334202DC5242B1
:10099000FFF734BFFFF723BF30B5041E71F1000429
:1009A00004DB4FF00044404264EB0101141E73F17C
:1009B000000405DB1C464FF00043524263EB040386
:1009C000994208BF904230BD064C074D06E0E068F2
:1009D00040F0010394E8070098471034AC42F6D386
:1009E000FFF7AAFBA8800008C880000821B1826830
:1009F00042F00102826003E0826822F0010282601C
:100A00007047014600208A6802F004020AB1012002
:100A100000E0002070470146C86C80B27047024673
:100A2000002013680B400BB1012000E0002070474C
:100A3000014600208A6802F008020AB1012000E0A5
:100A40000020704730B502460020002350680F4C4C
:100A500020400D790C6844EA0524204350609068DA
:100A60000B4C2040D1E902542C434D7944EA450413
:100A700020439060D06A20F470000C7C641EE4B2C5
:100A8000234340EA0350D06230BD0000FFFEF0FF78
:100A9000FDF7F1FF00B587B0012148F2800001F0B9
:100AA0005FF94FF4004001F02FF94FF48070ADF87A
:100AB000180000208DF81B0006A9184800F093FAD2
:100AC000002001908DF808008DF809004FF4602097
:100AD00003900020049001208DF8140001A9104813
:100AE000FFF7B0FF01210E48FFF780FF0C4800F030
:100AF00075F800BF0A48FFF79BFF0028FAD10848A5
:100B000000F07CF800BF0648FFF77BFF0028FAD111
:100B10000121034800F067F807B000BD001C014048
:100B2000003C0140F0B504460D4600200021092D8F
:100B300011DDE068A5F10A0606EB4607072606FA6E
:100B400007F18843A5F10A0606EB460603FA06F10B
:100B50000843E0600CE0206905EB4507072606FA2C
:100B600007F1884305EB450603FA06F108432061C7
:100B7000072A0FDA606B561E06EB86071F2606FA59
:100B800007F18843561E06EB860605FA06F1084370
:100B9000606322E00D2A0FDA206BD61F06EB860772
:100BA0001F2606FA07F18843D61F06EB860605FACC
:100BB00006F10843206310E0E06AA2F10D0606EB9F
:100BC00086071F2606FA07F18843A2F10D0606EBF9
:100BD000860605FA06F10843E062F0BD816841F03F
:100BE00008018160704721B1826842F4A0028260EE
:100BF00003E0826822F4A00282607047816841F0BD
:100C0000040181607047000030B10749096841F470
:100C10000001054A116005E00349096821F400015B
:100C2000014A1160704700000824014000B585B0FA
:100C30000121480201F094F84FF4004001F064F8FB
:100C40000120FFF7E1FF002000908DF804008DF8EF
:100C500005004FF4602002900020039001208DF8E1
:100C6000100069460F48FFF7EDFE01210D48FFF720
:100C7000BDFE0C48FFF7B2FF00BF0A48FFF7D8FEE1
:100C80000028FAD10748FFF7B9FF00BF0548FFF772
:100C9000B8FE0028FAD101210248FFF7A4FF05B0F1
:100CA00000BD00000024014010B502F045FA0446E2
:100CB00001F05AF900F5FA6001490860204610BDBC
:100CC0006000002010B54FF48071044800F016FA5F
:100CD00008B1012010BD0020FCE70000000C01401D
:100CE00010B504460CB9002010BD064B0FCB84E8AC
:100CF0000F0000F009F82073FFF7E4FF607301486C
:100D0000807BF1E7C00000200348006808B901209B
:100D100070470020FCE700009481214210B50020BC
:100D200012490860486088600873487388731049E6
:100D3000087010490860FFF779FFFFF7ABFE02F07B
:100D400089F90DA20DA111A001F0E8FC002000F02E
:100D5000A7F8002000F092F8FFF7A6FF01F004F9D1
:100D600000F5FA600349086010BD0000C0000020D3
:100D70005C000020600000205042380050463820BF
:100D800028414443335F4348362900005B53454EB6
:100D9000534F525D204144432074656D702F6C6940
:100DA00067687420696E697420646F6E652C206CAE
:100DB000696768745F70696E3D25732062757A7A21
:100DC00065725F70696E3D25730D0A00F0B589B0DC
:100DD00005A8FFF785FF08B909B0F0BD0798FFF730
:100DE00090FC04460D460598FFF78BFC06460F461F
:100DF0009DF8210008B10AA000E00AA09DF820108B
:100E000009B107A100E007A132463B46CDE9004504
:100E1000CDE9021004A001F081FC00BFDCE7000076
:100E20004F4E00004F46460054454D503A252E3156
:100E3000662C4C494748543A252E30662C4C454484
:100E40003A25732C42555A5A45523A25730D0A00D9
:100E500010B501F089F804460748006818B1064843
:100E60000068844207D302F067F901F07DF800F5CD
:100E7000FA600149086010BD6000002010B504460A
:100E80000CB1012100E00021084602F0C5F80CB1C8
:100E9000012000E000200149487310BDC00000207F
:100EA00010B504460CB1012100E00021084602F013
:100EB000C5F80CB1012000E000200149087310BD05
:100EC000C000002000BFFEE77047000051B1820063
:100ED000A2F1C042126842F001038200A2F1C042B6
:100EE000136009E08200A2F1C0421268034B1A406D
:100EF0008300A3F1C0431A6070470000FEFF0F009B
:100F0000D0E901121143C2681143026911434269D9
:100F1000114382691143C2691143026A1143426A53
:100F20001143826A1143C26A1143026B1143026882
:100F30009200A2F1C0421160816808290BD10168BA
:100F40008900A1F1C041096841F0400201688900AF
:100F5000A1F1C0410A60416B0968426B526841EAE5
:100F60000211426B926841EA0221426B928941EA86
:100F70000241426B128A41EA0251426B127D41EA00
:100F80000261426B926911430268521C9200A2F105
:100F9000C0421160C16AB1F5804F1BD1816B0968F5
:100FA000826B526841EA0211826B926841EA022127
:100FB000826B128A41EA0251826B127D41EA026120
:100FC000826B9269114302689200A2F1C042C2F89A
:100FD000041107E06FF0704201688900A1F1C0417F
:100FE000C1F8042170472DE9F04102460025002692
:100FF000002000230024002791F803C00CF00F0507
:1010000091F803C00CF0100CBCF1000F03D091F864
:1010100002C04CEA050591F800C0BCF1000F31D0C8
:10102000146800202BE04FF0010C0CFA00F3B1F82B
:1010300000C00CEA03069E4220D183004FF00F0C43
:101040000CFA03F7BC4305FA03FC4CEA040491F8DC
:1010500003C0BCF1280F06D14FF0010C0CFA00FCC4
:10106000C2F814C00AE091F803C0BCF1480F05D1E2
:101070004FF0010C0CFA00FCC2F810C0401C08280C
:10108000D1D31460B1F800C0BCF1FF0F34DD546857
:1010900000202EE000F1080C4FF0010808FA0CF3D4
:1010A000B1F800C00CEA03069E4221D183004FF044
:1010B0000F0C0CFA03F7BC4305FA03FC4CEA0404DA
:1010C00091F803C0BCF1280F05D100F1080C08FA13
:1010D0000CF8C2F8148091F803C0BCF1480F07D196
:1010E00000F1080C4FF0010808FA0CF8C2F8108063
:1010F000401C0828CED35460BDE8F0810246002091
:10110000D3680B400BB1012000E000207047416123
:10111000704701617047000010B5044620A12046C9
:10112000FFF742F848B90120FFF7BAFE1EA001F010
:10113000F5FAFFF74BFE012010BD1EA12046FFF778
:1011400033F848B90020FFF7ABFE1CA001F0E6FA27
:10115000FFF73CFE0120EFE71CA12046FFF724F833
:1011600048B90120FFF78AFE1BA001F0D7FAFFF76C
:101170002DFE0120E0E71CA12046FFF715F848B935
:101180000020FFF77BFE1BA001F0C8FAFFF71EFE50
:101190000120D1E721461BA001F0C0FA0020CBE7D7
:1011A0004C45445F4F4E00004F4B3A4C45445F4F17
:1011B0004E0D0A004C45445F4F4646004F4B3A4C9B
:1011C00045445F4F46460D0A0000000042555A5AFA
:1011D00045525F4F4E0000004F4B3A42555A5A4518
:1011E000525F4F4E0D0A000042555A5A45525F4F0A
:1011F000464600004F4B3A42555A5A45525F4F46B9
:10120000460D0A004552523A554E4B4E4F574E5FCF
:10121000434D442C25730D0A0000000010B500F06A
:1012200003F800F057F810BD70B5B2B001F024F922
:1012300001F0A8F8054619480068854209D017480A
:10124000056001F0A5F806463246294614A001F0D3
:1012500065FA1C48008800F4004008B932B070BD3F
:1012600018480088C0F30D04C82C00D3C72400F030
:101270000DFA224614496846FEF778FF00200DF863
:1012800004001049088000F003FA04B9E6E7694653
:101290000EA000F059F800BFE0E7000000000020B9
:1012A0005B554152542D52585D20636F756E743DED
:1012B000256C75206C6173743D3078253032580D83
:1012C0000A00000070000020D00000205553415259
:1012D0005431000030B591B000F0EAF800F084F825
:1012E00004460D480068844209D00B48046000F0B1
:1012F00081F805462A46214608A001F00FFA402150
:1013000001A800F03DF808B911B030BD01A90CA04A
:1013100000F01AF800BFF7E7040000205B554152C7
:1013200054332D52585D20636F756E743D256C7576
:10133000206C6173743D3078253032580D0A0000FE
:10134000555341525433000070B505460C462246B1
:10135000294606A001F0E2F92046FFF7DDFE064629
:101360003146204600F02AFC70BD00005B5541521A
:10137000542D434D445D5B25735D2025730D0A009C
:101380002DE9F04106460F4606B117B90020BDE829
:10139000F08100F07BF91248B0F8008008F40040BA
:1013A00018B900F075F90020F1E7C8F30D04BC424C
:1013B00001DB781E84B2002504E00A48405D7055C8
:1013C000681C85B2A542F8DB00203055044908802E
:1013D00000F05EF90CB10120D9E70020D7E700004A
:1013E0005000002080000020014800687047000085
:1013F0005400002001480078704700005800002089
:1014000010B586B004460121880400F099FC012142
:10141000092000F0A5FC4FF48060ADF814001820FE
:101420008DF8170003208DF8160005A91E48FFF758
:10143000DAFD4FF40060ADF8140048208DF8170075
:1014400005A91948FFF7CFFD01940020ADF8080069
:10145000ADF80A00ADF80C00ADF810000C20ADF8A6
:101460000E0001A9114801F0E1F801210F4801F037
:1014700075F840210D4801F059F8012240F225513C
:101480000A4801F0AEF827208DF8000003208DF8FF
:10149000010002208DF8020001208DF8030068464B
:1014A00000F0EEFB06B010BD000C0140004800400B
:1014B00010B506E0064801F025F9C4B2204600F058
:1014C00009F82021024801F055F80028F2D110BD9A
:1014D000004800400146144A1268521C124B1A6020
:1014E000124A1170124A128802F4004202B1704787
:1014F0000F4A1288C2F30D000D2901D00A2905D127
:1015000018B140F400420A4B1A80F0E73F2805D298
:10151000084A1154421C064B1A8002E00022044B78
:101520001A8000BFE3E700005400002058000020AC
:1015300050000020800000202DE9F04105460C46B7
:1015400000260723012229460F48FFF7EBFA002760
:1015500013E001210C48FFF746FB00BF02210A48B7
:10156000FFF75DFA0028F9D00748FFF754FA064460
:10157000052001F04BFE781CC7B2A742E9DBB6FBA1
:10158000F4F080B2BDE8F081003C01402DE9F0416B
:1015900005460C4600260723012229460F48FFF77F
:1015A000C1FA002713E001210C48FFF71CFB00BF24
:1015B00002210A48FFF733FA0028F9D00748FFF75D
:1015C0002AFA0644052001F021FE781CC7B2A74282
:1015D000E9DBB6FBF4F080B2BDE8F0810024014005
:1015E00010B50A210620FFF7A7FF0446B4F57A6F6D
:1015F00001D94FF47A642820B4FBF0F0C0F1640004
:10160000C0B210BD2DE9F05F0A211020FFF7BEFF28
:1016100083465846FFF738F88046FFF772F80646CB
:101620004FF06632114BFEF745FF04460D46224649
:101630002B460F480F49FEF737FF80460E4A0F4BE7
:10164000FEF7AAFF064600220D4BFEF78CFE04466D
:101650000D4600220B4B20462946FEF72BFF06467F
:10166000FFF730F882465046BDE8F09F66664A3F75
:10167000E17A14AE47E1F63F22FDF675E09C713F3A
:10168000000039400000594000BFFEE772B67047C5
:1016900062B6704770B506460F484088401E83B258
:1016A0000D480088401E82B20021084600F0D2F8A2
:1016B00000240CE0002504E0304600F0AFFA681C7E
:1016C00085B205484088A842F6DC601C84B2024816
:1016D0000088A042EEDC70BD2000002000B502466C
:1016E0000F4882716AB9362000F08CFA4C2000F065
:1016F0008FFA4FF4F0700A4948804FF4A0700880C8
:101700000CE0362000F07EFA2C2000F081FA4FF435
:10171000A070034948804FF4F070088000BD0000BD
:101720002000002070B504460D4616462B46224682
:101730002946204600F08EF8304600F06FFA70BD62
:101740002DE9FF4F84B081468A46002002908346EF
:101750000698A0EB09050798A0EB0A06CDF80490BF
:10176000CDF800A0002D01DD012705E00DB900270F
:1017700002E04FF0FF376D42002E02DD4FF001080E
:1017800006E016B94FF0000802E04FF0FF3876424D
:10179000B54201DD2C4600E03446002003901EE0F7
:1017A000009A91B2019A90B2119AFFF7BBFF02988A
:1017B00028440290B3440298A04205DD0298001B21
:1017C0000290019838440190A34504DDABEB040B73
:1017D0000098404400900398401C80B20390611C24
:1017E00003988842DCDD08B0BDE8F08F2DE9F043B6
:1017F00004460D4616461F46DDF81C80B44201DC47
:10180000BD4201DDBDE8F0833B4632462946204615
:1018100000F020F8301B401C84B2781B401C85B2BD
:101820000BE0A94602E0404600F0F8F9B9F10000EB
:10183000A9F101011FFA81F9F5D1201EA4F10101DE
:101840008CB2EED100BFDDE7014800887047000090
:101850000008006C30B504460D462A2000F0D2F98D
:10186000201200F0D5F9E0B200F0D2F9101200F029
:10187000CFF9D0B200F0CCF92B2000F0C3F9281238
:1018800000F0C6F9E8B200F0C3F9181200F0C0F990
:10189000D8B200F0BDF92C2000F0B4F930BD000042
:1018A0002DE9F84F80460E4617461C46B3462046A3
:1018B000E31704EB5373DB1021464FEAE47C04EB9F
:1018C0005C7C4FEAEC0CA4EBCC0CBCF1000F02D01A
:1018D0004FF0010C01E04FF0000C6344224604EB92
:1018E000D27C4FEA6C0C03FB0CF3DBB20093A7F144
:1018F0002000C7B2002556E00C2C07D107EB4700AB
:101900002B4901EB800010F8059013E0102C05D155
:10191000284800EB071010F805900BE0182C07D1B1
:1019200007EBC700244901EB800010F8059001E0A7
:10193000BDE8F88F4FF0000A2FE009F0800030B1C9
:101940001E48028831464046FFF7ECFE07E00A9841
:1019500028B91B48028831464046FFF7E3FE4FEAAC
:1019600049604FEA1069701C86B216484088B04240
:1019700000DCDDE7A6EB0B00A0420AD15E4608F1D1
:1019800001001FFA80F80F480088404500DCCFE7CF
:1019900006E00AF1010000F0FF0ABAF1080FCCDB03
:1019A00000BF681CC5B200988542A5DB00BFBFE739
:1019B0004C370008C03B0008B04100081C00002064
:1019C0001E000020200000202DE9F84704460D46A7
:1019D00090469946DDE9096704F0FF0A08EB040028
:1019E0001FFA80F809EB05001FFA80F916E044455C
:1019F00002DB5446A81985B24D4500DB14E00020F7
:101A000000903A78334629462046FFF749FF304692
:101A100006EBD07104EB61018CB27F1C38787E2814
:101A200002DC38782028E2DA00BFBDE8F887000041
:101A300010B500F07DFB012008490870002008491E
:101A4000086008A10948FEF7BDFB09A10A48FEF796
:101A5000B9FB01F05BFC00F02FF810BD280000205E
:101A60002C0000204E4F4E450000000030000020AA
:101A700057414954000000004800002010B50C48B0
:101A8000007800B910BD00F06FFA044609480068FC
:101A900018B108480068844207D300F00DF800F040
:101AA00063FA00F5FA700349086000BFEAE7000036
:101AB000280000202C00002010B58CB0344800789D
:101AC00008B90CB010BD08A8FFF70AF9002840D0EB
:101AD0006846089901F0D2FC4FF4FC626946302058
:101AE00001F04AFD68460A9901F0A6FC4FF4FC6239
:101AF0006946482001F040FD9DF82C0010B14FF6DA
:101B0000E07001E04FF6FF7002469DF82C0008B12E
:101B100020A000E020A00146602001F02DFD9DF8EE
:101B20002D0010B14FF4784001E04FF6FF700246EF
:101B30009DF82D0008B117A000E017A001467820FD
:101B400001F01AFD4FF4FC6214A1902001F014FD85
:101B500005E04FF6E07212A1902001F00DFD124B4E
:101B6000124A13A1684600F0E9FD13A10F48FEF7E1
:101B70001BFB10B94FF4784001E04FF6FF700446AC
:101B800022466946A82001F0F7FC00BF99E7000053
:101B9000280000204F4E00004F4646004F4B0000EB
:101BA0005741495400000000300000204800002048
:101BB00025732025730000004552520070B504467D
:101BC0000D4604B970BD172221460A48FEF7E0FA17
:101BD00000200849C87525B107A10848FEF7F2FAA8
:101BE00003E007A10548FEF7EDFAFFF765FF00BF28
:101BF000E8E70000300000204F4B000048000020C4
:101C0000455252000149088070470000FE07006CF1
:101C100001490880704700000008006C0112024A68
:101C20001180C1B2118070470008006C08B5012115
:101C3000482000F095F82020ADF8000010208DF825
:101C4000030003208DF8020069460948FFF7CBF92D
:101C500020210748FFF75DFA2020ADF80000694613
:101C60000448FFF7C0F920210248FFF752FA08BDE7
:101C7000000C01400018014000BFFEE77047000063
:101C800070B5002100230F22C47804B3154C2468DA
:101C900004F4E064C4F5E064210AC1F10403CA401D
:101CA000447804FA03F184781440214309010E4C6E
:101CB0000678A155047804F01F050124AC4005788E
:101CC0006D11AD0005F1E025C5F8004109E004788B
:101CD00004F01F050124AC40044D0678761145F848
:101CE000264070BD0CED00E000E400E080E100E083
:101CF00002490143024A1160704700000000FA05E2
:101D00000CED00E07047000001460020034A5068D7
:101D100020F440400843506070470000001002402B
:101D200029B1064A52690243044B5A6104E0034A4E
:101D300052698243014B5A61704700000010024013
:101D400029B1064AD2690243044BDA6104E0034A2E
:101D5000D2698243014BDA617047000000100240F3
:101D600029B1064A92690243044B9A6104E0034A8E
:101D700092698243014B9A61704700000010024053
:101D800030B500210022002400232D4D6D6805F0A0
:101D90000C0121B1042905D0082923D105E0294DE2
:101DA000056022E0274D05601FE0254D6D6805F4B4
:101DB0007012234D6D6805F48034022505EB9242C4
:101DC0001CB9214D554305600BE01D4D6D6805F4B0
:101DD00000351DB11C4D5543056002E0194D5543BA
:101DE000056002E0174D056000BF00BF144D6D682F
:101DF00005F0F0010909154D6B5C0568DD40456093
:101E00000F4D6D6805F4E061090A104D6B5C456883
:101E1000DD4085600A4D6D6805F46051C90A0B4DBF
:101E20006B5C4568DD40C560054D6D6805F440415B
:101E3000890B074D6B5CC568B5FBF3F5056130BDDB
:101E40000010024000127A0000093D000800002046
:101E500018000020704710B500F002F810BD000017
:101E60000CB50020019000903348006840F48030A9
:101E70003149086000BF3048006800F4003000902D
:101E80000198401C0190009818B90198B0F5A06F16
:101E9000F1D12948006800F4003010B10120009011
:101EA00001E0002000900098012843D123480068F9
:101EB00040F01000214908600846006820F0030047
:101EC00008600846006840F0020008601A48406850
:101ED000194948600846406848600846406840F430
:101EE000806048600846406820F47C1048600846DE
:101EF000406840F4E81048600846006840F0807090
:101F0000086000BF0C48006800F000700028F9D09D
:101F10000948406820F003000749486008464068C7
:101F200040F00200486000BF0348406800F00C0029
:101F30000828F9D10CBD000000100240002002402A
:101F4000042808D14FF0E021096941F004014FF065
:101F5000E022116107E04FF0E021096921F004015E
:101F60004FF0E0221161704701480068704700009F
:101F70006C0000207047000010B504466FF00400AC
:101F8000FFF7DEFFE008094908700846007800EB1B
:101F90004001C1EBC0104FF6FF7101EAC0000449D7
:101FA000088000200349086010BD00006800002080
:101FB0006A0000206C00002010B51348006840F053
:101FC00001001149086008464068104908400E4960
:101FD0004860084600680E4908400B4908600846FA
:101FE000006820F4802008600846406820F4FE0065
:101FF00048604FF41F008860FFF72DFF4FF000602E
:102000000449086010BD0000001002400000FFF805
:10201000FFFFF6FE08ED00E000B59DB001210802CB
:10202000FFF77EFE01200790002008900F20099006
:1020300000200A900B900C900D90152000900190BC
:102040000520029000200390049005900690062041
:102050000E9000200F9010901020119000201290F0
:1020600014901390159016904FF480501790002004
:1020700018904FF48040199000201A9007A81B90E8
:10208000CDF870D00EA8FEF73BFF01210620FEF729
:102090001DFF1DB000BD000008B501214FF4B47054
:1020A000FFF75EFE4CF23370ADF8000018208DF89B
:1020B000030003208DF8020069461848FEF793FFDD
:1020C0004FF68070ADF8000018208DF80300032053
:1020D0008DF8020069461248FEF785FF41F20100C3
:1020E000ADF8000018208DF8030003208DF80200E1
:1020F00069460C48FEF777FF0120ADF8000010207C
:102100008DF8030003208DF8020069460648FEF7AB
:102110006AFF01200549086008BD00000014014065
:102120000018014000200140000C01408081214244
:1021300010B5FFF7B1FFFFF76FFF322001F066F82F
:10214000D020FFF75FFDFFF77FFB89498880FFF70D
:102150007BFB874988800846818886A000F0DEFAEC
:102160001120FFF74FFD4FF4FA7401E0601E84B2B6
:10217000002CFBDCB920FFF745FDFF20FFF748FDF1
:102180008320FFF745FD5720FFF742FD4FF4FA7417
:1021900001E0601E84B2002CFBDCB120FFF732FDB1
:1021A0000020FFF735FD1420FFF732FD1C20FFF75C
:1021B0002FFD1C20FFF72CFDC320FFF729FD442035
:1021C000FFF726FD7020FFF723FD4FF4FA7401E0BE
:1021D000601E84B2002CFBDCB420FFF713FD22202C
:1021E000FFF716FD4020FFF713FD0020FFF710FD5D
:1021F0002A20FFF70DFD2A20FFF70AFD2020FFF718
:1022000007FD9120FFF704FD4FF4FA7401E0601E12
:1022100084B2002CFBDC3620FFF7F4FC4C20FFF7E7
:10222000F7FCC020FFF7EEFC5020FFF7F1FC502038
:10223000FFF7EEFC0120FFF7EBFC3C20FFF7E8FC8A
:10224000C820FFF7E5FC0820FFF7E2FC0020FFF7BD
:10225000DFFC0820FFF7DCFC0420FFF7D9FC4FF47B
:10226000FA7401E0601E84B2002CFBDC4FF4FA74B7
:1022700001E0601E84B2002CFBDCE020FFF7C2FC12
:102280000B20FFF7C5FC1120FFF7C2FC1E20FFF753
:10229000BFFC3020FFF7BCFC3A20FFF7B9FC43201D
:1022A000FFF7B6FC4E20FFF7B3FC5620FFF7B0FC5B
:1022B0004520FFF7ADFC3F20FFF7AAFC3920FFF7D0
:1022C000A7FC3220FFF7A4FC2F20FFF7A1FC2A2057
:1022D000FFF79EFC2920FFF79BFC2120FFF798FCCD
:1022E0000B20FFF795FC1120FFF792FC1E20FFF753
:1022F0008FFC3020FFF78CFC3A20FFF789FC43204D
:10230000FFF786FC4E20FFF783FC5620FFF780FC8A
:102310004520FFF77DFC3F20FFF77AFC3920FFF7CF
:1023200077FC3220FFF774FC2F20FFF771FC2A2086
:10233000FFF76EFC2920FFF76BFC2120FFF768FCFC
:102340000020FFF765FC0120FFF762FC3A20FFF751
:1023500059FC0520FFF75CFC2920FFF753FC002007
:10236000FFF7BCF94FF6FF70FFF794F910BD0000BE
:1023700020000020204C43442049443A25780D0A8F
:102380000000000001480068704700007400002051
:1023900001480078704700007800002010B540F236
:1023A0002551084800F0F3F858B1064800F0AAF9A2
:1023B000C4B2204600F072F840F22551014800F006
:1023C000BEF810BD0038014010B586B004460121AA
:1023D0000420FFF7C5FC01218803FFF7C1FC4FF47F
:1023E0000070ADF8140003208DF8160018208DF849
:1023F000170005A91E48FEF7F6FD4FF48060ADF802
:10240000140048208DF8170005A91948FEF7EBFDC8
:1024100001940020ADF80800ADF80A00ADF80C00FA
:10242000ADF810000C20ADF80E0001A9114800F025
:10243000FDF801210F4800F091F840210D4800F00F
:1024400075F8012240F225510A4800F0CAF825200B
:102450008DF8000003208DF801008DF802000120A6
:102460008DF803006846FFF70BFC06B010BD0000B6
:10247000000801400038014010B506E0064800F0B1
:1024800041F9C4B2204600F009F82021024800F0CA
:1024900071F80028F2D110BD003801400146144AFD
:1024A0001268521C124B1A60124A1170124A12889A
:1024B00002F4004202B170470F4A1288C2F30D00C5
:1024C0000D2901D00A2905D118B140F400420A4B68
:1024D0001A80F0E7C72805D2084A1154421C064B5F
:1024E0001A8002E00022044B1A8000BFE3E70000DC
:1024F000740000207800002070000020D000002030
:1025000010B540F22551084800F041F858B106488E
:1025100000F0F8F8C4B22046FEF7DCFF40F2255187
:10252000014800F00CF810BD0048004001F40072B2
:10253000B2F5007F00D100BFCA430280704710B5DA
:102540000022002340F66A14A14200D100BF0A1203
:1025500001249440A3B2DC43048010BD21B18289E0
:1025600042F40052828104E082894DF6FF731A40E2
:102570008281704702460020B1F5007F00D100BF84
:1025800013880B400BB1012000E00020704770B5AC
:102590000246002400230025002040F66A16B142BE
:1025A00000D100BFC1F3421501F01F03012606FA56
:1025B00003F3012D02D19689334006E0022D02D1AA
:1025C000168A334001E0968A33400C12012606FA3F
:1025D00004F41688344013B10CB1012000E000204F
:1025E00070BDF0B50346002400260025002040F60B
:1025F0006A17B94200D100BF1846C1F3421401F076
:102600001F06012707FA06F5012C01D10C3004E062
:10261000022C01D1103000E014301AB107682F43AA
:10262000076002E00768AF430760F0BD2DE9F0479F
:1026300086B005460E460024A24600BFA1460027EC
:10264000B08900B100BF2F462C8A4CF6FF700440C1
:10265000F08804432C82AC894EF6F3100440B08815
:1026600031890843718908430443AC81AC8A4FF631
:10267000FF400440B0890443AC8201A8FFF780FB0F
:102680001F48874202D1DDF810A001E0DDF80CA060
:10269000A88900F4004040B10AEBCA0000EB0A1020
:1026A00031684900B0FBF1F807E00AEBCA0000EB23
:1026B0000A1031688900B0FBF1F86420B8FBF0F033
:1026C00004012009642101FB1089A88900F400405D
:1026D00040B1322000EBC900B0FBF1F000F0070080
:1026E000044308E0322000EB09106421B0FBF1F054
:1026F00000F00F0004432C8106B0BDE8F087000015
:102700000038014001468888C0F308007047C1F3D3
:1027100008028280704700BFFEE700000FB4054B3F
:1027200010B503A9044A029800F0EEF810BC5DF859
:1027300014FB0000A13200087C0000200FB4084BFD
:1027400010B504A902AA039800F0DEF8044602A915
:10275000002000F05CFC204610BC5DF814FB00007B
:102760000F30000802E008C8121F08C1002AFAD181
:1027700070477047002001E001C1121F002AFBD101
:10278000704700002DE9FF5F82B00021DDE90430D1
:10279000020DDDF840B0034318D044F61050A2F209
:1027A000FF3242431514119801281FD0A5EB0B00EE
:1027B000401C5FEA000A4FF000064E4FDFF83891E8
:1027C000B046504615D5CAF1000413E01198012413
:1027D0004AA3012801D16FEA0B010298119AC0E9BE
:1027E0000031C0E9024206B0BDE8F09FCBF1000025
:1027F000DFE704460021404A491842EB0450CDE986
:10280000001012E0E00707D032463B4640464946FA
:10281000FDF750FE8046894632463B461046194633
:10282000FDF748FE06460F466410002CEAD1DDE9AC
:102830000401DDE90023BAF1000F06DAFDF73AFEE4
:1028400042464B46FDF736FE05E0FDF7A5FE424643
:102850004B46FDF7A1FE04460E460022284BFEF72C
:102860009BF803D84FF0FF30014607E00022254BCC
:1028700020463146FDF777FDFEF776F8102409E093
:10288000002C0ADB0A220023FDF778FF039B30327D
:102890001A55641E50EA0102F2D1641C039AC4F175
:1028A00011031444119A012A03D0012208430DD1C7
:1028B0000AE0084304D000204FF0110B119072E79A
:1028C000A3EB0B056D1E0DE05B4504DD4FF0000230
:1028D00005F1010504E003DA4FF00002A5F101055E
:1028E000002AECD002981199C0E90231C0E90045F4
:1028F00079E70000000014400000F03F30000000C5
:102900000000F0430000E03F2DE9FF4F95B09A46EC
:10291000884606460025EEE1252877D10024274683
:10292000F94A0121039400E0044316F8013F203BDB
:1029300001FA03F01042F7D130782A2811D06FF055
:102940002F033078A0F13002092A16D8039A44F0F8
:10295000020402EB820203EB42021044761C039055
:10296000EFE758F8042B0392002A03DA504244F4AC
:102970000054039044F00204761C30782E2816D1BF
:1029800016F8010F44F004042A280DD06FF02F022E
:102990003078A0F13003092B09D807EB870302EB4D
:1029A0004303C718761CF3E758F8047B761C30788D
:1029B0006C280FD006DC4C2817D068280DD06A2868
:1029C00014D104E0742810D07A280FD10DE044F41B
:1029D00000140AE044F4801401E044F440147278D6
:1029E000824202D104F58014761C761C3078662869
:1029F0000BD013DC582877D009DC002875D0452887
:102A0000F6D04628F4D047281AD193E118E063287D
:102A100035D0642879D0652812D18BE1702873D025
:102A200008DC6728F1D069286FD06E280DD06F2898
:102A300006D1ACE073282CD0752874D0782853D0F8
:102A40005246179990476D1C54E1C4F30250022876
:102A500009D003280DD0D8F8001004280DD00D603F
:102A600008F1040846E1D8F80010EA17C1E900525D
:102A7000F6E7D8F800100D80F2E70D70F0E718F8CF
:102A8000041B8DF8001000208DF80100EB4601209A
:102A900003E058F804BB4FF0FF3061074FF000012E
:102AA00002D40DE009F101018946B9420FDA8145EE
:102AB000F8DB1BF809100029F4D108E009F1010145
:102AC00089468142FADB1BF809100029F6D10398E8
:102AD0005346A0EB090721463846179A00F080FAC2
:102AE000284400EB090507E044E008E10DE01BF88D
:102AF000010B524617999047B9F10109F7D2534695
:102B000021463846179AF2E039E00A21C4F302520E
:102B10004FF0000B0091022A06D058F8040BC117A1
:102B2000032A09D00AE023E008F1070020F0070299
:102B3000F2E80201904605E000B2C117042A01D173
:102B400040B2C117002906DA0A460021404261EB73
:102B500002012D2202E0220504D52B228DF804204B
:102B6000012203E0E20701D02022F7E7914657E077
:102B70000A2100E010214FF0000B00910BE0102122
:102B80004FF0000B44F004040827009103E00820F4
:102B90004FF0000B0090C4F30252022A05D058F8FF
:102BA000040B0021032A08D008E008F1070020F0F8
:102BB0000702F2E80201904603E080B2042A00D145
:102BC000C0B24FF0000922072AD53278702A07D008
:102BD000DDF800C08CF0100C5CEA0B0C05D00EE0A8
:102BE00040228DF80420012208E050EA010306D0BB
:102BF00030238DF804308DF8052002229146009B89
:102C000083F0080353EA0B030AD150EA010201D111
:102C1000620705D530228DF804204FF001097F1E90
:102C20003278582A04D039A20C920CAA02920BE0F6
:102C30003BA2F9E75B46009AFDF7A0FD0C9B9B5C6D
:102C4000029A521E0292137050EA0102F2D10298C7
:102C500004A9081A00F1200B600702D524F480347F
:102C600000E001275F4502DDA7EB0B0000E000203C
:102C700000EB0B01009003984944401A0390E003D5
:102C800006D453462146179A039800F0A9F9054443
:102C9000002706E001A85246C05D179990476D1CB9
:102CA0007F1C4F45F6DBE0030CD553462146179AAF
:102CB000039800F095F9054404E030205246179936
:102CC00090476D1C0099481E00900029F5DC08E033
:102CD0000298029952460078491C02911799904730
:102CE0006D1CBBF10001ABF1010BF1DC5BE100F00D
:102CF00065F90544761C307800287FF40DAE19B0D4
:102D00002846BDE8F08F0000092801003031323339
:102D10003435363738396162636465660000000017
:102D20003031323334353637383941424344454601
:102D300000000000600700D4062708F1070020F01B
:102D40000700F0E80223804603F0004C5FEA0C0025
:102D500001D097A009E0200501D596A005E0E00785
:102D600001D095A001E0AFF24C001390307823F031
:102D7000004365280CD006DC452809D046281DD024
:102D800047287FD13BE0662818D067287AD136E003
:102D90000021112F01DB112000E0781CCDE900019A
:102DA00004A90CA8FFF7EEFCDDE90D010C9A4FF029
:102DB000000B07F10109109200914EE04FF0004026
:102DC0000097CDE9011004A90CA8FFF7DBFCDDE9B1
:102DD0000D020C9B0F994FF0000B9146109300923F
:102DE00011B9791C00EB0109B7EB090003D4C0F15C
:102DF000FF3B07F10109A9EB0700019042E0012F19
:102E000000DA01270021112F01DD112000E03846F2
:102E1000CDE9000104A90CA8FFF7B4FCDDE90D0120
:102E20000C9A00914FF0000BB946109221070FD475
:102E3000009A4A4503DA914601E0A9F10109B9F186
:102E4000010F05DD109AA9F10101515C3029F4D080
:102E5000B84202DA10F1040F03DA0121CDE90110C2
:102E600010E0002803DC8344A9EB000102E0411CD0
:102E7000494500DD8946A0EB0B00401C01904FF056
:102E800000400290200705D40198484502DB4FF02E
:102E9000FF30019000208DF84B0002980DF14B0798
:102EA000B0F1004F25D002200C902B200D900298FD
:102EB00000280CDA404202902D200D9007E00A21F4
:102EC0000298FDF745FC3031029007F8011D0C997E
:102ED000481E0C900029F2DC02980028EFD1791EE0
:102EE0000D980870307800F0200040F0450007F899
:102EF000020D11A8C01BC01D02901398007800B1EC
:102F0000012000EB0901019801EBE07102980144F6
:102F10000398401A401E0390E00306D4534621460E
:102F2000179A039800F05CF805441398007818B1DC
:102F30005246179990476D1CE00323D5534621460E
:102F4000179A039800F04CF805441BE0BBF1000F02
:102F500007DB0098584504DD1098179910F80B000E
:102F600001E0179930205246904701980BF1010B70
:102F7000401E05F10105019004D12E2052461799FB
:102F800090476D1CB9F10001A9F10109DEDC05E0F3
:102F900017F8010B5246179990476D1C0299481E6D
:102FA00002900029F4DC53462146179A03989EE6C6
:102FB0002D0000002B000000200000002DE9F04152
:102FC000044600251E461746880404D405E0394609
:102FD0002020B0476D1C641EF9D52846BDE8F0815D
:102FE0002DE9F041044600251E469046C80301D550
:102FF000302700E02027880404D505E04146384604
:10300000B0476D1C641EF9D52846BDE8F0810A68FA
:10301000531C0B601070704710B504462CB14FF470
:1030200080710548FEF775F804E04FF4807102489E
:10303000FEF76DF810BD0000000C014018B1002132
:10304000034A116002E00121014A1160704700004B
:103050009481214208B501210820FEF781FE4FF43A
:103060008070ADF8000010208DF8030003208DF86B
:10307000020069460148FDF7B6FF08BD000C01409B
:103080002DE9F84F05460C4622480078401C1421D3
:10309000B0FBF1F201FB12001E490870C4F164009C
:1030A000FDF7F2FA81461C49FDF7EDF807461B498A
:1030B0002846FDF7E2F881461949FDF7E4F8804615
:1030C00014480078FDF7E0FA16490090FDF7D5F8AE
:1030D00083461549FDF7D7F8814639461348FDF771
:1030E0007AF883464146FDF7C8F882464946FDF71F
:1030F00072F806460E493046FDF716FB01D20C4E1B
:1031000005E00C493046FDF719FB00D2094E304668
:10311000BDE8F88F64000020EC51383E0000C84143
:103120003333B33E000020419A99193F00006842B2
:1031300000000C420000AA422DE9FF5FFEF762FA90
:103140000446FEF74DFA05462046FDF794FA074679
:103150001C49FDF7CAF806461B480660294630465A
:10316000FFF78EFF184948602846FDF78DFA16498B
:1031700088600120887315490870FDF7C5FD8346F6
:1031800011494868FDF7BDFA07468846002C01DB67
:10319000204600E06042642190FBF1F201FB12093D
:1031A00094FBF1FA4A46514609A0CDE9025BCDE90C
:1031B0000078FFF7B3FAFDF709FE012004B0BDE87F
:1031C000F09F00000000C842C00000205C0000200A
:1031D0005B53454E534F525D2074656D703D2564C1
:1031E0002E25303264432068756D2873696D293D42
:1031F000252E31662525206C696768743D25752567
:1032000025206C65643D25750D0A000070B50446E7
:103210004FF40770B4FBF0F0C6B24FF40770B4FB84
:10322000F0F100FB114505E04FF4077000F00AF8DB
:10323000701EC6B2002EF7D115B1284600F002F874
:1032400070BD00000146144A12884A434FF0E02343
:103250005A6100229A611A46126942F001021A610B
:1032600000BF4FF0E022106900F001021AB100F433
:103270008032002AF5D04FF0E022126922F00102DC
:103280004FF0E0231A6100229A61044A12680A444E
:10329000024B1A60704700006A0000206C0000209A
:1032A00070B504460D46E1B20548FFF730FA00BF9D
:1032B00080210348FFF75EF90028F9D0204670BD51
:1032C0000038014038B504460F480088582819D9FD
:1032D0000D484088A04215DD04F1170085B20A4868
:1032E0004088A84203DC08484088401E85B2002080
:1032F000009005480088401E82B22B462146582087
:10330000FEF774FA38BD00002000002008B5002048
:10331000FEF7C0F94FF6E0732FA20821084600F02F
:10332000FDF848F2304000902F480088401E82B2DD
:10333000202319460020FEF703FA47F6FF732BA25D
:103340003021082000F0EAF847F6FF7329A248214F
:10335000082000F0E3F847F6FF7328A26021082058
:1033600000F0DCF847F6FF7325A27821082000F072
:10337000D5F847F6FF7324A29021082000F0CEF87C
:1033800047F6FF7322A2A821082000F0C7F84FF6E5
:10339000FF7220A1302000F0EFF84FF6FF721FA15E
:1033A000482000F0E9F84FF6FF721EA1602000F0FF
:1033B000E3F84FF6FF721BA1782000F0DDF84FF61E
:1033C000FF7219A1902000F0D7F84FF6FF7218A1F4
:1033D000A82000F0D1F808BD505A204631303320E3
:1033E00055415254204757002000002054454D506D
:1033F000000000004C494748540000004C45440080
:1034000042555A5A4552000055415254000000009E
:10341000434D44002D2D2E2D204300002D2D2D2019
:10342000250000004F464600574149540000000067
:103430004E4F4E45000000002DE9F04106460D4676
:1034400000212846FDF77AF909D84FF07C5128462B
:10345000FCF7C1FE0746FDF71CF9044600E0002416
:10346000642C00DD6424224602A13046FFF766F991
:10347000BDE8F08125642025250000002DE9F047F6
:1034800007460E4600213046FDF758F90DD81D4974
:103490003046FCF7F8FE81464FF07C51FCF79BFE6E
:1034A0008046FDF7F6F804460CE016493046FCF776
:1034B000EAFE81464FF07C51FCF7DFFE8046FDF7C7
:1034C000E8F80446002C0EDA65420A2095FBF0F17C
:1034D00000FB115895FBF0F943464A460AA13846CD
:1034E000FFF72CF90CE00A2094FBF0F100FB1148E7
:1034F00094FBF0F943464A4606A13846FFF71EF909
:10350000BDE8F087000020412D25642E256420436E
:103510000000000025642E25642043002DE9FC41B5
:1035200004460E461746984610480088A04203DD20
:103530000E484088B04201DCBDE8FC810B480088A1
:10354000001B85B2DC2D00D9DC250948A0F80080DD
:10355000002008490880102018232A463146CDE96A
:1035600000072046FEF730FA00BFE5E72000002004
:103570001C0000201E00002070B504460D461646B3
:103580002046FFF79FFE33462A4621465820FFF784
:10359000C5FF70BD4820FEF7EFFC4FF4A060FEF7BA
:1035A000A7FB4FF4E130FEF70FFF4FF4E130FDF7DA
:1035B00027FFFEF73BFBFDF7B1FBFEF739FA16A03C
:1035C000FFF7ACF81FA0FFF7A9F828A0FFF7A6F8AF
:1035D0002F48FFF7A3F84FF4E1312EA0FFF79EF834
:1035E0004FF4E13233A139A0FFF798F83FA143A08F
:1035F000FFF794F845A146A0FFF790F849A0FFF720
:103600008DF808E0FDF724FCFEF738FAFDF706FE1A
:103610000A20FFF7FBFDF5E70D0A3D3D3D3D3D3D31
:103620003D3D3D3D3D3D3D3D3D3D3D3D3D3D3D3DCA
:103630003D3D3D3D3D3D3D3D3D3D3D3D3D3D0D0A1D
:103640000000000053544D33324631303320554191
:103650005254202B20507974686F6E204D51545471
:1036600020476174657761790D0A000046573A205A
:1036700075617274312D75706C696E6B2D75736127
:103680007274332D636F6E74726F6C0D0A000000DC
:103690006480000855534152543120646562756757
:1036A0002F73746174757320626175643A20257597
:1036B0000D0A00005553415254332054583D504296
:1036C00031302052583D5042313100005553415263
:1036D000543320636F6D6D616E642052583A20251B
:1036E0007320626175643D25750D0A0050463820CF
:1036F00028414443335F4348362900004C696768DA
:10370000742050494E3A2025730D0A00504238006B
:1037100042757A7A65722050494E3A2025730D0A17
:10372000000000003D3D3D3D3D3D3D3D3D3D3D3DBD
:103730003D3D3D3D3D3D3D3D3D3D3D3D3D3D3D3DB9
:103740003D3D3D3D3D3D3D3D0D0A0000000000007A
:103750000000000000000000000000003F400000EA
:103760000000000000003000400030004000000079
:1037700009000BC03D000BC03D00090018C02440EB
:103780007FE0224031800000180024C01B000D8023
:103790003240018003801C4027401C8007400040CD
:1037A00010006000000000000000000000000000A9
:1037B00000001F80204040200000402020401F804B
:1037C00000000000090006001F800600090000003C
:1037D000040004003F8004000400000000100060AA
:1037E00000000000000000000400040004000400C9
:1037F0000400000000000040000000000000000085
:10380000002001C006003800400000001F8020405A
:10381000204020401F800000000010403FC00040BA
:103820000000000018C02140224024401840000041
:1038300010802040244024401B80000002000D0026
:1038400011003FC0014000003C802440244024403F
:10385000238000001F802440244034400380000067
:103860003000200027C03800200000001B802440CA
:10387000244024401B8000001C0022C02240224023
:103880001F80000000000000084000000000000051
:1038900000000000046000000000000000000400C0
:1038A0000A001100208040400900090009000900B9
:1038B0000900000000004040208011000A000400C0
:1038C0001800200023402400180000001F80204022
:1038D000274029401F400000004007C039000F006A
:1038E00001C0004020403FC0244024401B80000015
:1038F0001F802040204020403080000020403FC0FA
:10390000204020401F80000020403FC024402E4027
:1039100030C0000020403FC024402E003000000096
:103920000F001080204022403380020020403FC022
:10393000040004003FC02040204020403FC0204001
:10394000204000000060202020203FC020002000F8
:1039500020403FC024400B0030C0204020403FC0EA
:1039600020400040004000C03FC03C0003C03C007D
:103970003FC0000020403FC00C4023003FC020005B
:103980001F802040204020401F80000020403FC07A
:1039900024402400180000001F802140214020E026
:1039A0001FA0000020403FC02440260019C0004056
:1039B00018C02440244022403180000030002040C4
:1039C0003FC020403000000020003F800040004009
:1039D0003F80200020003E0001C00700380020008A
:1039E000380007C03C0007C038000000204039C044
:1039F000060039C0204000002000384007C0384091
:103A000020000000304021C02640384020C0000087
:103A1000000000007FE04020402000000000700017
:103A20000C000380004000000000402040207FE0A8
:103A30000000000000002000400020000000000006
:103A40000010001000100010001000100000000016
:103A5000400000000000000000000280054005401A
:103A600003C0004020003FC0044004400380000029
:103A70000000038004400440064000000000038072
:103A8000044024403FC00040000003800540054042
:103A900003400000000004401FC0244024402000D8
:103AA000000002E0055005500650042020403FC0B1
:103AB0000440040003C000400000044027C0004050
:103AC0000000000000100010041027E000000000BB
:103AD00020403FC00140070004C004402040204077
:103AE0003FC000400040000007C0040007C00400C1
:103AF00003C00000044007C00440040003C00040AD
:103B0000000003800440044003800000041007F01C
:103B1000045004400380000000000380044004506F
:103B200007F00010044007C0024004000400000039
:103B3000000006400540054004C0000000000400ED
:103B40001F80044000400000040007800040044043
:103B500007C000400400070004C001800600040004
:103B6000060001C0070001C006000000044006C0B6
:103B7000010006C0044000000410071004E00180AA
:103B8000060004000000044005C006400440000098
:103B90000000000004007BE0402000000000000066
:103BA0000000FFF000000000000040207BE0040067
:103BB0000000000040008000400020002000400085
:103BC00000000000000000000000000000000000F5
:103BD0000000000000001FCC000C000000000000EE
:103BE00000000800300060000800300060000000A5
:103BF000022003FC1E20022003FC1E2002200000E5
:103C000000000E1811043FFF10840C780000000023
:103C10000F0010840F3800C0077818840078000067
:103C200000780F8410C411240E9800E4008400086A
:103C300008006800700000000000000000000000A4
:103C400000000000000007E01818200440020000F7
:103C5000000040022004181807E0000000000000E7
:103C60000240024001800FF001800240024000004B
:103C70000080008000800FF800800080008000003D
:103C80000001000D000E0000000000000000000018
:103C900000000080008000800080008000800080A4
:103CA0000000000C000C00000000000000000000FC
:103CB00000000006001800600180060018002000C7
:103CC000000007F0080810041004080807F00000BE
:103CD0000000080408041FFC0004000400000000A9
:103CE00000000E0C10141024104411840E0C00005F
:103CF00000000C1810041104110412880C7000004C
:103D0000000000E00320042408241FFC002400001D
:103D100000001F9810841104110410881070000016
:103D2000000007F0088811041104188800700000D2
:103D300000001C00100010FC13001C00100000000C
:103D400000000E3811441084108411440E38000015
:103D500000000700088C10441044088807F0000099
:103D6000000000000000030C030C00000000000035
:103D7000000000000001010600000000000000003B
:103D80000000008001400220041008081004000018
:103D90000220022002200220022002200220000035
:103DA00000001004080804100220014000800000F8
:103DB00000000E001200100C106C10800F000000AC
:103DC00003E00C1813E4142417C4082807D00000DB
:103DD0000004003C03C41C40074000E4001C000435
:103DE00010041FFC1104110411040E88007000005F
:103DF00003E00C1810041004100410081C1000003C
:103E000010041FFC100410041004080807F0000040
:103E100010041FFC1104110417C41004081800003A
:103E200010041FFC1104110017C01000080000004E
:103E300003E00C181004100410441C78004000002B
:103E400010041FFC10840080008010841FFC1004EC
:103E50000000100410041FFC1004100400000000F7
:103E600000030001100110011FFE100010000000EF
:103E700010041FFC110403801464181C10040000BB
:103E800010041FFC1004000400040004000C0000D7
:103E900010041FFC1F0000FC1F001FFC100400008A
:103EA00010041FFC0C04030000E010181FFC10009D
:103EB00007F00808100410041004080807F00000B8
:103EC00010041FFC10841080108010800F00000070
:103ED00007F0081810241024101C080A07F200002C
:103EE00010041FFC1104110011C011300E0C00044D
:103EF00000000E1C11041084108410441C380000B3
:103F00001800100010041FFC10041000180000001E
:103F100010001FF810040004000410041FF8100023
:103F200010001E0011E0001C007013801C00100027
:103F30001FC0103C00E01F0000E0103C1FC000004C
:103F40001004180C163401C001C01634180C1004EB
:103F500010001C00130400FC13041C0010000000DF
:103F60000804101C1064108413041C0410180000B2
:103F70000000000000007FFE4002400240020000FE
:103F8000000030000C0003800060001C00030000F3
:103F900000004002400240027FFE000000000000DE
:103FA0000000000020004000400040002000000011
:103FB00000010001000100010001000100010001F9
:103FC0000000400040002000000000000000000051
:103FD00000000098012401440144014400FC000455
:103FE00010001FFC0088010401040088007000001C
:103FF0000000007000880104010401040088000032
:104000000000007000880104010411081FFC000476
:10401000000000F8014401440144014400C80000CC
:104020000000010401040FFC110411041100180028
:10403000000000D601290129012901C9010600005B
:1040400010041FFC008401000100010400FC0004B6
:1040500000000104190419FC000400040000000021
:104060000000000300010101190119FE0000000019
:1040700010041FFC0024004001B4010C01040000E6
:104080000000100410041FFC0004000400000000E5
:10409000010401FC0104010001FC0104010000FC19
:1040A000010401FC008401000100010400FC000483
:1040B000000000F8010401040104010400F80000FC
:1040C000010101FF00850104010400880070000067
:1040D00000000070008801040104010501FF0001D7
:1040E0000104010401FC00840104010001800000BE
:1040F000000000CC012401240124012401980000C7
:1041000000000100010007F80104010400000000A4
:10411000010001F8000400040004010801FC00048F
:10412000010001800170000C00100160018001009D
:1041300001F0010C003001C00030010C01F0010061
:1041400000000104018C00740170018C0104000066
:10415000010101810171000E001801600180010060
:1041600000000184010C013401440184010C0000B1
:10417000000000000000000001003EFC4002400280
:104180000000000000000000FFFF00000000000031
:104190000000400240023EFC010000000000000060
:1041A00000006000800080004000400020002000EF
:1041B00000000000000000000000000000000000FF
:1041C00000000000000000000000000000000000EF
:1041D00000000000000000000000000000000000DF
:1041E0000000000F80380FFE380F803800000000FC
:1041F00000000000000000000000000000000100BE
:10420000000600000C00003800003100000600002D
:104210000C0000380000300000000000000000002A
:1042200061800067F807F9800061800061800061AB
:10423000800061800067F807F9800061800000005D
:1042400000000000000001C0E003E0F006300804B8
:1042500018081FFFFE040E080787F00381E0000026
:104260000000000001F000060C00040408060C70B9
:1042700001F9C0000E00003BE000EC18070808043C
:104280000C180003E00000000001E00007F003F854
:1042900018041C0804170807E1D003C0E00023B08D
:1042A000003C080020080000100000000000000191
:1042B00000003100003200001C000000000000007F
:1042C00000000000000000000000000000000000EE
:1042D00000000000000000000000000000000000DE
:1042E0007F0001FFC00780F00C00181000042000C0
:1042F000020000000000002000021000040C001862
:104300000780F001FFC0007F0000000000000000F7
:1043100000000000000000000000000042000066F5
:1043200000006600003C0000180003FFC0001800F9
:10433000003C000066000066000042000000000033
:10434000080000080000080000080000080001FF45
:10435000C000080000080000080000080000080075
:1043600000000000000100003100003200001C00CD
:10437000000000000000000000000000000000003D
:104380000000000000000000080000080000080015
:1043900000080000080000080000080000080000F5
:1043A00008000008000000000000000000000000FD
:1043B0003800003800003800000000000000000055
:1043C00000000000000000000000000000000000ED
:1043D000000600001C000070000180000E00003884
:1043E0000000C0000700001C0000300000000000BA
:1043F000000000007F8001FFE003807006001804C9
:10440000000804000806001803807001FFE0007F28
:10441000800000000000000000000100080100080A
:1044200001000803FFF807FFF8000008000008007B
:10443000000800000000000000000001C03802C0B9
:1044400058040098040118040218040418061C18E3
:1044500003F81801E0F8000000000000000000016F
:10446000C0E003C0F00400080408080408080618A7
:104470000803F41801E7F00001E00000000000006C
:10448000000000000300000D0000110000610000AA
:10449000810803010807FFF80FFFF8000108000179
:1044A000080000000000000000E007FCD00608083B
:1044B000061008061008061008061838060FF00641
:1044C00007C0000000000000000000003F8001FF66
:1044D000E0038430020818041008041008041008CF
:1044E000071810030FF00007C000000000000000D4
:1044F000000003C0000700000600000600F80607E1
:10450000F806180006E000070000060000000000A2
:1045100000000001E1E003F7F0063410041808047D
:104520001808040C08040C0806161803F3F001C15F
:10453000E000000000000000F80003FC3003063833
:104540000402080402080402080404100308F0012D
:10455000FFC0007F0000000000000000000000001D
:104560000000000000000000703800703800703853
:10457000000000000000000000000000000000003B
:10458000000000000000000000000000301A0030B1
:104590001C000000000000000000000000000000FF
:1045A00000000000000000080000140000220000CD
:1045B000410000808001004002002004001008003B
:1045C0000800000000000000210000210000210080
:1045D0000021000021000021000021000021000036
:1045E0002100002100000000000000000000080081
:1045F00008040010020020010040008080004100FB
:104600000022000014000008000000000000000369
:10461000C00004C000040000080038080F38080873
:10462000380810000C300007E00003C00000000054
:10463000000000003F8000FFE0038070020F1006C2
:10464000708804C088048308047F8802C090030136
:104650002000FE400000080000180001F8003E089D
:1046600001C20007020007E20000FE00001FC800B0
:1046700001F800003800000804000807FFF807FFF1
:10468000F8040808040808040808040808061808BC
:1046900003F41801E7F00001E00000000000000052
:1046A0003F8001FFE003807002001804000804004E
:1046B000080400080400100600200780C000000065
:1046C00004000807FFF807FFF804000804000804C6
:1046D000000804001802001003807001FFE0007F52
:1046E0008000000004000807FFF807FFF80408082E
:1046F000040808040808040808043E080400080622
:10470000001801006000000004000807FFF807FF20
:10471000F8040808040800040800040800043E0027
:1047200006000006000001800000000000000000FC
:104730003F8001FFE00380700600180400080402B7
:10474000080402080203F00783F0000200000200E0
:1047500004000807FFF807FFF80408080008000035
:10476000080000080000080004080807FFF807FF19
:10477000F80400080000000000000400080400081D
:1047800004000807FFF807FFF80400080400080405
:10479000000800000000000000000000000600000B
:1047A0000700000104000104000104000307FFFEEC
:1047B00007FFFC04000004000004000004000807D8
:1047C000FFF807FFF8040C08001800003E0004C7BB
:1047D000800503C80600F80400380400180000082B
:1047E00004000807FFF807FFF804000800000800AD
:1047F0000008000008000008000008000018000081
:104800006000000004000807FFF807800807FC00AC
:10481000007FC00003F80007C00078000780080789
:10482000FFF807FFF804000804000807FFF8070076
:104830000803C00000E000003800001E0000070070
:104840000001C00400F007FFF804000000000000B1
:104850007F8001FFE0038070060018040008040058
:104860000806001803003001FFE0007F8000000010
:1048700004000807FFF807FFF80404080404000414
:104880000400040400040400060C0003F80001F016
:1048900000000000000000007F8001FFE003807046
:1048A0000600880400880400C806003C03003E019E
:1048B000FFE6007F8400000004000807FFF807FF00
:1048C000F8040808040800040C00040F00040BC0DE
:1048D0000610F003F03801E00800000800000001B5
:1048E000E0F803F030063010041808041808040C2F
:1048F00008040C080206180207F00781E000000017
:104900000180000600000400000400000400080705
:10491000FFF807FFF8040008040000040000060088
:104920000001800004000007FFE007FFF00400180A
:10493000000008000008000008000008000008044B
:10494000001007FFE004000004000006000007E07C
:104950000007FE00041FE00001F80000380001E03D
:10496000043E0007C0000600000400000400000729
:10497000E00007FFC0041FF80007C007F80007FFAA
:1049800080043FF80007C004F8000700000400009E
:1049900000000004000806001807C07805F1C800F0
:1049A0003E00001F800463E80780F806001804003A
:1049B0000800000004000006000007800007E0086F
:1049C000047C08001FF80007F800180804E0080736
:1049D00000000600000400000000000100080600BE
:1049E000380400F80403E8040F08047C0805F00804
:1049F00007C0080700180400600000000000000065
:104A000000000000000000000000003FFFFE20004A
:104A1000022000022000022000022000020000000C
:104A200000000000000008000007000000C00000B7
:104A300038000006000001C000003000000E000039
:104A40000100000000000000000020000220000221
:104A50002000022000022000023FFFFE00000000B4
:104A60000000000000000000000000000000000046
:104A7000000800001000003000002000003000009E
:104A8000100000080000000000000000000001000D
:104A90000001000001000001000001000001000011
:104AA0000100000100000100000100000100000100
:104AB00000000000000000000020000020000010A6
:104AC00000001000000000000000000000000000D6
:104AD000000000000000000000F00019F8001B18A2
:104AE000002208002608002408002410003FF800D7
:104AF0001FF800000800001800000004000007FF75
:104B0000F80FFFF000181800100800200800200817
:104B1000003018001FF0000FC0000000000000006F
:104B200007C0001FF00018300020080020080020F7
:104B300008003C08001C100000600000000000009D
:104B40000000000007C0001FF00038180020080017
:104B5000200800200804101007FFF80FFFF00000E5
:104B6000100000000000000000000007C0001FF05F
:104B7000001230002218002208002208003208002B
:104B80001E10000E20000000000000002000002089
:104B90000800200801FFF803FFF806200804200899
:104BA00004200807200003000000000000000000AF
:104BB000000E000E6E001FF30031B10020B1002086
:104BC000B1003191001F13002E1E00200E00300096
:104BD00000000004000807FFF80FFFF800100800AD
:104BE0002000002000002008003FF8001FF800000F
:104BF000080000000000000000000020080020085D
:104C0000002008063FF8063FF800000800000800F2
:104C1000000800000000000000000000000000008C
:104C200003000003002001002001002003063FFED6
:104C3000063FFC000000000000000000000000042F
:104C4000000807FFF80FFFF8000188000300002F9D
:104C5000C00038F8002038002008000008000000DC
:104C60000000000000000400080400080400080719
:104C7000FFF80FFFF800000800000800000800001F
:104C800000000000002008003FF8003FF800100876
:104C9000002000003FF8003FF8001008002000004E
:104CA0003FF8003FF8000008000000002008003F27
:104CB000F8003FF800100800100000200000200855
:104CC000003FF8001FF8000008000000000000008E
:104CD00007C0000FF0001830003008002008002046
:104CE00008003008001830000FF00007C000000076
:104CF000000000002001003FFF003FFF00101100F6
:104D00002009002008002008003038001FF0000FA4
:104D1000C00000000000000007C0001FF0003818AD
:104D2000002008002008002009001011001FFF00CB
:104D30003FFF0000010000000020080020080020C4
:104D400008003FF8003FF80008080010080020089D
:104D500000200000300000300000000000000000D3
:104D60000000000C78001E18003308002308002102
:104D7000080021880021980030F000386000000011
:104D800000000000200000200000200000FFF003D1
:104D9000FFF8002008002008002008000030000074
:104DA00000000000000000002000003FF0007FF83D
:104DB000000018000008000008002010003FF80064
:104DC0007FF0000010000000000000002000003014
:104DD00000003C00003F800023F0000078000070DD
:104DE000002380003C000030000020000020000074
:104DF0003C00003FE00023F80000E0002700003EF8
:104E000000003FE00021F80001E0003E000020002B
:104E1000000000002008002008003838003E68002C
:104E200027800003C8002CF8003838002018002024
:104E300008000000000000002000003003003C01DA
:104E4000003F830023EC000070002380003C000042
:104E500020000020000000000000000000000038DA
:104E6000080020380020F80023E8002F88003E08C2
:104E7000003808002018000070000000000000004A
:104E80000000000000000000000000000800001406
:104E9000001FF7FC300006200002000000000000A8
:104EA0000000000000000000000000000000000002
:104EB0000000FFFFFF0000000000000000000000F5
:104EC000000000000000000000002000023000068A
:104ED0001FF7FC00140000080000000000000000A4
:104EE000000000000000000000000018000060004A
:104EF00000400000400000200000100000080000FA
:104F00000400000400000C0000100000000000007D
:104F10000000000000000000000000000000000091
:104F20000000000000000000000000000000000081
:104F30000000000000000000000000000000000071
:104F40000000000000000000000000000000000061
:104F50000000000000000000000000000000000051
:104F60000000000000000000000000000000000041
:104F70000000000000000000000000000000000031
:104F80000000000000000000000000000000000021
:104F90000000000000000000000000000000000011
:104FA0000000000007F000C007FFE1E007F001E0AB
:104FB000000000C000000000000000000000000031
:104FC00000000000000000000000000000000000E1
:104FD00000000000000000000000000000000000D1
:104FE00000000000000000000000000000000000C1
:104FF00000000000000000000000000000000000B1
:1050000000000000000000000000000000000000A0
:10501000000000000020000001C000000780000028
:105020001F0000001E0000001C20000001C0000046
:10503000078000001F0000001E0000001C00000090
:105040000000000000000000000000000000000060
:105050000000000000000000000000000000000050
:105060000000000000000000000000000000000040
:105070000000000000000000000000000000000030
:105080000000000000000000000000000000000020
:1050900000180C0000180C0000180FE0001FFC00A6
:1050A00003F80C0000180C0000180C0000180C008D
:1050B00000180C0000180FE0001FFC0003F80C00A3
:1050C00000180C0000180C00000000000000000098
:1050D00000000000000000000000000000000000D0
:1050E00000000000000000000000000000000000C0
:1050F00000000000000000000000000000000000B0
:10510000000000000000000000000000000000009F
:105110000000000000000780007807C000FC064087
:10512000010E002003070020020380200FFFFFFC78
:105130000201C0200200E0600130704001F03F80B9
:1051400000F01F0000000000000000000000000050
:10515000000000000000000000000000000000004F
:10516000000000000000000000000000000000003F
:10517000000000000000000000000000000000002F
:1051800000000000000000000000000000FE000021
:1051900001FF00000301800002008060030181C064
:1051A00001FF070000FE18000000E0000003BF0040
:1051B000000CFFC00071806001C10020030180600D
:1051C0000000FFC000003F000000000000000000E1
:1051D00000000000000000000000000000000000CF
:1051E00000000000000000000000000000000000BF
:1051F00000000000000000000000000000000000AF
:1052000000000000000000000000000000001F007F
:1052100000007FC000FCC0C001FF80600303E020ED
:105220000202782002061E2003FC074001F00380E2
:10523000000103C000011C600001E020000100200B
:10524000000100400000018000000000000000009C
:10525000000000000000000000000000000000004E
:10526000000000000000000000000000000000003E
:10527000000000000000000000000000000000002E
:10528000000000000000000000000000000000001E
:10529000002000001C6000001C4000001F80000077
:1052A0000F000000000000000000000000000000EF
:1052B00000000000000000000000000000000000EE
:1052C00000000000000000000000000000000000DE
:1052D00000000000000000000000000000000000CE
:1052E00000000000000000000000000000000000BE
:1052F00000000000000000000000000000000000AE
:10530000000000000000000000000000000000009D
:10531000000000000000000000000000000000008D
:1053200000000000000000000007F800003FFF0040
:10533000007807C001C000E003000030040000084E
:10534000080000041000000200000000000000003F
:10535000000000000000000000000000000000004D
:10536000000000000000000000000000000000003D
:10537000000000000000000000000000000000002D
:10538000000000000000000000000000000000001D
:1053900010000002080000040400000803000030B0
:1053A00001C000E0007807C0003FFF000007F800E0
:1053B00000000000000000000000000000000000ED
:1053C00000000000000000000000000000000000DD
:1053D00000000000000000000000000000000000CD
:1053E00000000000000000000000000000000000BD
:1053F00000000000000000000000000000000000AD
:10540000000000000000000000000000000000009C
:1054100000000000000C1800000E3800000E3800DC
:1054200000063000000360000061438000FFFF8041
:10543000006143000003600000063000000E3800E9
:10544000000E3800000C18000000000000000000F2
:10545000000000000000000000000000000000004C
:10546000000000000000000000000000000000003C
:10547000000000000000000000000000000000002C
:10548000000000000000000000000000000000001C
:10549000000000000000800000008000000080008C
:1054A000000080000000800000008000007FFF00FE
:1054B00000008000000080000000800000008000EC
:1054C00000008000000080000000000000000000DC
:1054D00000000000000000000000000000000000CC
:1054E00000000000000000000000000000000000BC
:1054F00000000000000000000000000000000000AC
:10550000000000000000000000000000000000009B
:1055100000000001000000E3000000E2000000FCC9
:105520000000007800000000000000000000000003
:10553000000000000000000000000000000000006B
:10554000000000000000000000000000000000005B
:10555000000000000000000000000000000000004B
:10556000000000000000000000000000000000003B
:10557000000000000000000000000000000000002B
:10558000000000000000000000000000000000001B
:10559000000080000000800000008000000080000B
:1055A00000008000000080000000800000008000FB
:1055B00000008000000080000000800000008000EB
:1055C00000008000000080000000000000000000DB
:1055D00000000000000000000000000000000000CB
:1055E00000000000000000000000000000000000BB
:1055F00000000000000000000000000000000000AB
:10560000000000000000000000000000000000009A
:1056100000000000000000C0000001E0000001E008
:10562000000000C0000000000000000000000000BA
:10563000000000000000000000000000000000006A
:10564000000000000000000000000000000000005A
:10565000000000000000000000000000000000004A
:10566000000000000000000000000000000000003A
:10567000000000000000000000000000000000002A
:10568000000000000000000000000000000000001A
:105690000000000C00000038000000E00000038063
:1056A00000000E00000038000000E0000003800051
:1056B000000E00000038000000E000000380000041
:1056C0000E000000180000000000000000000000B4
:1056D00000000000000000000000000000000000CA
:1056E00000000000000000000000000000000000BA
:1056F00000000000000000000000000000000000AA
:105700000000000000000000000000000000000099
:1057100000000000000FF800007FFF0000F007808D
:10572000018000C003000060020000200200002091
:105730000200002003000060018000C000E0038040
:10574000007FFF00000FF8000000000000000000D4
:105750000000000000000000000000000000000049
:105760000000000000000000000000000000000039
:105770000000000000000000000000000000000029
:105780000000000000000000000000000000000019
:1057900000000000000000000080002000800020C9
:1057A000008000200080006001FFFFE003FFFFE0B9
:1057B0000000006000000020000000200000002029
:1057C00000000000000000000000000000000000D9
:1057D00000000000000000000000000000000000C9
:1057E00000000000000000000000000000000000B9
:1057F00000000000000000000000000000000000A9
:105800000000000000000000000000000000000098
:1058100000000000007800E00098016001000260D4
:1058200002000460020008600200106002002060B4
:1058300002004060030080600183006001FE00E020
:10584000007C078000000000000000000000000055
:105850000000000000000000000000000000000048
:105860000000000000000000000000000000000038
:105870000000000000000000000000000000000028
:105880000000000000000000000000000000000018
:105890000000000000F0078001F007C00100004098
:1058A000020000200201002002010020020100206D
:1058B000030380200186804001FCC0C000787F8007
:1058C00000001E00000000000000000000000000BA
:1058D00000000000000000000000000000000000C8
:1058E00000000000000000000000000000000000B8
:1058F00000000000000000000000000000000000A8
:105900000000000000000000000000000000000097
:105910000000080000003800000048000001880076
:1059200000060800000C08100030081000400810A5
:1059300001FFFFF003FFFFF003FFFFF0000008107E
:105940000000081000000810000000000000000027
:105950000000000000000000000000000000000047
:105960000000000000000000000000000000000037
:105970000000000000000000000000000000000027
:105980000000000000000000000000000000000017
:105990000000000000000780001F864003E1002097
:1059A000030200200304002003040020030400205D
:1059B0000304002003060040030301C00301FF802D
:1059C00003007E0000000000000000000000000056
:1059D00000000000000000000000000000000000C7
:1059E00000000000000000000000000000000000B7
:1059F00000000000000000000000000000000000A7
:105A00000000000000000000000000000000000096
:105A1000000000000007FC00003FFF000070C38092
:105A2000008180C00101006003020020020200200A
:105A300002020020020200200203004001C180C0D7
:105A400000C0FF8000007E00000000000000000099
:105A50000000000000000000000000000000000046
:105A60000000000000000000000000000000000036
:105A70000000000000000000000000000000000026
:105A80000000000000000000000000000000000016
:105A90000000000000F0000003C0000003800000D0
:105AA00003000000030007E003003FE00301C00023
:105AB00003060000031800000360000003800000DC
:105AC00003000000000000000000000000000000D3
:105AD00000000000000000000000000000000000C6
