:020000040800F2
:10000000280D002049010008ED160008A511000880
:10001000E9160008C50A0008C12700080000000012
:100020000000000000000000000000007B1E00082F
:10003000950B00080000000075170008ED1F000870
:100040006301000863010008630100086301000800
:1000500063010008630100086301000863010008F0
:1000600063010008630100086301000863010008E0
:1000700063010008630100086301000863010008D0
:1000800063010008630100086301000863010008C0
:1000900063010008630100086301000863010008B0
:1000A00063010008630100086301000863010008A0
:1000B0006301000863010008630100086301000890
:1000C0006301000863010008630100086301000880
:1000D00063010008F92300086301000863010008B8
:1000E0006301000863010008630100086301000860
:1000F0006301000863010008630100086301000850
:10010000630100086301000863010008630100083F
:10011000630100086301000863010008630100082F
:10012000630100086301000863010008630100081F
:10013000DFF810D000F0D0FA00480047FD2C00088E
:10014000AFF30080280D002006488047064800478E
:10015000FEE7FEE7FEE7FEE7FEE7FEE7FEE7FEE777
:10016000FEE7FEE72D200008310100082DE9FE4FD3
:10017000804681EA0300C00F0C46009021F0004148
:1001800023F00045B8EB0200A94105D240462146C4
:1001900090461C460B46024623F00040104347D0D1
:1001A000270DC7F30A00C3F30A510290401A0190C9
:1001B00040286BDAC3F3130040F4801B009892468A
:1001C00020B10023D2EB030A63EB0B0B01985946D5
:1001D000C0F14002504600F0B9F906460D465046BF
:1001E0005946019A00F0D1F910EB08006141002452
:1001F00087EA115284EAE7731A4340D0009A62B347
:10020000019A012A4FEA075215DC001B61EB02013B
:100210004FF0004202EA0752CDE90042001C41F5CE
:10022000801132462B4600F008FA03B0BDE8F08F8B
:1002300040462146F9E7001B61EB0201001C41F535
:10024000801300185B412018A2F5001747EB03014B
:1002500040EAD570B6196D4111E06D084FEA3606D7
:1002600045EAC0754FEA0752001B61EB0201001C12
:1002700041F5801149084FEA3000001951413246DA
:100280002B4603B0BDE8F04F00F0C8B9009801223A
:1002900040000023D0EB020263EBE073009821469C
:1002A0004FEAE074B8EB000061EB0401E9E783F08A
:1002B00000435BE781F0004158E72DE9FE4F81EAFA
:1002C000030404F0004421F0004100944FF0000BBF
:1002D00023F0004350EA01045ED052EA03045BD0ED
:1002E000C3F30A54C1F30A552C44A4F2F334019425
:1002F000A0FB0254C1F3130141F48011C3F31303B3
:1003000043F4801301FB024400FB034E840A970A66
:1003100044EA815447EA8357A4FB076802958D0A93
:1003200005FB07854FEA932C04FB0C542705029D1F
:100330004FEA065847EA1637B5EB08056EEB070C8F
:10034000870E920E47EA811742EA8312A7FB020149
:10035000B6EB0B0164EB00042B0D43EA0C335E1883
:1003600044EB1C50DA465146E7FB0201C5F3130487
:100370004FEA0B3343EA14534FEA0432019C43EA39
:100380000603A4F10C040294009CCDE900B400F033
:1003900054F903B0BDE8F08F00200146F9E72DE9DC
:1003A000F04D81EA030404F0004B21F000451446AF
:1003B0004FF0000A23F0004150EA050220D054EA31
:1003C00001021DD0C5F30A570246C5F31303C1F35A
:1003D0001300C1F30A5640F4801543F48013A7EBD1
:1003E0000608101BD64608F2FD3873EB050002D351
:1003F00008F1010801E092185B41B8F1000F03DA3F
:1004000000200146BDE8F08D00204FF48011064623
:1004100084460EE0171B73EB050705D3121B63EB35
:10042000050306434CEA010C49084FEA30009218D4
:100430005B4150EA0107EDD152EA030012D082EA93
:10044000040083EA0501084305D0101BAB4106D226
:100450000122002306E000224FF0004302E06FF08B
:10046000010253101AEB06004CEB085110EB0A0086
:1004700041EB0B01BDE8F04D00F0D0B8962300220F
:10048000114600F09DB870B5C1F30A5201F0004565
:100490000024C1F3130140F2FF3341F480119A426A
:1004A00001DA002070BD40F233439A42A2F2334297
:1004B00003DC524200F059F800E090402C43F1D0A8
:1004C000404270BD00F0004230F000400AD0C10D43
:1004D00001F56071C0F3160042EA0151C2084007FD
:1004E000114370470020014670472DE9F05F054633
:1004F000002092469B4688460646814640241BE0E3
:10050000284641464746224600F02FF853465A46B1
:10051000C01A914110D311461846224600F016F831
:100520002D1A67EB01084F4622460120002100F0FA
:100530000DF817EB00094E41201EA4F10104DFDC89
:10054000484631462A464346BDE8F09F202A04DB50
:10055000203A00FA02F1002070479140C2F12003D6
:1005600020FA03F3194390407047202A04DB203A15
:1005700021FA02F00021704721FA02F3D040C2F1C3
:1005800020029140084319467047202A06DBCB170A
:10059000203A41FA02F043EAE07306E041FA02F33E
:1005A000D040C2F12002914008431946704700290B
:1005B000A8BF7047401C490008BF20F001007047E9
:1005C00010B4B0FA80FC00FA0CF050EA010404BF49
:1005D00010BC704749B1CCF1200421FA04F411FA9F
:1005E0000CF118BF012121430843A3EB0C01CB1DE3
:1005F0004FEA00614FEA102042BF002010BC704754
:1006000000EBC35010440029A4BF10BC7047401C2D
:10061000490008BF20F0010010BC704710B5141E3F
:1006200073F1000408DA401C41F1000192185B41AB
:100630001A4301D120F0010010BD2DE9F04D924682
:100640009B4611B1B1FA81F202E0B0FA80F2203299
:100650009046FFF77BFF04460F4640EA0A0041EA56
:100660000B0153465A46084313D0114653EA010082
:1006700019D0C8F140025046FFF777FF05460E46F5
:10068000504659464246FFF761FF084305D0012016
:1006900004E020463946BDE8F08D0020054346EAD7
:1006A000E0762C4337430A986305E40AA0EB080080
:1006B0000022FD0A44EA47540A3002D500200146D0
:1006C000E9E7010510196941DDE9084500196941AB
:1006D000BDE8F04DA2E70000064C074D06E0E068DB
:1006E00040F0010394E8070098471034AC42F6D379
:1006F000FFF722FD087700082877000821B18268FB
:1007000042F00102826003E0826822F0010282600E
:100710007047014600208A6802F004020AB10120F5
:1007200000E0002070470146C86C80B27047024666
:10073000002013680B400BB1012000E0002070473F
:10074000014600208A6802F008020AB1012000E098
:100750000020704730B502460020002350680F4C3F
:1007600020400D790C6844EA0524204350609068CD
:100770000B4C2040D1E902542C434D7944EA450406
:1007800020439060D06A20F470000C7C641EE4B2B8
:10079000234340EA0350D06230BD0000FFFEF0FF6B
:1007A000FDF7F1FFF0B504460D4600200021092DAC
:1007B00011DDE068A5F10A0606EB4607072606FAF2
:1007C00007F18843A5F10A0606EB460603FA06F18F
:1007D0000843E0600CE0206905EB4507072606FAB0
:1007E00007F1884305EB450603FA06F1084320614B
:1007F000072A0FDA606B561E06EB86071F2606FADD
:1008000007F18843561E06EB860605FA06F10843F3
:10081000606322E00D2A0FDA206BD61F06EB8607F5
:100820001F2606FA07F18843D61F06EB860605FA4F
:1008300006F10843206310E0E06AA2F10D0606EB22
:1008400086071F2606FA07F18843A2F10D0606EB7C
:10085000860605FA06F10843E062F0BD816841F0C2
:1008600008018160704721B1826842F4A002826071
:1008700003E0826822F4A00282607047816841F040
:10088000040181607047000030B10749096841F4F4
:100890000001054A116005E00349096821F40001DF
:1008A000014A1160704700000824014000B585B07E
:1008B0000121480201F018F84FF4004000F0F8FF61
:1008C0000120FFF7E1FF002000908DF804008DF873
:1008D00005004FF4602002900020039001208DF865
:1008E000100069460F48FFF735FF01210D48FFF75B
:1008F00005FF0C48FFF7B2FF00BF0A48FFF720FFD3
:100900000028FAD10748FFF7B9FF00BF0548FFF7F5
:1009100000FF0028FAD101210248FFF7A4FF05B02B
:1009200000BD00000024014010B5044627480078AF
:10093000012811D1002C05DD2548008832302449DA
:10094000088034E022480088322830DB20480088C4
:1009500032381F4908802AE01C480078022811D14B
:10096000002C05DD1A4840883230194948801EE0C5
:100970001748408832281ADB154840883238144915
:10098000488014E011480078032810D1002C05DDC0
:100990000F48808832300E49888008E00C488088F3
:1009A000322804DB0A48808832380949888000F000
:1009B0008BF80848006800F0EFF80749087002203B
:1009C00006490870C8200649088010BD10000020A4
:1009D000000000200C000020060000201400002071
:1009E000120000202649097821B101290DD00229E1
:1009F00034D11AE00121234A11600021224AC2F8B1
:100A00009411204A0C32116037E03221B0FBF1F131
:100A100001F001011B4A116001211B4AC2F8941127
:100A20000021184A0C32116027E01421B0FBF1F1CB
:100A300001F00101134A11600121134AC2F8941117
:100A40006421B0FBF1F201FB1201142901D2012152
:100A500000E000210B4A0C3211600EE00A21B0FBCD
:100A6000F1F101F00101074A11600121064AC2F8C3
:100A70009411044A0C32116000BF00BF704700009F
:100A800006000020948121420000234208B5012184
:100A9000082000F029FF4FF48070ADF8000010200E
:100AA0008DF8030003208DF802006946044800F029
:100AB0001FFA4FF48071024800F0A5FA08BD00004B
:100AC000000C014000BFFEE731480088002802DA30
:100AD00000202F4908802E48408842F22831884261
:100AE00002DD08462A4948802948808842F6E061AC
:100AF000884202DD084626498880254841880088CA
:100B00006430814204DA22480088643020494880F9
:100B10001F48818840886430814204DA1C4840883C
:100B200064301B4988801A48408842F22831884244
:100B30000DDD08461649488008460188408864381B
:100B4000814204DD12484088643811490880104809
:100B5000808842F6E061884218DD08460C498880AA
:100B60000846418880886438814204DD08488088CE
:100B700064380749488006480188408864388142C3
:100B800004DD03484088643801490880704700004C
:100B9000000000207047000001460A480088884293
:100BA00001DB0020704707488088884201DC032071
:100BB000F8E704484088884201DC0220F2E701207F
:100BC000F0E700000000002030B5044604254FF493
:100BD000302000F06FF80546042D17D10C4800694D
:100BE00040F002000A49086108464461006940F08B
:100BF000400008614FF4302000F05CF805460448DE
:100C0000006941F6FD71084001490861284630BD80
:100C10000020024004200B49C96801F0010109B11C
:100C200001200EE00749C96801F0040109B1022062
:100C300007E00449C96801F0100109B1032000E090
:100C400004207047002002400348006940F0800003
:100C500001490861704700000020024070B5044659
:100C60000D460426F00200F025F80646042E11D1A8
:100C70000948006940F00100074908612580F00239
:100C800000F018F806460448006941F6FE71084075
:100C900001490861304670BD002002400248034906
:100CA00048600348486070472301674500200240C0
:100CB000AB89EFCD00B502460423FFF7ABFF034637
:100CC00003E0FFF7A7FF0346521E012B01D1002AC4
:100CD000F7D102B90523184600BD000051B18200CA
:100CE000A2F1C042126842F001038200A2F1C042A8
:100CF000136009E08200A2F1C0421268034B1A405F
:100D00008300A3F1C0431A6070470000FEFF0F008C
:100D1000D0E901121143C2681143026911434269CB
:100D2000114382691143C2691143026A1143426A45
:100D30001143826A1143C26A1143026B1143026874
:100D40009200A2F1C0421160816808290BD10168AC
:100D50008900A1F1C041096841F0400201688900A1
:100D6000A1F1C0410A60416B0968426B526841EAD7
:100D70000211426B926841EA0221426B928941EA78
:100D80000241426B128A41EA0251426B127D41EAF2
:100D90000261426B926911430268521C9200A2F1F7
:100DA000C0421160C16AB1F5804F1BD1816B0968E7
:100DB000826B526841EA0211826B926841EA022119
:100DC000826B128A41EA0251826B127D41EA026112
:100DD000826B9269114302689200A2F1C042C2F88C
:100DE000041107E06FF0704201688900A1F1C04171
:100DF000C1F8042170470000002104E0054A42F8D0
:100E000021004A1CD1B20829F8DB034A1060034ACA
:100E10001060704740000020080000200C000020F7
:100E200070B505460022072107E0481E164E56F809
:100E3000200046F82100481EC1B20029F5DC124806
:100E4000056003680468002115E00F4850F8210090
:100E500002440D4850F82100984202DD0A4850F83B
:100E60002130094850F82100A04202DA064850F823
:100E70002140481CC1B20829E7DBD21A121B062008
:100E800092FBF0F070BD0000400000202DE9F04121
:100E900005460E462C46002C0EDA6442642094FB74
:100EA000F0F100FB114794FBF0F83B4642460AA1E3
:100EB000304601F097FC0CE0642094FBF0F100FB5D
:100EC000114794FBF0F83B46424606A1304601F03C
:100ED00089FCBDE8F08100002D25642E25303264A8
:100EE0004300000025642E253032644300000000DA
:100EF0002DE9F041024600250026002000230024B1
:100F0000002791F803C00CF00F0591F803C00CF016
:100F1000100CBCF1000F03D091F802C04CEA05059B
:100F200091F800C0BCF1000F31D0146800202BE014
:100F30004FF0010C0CFA00F3B1F800C00CEA030604
:100F40009E4220D183004FF00F0C0CFA03F7BC43F4
:100F500005FA03FC4CEA040491F803C0BCF1280F25
:100F600006D14FF0010C0CFA00FCC2F814C00AE0E4
:100F700091F803C0BCF1480F05D14FF0010C0CFAF9
:100F800000FCC2F810C0401C0828D1D31460B1F88E
:100F900000C0BCF1FF0F34DD546800202EE000F1EA
:100FA000080C4FF0010808FA0CF3B1F800C00CEA85
:100FB00003069E4221D183004FF00F0C0CFA03F779
:100FC000BC4305FA03FC4CEA040491F803C0BCF1ED
:100FD000280F05D100F1080C08FA0CF8C2F81480AB
:100FE00091F803C0BCF1480F07D100F1080C4FF095
:100FF000010808FA0CF8C2F81080401C0828CED36B
:101000005460BDE8F08141617047016170470000A4
:101010002DE9F04105460C4600260723012229460A
:101020000F48FFF7BFFB002713E001210C48FFF733
:101030001AFC00BF02210A48FFF779FB0028F9D00B
:101040000748FFF770FB0644052001F01FFE781CDF
:10105000C7B2A742E9DBB6FBF4F080B2BDE8F0818D
:1010600000240140014608884A8850408A88504040
:1010700043F65A42504070470146012904D00229E4
:1010800004D0032906D103E003A0704703A0FCE7C6
:1010900004A0FAE705A0F8E74C4F57005741524E1D
:1010A00000000000414C41524D00000052554E00DE
:1010B000014621B1012905D0022908D104E04FF4ED
:1010C000FC6070471F20FCE74BF64040F9E74FF407
:1010D0007840F6E7014621B1012904D0022906D162
:1010E00003E004A0704706A0FCE707A0FAE709A008
:1010F000F8E700004C4F572054454D5000000000C9
:101100004E4F524D414C00004849474820574152EC
:101110004E0000004849474820414C41524D0000D4
:101120002DE9F05F0A211020FFF772FF8346584631
:10113000FFF7A4F98046FFF7C5F906464FF066327F
:10114000114BFFF7BAF804460D4622462B460F48CE
:101150000F49FFF7ACF880460E4A0F4BFFF71FF917
:10116000064600220D4BFFF701F804460D4600220B
:101170000B4B20462946FFF7A0F80646FFF783F9F8
:1011800082465046BDE8F09F66664A3FE17A14AE5B
:1011900047E1F63F22FDF675E09C713F00003940C3
:1011A0000000594000BFFEE708B50121442000F0CF
:1011B0009BFB0120ADF8000028208DF80300694654
:1011C0000648FFF795FE1C20ADF8000048208DF87A
:1011D000030069460248FFF78BFE08BD0008014086
:1011E0000018014010B50446012C01D122490870B5
:1011F0002148007801282AD12048006801280AD017
:101200001F48006838B11E48001F006818B11C480C
:1012100008380068D8B90A2001F038FD00201649C6
:10122000087016480068012800D110BD14480068F5
:1012300008B90220F9E71248001F006808B9032026
:10124000F3E70F4808380068A0B90420EDE70B4821
:10125000006878B90A48006801280BD10848001FC7
:101260000068012806D1064808380068012801D125
:10127000014908700020D8E7290000200001214220
:101280001001234270B506460F484088401E83B2C5
:101290000D480088401E82B20021084600F07CF80C
:1012A00000240CE0002504E0304600F099F9681CA9
:1012B00085B205484088A842F6DC601C84B202482A
:1012C0000088A042EEDC70BD2E00002000B5024672
:1012D0000F4882716AB9362000F076F94C2000F090
:1012E00079F94FF4F0700A4948804FF4A0700880F3
:1012F0000CE0362000F068F92C2000F06BF94FF478
:10130000A070034948804FF4F070088000BD0000D1
:101310002E00002070B504460D4616462B46224688
:101320002946204600F038F8304600F059F970BDE3
:101330002DE9F04304460D4616461F46DDF81C8095
:10134000B44201DCBD4201DDBDE8F0833B463246DC
:101350002946204600F020F8301B401C84B2781B40
:10136000401C85B20BE0A94602E0404600F038F987
:10137000B9F10000A9F101011FFA81F9F5D1201E90
:10138000A4F101018CB2EED100BFDDE70148008875
:10139000704700000008006C30B504460D462A2056
:1013A00000F012F9201200F015F9E0B200F012F985
:1013B000101200F00FF9D0B200F00CF92B2000F061
:1013C00003F9281200F006F9E8B200F003F9181248
:1013D00000F000F9D8B200F0FDF82C2000F0F4F88D
:1013E00030BD00002DE9F84F80460E4617461C46DA
:1013F000B3462046E31704EB5373DB1021464FEA54
:10140000E47C04EB5C7C4FEAEC0CA4EBCC0CBCF170
:10141000000F02D04FF0010C01E04FF0000C6344CC
:10142000224604EBD27C4FEA6C0C03FB0CF3DBB2DC
:101430000093A7F12000C7B2002556E00C2C07D17D
:1014400007EB47002B4901EB800010F8059013E0F3
:10145000102C05D1284800EB071010F805900BE080
:10146000182C07D107EBC700244901EB800010F8C6
:10147000059001E0BDE8F88F4FF0000A2FE009F079
:10148000800030B11E48028831464046FFF742FFD7
:1014900007E00A9828B91B48028831464046FFF702
:1014A00039FF4FEA49604FEA1069701C86B216484E
:1014B0004088B04200DCDDE7A6EB0B00A0420AD179
:1014C0005E4608F101001FFA80F80F480088404589
:1014D00000DCCFE706E00AF1010000F0FF0ABAF1F4
:1014E000080FCCDB00BF681CC5B200988542A5DBA5
:1014F00000BFBFE7F02D0008643200085438000830
:101500002A0000202C0000202E0000202DE9F847A2
:1015100004460D4690469946DDE9096704F0FF0A46
:1015200008EB04001FFA80F809EB05001FFA80F9A8
:1015300016E0444502DB5446A81985B24D4500DB50
:1015400014E0002000903A78334629462046FFF701
:1015500049FF304606EBD07104EB61018CB27F1C71
:1015600038787E2802DC38782028E2DA00BFBDE82F
:10157000F88700007CB504460D4616460F480680E5
:101580004FF6FF700E490880009004F1120083B2FC
:101590000C480088401E82B221460020FFF7C8FE9A
:1015A0001020CDE9000507480088143882B21223C4
:1015B00021460A20FFF7AAFF7CBD00002A00002078
:1015C0002C0000202E0000200149088070470000F8
:1015D000FE07006C01490880704700000008006C9D
:1015E0000112024A1180C1B2118070470008006CDC
:1015F00008B50121482000F077F92020ADF800005F
:1016000010208DF8030003208DF802006946094878
:10161000FFF76EFC20210748FFF7F7FC2020ADF80C
:10162000000069460448FFF763FC20210248FFF7E9
:10163000ECFC08BD000C0140001801404FF4616053
:101640000449088041F2680048804FF49650888031
:1016500070470000000000200EB5062269462048B1
:1016600000F070FBBDF800004AF25A51884205D1E3
:10167000BDF8020045F6A521884201D000200EBD2C
:10168000BDF8040017490880BDF806004880BDF881
:10169000080088800846FFF7E5FCBDF80A1088427C
:1016A00001D00020EBE70F4800880E4949888842A6
:1016B00001DB0020E3E70B4840880A49898888421B
:1016C00001DB0020DBE70748808842F6E0618842C2
:1016D00001DD0020D3E7FFF7F7F90120CFE7000095
:1016E00000F807080000002000BFFEE77047000078
:1016F00070B5002100230F22C47804B3154C246870
:1017000004F4E064C4F5E064210AC1F10403CA40B2
:10171000447804FA03F184781440214309010E4C03
:101720000678A155047804F01F050124AC40057823
:101730006D11AD0005F1E025C5F8004109E0047820
:1017400004F01F050124AC40044D0678761145F8DD
:10175000264070BD0CED00E000E400E080E100E018
:1017600002490143024A1160704700000000FA0577
:101770000CED00E07047000030B59DB018A9184886
:101780000068FFF783FB13A916480068FFF77EFB8C
:10179000154908880EA9FFF779FB1349488809A95C
:1017A000FFF774FB1049888804A9FFF76FFB0F4807
:1017B0000078FFF761FC04460D480078FFF78AFCCB
:1017C000054604A809A90EAA2B46CDE90204CDE9D5
:1017D000002113AA18A907A000F0F4FF1DB030BD26
:1017E000080000200C000020000000201000002055
:1017F000060000207261773D25732066696C743D98
:1018000025732073746174653D2573206C6F773D7B
:101810002573207761726E3D257320616C61726D56
:101820003D2573206D6F64653D25730D0A00000032
:1018300010B50446012C27D0022C04D0032C14D060
:10184000042C2AD118E016480078401C144908706E
:1018500008460078032801DD0020087002201149A5
:101860000870C8201049088018E00D48007810B1B1
:101870000120FFF759F811E00948007818B14FF03E
:10188000FF30FFF751F809E000F0F8FA01200749AE
:10189000087000200249087000E000BF00BF10BDC2
:1018A0001000002014000020120000201100002071
:1018B00001460020034A506820F44040084350602D
:1018C000704700000010024029B1064A52690243E5
:1018D000044B5A6104E0034A52698243014B5A6146
:1018E000704700000010024029B1064A9269024385
:1018F000044B9A6104E0034A92698243014B9A6166
:10190000704700000010024030B500210022002482
:1019100000232D4D6D6805F00C0121B1042905D07F
:10192000082923D105E0294D056022E0274D0560F7
:101930001FE0254D6D6805F47012234D6D6805F4A8
:101940008034022505EB92421CB9214D55430560B8
:101950000BE01D4D6D6805F400351DB11C4D554360
:10196000056002E0194D5543056002E0174D056022
:1019700000BF00BF144D6D6805F0F0010909154D59
:101980006B5C0568DD4045600F4D6D6805F4E061F6
:10199000090A104D6B5C4568DD4085600A4D6D6835
:1019A00005F46051C90A0B4D6B5C4568DD40C560AC
:1019B000054D6D6805F44041890B074D6B5CC568AA
:1019C000B5FBF3F5056130BD0010024000127A004E
:1019D00000093D00150000202500002010B5AEB024
:1019E00029A956480068FFF751FA24A9544800680D
:1019F000FFF74CFA534908881FA9FFF747FA5149E6
:101A000048881AA9FFF742FA4E49888815A9FFF7B6
:101A10003DFA00224CA10A20FFF7ACFD29AA50A1F3
:101A200001A800F0DFFE002201A92420FFF7A2FD9B
:101A300024AA4EA101A800F0D5FE002201A93E2053
:101A4000FFF798FD4C480078FFF744FB0446224618
:101A50004AA101A800F0C6FE47480078FFF728FB1E
:101A60000446224601A95820FFF784FD1FAA46A17B
:101A700001A800F0B7FE47480078012802D14FF4D2
:101A8000784000E00020024601A97220FFF772FDB5
:101A90001AAA41A101A800F0A5FE3E48007802283C
:101AA00002D14FF4784000E00020024601A98C20CA
:101AB000FFF760FD15AA3BA101A800F093FE354891
:101AC0000078032802D14FF4784000E0002002465D
:101AD00001A9A620FFF74EFD2E480078FFF7CCFAAB
:101AE00004463348007808B132A000E033A0034632
:101AF000224634A101A800F075FE1F2201A9C020D2
:101B0000FFF738FD34480088002810DD334800789E
:101B1000012806D14FF4FC6231A1DA20FFF72AFD3B
:101B20000AE01F2232A1DA20FFF724FD04E01F2281
:101B30002FA1DA20FFF71EFD2EB010BD08000020F7
:101B40000C00002000000020505A31303320544552
:101B50004D5020434F4E54524F4C2044454D4F0062
:101B6000524157203A2025730000000046494C544A
:101B70003A20257300000000060000205354415411
:101B80003A202573000000004C4F57203A2025735F
:101B900000000000100000205741524E3A202573EB
:101BA00000000000414C524D3A2025730000000017
:101BB00011000020464C4153480000004445464176
:101BC000554C54004D4F44453A2025732020434640
:101BD000473A257300000000120000201400002086
:101BE000464C4153482053415645204F4B0000007E
:101BF0004B4559303A536574204B4559312F323A91
:101C00002B2D204B455955503A5361766500000005
:101C100010B54FF6FF70FFF735FB002223A10A2015
:101C2000FFF7A8FC1F2227A12820FFF7A3FC2B48C1
:101C3000007808B12AA000E02EA00146002246202C
:101C4000FFF798FC0120314908603149C1F894013F
:101C500000202E490C310860962001F017F8002072
:101C60002A4908602B49086001202B49C1F8A001CE
:101C70004FF4FC6229A16420FFF77CFCB42001F042
:101C800005F80120214908602249086000201F4909
:101C90000C3108604FF4FC6225A18220FFF76AFC3A
:101CA0004FF4C87000F0F2FF10BD0000505A313000
:101CB000332054454D5020434F4E54524F4C2044F6
:101CC000454D4F00506F7765722D6F6E2073656CB8
:101CD0006620746573742E2E2E0000001100002003
:101CE000506172616D20736F757263653A20464C66
:101CF00041534800506172616D20736F7572636566
:101D00003A2044454641554C5400000094812142FC
:101D10000000234294012342008021424C45442F7D
:101D2000424545502074657374204F4B00000000FD
:101D300053797374656D20696E697420737563637C
:101D40006573730030B503460C461546002207E064
:101D5000184600F008F824F812009B1C501C82B2B0
:101D6000AA42F5DB30BD0146088870472DE9F05FD7
:101D700080468A461746B8F1006F02D33348804543
:101D800001D3BDE8F09FFEF789FFA8F1006B4FEA91
:101D9000DB25CBF34909C9F58064A74200DC3C464A
:101DA0004DE04FF0006101EBC5204A142849FFF7D0
:101DB000C9FF00260BE009EB0600254931F81000A9
:101DC0004FF6FF71884200D003E0701C86B2A64235
:101DD000F1DB00BFA6421BDA4FF0006101EBC5202A
:101DE000FEF7F2FE002608E03AF8160006EB0901BD
:101DF000174A22F81100701C86B2A642F4DB4FF09D
:101E0000006101EBC5204A14114900F023F804E0F9
:101E100022465146404600F01DF8A74200D10FE08F
:101E20006D1C4FF000090AEB440AA044381B87B22E
:101E3000B7F5806F02DD4FF4806400E03C46B0E708
:101E400000BFFEF701FF00BF9BE70000000008088D
:101E5000600000202DE9F04105460E46174600249B
:101E600007E036F814102846FEF7F8FEAD1C601C9B
:101E700084B2BC42F5DBBDE8F08170470EB54AF292
:101E80005A50ADF8000045F6A520ADF802000F4805
:101E90000088ADF804000D484088ADF806000B48F6
:101EA0008088ADF808000948FFF7DCF8ADF80A00B3
:101EB000062269460648FFF759FF012005490870C8
:101EC0004FF49670044908800EBD00000000002009
:101ED00000F80708140000201200002010B500F0E0
:101EE00001F810BD0CB50020019000903348006847
:101EF00040F480303149086000BF3048006800F489
:101F0000003000900198401C0190009818B9019889
:101F1000B0F5A06FF1D12948006800F4003010B18D
:101F20000120009001E0002000900098012843D19A
:101F30002348006840F01000214908600846006806
:101F400020F0030008600846006840F002000860C6
:101F50001A48406819494860084640684860084681
:101F6000406840F4806048600846406820F47C1077
:101F700048600846406840F4E81048600846006839
:101F800040F08070086000BF0C48006800F00070EE
:101F90000028F9D00948406820F00300074948604C
:101FA0000846406840F00200486000BF03484068AF
:101FB00000F00C000828F9D10CBD00000010024010
:101FC00000200240042808D14FF0E021096941F0C7
:101FD00004014FF0E022116107E04FF0E0210969B0
:101FE00021F004014FF0E0221161704770470000BA
:101FF00010B504466FF00400FFF7E4FFE11704EBAF
:102000005171C1F3C701074A11701046007800EB07
:102010004001C1EBC0104FF6FF7101EAC000024958
:10202000088010BD360000203800002010B513488D
:10203000006840F0010011490860084640681049F6
:1020400008400E494860084600680E4908400B49A0
:1020500008600846006820F4802008600846406850
:1020600020F4FE0048604FF41F008860FFF736FF41
:102070004FF000600449086010BD000000100240ED
:102080000000FFF8FFFFF6FE08ED00E000B59DB090
:1020900001210802FFF718FC01200790002008909A
:1020A0000F20099000200A900B900C900D901520A5
:1020B000009001900520029000200390049005906C
:1020C000069006200E9000200F9010901020119086
:1020D0000020129014901390159016904FF4805099
:1020E0001790002018904FF48040199000201A900B
:1020F00007A81B90CDF870D00EA8FEF709FE0121AD
:102100000620FEF7EBFD1DB000BD000008B5012163
:102110004FF4B470FFF7E8FB4CF23370ADF80000F9
:1021200018208DF8030003208DF802006946184836
:10213000FEF7DEFE4FF68070ADF8000018208DF837
:10214000030003208DF8020069461248FEF7D0FE16
:1021500041F20100ADF8000018208DF803000320C3
:102160008DF8020069460C48FEF7C2FE0120ADF86A
:10217000000010208DF8030003208DF8020069464E
:102180000648FEF7B5FE01200549086008BD0000BD
:10219000001401400018014000200140000C0140E3
:1021A0008081214210B5FFF7B1FFFFF76FFF3220AA
:1021B00000F06CFDD020FFF707FAFFF7E7F8894938
:1021C0008880FFF7E3F8874988800846818886A0E1
:1021D00000F0F8FA1120FFF7F7F94FF4FA7401E074
:1021E000601E84B2002CFBDCB920FFF7EDF9FF2064
:1021F000FFF7F0F98320FFF7EDF95720FFF7EAF931
:102200004FF4FA7401E0601E84B2002CFBDCB120B4
:10221000FFF7DAF90020FFF7DDF91420FFF7DAF90C
:102220001C20FFF7D7F91C20FFF7D4F9C320FFF7D4
:10223000D1F94420FFF7CEF97020FFF7CBF94FF426
:10224000FA7401E0601E84B2002CFBDCB420FFF7BE
:10225000BBF92220FFF7BEF94020FFF7BBF90020B1
:10226000FFF7B8F92A20FFF7B5F92A20FFF7B2F9EE
:102270002020FFF7AFF99120FFF7ACF94FF4FA7483
:1022800001E0601E84B2002CFBDC3620FFF79CF9D5
:102290004C20FFF79FF9C020FFF796F95020FFF779
:1022A00099F95020FFF796F90120FFF793F93C20A8
:1022B000FFF790F9C820FFF78DF90820FFF78AF99A
:1022C0000020FFF787F90820FFF784F90420FFF7C3
:1022D00081F94FF4FA7401E0601E84B2002CFBDC3B
:1022E0004FF4FA7401E0601E84B2002CFBDCE020A5
:1022F000FFF76AF90B20FFF76DF91120FFF76AF974
:102300001E20FFF767F93020FFF764F93A20FFF746
:1023100061F94320FFF75EF94E20FFF75BF9562085
:10232000FFF758F94520FFF755F93F20FFF752F91D
:102330003920FFF74FF93220FFF74CF92F20FFF734
:1023400049F92A20FFF746F92920FFF743F9212010
:10235000FFF740F90B20FFF73DF91120FFF73AF99D
:102360001E20FFF737F93020FFF734F93A20FFF746
:1023700031F94320FFF72EF94E20FFF72BF95620B5
:10238000FFF728F94520FFF725F93F20FFF722F94D
:102390003920FFF71FF93220FFF71CF92F20FFF734
:1023A00019F92A20FFF716F92920FFF713F9212040
:1023B000FFF710F90020FFF70DF90120FFF70AF9E8
:1023C0003A20FFF701F90520FFF704F92920FFF76C
:1023D000FBF80020FEF77AFF4FF6FF70FEF752FF82
:1023E00010BD00002E000020204C43442049443AF8
:1023F00025780D0A0000000010B540F225511D4857
:1024000000F0B8F810B31B4800F070F9C4B21A48D5
:10241000008800F40040C8B91748008800F48040E4
:1024200060B10A2C03D000201349088020E0124834
:10243000008840F400401049088019E00D2C06D1B6
:102440000D48008840F480400B49088010E00A489D
:102450000088C0F30D0009490C5407480088401C4F
:102460000549088008460088C72801DD002008804B
:1024700010BD0000003801403A0000206008002034
:1024800010B586B0044601210420FFF72DFA012182
:102490008803FFF729FA4FF40070ADF81400032009
:1024A0008DF8160018208DF8170005A91E48FEF7B4
:1024B0001FFD4FF48060ADF8140004208DF8170064
:1024C00005A91948FEF714FD01940020ADF8080095
:1024D000ADF80A00ADF80C00ADF810000C20ADF816
:1024E0000E0001A9114800F095F801210F4800F0F5
:1024F00028F840210D4800F01BF8012240F2255138
:102500000A4800F061F825208DF8000003208DF8BE
:1025100001008DF8020001208DF803006846FFF7E6
:10252000E7F806B010BD0000000801400038014087
:1025300001F40072B2F5007F00D100BFCA430280EF
:10254000704721B1828942F40052828104E082897D
:102550004DF6FF731A408281704702460020B1F5A4
:10256000007F00D100BF13880B400BB1012000E0B9
:102570000020704770B5024600240023002500208B
:1025800040F66A16B14200D100BFC1F3421501F016
:102590001F03012606FA03F3012D02D19689334069
:1025A00006E0022D02D1168A334001E0968A3340BC
:1025B0000C12012606FA04F41688344013B10CB14B
:1025C000012000E0002070BDF0B503460024002685
:1025D0000025002040F66A17B94200D100BF184616
:1025E000C1F3421401F01F06012707FA06F5012C7A
:1025F00001D10C3004E0022C01D1103000E0143085
:102600001AB107682F43076002E00768AF4307600D
:10261000F0BD00002DE9F04786B005460E460024C7
:10262000A24600BFA1460027B08900B100BF2F46D7
:102630002C8A4CF6FF700440F08804432C82AC894D
:102640004EF6F3100440B08831890843718908437D
:102650000443AC81AC8A4FF6FF400440B089044388
:10266000AC8201A8FFF750F91F48874202D1DDF87C
:1026700010A001E0DDF80CA0A88900F4004040B1F2
:102680000AEBCA0000EB0A1031684900B0FBF1F810
:1026900007E00AEBCA0000EB0A1031688900B0FBC2
:1026A000F1F86420B8FBF0F004012009642101FB7B
:1026B0001089A88900F4004040B1322000EBC90025
:1026C000B0FBF1F000F00700044308E0322000EB1B
:1026D00009106421B0FBF1F000F00F0004432C81DD
:1026E00006B0BDE8F0870000003801400146888848
:1026F000C0F308007047C1F30802828070470000F1
:1027000001462D48007820B1012817D002283ED17B
:1027100028E02A480088643088420DDC27488088F9
:10272000884201DC0320704724484088884201DC4D
:102730000220F8E70120F6E70020F4E71F480088B0
:10274000884201DB0020EEE71C488088884201DCDB
:102750000320E8E719484088884201DC0220E2E7CC
:102760000120E0E715488088884201DC0320DAE791
:10277000124840886438884207DB10480088884245
:1027800001DB0020CFE70120CDE70220CBE70B489B
:102790008088643888420DDB08484088884201DC24
:1027A0000220C0E705480088884201DB0020BAE724
:1027B0000120B8E70320B6E7060000200000002053
:1027C00000BFFEE70FB4054B10B503A9044A0298F9
:1027D00000F02CF810BC5DF814FB0000D92C0008A8
:1027E0003C0000200FB4084B10B504A902AA0398BE
:1027F00000F01CF8044602A9002000F042FA20462E
:1028000010BC5DF814FB0000832C000802E008C82F
:10281000121F08C1002AFAD170477047002001E05A
:1028200001C1121F002AFBD1704700002DE9FF4FA4
:102830008DB00F460546002606E025280BD0DDE9C1
:102840000F1290476D1C761C28780028F5D111B026
:102850003046BDE8F08F0024A246A1460122E94996
:1028600000E0044315F8013F203B02FA03F0084260
:10287000F7D128782A2810D06FF02F022878A0F1FD
:102880003001092914D80AEB8A0102EB410144F016
:10289000020400EB010A6D1CF0E701CF5FEA000AB9
:1028A00003D544F40054CAF1000A44F002046D1C3C
:1028B00028782E2817D115F8010F44F004042A288F
:1028C0000ED06FF02F022878A0F1300109290AD824
:1028D00009EB890102EB410100EB01096D1CF2E7F4
:1028E00057F8049B6D1C28786C280FD006DC4C2808
:1028F00017D068280DD06A2814D104E0742810D0AD
:102900007A280FD10DE044F400140AE044F4801456
:1029100001E044F440146978814202D104F5801446
:102920006D1C6D1C28786E281ED00CDC632830D0FE
:1029300004DC00288BD0582811D19FE0642867D090
:1029400069280CD164E073282DD004DC6F2872D084
:10295000702804D194E075286ED078286DD0DDE918
:102960000F129047761C4BE1C4F30250022806D0A8
:10297000032809D0042801CF09D0066040E101CF27
:10298000F117C0E900613BE101CF068038E1067034
:1029900036E117F8040B8DF8000000208DF80100D7
:1029A000EB46012003E057F804BB4FF0FF3061070E
:1029B0004FF0000102D40DE008F1010188464945BD
:1029C0000FDA8045F8DB1BF808100029F4D108E085
:1029D00008F1010188468142FADB1BF80810002942
:1029E000F6D1DDE90F23AAEB08008146214600F06D
:1029F00031F9304400EB080604E0DDE90F121BF862
:102A0000010B9047B8F10108F7D221464846F2E0A1
:102A10000A21C4F302524FF0000B0891022A04D09D
:102A200001CFC117032A09D00AE0FF1D27F00707CD
:102A3000F7E8020108E02CE01EE01FE000B2C11739
:102A4000042A01D140B2C117021E71F1000206DA58
:102A50000023D0EB030063EB01012D2202E02205ED
:102A600004D52B228DF82420012203E0E20701D0B7
:102A70002022F7E7904653E00A210BE0102109E0FD
:102A800010214FF0000B44F004044FF008090891A6
:102A900003E008214FF0000B0891C4F30252022A10
:102AA00004D001CF0021032A06D006E0FF1D27F045
:102AB0000707F7E8020103E080B2042A00D1C0B2A0
:102AC0004FF0000822072BD52A78702A07D0DDF8AE
:102AD00020C08CF0100C5CEA0B0C05D00EE04022FC
:102AE0008DF82420012208E050EA010306D03023AB
:102AF0008DF824308DF8252002229046089B83F023
:102B0000080353EA0B030BD150EA010201D162071B
:102B100006D530228DF824204FF00108A9F10109D3
:102B20002A78582A04D038A20B9208AA0A920BE0FD
:102B30003AA2F9E75B46089AFDF7D7FC0B9B9B5C32
:102B40000A9A521E0A92137050EA0102F2D10A98B0
:102B5000ADEB000000F1200B600702D524F48034B7
:102B600001E04FF00109D94502DDA9EB0B0000E0BF
:102B7000002000EB0B0141440890AAEB010AE0039E
:102B800006D4DDE90F232146504600F063F80644E1
:102B90004FF0000908E009A911F80900DDE90F125A
:102BA000904709F10109761CC145F4DBE0030CD51F
:102BB000DDE90F232146504600F04CF8064404E0BE
:102BC000DDE90F1230209047761C0899481E0890C6
:102BD0000029F5DC08E00A980A990078491C0A9156
:102BE000DDE90F129047761CBBF10001ABF1010B40
:102BF000F1DC21465046DDE90F2300F019F80644C8
:102C00006D1C21E609280100303132333435363766
:102C10003839616263646566000000003031323328
:102C200034353637383941424344454600000000C8
:102C30002DE9F041044600251E461746880404D4B9
:102C400005E039462020B0476D1C641EF9D52846A2
:102C5000BDE8F0812DE9F041044600251E4690466E
:102C6000C80301D5302700E02027880404D505E0FB
:102C700041463846B0476D1C641EF9D52846BDE86C
:102C8000F0810A68531C0B60107070470146114AAE
:102C900012884A434FF0E0235A6100229A611A4693
:102CA000126942F001021A6100BF4FF0E022106980
:102CB00000F001021AB100F48032002AF5D04FF082
:102CC000E022126922F001024FF0E0231A61002293
:102CD0009A6170473800002070B504460D46E1B295
:102CE0000548FFF708FD00BF80210348FFF735FCCA
:102CF0000028F9D0204670BD00380140002448204B
:102D0000FFF776F94FF4A060FEF72AFDFEF770FC9E
:102D1000FDF7BCFE4FF4E130FFF7B2FBFDF7C6FD57
:102D2000FEF742FAFFF73EFAFEF788FCFEF794FC46
:102D30002A490870FEF76CFFFEF7F2F9284908608F
:102D400008460068FEF758F826480068FDF724FF9B
:102D500025490870FEF742FEFEF70EFD3DE0641CBB
:102D60000020FEF73FFA054615B12846FEF760FD44
:102D70003220B4FBF0F100FB114078B9FEF7D0F936
:102D80001749086008460068FEF74AF815490860C8
:102D900008460068FFF7B4FC134908702046FDF7A9
:102DA00021FE1420B4FBF0F100FB114008B9FEF73E
:102DB00015FE6420B4FBF0F100FB114008B9FEF7EA
:102DC000DBFC0A480088002804DD08480088401E13
:102DD000064908800A20FFF759FFC0E711000020CC
:102DE000080000200C000020060000201200002037
:102DF00000000000000000000000000000000000D3
:102E00003F400000000000000000300040003000A3
:102E10004000000009000BC03D000BC03D00090050
:102E200018C024407FE0224031800000180024C0F8
:102E30001B000D803240018003801C4027401C8015
:102E4000074000401000600000000000000000008B
:102E50000000000000001F802040402000004020B3
:102E600020401F8000000000090006001F800600AF
:102E700009000000040004003F800400040000007A
:102E800000100060000000000000000004000400CA
:102E900004000400040000000000004000000000E6
:102EA00000000000002001C00600380040000000C3
:102EB0001F802040204020401F8000000000104064
:102EC0003FC000400000000018C0214022402440C4
:102ED0001840000010802040244024401B80000047
:102EE00002000D0011003FC0014000003C80244062
:102EF00024402440238000001F802440244034408C
:102F0000038000003000200027C0380020000000AF
:102F10001B802440244024401B8000001C0022C051
:102F2000224022401F8000000000000008400000F6
:102F3000000000000000000004600000000000002D
:102F4000000004000A001100208040400900090030
:102F50000900090009000000000040402080110025
:102F60000A0004001800200023402400180000007C
:102F70001F802040274029401F400000004007C01C
:102F800039000F0001C0004020403FC024402440D1
:102F90001B8000001F802040204020403080000027
:102FA00020403FC0204020401F80000020403FC004
:102FB00024402E4030C0000020403FC024402E005E
:102FC000300000000F0010802040224033800200BB
:102FD00020403FC0040004003FC02040204020406B
:102FE0003FC02040204000000060202020203FC043
:102FF0002000200020403FC024400B0030C0204073
:1030000020403FC020400040004000C03FC03C0086
:1030100003C03C003FC0000020403FC00C402300E4
:103020003FC020001F802040204020401F80000023
:1030300020403FC024402400180000001F80214091
:10304000214020E01FA0000020403FC02440260077
:1030500019C0004018C024402440224031800000A4
:10306000300020403FC020403000000020003F8062
:10307000004000403F80200020003E0001C00700CB
:1030800038002000380007C03C0007C038000000AE
:10309000204039C0060039C02040000020003840E0
:1030A00007C0384020000000304021C02640384092
:1030B00020C00000000000007FE040204020000011
:1030C000000070000C000380004000000000402061
:1030D00040207FE0000000000000200040002000B1
:1030E0000000000000100010001000100010001080
:1030F000000000004000000000000000000002800E
:103100000540054003C0004020003FC0044004408B
:1031100003800000000003800440044006400000DB
:1031200000000380044024403FC0004000000380B2
:103130000540054003400000000004401FC024403B
:1031400024402000000002E00550055006500420F5
:1031500020403FC00440040003C000400000044081
:1031600027C000400000000000100010041027E0FD
:103170000000000020403FC00140070004C00440A0
:10318000204020403FC000400040000007C0040035
:1031900007C0040003C00000044007C0044004004E
:1031A00003C000400000038004400440038000008E
:1031B000041007F004500440038000000000038066
:1031C0000440045007F00010044007C0024004000F
:1031D00004000000000006400540054004C0000057
:1031E000000004001F80044000400000040007802D
:1031F0000040044007C000400400070004C00180F4
:1032000006000400060001C0070001C0060000001F
:10321000044006C0010006C004400000041007106E
:1032200004E00180060004000000044005C00640E0
:10323000044000000000000004007BE0402000008B
:10324000000000000000FFF000000000000040202F
:103250007BE00400000000004000800040002000EF
:1032600020004000000000000000000000000000FE
:10327000000000000000000000001FCC000C000057
:10328000000000000000080030006000080030006E
:1032900060000000022003FC1E20022003FC1E2010
:1032A0000220000000000E1811043FFF10840C786B
:1032B000000000000F0010840F3800C00778188449
:1032C0000078000000780F8410C411240E9800E4E8
:1032D0000084000808006800700000000000000082
:1032E0000000000000000000000007E018182004A3
:1032F00040020000000040022004181807E000000F
:10330000000000000240024001800FF001800240F6
:10331000024000000080008000800FF800800080E4
:10332000008000000001000D000E00000000000001
:10333000000000000000008000800080008000800D
:10334000008000800000000C000C00000000000065
:103350000000000000000006001800600180060068
:1033600018002000000007F00808100410040808E6
:1033700007F000000000080408041FFC000400041B
:103380000000000000000E0C1014102410441184E2
:103390000E0C000000000C18100411041104128817
:1033A0000C700000000000E00320042408241FFC2F
:1033B0000024000000001F981084110411041088DC
:1033C00010700000000007F008881104110418882C
:1033D0000070000000001C00100010FC13001C0016
:1033E0001000000000000E381144108410841144B5
:1033F0000E38000000000700088C104410440888B4
:1034000007F00000000000000000030C030C0000A7
:1034100000000000000000000001010600000000A4
:103420000000000000000080014002200410080895
:1034300010040000022002200220022002200220AC
:1034400002200000000010040808041002200140BF
:103450000080000000000E001200100C106C1080A4
:103460000F00000003E00C1813E4142417C408280C
:1034700007D000000004003C03C41C40074000E4E7
:10348000001C000410041FFC1104110411040E8818
:103490000070000003E00C18100410041004100861
:1034A0001C10000010041FFC100410041004080875
:1034B00007F0000010041FFC1104110417C41004CD
:1034C0000818000010041FFC1104110017C01000A0
:1034D0000800000003E00C181004100410441C78CD
:1034E0000040000010041FFC108400800080108445
:1034F0001FFC10040000100410041FFC1004100432
:103500000000000000030001100110011FFE100068
:103510001000000010041FFC110403801464181C28
:103520001004000010041FFC100400040004000438
:10353000000C000010041FFC1F0000FC1F001FFCFB
:103540001004000010041FFC0C04030000E010181D
:103550001FFC100007F008081004100410040808ED
:1035600007F0000010041FFC1084108010801080F1
:103570000F00000007F0081810241024101C080A7F
:1035800007F2000010041FFC1104110011C01130DB
:103590000E0C000400000E1C110410841084104452
:1035A0001C3800001800100010041FFC100410004C
:1035B0001800000010001FF810040004000410049C
:1035C0001FF8100010001E0011E0001C0070138096
:1035D0001C0010001FC0103C00E01F0000E0103C69
:1035E0001FC000001004180C163401C001C01634AE
:1035F000180C100410001C00130400FC13041C0021
:10360000100000000804101C1064108413041C0433
:10361000101800000000000000007FFE4002400281
:1036200040020000000030000C0003800060001C1D
:103630000003000000004002400240027FFE000044
:10364000000000000000000020004000400040009A
:103650002000000000010001000100010001000144
:1036600000010001000040004000200000000000B8
:1036700000000000000000980124014401440144BE
:1036800000FC000410001FFC0088010401040088F5
:1036900000700000000000700088010401040104B3
:1036A0000088000000000070008801040104110877
:1036B0001FFC0004000000F80144014401440144DF
:1036C00000C800000000010401040FFC11041104F3
:1036D00011001800000000D601290129012901C9A3
:1036E0000106000010041FFC008401000100010419
:1036F00000FC000400000104190419FC000400048B
:10370000000000000000000300010101190119FE82
:103710000000000010041FFC0024004001B4010C54
:10372000010400000000100410041FFC0004000449
:1037300000000000010401FC0104010001FC01047F
:10374000010000FC010401FC0084010001000104EF
:1037500000FC0004000000F801040104010401045D
:1037600000F80000010101FF008501040104008848
:1037700000700000000000700088010401040105D1
:1037800001FF00010104010401FC008401040100A7
:1037900001800000000000CC012401240124012448
:1037A0000198000000000100010007F80104010475
:1037B00000000000010001F80004000400040108FA
:1037C00001FC0004010001800170000C0010016088
:1037D0000180010001F0010C003001C00030010C3B
:1037E00001F0010000000104018C00740170018CE3
:1037F00001040000010101810171000E0018016047
:103800000180010000000184010C013401440184A5
:10381000010C0000000000000000000001003EFC60
:10382000400240020000000000000000FFFF000016
:10383000000000000000400240023EFC01000000C9
:103840000000000000006000800080004000400098
:103850002000200000000000000000000000000028
:103860000000000000000000000000000000000058
:103870000000000000000000000000000000000048
:10388000000000000000000F80380FFE380F803865
:103890000000000000000000000000000000000028
:1038A00000000100000600000C000038000031009C
:1038B000000600000C00003800003000000000008E
:1038C0000000000061800067F807F9800061800057
:1038D00061800061800061800067F807F980006105
:1038E0008000000000000000000001C0E003E0F0E4
:1038F0000630080418081FFFFE040E080787F003AF
:1039000081E000000000000001F000060C0004044B
:1039100008060C7001F9C0000E00003BE000EC1836
:10392000070808040C180003E00000000001E00094
:1039300007F003F818041C0804170807E1D003C0B7
:10394000E00023B0003C0800200800001000000048
:103950000000000100003100003200001C000000E7
:103960000000000000000000000000000000000057
:103970000000000000000000000000000000000047
:10398000000000007F0001FFC00780F00C0018104D
:1039900000042000020000000000002000021000CF
:1039A000040C00180780F001FFC0007F0000000039
:1039B0000000000000000000000000000000000007
:1039C0004200006600006600003C0000180003FF93
:1039D000C0001800003C00006600006600004200C5
:1039E00000000000080000080000080000080000B7
:1039F000080001FFC00008000008000008000008DF
:103A0000000008000000000000010000310000324A
:103A100000001C000000000000000000000000008A
:103A20000000000000000000000000000800000886
:103A3000000008000008000008000008000008005E
:103A4000000800000800000800000000000000005E
:103A500000000000380000380000380000000000BE
:103A60000000000000000000000000000000000056
:103A700000000000000600001C0000700001800033
:103A80000E0000380000C0000700001C00003000DD
:103A900000000000000000007F8001FFE003807054
:103AA00006001804000804000806001803807001CE
:103AB000FFE0007F80000000000000000000010027
:103AC0000801000801000803FFF807FFF8000008DC
:103AD00000000800000800000000000000000001D5
:103AE000C03802C0580400980401180402180404E5
:103AF00018061C1803F81801E0F800000000000088
:103B000000000001C0E003C0F0040008040808043D
:103B1000080806180803F41801E7F00001E00000A7
:103B200000000000000000000300000D0000110074
:103B300000610000810803010807FFF80FFFF8008B
:103B400001080001080000000000000000E007FC80
:103B5000D0060808061008061008061008061838CF
:103B6000060FF00607C00000000000000000000083
:103B70003F8001FFE003843002081804100804109D
:103B800008041008071810030FF00007C000000019
:103B900000000000000003C000070000060000064F
:103BA00000F80607F806180006E000070000060007
:103BB0000000000000000001E1E003F7F00634100F
:103BC000041808041808040C08040C080616180346
:103BD000F3F001C1E000000000000000F80003FC69
:103BE0003003063804020804020804020804041022
:103BF0000308F001FFC0007F00000000000000008B
:103C0000000000000000000000000000703800709C
:103C100038007038000000000000000000000000C4
:103C20000000000000000000000000000000000094
:103C3000301A00301C0000000000000000000000EE
:103C40000000000000000000000000080000140058
:103C5000002200004100008080010040020020049A
:103C600000100800080000000000000021000021F2
:103C7000000021000021000021000021000021009F
:103C800000210000210000210000000000000000D1
:103C9000000008000804001002002001004000801D
:103CA0008000410000220000140000080000000015
:103CB00000000003C00004C0000400000800380831
:103CC0000F380808380810000C300007E00003C067
:103CD00000000000000000003F8000FFE003807053
:103CE000020F1006708804C088048308047F8802CD
:103CF000C09003012000FE400000080000180001F1
:103D0000F8003E0801C20007020007E20000FE00C2
:103D1000001FC80001F80000380000080400080770
:103D2000FFF807FFF8040808040808040808040856
:103D30000806180803F41801E7F00001E00000008D
:103D4000000000003F8001FFE003807002001804C3
:103D50000008040008040008040010060020078082
:103D6000C000000004000807FFF807FFF80400087F
:103D70000400080400080400180200100380700109
:103D8000FFE0007F8000000004000807FFF807FF45
:103D9000F8040808040808040808040808043E0891
:103DA0000400080600180100600000000400080775
:103DB000FFF807FFF80408080408000408000408D6
:103DC00000043E0006000006000001800000000024
:103DD000000000003F8001FFE0038070060018042F
:103DE00000080402080402080203F00783F000023E
:103DF0000000020004000807FFF807FFF8040808A5
:103E00000008000008000008000008000408080777
:103E1000FFF807FFF804000800000000000004009D
:103E20000804000804000807FFF807FFF80400086A
:103E3000040008040008000000000000000000006A
:103E40000006000007000001040001040001040056
:103E50000307FFFE07FFFC0400000400000400004D
:103E600004000807FFF807FFF8040C08001800001A
:103E70003E0004C7800503C80600F80400380400AB
:103E80001800000804000807FFF807FFF8040008FE
:103E900000000800000800000800000800000800FA
:103EA000001800006000000004000807FFF8078009
:103EB0000807FC00007FC00003F80007C00078007E
:103EC00007800807FFF807FFF80400080400080748
:103ED000FFF807000803C00000E000003800001EE3
:103EE000000007000001C00400F007FFF804000014
:103EF000000000007F8001FFE003807006001804CE
:103F0000000804000806001803003001FFE0007FED
:103F10008000000004000807FFF807FFF804040809
:103F2000040400040400040400040400060C00035C
:103F3000F80001F000000000000000007F8001FF99
:103F4000E00380700600880400880400C806003C76
:103F500003003E01FFE6007F840000000400080724
:103F6000FFF807FFF8040808040800040C00040F19
:103F700000040BC00610F003F03801E00800000850
:103F800000000001E0F803F03006301004180804C7
:103F90001808040C08040C080206180207F0078130
:103FA000E0000000018000060000040000040000A2
:103FB00004000807FFF807FFF804000804000004E5
:103FC000000006000001800004000007FFE007FF7A
:103FD000F0040018000008000008000008000008B5
:103FE00000000804001007FFE004000004000006C1
:103FF000000007E00007FE00041FE00001F80000D9
:10400000380001E0043E0007C00006000004000084
:1040100004000007E00007FFC0041FF80007C00706
:10402000F80007FF80043FF80007C004F80007000D
:104030000004000000000004000806001807C07813
:1040400005F1C8003E00001F800463E80780F80601
:1040500000180400080000000400000600000780AB
:104060000007E008047C08001FF80007F8001808A3
:1040700004E0080700000600000400000000000142
:1040800000080600380400F80403E8040F08047C64
:104090000805F00807C008070018040060000000C9
:1040A0000000000000000000000000000000003FD1
:1040B000FFFE20000220000220000220000220005B
:1040C00002000000000000000000080000070000DF
:1040D00000C0000038000006000001C000003000F1
:1040E000000E0000010000000000000000002000A1
:1040F000022000022000022000022000023FFFFEFA
:1041000000000000000000000000000000000000AF
:104110000000000000080000100000300000200037
:104120000030000010000008000000000000000047
:10413000000001000001000001000001000001007A
:10414000000100000100000100000100000100006A
:10415000010000010000000000000000002000003D
:10416000200000100000100000000000000000000F
:1041700000000000000000000000000000F0001936
:10418000F8001B180022080026080024080024104C
:10419000003FF8001FF800000800001800000004AD
:1041A000000007FFF80FFFF00018180010080020AB
:1041B00008002008003018001FF0000FC0000000A9
:1041C0000000000007C0001FF000183000200800A9
:1041D0002008002008003C08001C100000600000BF
:1041E000000000000000000007C0001FF0003818A9
:1041F00000200800200800200804101007FFF80F16
:10420000FFF00000100000000000000000000007A8
:10421000C0001FF0001230002218002208002208FF
:10422000003208001E10000E2000000000000000F8
:10423000200000200800200801FFF803FFF80620F6
:1042400008042008042008072000030000000000E4
:1042500000000000000E000E6E001FF30031B100E0
:1042600020B10020B1003191001F13002E1E00204C
:104270000E00300000000004000807FFF80FFFF8F0
:10428000001008002000002000002008003FF80077
:104290001FF80000080000000000000000000020DF
:1042A00008002008002008063FF8063FF800000834
:1042B00000000800000800000000000000000000EE
:1042C0000000000003000003002001002001002086
:1042D00003063FFE063FFC00000000000000000057
:1042E00000000004000807FFF80FFFF80001880035
:1042F0000300002FC00038F800203800200800001C
:10430000080000000000000000000400080400088D
:1043100004000807FFF80FFFF8000008000008007D
:104320000008000000000000002008003FF8003FE7
:10433000F8001008002000003FF8003FF8001008C7
:10434000002000003FF8003FF800000800000000D7
:104350002008003FF8003FF800100800100000207F
:1043600000002008003FF8001FF8000008000000CF
:104370000000000007C0000FF000183000300800F7
:104380002008002008003008001830000FF0000757
:10439000C0000000000000002001003FFF003FFFC0
:1043A000001011002009002008002008003038000B
:1043B0001FF0000FC00000000000000007C0001F39
:1043C000F000381800200800200800200900101113
:1043D000001FFF003FFF0000010000000020080058
:1043E0002008002008003FF8003FF80008080010EF
:1043F000080020080020000030000030000000000D
:10440000000000000000000C78001E1800330800B7
:1044100023080021080021880021980030F000388E
:1044200060000000000000002000002000002000CC
:1044300000FFF003FFF8002008002008002008001B
:104440000030000000000000000000002000003FDD
:10445000F0007FF80000180000080000080020109D
:10446000003FF8007FF00000100000000000000096
:104470002000003000003C00003F800023F00000DE
:1044800078000070002380003C0000300000200015
:10449000002000003C00003FE00023F80000E000A6
:1044A0002700003E00003FE00021F80001E0003E50
:1044B000000020000000000020080020080038381C
:1044C000003E680027800003C8002CF80038380040
:1044D000201800200800000000000000200000302C
:1044E00003003C01003F830023EC000070002380A8
:1044F000003C000020000020000000000000000040
:1045000000000038080020380020F80023E8002FC1
:1045100088003E08003808002018000070000000E5
:10452000000000000000000000000000000000008B
:1045300008000014001FF7FC3000062000020000F5
:10454000000000000000000000000000000000006B
:10455000000000000000FFFFFF000000000000005E
:10456000000000000000000000000000000020002B
:10457000023000061FF7FC001400000800000000D5
:104580000000000000000000000000000000001813
:10459000000060000040000040000020000010000B
:1045A000000800000400000400000C0000100000DF
:1045B00000000000000000000000000000000000FB
:1045C00000000000000000000000000000000000EB
:1045D00000000000000000000000000000000000DB
:1045E00000000000000000000000000000000000CB
:1045F00000000000000000000000000000000000BB
:1046000000000000000000000000000000000000AA
:10461000000000000000000000000000000000009A
:10462000000000000000000000000000000000008A
:10463000000000000000000000000000000000007A
:10464000000000000000000007F000C007FFE1E0EC
:1046500007F001E0000000C00000000000000000C2
:10466000000000000000000000000000000000004A
:10467000000000000000000000000000000000003A
:10468000000000000000000000000000000000002A
:10469000000000000000000000000000000000001A
:1046A000000000000000000000000000000000000A
:1046B00000000000000000000020000001C0000019
:1046C000078000001F0000001E0000001C200000EA
:1046D00001C00000078000001F0000001E00000055
:1046E0001C000000000000000000000000000000AE
:1046F00000000000000000000000000000000000BA
:1047000000000000000000000000000000000000A9
:104710000000000000000000000000000000000099
:104720000000000000000000000000000000000089
:104730000000000000180C0000180C0000180FE02A
:10474000001FFC0003F80C0000180C0000180C00FF
:1047500000180C0000180C0000180FE0001FFC00EF
:1047600003F80C0000180C0000180C0000000000FA
:104770000000000000000000000000000000000039
:104780000000000000000000000000000000000029
:104790000000000000000000000000000000000019
:1047A0000000000000000000000000000000000009
:1047B000000000000000000000000780007807C033
:1047C00000FC0640010E00200307002002038020A9
:1047D0000FFFFFFC0201C0200200E06001307040CA
:1047E00001F03F8000F01F0000000000000000000A
:1047F00000000000000000000000000000000000B9
:1048000000000000000000000000000000000000A8
:104810000000000000000000000000000000000098
:104820000000000000000000000000000000000088
:1048300000FE000001FF0000030180000200806014
:10484000030181C001FF070000FE18000000E00026
:104850000003BF00000CFFC00071806001C1002098
:10486000030180600000FFC000003F000000000066
:104870000000000000000000000000000000000038
:104880000000000000000000000000000000000028
:104890000000000000000000000000000000000018
:1048A0000000000000000000000000000000000008
:1048B00000001F0000007FC000FCC0C001FF80603E
:1048C0000303E0200202782002061E2003FC0740BA
:1048D00001F00380000103C000011C600001E02022
:1048E00000010020000100400000018000000000E5
:1048F00000000000000000000000000000000000B8
:1049000000000000000000000000000000000000A7
:104910000000000000000000000000000000000097
:104920000000000000000000000000000000000087
:1049300000000000002000001C6000001C4000007F
:104940001F8000000F0000000000000000000000B9
:104950000000000000000000000000000000000057
:104960000000000000000000000000000000000047
:104970000000000000000000000000000000000037
:104980000000000000000000000000000000000027
:104990000000000000000000000000000000000017
:1049A0000000000000000000000000000000000007
:1049B00000000000000000000000000000000000F7
:1049C0000000000000000000000000000007F800E8
:1049D000003FFF00007807C001C000E00300003086
:1049E000040000080800000410000002000000009D
:1049F00000000000000000000000000000000000B7
:104A000000000000000000000000000000000000A6
:104A10000000000000000000000000000000000096
:104A20000000000000000000000000000000000086
:104A3000000000001000000208000004040000084C
:104A40000300003001C000E0007807C0003FFF0015
:104A50000007F80000000000000000000000000057
:104A60000000000000000000000000000000000046
:104A70000000000000000000000000000000000036
:104A80000000000000000000000000000000000026
:104A90000000000000000000000000000000000016
:104AA0000000000000000000000000000000000006
:104AB0000000000000000000000C1800000E38008C
:104AC000000E3800000630000003600000614380E3
:104AD00000FFFF800061430000036000000630001B
:104AE000000E3800000E3800000C18000000000016
:104AF00000000000000000000000000000000000B6
:104B000000000000000000000000000000000000A5
:104B10000000000000000000000000000000000095
:104B20000000000000000000000000000000000085
:104B30000000000000000000000080000000800075
:104B40000000800000008000000080000000800065
:104B5000007FFF0000008000000080000000800057
:104B600000008000000080000000800000000000C5
:104B70000000000000000000000000000000000035
:104B80000000000000000000000000000000000025
:104B90000000000000000000000000000000000015
:104BA0000000000000000000000000000000000005
:104BB0000000000000000001000000E3000000E22F
:104BC000000000FC00000078000000000000000071
:104BD00000000000000000000000000000000000D5
:104BE00000000000000000000000000000000000C5
:104BF00000000000000000000000000000000000B5
:104C000000000000000000000000000000000000A4
:104C10000000000000000000000000000000000094
:104C20000000000000000000000000000000000084
:104C300000000000000080000000800000008000F4
:104C40000000800000008000000080000000800064
:104C50000000800000008000000080000000800054
:104C600000008000000080000000800000000000C4
:104C70000000000000000000000000000000000034
:104C80000000000000000000000000000000000024
:104C90000000000000000000000000000000000014
:104CA0000000000000000000000000000000000004
:104CB0000000000000000000000000C0000001E053
:104CC000000001E0000000C0000000000000000043
:104CD00000000000000000000000000000000000D4
:104CE00000000000000000000000000000000000C4
:104CF00000000000000000000000000000000000B4
:104D000000000000000000000000000000000000A3
:104D10000000000000000000000000000000000093
:104D20000000000000000000000000000000000083
:104D3000000000000000000C00000038000000E04F
:104D40000000038000000E00000038000000E000BA
:104D500000038000000E00000038000000E00000AA
:104D6000038000000E00000018000000000000009A
:104D70000000000000000000000000000000000033
:104D80000000000000000000000000000000000023
:104D90000000000000000000000000000000000013
:104DA0000000000000000000000000000000000003
:104DB0000000000000000000000FF800007FFF006E
:104DC00000F00780018000C00300006002000020A6
:104DD000020000200200002003000060018000C0EB
:104DE00000E00380007FFF00000FF80000000000DB
:104DF00000000000000000000000000000000000B3
:104E000000000000000000000000000000000000A2
:104E10000000000000000000000000000000000092
:104E20000000000000000000000000000000000082
:104E300000000000000000000000000000800020D2
:104E400000800020008000200080006001FFFFE063
:104E500003FFFFE0000000600000002000000020D1
:104E60000000002000000000000000000000000022
:104E70000000000000000000000000000000000032
:104E80000000000000000000000000000000000022
:104E90000000000000000000000000000000000012
:104EA0000000000000000000000000000000000002
:104EB0000000000000000000007800E000980160A1
:104EC000010002600200046002000860020010603D
:104ED00002002060020040600300806001830060E7
:104EE00001FE00E0007C07800000000000000000E0
:104EF00000000000000000000000000000000000B2
:104F000000000000000000000000000000000000A1
:104F10000000000000000000000000000000000091
:104F20000000000000000000000000000000000081
:104F3000000000000000000000F0078001F007C042
:104F400001000040020000200201002002010020B8
:104F500002010020030380200186804001FCC0C0C4
:104F600000787F8000001E000000000000000000AC
:104F70000000000000000000000000000000000031
:104F80000000000000000000000000000000000021
:104F90000000000000000000000000000000000011
:104FA0000000000000000000000000000000000001
:104FB0000000000000000800000038000000480069
:104FC0000001880000060800000C081000300810DE
:104FD0000040081001FFFFF003FFFFF003FFFFF0A8
:104FE0000000081000000810000008100000000079
:104FF00000000000000000000000000000000000B1
:1050000000000000000000000000000000000000A0
:105010000000000000000000000000000000000090
:105020000000000000000000000000000000000080
:10503000000000000000000000000780001F864004
:1050400003E10020030200200304002003040020E9
:10505000030400200304002003060040030301C0F2
:105060000301FF8003007E0000000000000000003C
:105070000000000000000000000000000000000030
:105080000000000000000000000000000000000020
:105090000000000000000000000000000000000010
:1050A0000000000000000000000000000000000000
:1050B00000000000000000000007FC00003FFF00AF
:1050C0000070C380008180C00101006003020020E5
:1050D000020200200202002002020020020300401F
:1050E00001C180C000C0FF8000007E000000000001
:1050F00000000000000000000000000000000000B0
:10510000000000000000000000000000000000009F
:10511000000000000000000000000000000000008F
:10512000000000000000000000000000000000007F
:10513000000000000000000000F0000003C00000BC
:105140000380000003000000030007E003003FE0CD
:105150000301C00003060000031800000360000004
:1051600003800000030000000000000000000000B9
:10517000000000000000000000000000000000002F
:10518000000000000000000000000000000000001F
:10519000000000000000000000000000000000000F
:1051A00000000000000000000000000000000000FF
:1051B0000000000000001F0000783F8000FC60C07D
:1051C000018EC040030780200203002002018020DE
:1051D000020180200201C0200301E040018670C06E
:1051E00000FC3F8000781F0000000000000000006D
:1051F00000000000000000000000000000000000AF
:10520000000000000000000000000000000000009E
:10521000000000000000000000000000000000008E
:10522000000000000000000000000000000000007E
:1052300000000000003F000000FF81C001C0C1C0AD
:105240000100602002002020020020200200202017
:1052500002002060020040C00100C18000C18F0038
:10526000007FFE00001FF0000000000000000000B2
:10527000000000000000000000000000000000002E
:10528000000000000000000000000000000000001E
:10529000000000000000000000000000000000000E
:1052A00000000000000000000000000000000000FE
:1052B00000000000000000000000000000000000EE
:1052C0000000000000000000000300C0000781E0B3
:1052D000000781E0000300C00000000000000000A3
:1052E00000000000000000000000000000000000BE
:1052F00000000000000000000000000000000000AE
:10530000000000000000000000000000000000009D
:10531000000000000000000000000000000000008D
:10532000000000000000000000000000000000007D
:10533000000000000000000000000000000000006D
:105340000000000000000000000600660006007873
:10535000000000000000000000000000000000004D
:10536000000000000000000000000000000000003D
:10537000000000000000000000000000000000002D
:10538000000000000000000000000000000000001D
:10539000000000000000000000000000000000000D
:1053A00000000000000000000000000000000000FD
:1053B0000000000000000000000080000001C000AC
:1053C0000003600000063000000C180000180C00FC
:1053D000003006000060030000C0018001000040B2
:1053E0000200002004000010000000000000000087
:1053F00000000000000000000000000000000000AD
:10540000000000000000000000000000000000009C
:10541000000000000000000000000000000000008C
:10542000000000000000000000000000000000007C
:105430000000000000041000000410000004100030
:10544000000410000004100000041000000410000C
:1054500000041000000410000004100000041000FC
:105460000004100000041000000410000000000000
:10547000000000000000000000000000000000002C
:10548000000000000000000000000000000000001C
:10549000000000000000000000000000000000000C
:1054A00000000000000000000000000000000000FC
:1054B00000000000000000000400001002000020B6
:1054C0000100004000C001800060030000300600C1
:1054D00000180C00000C18000006300000036000EB
:1054E0000001C0000000800000000000000000007B
:1054F00000000000000000000000000000000000AC
:10550000000000000000000000000000000000009B
:10551000000000000000000000000000000000008B
:10552000000000000000000000000000000000007B
:1055300000000000000000000078000001F80000FA
:105540000238000002000000040000C0040079E0FE
:10555000040081E0040100C0040300000202000016
:105560000306000001FC000000F80000000000003D
:10557000000000000000000000000000000000002B
:10558000000000000000000000000000000000001B
:10559000000000000000000000000000000000000B
:1055A00000000000000000000000000000000000FB
:1055B00000000000000FF800003FFE0000700780B0
:1055C00000C000C00101F8400307FC20021E0420B7
:1055D0000230082002203020023FFC20013F04401E
:1055E00001800CC000E03180001FC20000000000FC
:1055F00000000000000000000000000000000000AB
:10560000000000000000000000000000000000009A
:10561000000000000000000000000000000000008A
:10562000000000000000000000000000000000007A
:105630000000002000000060000003E000003E20A9
:105640000003E020003E200003E020000380200053
:1056500007FC2000003FE0000003FE2000003FE0C8
:10566000000001E000000020000000200000000019
:10567000000000000000000000000000000000002A
:10568000000000000000000000000000000000001A
:10569000000000000000000000000000000000000A
:1056A00000000000000000000000000000000000FA
:1056B00000000000020000200200002003FFFFE0C5
:1056C00003FFFFE002010020020100200201002090
:1056D00002010020020100200303002001868060F7
:1056E00001FCC0C000F87F8000001F000000000027
:1056F00000000000000000000000000000000000AA
:105700000000000000000000000000000000000099
:105710000000000000000000000000000000000089
:105720000000000000000000000000000000000079
:10573000000000000007F800003FFF000070078035
:1057400000C000C001000040030000200200002053
:1057500002000020020000200200002001000040A2
:10576000018000C003C0018000300600000000007E
:105770000000000000000000000000000000000029
:105780000000000000000000000000000000000019
:105790000000000000000000000000000000000009
:1057A00000000000000000000000000000000000F9
:1057B00000000000020000200200002003FFFFE0C4
:1057C00003FFFFE002000020020000200200002092
:1057D000020000200300006001000040018000C0C2
:1057E00000F00780007FFE00000FF80000000000BE
:1057F00000000000000000000000000000000000A9
:105800000000000000000000000000000000000098
:105810000000000000000000000000000000000088
:105820000000000000000000000000000000000078
:1058300000000000020000200200002003FFFFE043
:1058400003FFFFE00201002002010020020100200E
:10585000020100200201002002038020020FE0204C
:105860000300006003C000E00060030000000000CF
:105870000000000000000000000000000000000028
:105880000000000000000000000000000000000018
:105890000000000000000000000000000000000008
:1058A00000000000000000000000000000000000F8
:1058B00000000000020000200200002003FFFFE0C3
:1058C00003FFFFE0020100200201002002010000AE
:1058D000020100000201000002010000020380003A
:1058E000030FE0000300000003C0000000600000A0
:1058F00000000000000000000000000000000000A8
:105900000000000000000000000000000000000097
:105910000000000000000000000000000000000087
:105920000000000000000000000000000000000077
:10593000000000000007F800003FFE000070078034
:1059400001C001C00100004003000020020000204F
:105950000200002002000020010020200100204061
:1059600003C03F8000303F80000020000000200086
:105970000000000000000000000000000000000027
:105980000000000000000000000000000000000017
:105990000000000000000000000000000000000007
:1059A00000000000000000000000000000000000F7
:1059B000020000200200002003FFFFE003FFFFE0E1
:1059C0000200802002008020000080000000800093
:1059D00000008000020080200200802003FFFFE022
:1059E00003FFFFE002000020020000200000000092
:1059F00000000000000000000000000000000000A7
:105A00000000000000000000000000000000000096
:105A10000000000000000000000000000000000086
:105A20000000000000000000000000000000000076
:105A30000000000000000000000000000200002044
:105A400002000020020000200200002003FFFFE00F
:105A500003FFFFE0020000200200002002000020FF
:105A60000200002000000000000000000000000014
:105A70000000000000000000000000000000000026
:105A80000000000000000000000000000000000016
:105A90000000000000000000000000000000000006
:105AA00000000000000000000000000000000000F6
:105AB000000000000000000E0000000F0000000FBA
:105AC00000000001020000010200000102000003CA
:105AD0000200000603FFFFFC03FFFFF802000000C6
