:020000040800F2
:1000000000A7002049010008A9130008B50B00084B
:10001000A51300087B090008072F00080000000056
:10002000000000000000000000000000A91500080A
:100030007F0900080000000031140008BD16000808
:100040006301000863010008630100086301000800
:1000500063010008630100086301000863010008F0
:1000600063010008630100086301000863010008E0
:1000700063010008630100086301000863010008D0
:1000800063010008630100086301000863010008C0
:1000900063010008630100086301000863010008B0
:1000A00063010008630100086301000863010008A0
:1000B0006301000863010008C91A00086301000811
:1000C0006301000863010008630100086301000880
:1000D00063010008012C00086301000863010008A7
:1000E0006301000863010008630100086301000860
:1000F0006301000863010008630100086301000850
:10010000630100086301000863010008630100083F
:10011000630100086301000863010008630100082F
:10012000630100086301000863010008630100081F
:10013000DFF810D000F052FB0048004755F80008E7
:10014000AFF3008000A7002006488047064800471C
:10015000FEE7FEE7FEE7FEE7FEE7FEE7FEE7FEE777
:10016000FEE7FEE7FD1600083101000840EA010342
:100170009B0703D009E008C9121F08C0042AFAD25D
:1001800003E011F8013B00F8013B521EF9D2704721
:10019000D2B201E000F8012B491EFBD270470022C9
:1001A000F6E710B513460A4604461946FFF7F0FF76
:1001B000204610BD421C10F8011B0029FBD1801AFB
:1001C0007047034611F8012B00F8012B002AF9D1E2
:1001D00018467047F0B480EA0102D40F4200B2EB37
:1001E000410F02D20246084611464A0042D0C30DD2
:1001F000DDB2C1F3C752AD1A202D35DAC1F31601B5
:1002000041F4000204B15242C5F1200602FA06F19F
:100210002A411044B3EBD05F23D0C4B1012DA0EB31
:10022000C35009DCF0BC4FF0004202EAC352DBB21B
:1002300000F5000000F0F6B9400000F1807000EB1E
:10024000C350A0F1807040EAD170490009E049082C
:1002500041EAC071A0EBC35000F50000400800EB7C
:10026000C350F0BC00F0D5B96142012202EB41015C
:10027000001BF6E7F0BC704781F00041AAE780F070
:100280000040A7E780EA010210B502F000434000F9
:1002900022D04A001FD0010E01EB1261C0F35600BC
:1002A000C2F3560240F4000042F40002A0FB022018
:1002B00000047F39140400D0401C50EA124001D4DD
:1002C0004000491EC2B20C0604EBD010401C40088E
:1002D000802A02D003E0002010BD20F00100002998
:1002E00000DA0020184310BD30B480EA010202F0A9
:1002F000004530F0004221F0004013D090B1C30D12
:10030000D40DC2F31601C0F31600E41A41F4000143
:1003100040F400027D34914201D3641C00E04900A6
:10032000002C02DA30BC002070474FF4000000239C
:10033000914201D3891A034340084FEA4101F7D1A2
:1003400051B1914202D14FF0004105E002D24FF08D
:10035000010101E06FF0010103EBC450284430BCFF
:1003600000F057B92DE9FE4F81EA030404F0004480
:1003700021F0004100944FF0000B23F0004350EABD
:1003800001045ED052EA03045BD0C3F30A54C1F304
:100390000A552C44A4F2F3340194A0FB0254C1F397
:1003A000130141F48011C3F3130343F4801301FBE1
:1003B000024400FB034E840A970A44EA815447EA48
:1003C0008357A4FB076802958D0A05FB07854FEA52
:1003D000932C04FB0C542705029D4FEA065847EA6C
:1003E0001637B5EB08056EEB070C870E920E47EA41
:1003F000811742EA8312A7FB0201B6EB0B0164EB03
:1004000000042B0D43EA0C335E1844EB1C50DA4613
:100410005146E7FB0201C5F313044FEA0B3343EAED
:1004200014534FEA0432019C43EA0603A4F10C047E
:100430000294009CCDE900B400F031F903B0BDE8AE
:10044000F08F00200146F9E7C10F80EAE070084410
:10045000CA079623002100F0E5B896230022114632
:1004600000F0E0B80EB540F2334102910021CDE931
:1004700000110A460B4600F012F903B000BD00F06F
:10048000004220F00040C10DC0F3160040F400000F
:100490007F2901DA00207047962903DCC1F196011B
:1004A000C84001E096398840002AF4D040427047A5
:1004B00020F00040C10DC0F3160040F400007F2979
:1004C00001DA00207047962903DCC1F19601C8408B
:1004D0007047963988407047C1F30A5210B5C1F38E
:1004E000130140F2FF3341F480119A4201DA0020F7
:1004F00010BD40F233439A42A2F2334203DC52422F
:1005000000F077F810BD904010BD00F0004230F0D0
:1005100000400AD0C10D01F56071C0F3160042EA37
:100520000151C2084007114370470020014670473F
:1005300030B5041E71F1000404DB4FF0004440426A
:1005400064EB0101141E73F1000405DB1C464FF03F
:100550000043524263EB04038B4208BF824230BD2A
:1005600030B5041E71F1000404DB4FF0004440423A
:1005700064EB0101141E73F1000405DB1C464FF00F
:100580000043524263EB0403994208BF904230BDDE
:100590002DE9F05F0546002092469B4688460646B8
:1005A000814640241BE0284641464746224600F04B
:1005B00020F853465A46C01A914110D311461846A6
:1005C000224600F01DF92D1A67EB01084F4622461E
:1005D0000120002100F014F917EB00094E41201E04
:1005E000A4F10104DFDC484631462A464346BDE813
:1005F000F09F202A04DB203A21FA02F00021704704
:1006000021FA02F3D040C2F120029140084319467A
:1006100070470029A8BF7047401C490008BF20F060
:100620000100704710B4B0FA80FC00FA0CF050EAF8
:10063000010404BF10BC704749B1CCF1200421FA79
:1006400004F411FA0CF118BF012121430843A3EB74
:100650000C01CB1D4FEA00614FEA102042BF002081
:1006600010BC704700EBC35010440029A4BF10BC5D
:100670007047401C490008BF20F0010010BC7047C3
:1006800010B5141E73F1000408DA401C41F100019A
:1006900092185B411A4301D120F0010010BD2DE9F1
:1006A000F04D92469B4611B1B1FA81F202E0B0FAE8
:1006B00080F22032904600F0A3F804460F4640EA4C
:1006C0000A0041EA0B0153465A46084313D011462B
:1006D00053EA010019D0C8F140025046FFF789FFE4
:1006E00005460E4650465946424600F089F80843F2
:1006F00005D0012004E020463946BDE8F08D0020F9
:10070000054346EAE0762C4337430A986305E40A3A
:10071000A0EB08000022FD0A44EA47540A3002D543
:1007200000200146E9E7010510196941DDE90845A6
:1007300000196941BDE8F04DA2E72DE9F04D002315
:100740001A461B1A8A4103DB00200146BDE8F08DE2
:10075000C1F30A52C1F3130141F480154FF0000BAD
:10076000D10702D100186D41521E0027044640F205
:10077000FF11384601EB620A3E46804602460020E1
:100780004FF48011FFF735FFC2197141BB1846EBDA
:100790000100B4EB030C75EB000C04D3E41A65EB19
:1007A000000517460E46241908F101006D418046E8
:1007B0003428E3DDF91946EB0600091BA84103D2F2
:1007C0004FF0FF32134601E0002213461BEB0700F7
:1007D00046EB0A51BDE8F04DFFF752BF064C074DFE
:1007E00006E0E06840F0010394E807009847103401
:1007F000AC42F6D3FFF7A0FC207501084075010854
:10080000202A04DB203A00FA02F1002070479140D0
:10081000C2F1200320FA03F319439040704770B5EA
:100820008C1810F8015B15F0070301D110F8013B9B
:100830002A1106D110F8012B03E010F8016B01F822
:10084000016B5B1EF9D12B0705D40023521E0DD47A
:1008500001F8013BFAE710F8013BCB1A921C03E0C8
:1008600013F8015B01F8015B521EF9D5A142D8D300
:10087000002070BD10B500F0BBF910BD2DE9F041AE
:1008800007460C460026002509E036023919491BA7
:10089000491E88B200F008F80644681CC5B2A5429B
:1008A000F3DB3046BDE8F08170B50446002600F069
:1008B0003FFA2546E11704EB11610912A02202EB71
:1008C0004101C8B200F002FA00F06AFAE11704EB45
:1008D00011610912A4EB0121C8B200F0F7F900F090
:1008E0005FFA00F025FAA12000F0F0F900F058FAC4
:1008F000002000F0BFF9064600F036FA304670BD21
:100900002DE9F04105460E461746002409E0E200B5
:1009100026FA02F2D1B22A1990B200F006F8601C51
:10092000C4B2BC42F3DBBDE8F08170B504460E46AC
:1009300000F0FEF92546E11704EB11610912A0222F
:1009400002EB4101C8B200F0C1F900F029FAE11749
:1009500004EB11610912A4EB0121C8B200F0B6F951
:1009600000F01EFA304600F0B1F900F019FA00F07C
:10097000FBF90A2002F056FD70BD00BFFEE770478C
:1009800051B18200A2F1C042126842F0010382001C
:10099000A2F1C042136009E08200A2F1C0421268D5
:1009A000034B1A408300A3F1C0431A607047000054
:1009B000FEFF0F00D0E901121143C2681143026922
:1009C00011434269114382691143C2691143026AAA
:1009D0001143426A1143826A1143C26A1143026B96
:1009E000114302689200A2F1C04211608168082997
:1009F0000BD101688900A1F1C041096841F04002B2
:100A000001688900A1F1C0410A60416B0968426B2D
:100A1000526841EA0211426B926841EA0221426B3C
:100A2000928941EA0241426B128A41EA0251426BC9
:100A3000127D41EA0261426B926911430268521CC5
:100A40009200A2F1C0421160C16AB1F5804F1BD182
:100A5000816B0968826B526841EA0211826B92686D
:100A600041EA0221826B128A41EA0251826B127DB5
:100A700041EA0261826B9269114302689200A2F11D
:100A8000C042C2F8041107E06FF0704201688900AB
:100A9000A1F1C041C1F8042170472DE9F04102469F
:100AA00000250026002000230024002791F803C021
:100AB0000CF00F0591F803C00CF0100CBCF1000F06
:100AC00003D091F802C04CEA050591F800C0BCF1D2
:100AD000000F31D0146800202BE04FF0010C0CFA0D
:100AE00000F3B1F800C00CEA03069E4220D1830057
:100AF0004FF00F0C0CFA03F7BC4305FA03FC4CEA69
:100B0000040491F803C0BCF1280F06D14FF0010C8A
:100B10000CFA00FCC2F814C00AE091F803C0BCF162
:100B2000480F05D14FF0010C0CFA00FCC2F810C0C0
:100B3000401C0828D1D31460B1F800C0BCF1FF0FED
:100B400034DD546800202EE000F1080C4FF001085D
:100B500008FA0CF3B1F800C00CEA03069E4221D15A
:100B600083004FF00F0C0CFA03F7BC4305FA03FCAB
:100B70004CEA040491F803C0BCF1280F05D100F140
:100B8000080C08FA0CF8C2F8148091F803C0BCF104
:100B9000480F07D100F1080C4FF0010808FA0CF8D3
:100BA000C2F81080401C0828CED35460BDE8F08104
:100BB0000161704700BFFEE710B500200A490860D8
:100BC00000F0E0FC00200949C1F89C01022002F07D
:100BD0004FFC012004490860052002F049FC002078
:100BE0000249C1F8980110BD98812142008021423C
:100BF00008B50121082000F03DFC4020ADF80000C0
:100C000003208DF8020010208DF803006946084883
:100C1000FFF743FF8020ADF8000069460448FFF766
:100C20003CFF0120034908600349C1F89C0108BD4D
:100C3000000C0140988121420080214210B5002023
:100C40000A49086000F09EFC01200949C1F89C0196
:100C5000022002F00DFC012004490860052002F08A
:100C600007FC00200249C1F8980110BD988121427B
:100C70000080214270B50546002400F075FC002676
:100C800016E000200F490860022002F0F1FB01206D
:100C90000D49C1F898016006040E0A487C380068C6
:100CA00008B1601CC4B2012002F0E2FB701CC6B2A5
:100CB000082EE6DB15B9FFF7C1FF01E0FFF77CFF67
:100CC000204670BD988121420080214270B50446C3
:100CD00000F058FC002014490860002520E004F0D2
:100CE0008000002804DD01200F49091D086003E091
:100CF00000200D49091D08606006040E022002F064
:100D0000B7FB012008490860022002F0B1FB002077
:100D10000649C1F89801022002F0AAFB681CC5B27E
:100D2000082DDCDB70BD000098812142008021424B
:100D300010B500F027FC0120094908600949C1F8F5
:100D40009801052002F094FB002005490860062068
:100D500002F08EFB00200349C1F8980110BD00008D
:100D60009C8121420080214210B500F00BFC002044
:100D7000094908600949C1F89C0101200649086039
:100D8000062002F075FB01200449C1F89C010620F1
:100D900002F06EFB10BD00009881214200802142CC
:100DA00010B5002401200F49086002F061FB00F03B
:100DB000DBFB01200C49C1F8980102F059FB07E068
:100DC000601CC4B2FA2C03DDFFF7CEFF012010BD7A
:100DD0000448803800680028F2D10249091F0860E1
:100DE00000BFF4E79C8121420080214208B5012127
:100DF000442000F03FFB0120ADF8000028208DF8D2
:100E0000030069460648FFF748FE1C20ADF80000C5
:100E100048208DF8030069460248FFF73EFE08BDF2
:100E2000000801400018014070B506460F48408890
:100E3000401E83B20D480088401E82B20021084641
:100E400000F03EF900240CE0002504E0304600F0FC
:100E50007BFA681C85B205484088A842F6DC601C15
:100E600084B202480088A042EEDC70BD1800002069
:100E70002DE9F84F06460F4690469946DDF828B012
:100E8000A8EB0600401C1FFA80FAA9EB0700401CE3
:100E900080B20090002415E000250FE03A1991B2CD
:100EA000721990B24B46424600F00AF904FB0A510F
:100EB0003BF8110000F048FA681C85B25545EDDB9F
:100EC000601C84B200988442E6DBBDE8F88F000025
:100ED00000B502460F4882716AB9362000F028FA40
:100EE0004C2000F02BFA4FF4F0700A4948804FF480
:100EF000A07008800CE0362000F01AFA2C2000F0D8
:100F00001DFA4FF4A070034948804FF4F070088038
:100F100000BD00001800002070B504460D461646BE
:100F20002B4622462946204600F0CAF8304600F0FB
:100F30000BFA70BD2DE9FF4F84B081468A46002030
:100F4000039002900698A0EB09050798A0EB0A060B
:100F5000CDF80490CDF800A0002D01DD012705E0BB
:100F60000DB9002702E04FF0FF376D42002E02DD81
:100F70004FF0010806E016B94FF0000802E04FF00C
:100F8000FF387642B54201DD2C4600E034464FF092
:100F9000000B21E0009A91B2019A90B200F022F881
:100FA0000398284403900298304402900398A0428A
:100FB00005DD0398001B03900198384401900298C6
:100FC000A04205DD0298001B02900098404400906A
:100FD0000BF101001FFA80FB601C8345DADD08B0CD
:100FE000BDE8F08F30B504460D462B462246294613
:100FF000204600F065F80248008800F0A5F930BDF1
:10100000140000202DE9F04306460F4690460024C8
:1010100045460320A0EB48093CE07A1B91B2321907
:1010200090B2FFF7DFFF3A1B91B2721990B2FFF74F
:10103000D9FF3A1991B2721990B2FFF7D3FF7A191A
:1010400091B2321990B2FFF7CDFF7A1991B2321BEB
:1010500090B2FFF7C7FF3A1991B2721B90B2FFF737
:10106000C1FF7A1B91B2321B90B2FFF7BBFF3A1B54
:1010700091B2721B90B2FFF7B5FF641CB9F1000F7B
:1010800003DAA000801D814404E0601B80000A3068
:1010900081446D1EAC42C0DDBDE8F08310B5024650
:1010A000012000E050430B1EA1F10104E1B2F9D18F
:1010B00010BD000001480088704700000008006C67
:1010C00030B504460D462A2000F032F9201200F017
:1010D00035F9E0B200F032F9101200F02FF9D0B279
:1010E00000F02CF92B2000F023F9281200F026F94B
:1010F000E8B200F023F9181200F020F9D8B200F09D
:101100001DF92C2000F014F930BD00002DE9F84F36
:1011100080460E4617461C46B3462046E31704EBAE
:101120005373DB1021464FEAE47C04EB5C7C4FEA0E
:10113000EC0CA4EBCC0CBCF1000F02D04FF0010C76
:1011400001E04FF0000C6344224604EBD27C4FEAEE
:101150006C0C03FB0CF3DBB20093A7F12000C7B2C9
:10116000002556E00C2C07D107EB47002B4901EB7B
:10117000800010F8059013E0102C05D1284800EBF2
:10118000071010F805900BE0182C07D107EBC700EB
:10119000244901EB800010F8059001E0BDE8F88FCC
:1011A0004FF0000A2FE009F0800030B11E4802889D
:1011B00031464046FFF7B0FE07E00A9828B91B48C1
:1011C000028831464046FFF7A7FE4FEA49604FEAE2
:1011D0001069701C86B216484088B04200DCDDE71A
:1011E000A6EB0B00A0420AD15E4608F101001FFAEF
:1011F00080F80F480088404500DCCFE706E00AF1A0
:10120000010000F0FF0ABAF1080FCCDB00BF681C38
:10121000C5B200988542A5DB00BFBFE7AEFC000861
:101220002201010812070108140000201600002006
:10123000180000202DE9FF4F81B0074691461E4659
:101240000E9D4FF0000A002439E0301B401EC1B251
:101250000A20FFF723FFB9FBF0F00A21B0FBF1F2FF
:1012600001FB1208BAF1000F16D1701EA04213DD67
:10127000B8F1000F0ED10020AB4605EBDB71491031
:1012800001FB0471009088B22B4620220299FFF7DF
:101290003DFF12E04FF0010A0020AB4605EBDB7189
:1012A000491001FB0471009088B208F13001CAB204
:1012B0002B460299FFF72AFF00BF601CC4B2B4425C
:1012C000C3DB05B0BDE8F08F2DE9F84704460D46B5
:1012D00090469946DDE9096704F0FF0A08EB04002F
:1012E0001FFA80F809EB05001FFA80F916E0444563
:1012F00002DB5446A81985B24D4500DB14E00020FE
:1013000000903A78334629462046FFF7FFFE3046E4
:1013100006EBD07104EB61018CB27F1C38787E281B
:1013200002DC38782028E2DA00BFBDE8F887000048
:101330000149088070470000FE07006C01490880E1
:10134000704700000008006C0112024A1180C1B20F
:10135000118070470008006C08B50121482000F09A
:1013600089F82020ADF8000010208DF8030003203C
:101370008DF8020069460948FFF78FFB20210748D6
:10138000FFF716FC2020ADF8000069460448FFF77F
:1013900084FB20210248FFF70BFC08BD000C014034
:1013A0000018014000BFFEE77047000070B5002143
:1013B00000230F22C47804B3154C246804F4E064BD
:1013C000C4F5E064210AC1F10403CA40447804FA78
:1013D00003F184781440214309010E4C0678A1558D
:1013E000047804F01F050124AC4005786D11AD00B0
:1013F00005F1E025C5F8004109E0047804F01F0577
:101400000124AC40044D0678761145F8264070BDA5
:101410000CED00E000E400E080E100E0024901435F
:10142000024A1160704700000000FA050CED00E070
:101430007047000029B1064A52690243044B5A61C1
:1014400004E0034A52698243014B5A61704700002D
:101450000010024029B1064AD2690243044BDA6106
:1014600004E0034AD2698243014BDA61704700000D
:101470000010024029B1064A92690243044B9A6166
:1014800004E0034A92698243014B9A61704700006D
:101490000010024030B500210022002400232D4D11
:1014A0006D6805F00C0121B1042905D0082923D16C
:1014B00005E0294D056022E0274D05601FE0254D20
:1014C0006D6805F47012234D6D6805F480340225B3
:1014D00005EB92421CB9214D554305600BE01D4DB3
:1014E0006D6805F400351DB11C4D5543056002E0E3
:1014F000194D5543056002E0174D056000BF00BF60
:10150000144D6D6805F0F0010909154D6B5C056817
:10151000DD4045600F4D6D6805F4E061090A104D2E
:101520006B5C4568DD4085600A4D6D6805F460516F
:10153000C90A0B4D6B5C4568DD40C560054D6D68A3
:1015400005F44041890B074D6B5CC568B5FBF3F5AD
:10155000056130BD0010024000127A0000093D0014
:10156000000000201000002008B58020ADF8000029
:1015700048208DF8030069460148FFF78EFA08BD40
:10158000000C014008B58020ADF8000003208DF864
:10159000020010208DF8030069460248FFF77DFA2B
:1015A00008BD0000000C0140704710B500F002F8C3
:1015B00010BD00000CB50020019000903348006879
:1015C00040F480303149086000BF3048006800F4C2
:1015D000003000900198401C0190009818B90198C3
:1015E000B0F5A06FF1D12948006800F4003010B1C7
:1015F0000120009001E0002000900098012843D1D4
:101600002348006840F0100021490860084600683F
:1016100020F0030008600846006840F002000860FF
:101620001A484068194948600846406848600846BA
:10163000406840F4806048600846406820F47C10B0
:1016400048600846406840F4E81048600846006872
:1016500040F08070086000BF0C48006800F0007027
:101660000028F9D00948406820F003000749486085
:101670000846406840F00200486000BF03484068E8
:1016800000F00C000828F9D10CBD00000010024049
:1016900000200240042808D14FF0E021096941F000
:1016A00004014FF0E022116107E04FF0E0210969E9
:1016B00021F004014FF0E0221161704770470000F3
:1016C00010B504466FF00400FFF7E4FFE11704EBE8
:1016D0005171C1F3C701074A11701046007800EB41
:1016E0004001C1EBC0104FF6FF7101EAC000024992
:1016F000088010BD6A0000206C00002010B513485F
:10170000006840F00100114908600846406810492F
:1017100008400E494860084600680E4908400B49D9
:1017200008600846006820F4802008600846406889
:1017300020F4FE0048604FF41F008860FFF735FF7B
:101740004FF000600449086010BD00000010024026
:101750000000FFF8FFFFF6FE08ED00E000B59DB0C9
:1017600001210802FFF766FE012007900020089083
:101770000F20099000200A900B900C900D901520DE
:1017800000900190052002900020039004900590A5
:10179000069006200E9000200F90109010201190BF
:1017A0000020129014901390159016904FF48050D2
:1017B0001790002018904FF48040199000201A9044
:1017C00007A81B90CDF870D00EA8FFF7F3F8012101
:1017D0000620FFF7D5F81DB000BD000008B50121B7
:1017E0004FF4B470FFF746FE4CF23370ADF80000D2
:1017F00018208DF8030003208DF802006946184870
:10180000FFF74BF94FF68070ADF8000018208DF807
:10181000030003208DF8020069461248FFF73DF9E6
:1018200041F20100ADF8000018208DF803000320FC
:101830008DF8020069460C48FFF72FF90120ADF83A
:10184000000010208DF8030003208DF80200694687
:101850000648FFF722F901200549086008BD00008D
:10186000001401400018014000200140000C01401C
:101870008081214210B5FFF7B1FFFFF76FFF3220E3
:1018800001F0D0FDD020FFF753FDFFF713FC89498D
:101890008880FFF70FFC874988800846818886A0EA
:1018A00001F034FB1120FFF743FD4FF4FA7401E01F
:1018B000601E84B2002CFBDCB920FFF739FDFF204D
:1018C000FFF73CFD8320FFF739FD5720FFF736FD7A
:1018D0004FF4FA7401E0601E84B2002CFBDCB120EE
:1018E000FFF726FD0020FFF729FD1420FFF726FD56
:1018F0001C20FFF723FD1C20FFF720FDC320FFF76E
:101900001DFD4420FFF71AFD7020FFF717FD4FF46F
:10191000FA7401E0601E84B2002CFBDCB420FFF7F7
:1019200007FD2220FFF70AFD4020FFF707FD0020FA
:10193000FFF704FD2A20FFF701FD2A20FFF7FEFC38
:101940002020FFF7FBFC9120FFF7F8FC4FF4FA741E
:1019500001E0601E84B2002CFBDC3620FFF7E8FCBF
:101960004C20FFF7EBFCC020FFF7E2FC5020FFF714
:10197000E5FC5020FFF7E2FC0120FFF7DFFC3C20F4
:10198000FFF7DCFCC820FFF7D9FC0820FFF7D6FCE6
:101990000020FFF7D3FC0820FFF7D0FC0420FFF75E
:1019A000CDFC4FF4FA7401E0601E84B2002CFBDC25
:1019B0004FF4FA7401E0601E84B2002CFBDCE020DE
:1019C000FFF7B6FC0B20FFF7B9FC1120FFF7B6FCC0
:1019D0001E20FFF7B3FC3020FFF7B0FC3A20FFF7E2
:1019E000ADFC4320FFF7AAFC4E20FFF7A7FC5620D2
:1019F000FFF7A4FC4520FFF7A1FC3F20FFF79EFC6A
:101A00003920FFF79BFC3220FFF798FC2F20FFF7CF
:101A100095FC2A20FFF792FC2920FFF78FFC21205C
:101A2000FFF78CFC0B20FFF789FC1120FFF786FCE9
:101A30001E20FFF783FC3020FFF780FC3A20FFF7E1
:101A40007DFC4320FFF77AFC4E20FFF777FC562001
:101A5000FFF774FC4520FFF771FC3F20FFF76EFC99
:101A60003920FFF76BFC3220FFF768FC2F20FFF7CF
:101A700065FC2A20FFF762FC2920FFF75FFC21208C
:101A8000FFF75CFC0020FFF759FC0120FFF756FC34
:101A90003A20FFF74DFC0520FFF750FC2920FFF707
:101AA00047FC0020FFF714FA4FF6FF70FFF7BCF970
:101AB00010BD000018000020204C43442049443A47
:101AC00025780D0A0000000010B50121054800F03E
:101AD0004EF810B101200DF00BFB0121014800F080
:101AE00037F810BD000800407FB505460C460121BF
:101AF0000420FFF7AFFCADF80850ADF8044000201B
:101B0000ADF80A00ADF8060001A9104800F04AF847
:101B1000012211460D4800F03BF801210B4800F06E
:101B200017F81E208DF8000002208DF80100032018
:101B30008DF8020001208DF803006846FFF736FC9F
:101B40000121024800F007F87FBD000000080040B6
:101B5000CA430282704721B1028842F0010202802A
:101B600004E002884FF6FE731A400280704730B5D9
:101B70000246002000230024158A05EA0103958906
:101B800005EA010413B10CB1012000E0002030BDD2
:101B90001AB183890B43838102E083898B4383815C
:101BA00070470000002202881D4B98420ED01D4B4A
:101BB00098420BD0B0F1804F08D01B4B984205D013
:101BC0001A4B984202D01A4B984204D14FF68F73A9
:101BD0001A404B881A43174B984207D0164B98422D
:101BE00004D04FF6FF431A40CB881A4302808B88FB
:101BF00083850B8803850A4B98420BD0094B98428A
:101C000008D00E4B984205D00D4B984202D00D4B98
:101C1000984201D10B7A038601238382704700002A
:101C2000002C014000340140000400400008004046
:101C3000000C004000100040001400400040014033
:101C400000440140004801402DE9FC5F04460D4678
:101C500017461E46DDE90EABDDE90C894FF47840EE
:101C60005749088057A01021CDE9001056484388F5
:101C70000288A0212820FFF727FB54A01021CDE9DE
:101C80000010514843880288A0217820FFF71CFBF0
:101C90004FA01021CDE900104B4843880288B421A1
:101CA0002820FFF711FB4BA01021CDE9001046487A
:101CB00043880288B4217820FFF706FB46A0102154
:101CC000CDE90010404843880288C8212820FFF74A
:101CD000FBFA42A01021CDE900103B48438802885E
:101CE000C8217820FFF7F0FA3DA01021CDE90010BF
:101CF000354843880288DC212820FFF7E5FA39A01F
:101D00001021CDE90010304843880288DC2178207A
:101D1000FFF7DAFA34A01021CDE900102A484388F1
:101D20000288F0212820FFF7CFFA10200423224652
:101D3000A02100904020FFF77DFA102004232A46BE
:101D4000A02100909020FFF775FA102004233A4656
:101D5000B42100904020FFF76DFA10200423324692
:101D6000B42100909020FFF765FA1020042342462A
:101D7000C82100904020FFF75DFA102004234A4656
:101D8000C82100909020FFF755FA102004235246F6
:101D9000DC2100904020FFF74DFA102004235A4622
:101DA000DC2100909020FFF745FA102003230090DB
:101DB000F0216020109AFFF73DFABDE8FC9F00007B
:101DC0001400002078313A001800002079313A00E0
:101DD00078323A0079323A0078333A0079333A006F
:101DE00078343A0079343A006661632069733A00C6
:101DF00000B597B0002012900B9012901F20FE4962
:101E000008804FF6FF70FD490880FFF70DF84FF48A
:101E10007840F94908804FF6FF70FFF705F8002079
:101E2000F5490880F648006810216423A022CDE916
:101E3000001028210846FFF747FA4FF47842142192
:101E4000084600F003FC0020EE4988868863D0E352
:101E5000EC4840680A9001200A998847E94890F8C0
:101E6000340000F0C00040287AD100200B90E548F3
:101E7000808E20F04000E34988860846818913AAB5
:101E8000129822F82010DF48018C129802EB800093
:101E900041801298401CC0B212901298012806D0BE
:101EA000022815D0032829D0042810D141E04FF68C
:101EB000FF721421084600F0C9FBD348008814388B
:101EC00080B24FF4784214210A9000F0BFFB80E307
:101ED000CD480088143880B24FF6FF7214210A9062
:101EE00000F0B4FBC8484088143880B24FF4784200
:101EF00001460A90142000F0A9FB6AE3C24840881A
:101F0000143880B24FF6FF7201460A90142000F098
:101F10009DFBBD484088143880B20A90BA480088BA
:101F2000143880B24FF4784209900A9900F08EFB81
:101F30004FE3BDF84C00BDF85010401A0A9000283D
:101F400001DB0A9801E00A9840420F90BDF84E105C
:101F500013A8C088081A0A90002802DB0A9802E039
:101F600038E30A9840420E900F9840430F900E9825
:101F700040430E90DDE90E1008440590FEF772FA1A
:101F8000CDE906010DF01DFDCDE90801FEF7A4FA2B
:101F900080B21190BDF85400BDF85810401A0A9054
:101FA000002801DB0A9801E00A9840420F9013A82C
:101FB0004189C089081A0A90002801DB0A9801E0CB
:101FC0000A9840420E900F9840430F900E9840435D
:101FD0000E90DDE90E1008440590FEF743FACDE9B6
:101FE00006010DF0EEFCCDE90801FEF775FA80B2AE
:101FF00010901098FEF731FA09901198FEF72DFA1B
:1020000008900999FEF770F90A90FEF77EFACDE97B
:102010000C014FF066327D4BDDE90C01FEF788FACA
:102020000AD37B4A7B4BDDE90C01FEF799FA03D317
:10203000119808B11098E8BB0020129072484088AF
:10204000143880B20A9070480088143880B24FF675
:10205000FF7209900A9900F0F9FA4FF478421421BE
:10206000084600F0F3FA00226B4BDDE90C01FEF7A5
:1020700079F9CDE90801FEF72FFA80B213A90A9089
:10208000C989BDF8582013AB5B89CDE90132CDE990
:102090000310BDF85400009013A8C0880990BDF843
:1020A00050000890BDF84E000790BDF84C00069017
:1020B00007A900E003E00EC9FFF7C6FD99E2BDF8ED
:1020C0004C00BDF85410401A0A90002801DB0A9811
:1020D00001E00A9840420F90BDF84E1013A84089C5
:1020E000081A0A90002801DB0A9801E00A98404289
:1020F0000E900F9840430F900E9840430E90DDE9EC
:102100000E1008440590FEF7ADF9CDE906010DF07B
:1021100058FCCDE90801FEF7DFF980B21190BDF857
:102120005000BDF85810401A0A90002801DB0A98A8
:1021300001E00A9840420F9013A8C188C089081A8C
:102140000A90002801DB0A9801E00A9840420E90AC
:102150000F9840430F900E9840430E90DDE90E100B
:1021600008440590FEF77EF9CDE906010DF029FC43
:10217000CDE90801FEF7B0F980B210901098FEF793
:102180006CF909901198FEF768F908900999FEF723
:10219000ABF80A90FEF7B9F9CDE90C014FF06632C1
:1021A0001A4BDDE90C01FEF7C3F906D3184A194BA7
:1021B000DDE90C01FEF7D4F954D200201290124848
:1021C0004088143880B20A900F480088143880B2D2
:1021D0004FF6FF7209900A9900F038FA4FF47842EE
:1021E0001421084600F032FA00220B4BDDE90C0105
:1021F000FEF7B8F812E000001400002016000020DE
:10220000C845010820000020180000206666EE3F47
:10221000CDCCCCCCCCCCF03F00005940CDE908016E
:10222000FEF75AF980B213A90A90C989BDF858205F
:1022300013AB5B89CDE90132CDE90310BDF8540041
:10224000009013A8C0880990BDF850000890BDF810
:102250004E000790BDF84C00069007A90EC9FFF785
:10226000F3FCC6E1BDF85000BDF85410401A0A90C6
:10227000002801DB0A9801E00A9840420F9013A859
:10228000C1884089081A0A90002801DB0A9801E0F9
:102290000A9840420E900F9840430F900E9840438A
:1022A0000E90DDE90E1008440590FEF7DBF8CDE94D
:1022B00006010DF086FBCDE90801FEF70DF980B2AD
:1022C0001190BDF84C00BDF85810401A0A90002833
:1022D00001DB0A9801E00A9840420F90BDF84E10C9
:1022E00013A8C089081A0A90002801DB0A9801E0A7
:1022F0000A9840420E900F9840430F900E9840432A
:102300000E90DDE90E1008440590FEF7ABF8CDE91C
:1023100006010DF056FBCDE90801FEF7DDF880B2AD
:1023200010901098FEF799F809901198FEF795F81B
:1023300008900999FDF7D8FF0A90FEF7E6F8CDE975
:102340000C014FF06632AD4BDDE90C01FEF7F0F801
:1023500006D3AB4AAB4BDDE90C01FEF701F940D2E5
:1023600000201290A8484088143880B20A90A648ED
:102370000088143880B24FF6FF7209900A9900F075
:1023800065F94FF478421421084600F05FF9002205
:102390009E4BDDE90C01FDF7E5FFCDE90801FEF7F5
:1023A0009BF880B213A90A90C989BDF8582013ABD5
:1023B0005B89CDE90132CDE90310BDF854000090EE
:1023C00013A8C0880990BDF850000890BDF84E00D1
:1023D0000790BDF84C00069007A90EC9FFF734FC22
:1023E00007E1BDF85000BDF84C10401A0890FEF708
:1023F0002BF80A908448008828380890FEF724F8C3
:1024000009900A99FDF770FF81498863BDF8500073
:10241000BDF84C1008440590FEF716F806907C486D
:10242000806B014605900698FDF72CFF08907648D2
:1024300000880690FEF711F807900899FDF71CFF39
:102440004FF080410990FDF74FFF0A90FEF717F813
:1024500000B26F49A1F8400013A84089BDF84E10A2
:10246000401A0890FDF7F0FF0A9067484088283826
:102470000890FDF7E9FF09900A99FDF735FF6449D7
:10248000C86313A84089BDF84E1008440590FDF7B5
:10249000DBFF06905E48C06B014605900698FDF78D
:1024A000F1FE0890584840880690FDF7D6FF079047
:1024B0000899FDF7E1FE4FF080410990FDF714FF08
:1024C0000A90FDF7DCFF00B25149A1F8420008462E
:1024D000806B0890FDF7D3FF0990002801DB099875
:1024E00001E00998404202280DDC4948C06B089081
:1024F000FDF7C5FF0A90002801DB0A9801E00A9861
:102500004042022842DD002012903F4840881438A3
:1025100080B20A903C480088143880B24FF6FF72AF
:1025200009900A9900F092F84FF478421421084675
:1025300000F08CF837A01021CDE900103248408817
:102540000A9031480088099002461A2128200A9BE7
:10255000FEF7BAFE2E4890F8440008B9012000E0CA
:1025600000202B4981F84400084690F8440030B11F
:1025700090202D490870D0202C49087005E0D0200B
:102580002949087090202949087032E01F20284905
:1025900008804FF6FF70FEF747FC26A01021CDE91A
:1025A0000010194840880A90174800880990024690
:1025B0006E2123200A9BFEF787FE4FF47A7000F00D
:1025C00031FF00F037FA4FF6FF70FEF72DFC17B021
:1025D00000BD00BF0A2000F025FF0B98401C80B210
:1025E0000B900B98B0F57A7F02DD00F067F801E000
:1025F00000BF2DE400BF00BFE9E700006666EE3FC4
:10260000CDCCCCCCCCCCF03F180000200000594001
:10261000200000205450204E65656420726561647E
:102620006A757374210000006800002069000020B2
:1026300014000020546F7563682053637265656EE3
:102640002041646A757374204F4B210070B50446B5
:102650000D4616461848068004F10D018AB2193954
:1026600088B22B462946FEF765FC05F10D0083B2C2
:10267000193881B222462046FEF75CFC6A1C91B2F2
:10268000621C90B2FEF7AEFC6A1C91B2621E90B260
:10269000FEF7A8FC6A1E91B2621C90B2FEF7A2FC83
:1026A0006A1E91B2621E90B2FEF79CFC0622294679
:1026B0002046FEF7A7FC70BD1400002070B5D520A1
:1026C000FEF7F2F804460A2C44D10421C820FEF794
:1026D000D5F804462046FDF7B7FE05461E49FDF72E
:1026E00003FE1E4988630421CC20FEF7C7F8044688
:1026F0002046FDF7A9FE05461749FDF7F5FD1749E8
:10270000C8630221D020FEF7B9F800B21349A1F83E
:1027100040000221D220FEF7B1F800B20F49A1F823
:102720004200D420FEF7C0F80C4981F84400084666
:1027300090F8440030B1902009490870D020094930
:10274000087005E0D02006490870902005490870FF
:10275000012070BD0020FCE720BCBE4C2000002002
:10276000680000206900002008B501218820FEF7DC
:1027700081FE0220ADF8000010208DF80300032038
:102780008DF8020069462848FEF787F9022126489D
:10279000FEF70EFA0420ADF8000048208DF8030083
:1027A00069462148FEF779F904211F48FEF700FA2F
:1027B0004FF42060ADF8000010208DF803000320D6
:1027C0008DF8020069461948FEF767F94FF4206159
:1027D0001648FEF7EDF94FF48060ADF80000482090
:1027E0008DF8030069461148FEF757F94FF48061F0
:1027F0000E48FEF7DDF90E49A1F1140000F0A2F831
:10280000FEF738F8FFF75AFF08B1002008BD4FF671
:10281000FF70FEF709FBFFF7EBFA00F00BF9FFF78B
:102820004DFF0120F2E70000000C0140001C0140B8
:102830004000002070B506460025002400201E49F7
:1028400008601E49C1F8A4011D490860304600F027
:10285000B1F9062000F00CFE00201A49C1F88401ED
:10286000012000F005FE01201349086000F000FE81
:1028700000201449C1F8840100BF15E04FF6FF7035
:1028800000EA440400200C490860012000F0F0FD3B
:1028900001200C49C1F8840107487C38006808B160
:1028A000601C84B2681CC5B2102DE7DB2411012026
:1028B00003490860204670BD848121420080234284
:1028C000AC812342008021422DE9F04194B0804642
:1028D0000027002406E04046FFF7ACFF2DF8140067
:1028E000601C84B2282CF6DB002416E0601C85B244
:1028F0000FE03DF814003DF81510884207DD3DF863
:1029000014603DF815002DF814002DF81560681CB2
:1029100085B2282DEDDB601C84B2272CE6DB002776
:10292000012404E03DF814000744601C84B2272C05
:10293000F8DB2620B7FBF0F086B2304614B0BDE8D5
:10294000F08100002DE9F04104460D46074800786B
:10295000FFF7BAFF064606480078FFF7B5FF0746BF
:1029600026802F800120BDE8F08100006800002053
:10297000690000207FB504460D4602A903A8FFF7B1
:10298000E1FF064616B9002004B070BD694601A8F3
:10299000FFF7D8FF06460EB90020F5E7BDF80400A2
:1029A000BDF80C10884206DCBDF80C10BDF8040020
:1029B000323081420CDBBDF80C00BDF804108842B7
:1029C00036DCBDF80410BDF80C00323081422FDA3D
:1029D000BDF80000BDF80810884206DCBDF80810FC
:1029E000BDF80000323081420CDBBDF80800BDF8B4
:1029F000001088421CDCBDF80010BDF80800323021
:102A0000814215DABDF80C10BDF80420881800EBDF
:102A1000D071C1F34F012180BDF80810BDF800202E
:102A2000881800EBD071C1F34F0129800120ABE77A
:102A30000020A9E770B51B49886B1B49FDF722FCF4
:102A40000546FDF71CFD044604222146C820FDF77B
:102A500057FF1449C86B1449FDF714FC0546FDF7F0
:102A60000EFD044604222146CC20FDF749FF0D4807
:102A7000B0F940100222D020FDF742FF0948B0F91A
:102A800042100222D220FDF73BFF064890F8441086
:102A9000D420FDF74AFF0A242146D520FDF745FF43
:102AA00070BD00002000002020BCBE4C2DE9F0418C
:102AB00004463E480068002855D12CB13C49A1F19C
:102AC0001400FFF757FF3DE03949A1F11400FFF76B
:102AD00051FFB8B336492039B1F94000FDF7B4FCD5
:102AE0000746334920398889FDF7B7FC80463048CE
:102AF0002038816B4046FDF7C5FB06463946FDF799
:102B000069FB0546FDF7D4FC294920398881B1F9D4
:102B10004200FDF799FC074625492039088CFDF74E
:102B20009CFC804622482038C16B4046FDF7AAFB3A
:102B300006463946FDF74EFB0546FDF7B9FC1C4934
:102B4000203908841A48203890F8340000F08000BA
:102B500020BBC02016492039888608468189818299
:102B6000018C01851AE01248203890F8340000F0FA
:102B7000800040B10E482038808E20F080000C4943
:102B8000203988860AE000210948203881820185A1
:102B90004FF6FF70064920398881088404482038A0
:102BA00090F8340000F08000BDE8F08128812342D5
:102BB0004000002070B50446002500BF17E004F077
:102BC000800018B101200B49086002E0002009498B
:102BD00008606006040E002007490860012000F02C
:102BE00047FC01200549C1F88401681CC5B2082DC5
:102BF000E5DB70BDA4812342848121420080214213
:102C000010B540F225511D4800F0B8F810B31B482C
:102C100000F070F9C4B21A48008800F40040C8B946
:102C20001748008800F4804060B10A2C03D00020CF
:102C30001349088020E01248008840F40040104901
:102C4000088019E00D2C06D10D48008840F4804022
:102C50000B49088010E00A480088C0F30D000949BC
:102C60000C5407480088401C054908800846008825
:102C7000C72801DD0020088010BD00000038014099
:102C80006E0000206C01002010B586B004460121C2
:102C90000420FEF7EFFB01218803FEF7EBFB4FF466
:102CA0000070ADF8140003208DF8160018208DF880
:102CB000170005A91E48FDF7F0FE4FF48060ADF83F
:102CC000140004208DF8170005A91948FDF7E5FE4A
:102CD00001940020ADF80800ADF80A00ADF80C0032
:102CE000ADF810000C20ADF80E0001A9114800F05D
:102CF00095F801210F4800F028F840210D4800F018
:102D00001BF8012240F225510A4800F061F8252005
:102D10008DF8000003208DF801008DF802000120DD
:102D20008DF803006846FEF741FB06B010BD0000B9
:102D3000000801400038014001F40072B2F5007F44
:102D400000D100BFCA430280704721B1828942F49A
:102D50000052828104E082894DF6FF731A4082811D
:102D6000704702460020B1F5007F00D100BF1388F4
:102D70000B400BB1012000E00020704770B5024607
:102D8000002400230025002040F66A16B14200D13D
:102D900000BFC1F3421501F01F03012606FA03F339
:102DA000012D02D19689334006E0022D02D1168A08
:102DB000334001E0968A33400C12012606FA04F4EF
:102DC0001688344013B10CB1012000E0002070BD22
:102DD000F0B50346002400260025002040F66A17BF
:102DE000B94200D100BF1846C1F3421401F01F06DA
:102DF000012707FA06F5012C01D10C3004E0022C62
:102E000001D1103000E014301AB107682F43076079
:102E100002E00768AF430760F0BD00002DE9F0470E
:102E200086B005460E460024A24600BFA1460027F4
:102E3000B08900B100BF2F462C8A4CF6FF700440C9
:102E4000F08804432C82AC894EF6F3100440B0881D
:102E500031890843718908430443AC81AC8A4FF639
:102E6000FF400440B0890443AC8201A8FEF712FB86
:102E70001F48874202D1DDF810A001E0DDF80CA068
:102E8000A88900F4004040B10AEBCA0000EB0A1028
:102E900031684900B0FBF1F807E00AEBCA0000EB2B
:102EA0000A1031688900B0FBF1F86420B8FBF0F03B
:102EB00004012009642101FB1089A88900F4004065
:102EC00040B1322000EBC900B0FBF1F000F0070088
:102ED000044308E0322000EB09106421B0FBF1F05C
:102EE00000F00F0004432C8106B0BDE8F08700001D
:102EF0000038014001468888C0F308007047C1F3DC
:102F000008028280704700BFFEE700000FB4054B47
:102F100010B503A9044A029800F032F810BC5DF81D
:102F200014FB000089360008640100200FB4084B30
:102F300010B504A902AA039800F022F8044602A9D9
:102F4000002000F07DF9204610BC5DF814FB000065
:102F50004132000802E008C8121F08C1002AFAD155
:102F600070477047002001E001C1121F002AFBD109
:102F700070470000014908607047000068010020A8
:102F80002DE9FF4F8DB09B460F460446002606E014
:102F900025280BD05A460F999047641C761C207840
:102FA0000028F5D111B03046BDE8F08F0025A846C5
:102FB0000122984900E0054314F8013F203B02FA42
:102FC00003F00842F7D120782E2817D114F8010F0A
:102FD00045F004052A280ED06FF02F022078A0F1CA
:102FE000300109290AD808EB880102EB410100EB06
:102FF0000108641CF2E757F8048B641C20786C28E5
:103000000DD004DC4C2812D06A2811D104E07428B9
:103010000DD07A280CD10AE045F4001507E061785C
:1030200045F48015814202D1641C05F58015641CAD
:103030002078692844D008DC0028B3D0582867D00D
:1030400063280FD0642808D13AE0702865D073282F
:1030500012D075285AD078285AD05A460F999047DE
:10306000761CD5E017F8040B8DF8000000208DF8D1
:103070000100E946012003E057F8049B4FF0FF30C0
:1030800069074FF0000501D40AE06D1C45450DDAD3
:103090008542FADB19F805100029F6D106E06D1C0F
:1030A0008542FCDB19F805100029F8D12E4404E014
:1030B00019F8010B5A460F9990476D1EF8D2A7E0F8
:1030C0000A200021CDE90801C5F3025002280CD0E6
:1030D00001CFC117021E71F100020CDA0023D0EB00
:1030E000030063EB01012D2208E0FF1D27F0070715
:1030F000F7E80201EEE72A0504D52B228DF82820F7
:1031000001223CE0EA073AD02022F7E70A2000E05B
:1031100010200021CDE9080107E01020002145F032
:103120000405CDE908014FF00808C5F30250022854
:1031300010D001CF00214FF0000A2A0720D52278B5
:10314000702A0DD0DDE908C38CF0100C5CEA030C8A
:103150000CD015E0FF1D27F00707F7E80201EAE7AA
:1031600040228DF828204FF0010A0CE050EA0103BC
:1031700006D030238DF828308DF82920022292467F
:103180002278582A04D024A20DF120090B9209E0DC
:1031900026A2F9E7DDE90823FDF7FAF90B9B9B5C12
:1031A00009F8013D50EA0102F4D1ADEB09002030ED
:1031B0000890680701D44FF001080899884503DD9D
:1031C0000898A8EB000000E000208046002506E0FB
:1031D0000AA85A46405D0F9990476D1C761C5545CC
:1031E000F6DB04E030205A460F999047761CB8F180
:1031F0000001A8F10108F5DC05E019F8010B5A46B9
:103200000F999047761C0899481E08900029F4DC15
:10321000641CC4E6092801003031323334353637B6
:103220003839616263646566000000003031323312
:1032300034353637383941424344454600000000B2
:103240000A68531C0B6010707047000010B58AB0FC
:10325000044694F82000C0F3400020B994F8200000
:1032600000F0010070B194F82000C0F34000F0B904
:1032700094F8200000F00100C8B194F82000C0F3D9
:103280008000A0B12422214601A8FCF76FFF21464F
:10329000194809F0EAFB204609F0D0FE0120174941
:1032A0000870049810B101A8049988471FE0E08BCA
:1032B000404200B2608394F8200000F00100B0B1F9
:1032C00094F82010C1F3800119B9A18B494209B2C9
:1032D00061831034217C8908C943227C61F3820216
:1032E00022742068616821606060103C00BF034860
:1032F00000780AB010BD00007C050020F00000201E
:103300002DE9F04107462F4809F0C8FA044608E0C5
:10331000206A20F00800206221462A4809F0C3FAFA
:103320000446002CF4D1284800680BF0C3FE064682
:10333000244809F0B3FA04463CE000202349087011
:1033400094F82000C0F3C00038BB206A20F00800C9
:1033500008302062608B304400B26083B4F91A00F8
:1033600000281ADBB4F91A00218B884202DD208B79
:1033700000B260832046A16888470546606818B19E
:1033800029B2D4E900029047B4F91A00218B88428F
:1033900002DB2046FFF75AFF00BF0C48007820B13F
:1033A000084809F07BFA044604E02146054809F084
:1033B0007AFA0446002CC0D10BF08AFE024908605C
:1033C000BDE8F0817C050020EC000020F00000202A
:1033D00030B50346022B04D10E48405C5043001226
:1033E00030BD032B04D10C48405C50430012F7E77A
:1033F000042B04D10948405C50430012F0E7C1EBB4
:10340000C105581EB5FBF0F0C4B20548005D50433D
:10341000000AE5E706460108084601080B460108D0
:103420000F4601080146114A12884A434FF0E02333
:103430005A6100229A611A46126942F001021A6129
:1034400000BF4FF0E022106900F001021AB100F451
:103450008032002AF5D04FF0E022126922F00102FA
:103460004FF0E0231A6100229A6170476C0000203F
:103470000146114A12784A434FF0E0235A61002274
:103480009A611A46126942F001021A6100BF4FF0B8
:10349000E022106900F001021AB100F48032002A23
:1034A000F5D04FF0E022126922F001024FF0E02344
:1034B0001A6100229A6170476A000020F8B506463A
:1034C0000C4615460095E788BBB2A788BAB2678854
:1034D000B9B22788B8B2FDF7CBFC304602F018FF2E
:1034E000F8BD704770B504460D460026207800F000
:1034F000010068B92068B5EB500F09D8294620466D
:1035000000F020F8206820F00100401C2060261DFB
:10351000304670BD10B50146002011B9084A106848
:103520000CE00A1D0B6802EB5300031D044C2468D9
:1035300004F58044A34200D3002000BF10BD00006A
:103540000001002030B501F0030212B121F00301A7
:10355000091D0A1D0368B2EB530F01D1026851081F
:103560000268B1EB520F0ED0031D5A18146824F0F4
:10357000010414600468C1EB5404241F156864F34B
:103580005F05156000BF026861F35F02026030BD35
:103590002DE9F84F04468846914694F8580000F00B
:1035A000010008B1BDE8F88FE56800264FF0010A78
:1035B0004FF0010B00BF8DB994F85800C0F3001014
:1035C00000B956B9BBF1000F00D1EBE72046C04768
:1035D00005464FF0000AD34600E0E3E716B92E4651
:1035E00006B9DFE7BAF1000F06D029462046C847E2
:1035F0000546B54200D1D5E74FF0010A05B9DAE733
:1036000028680AF063FB00B900E0D4E700BFE06877
:10361000A84200D1C6E7E068A8B1E16808680022C6
:103620001021C3699847E168002208680D2106F05F
:103630000EFD00900098012800D0B3E7E16808680B
:103640000AF0CAFB00BFE560E168086800220F21AC
:10365000C3699847E168002208680C2106F0F7FC6E
:103660000746012F00D09DE7E16808680CF04AF991
:10367000E16808680AF0B0FBA06910B12046A169B2
:10368000884700BF8EE7000070B504460D46E1B2E2
:103690000548FFF734FC00BF80210348FFF761FBBA
:1036A0000028F9D0204670BD003801402DE9FC47C4
:1036B00080460E4616B90020BDE8FC87D8F80C40BD
:1036C0006069B04201D1A069F6E70025AEE005EBE4
:1036D0008501A06850F82100301A019005EB8501A2
:1036E000A06800EB810080880199884200D29BE0AD
:1036F000002705EB8501A06800EB8100807C00F0CD
:10370000030040B905EB8501A06800EB8100C0888B
:103710000199471884E005EB8501A06800EB810062
:10372000807C00F0030001280FD105EB8502A16821
:1037300001EB8201C86805EB8502A16801EB8201FB
:10374000C988019A825C8F186AE005EB8501A06840
:1037500000EB8100807C00F00300022827D139486B
:10376000009005EB8503A06800EB8300028A05EB5F
:103770008503A06800EB83000223816801A80BF099
:10378000FFFF8146B9F1000F10D005EB8502A1685B
:1037900001EB82018968A9EB0100400805EB850275
:1037A000A16801EB8201C9880F1800BF38E005EB62
:1037B0008501A06800EB8100807C00F003000328F5
:1037C0002ED12048009005EB8503A06800EB830014
:1037D000028A05EB8503A06800EB83000223816861
:1037E00001A80BF0CDFF8146B9F1000F17D005EB12
:1037F0008503A26802EB83029268A9EB02004008ED
:1038000005EB8503A26802EB8302D16805EB850313
:10381000A26802EB8302D2880B5CD71800BF00BFFE
:103820006661A761384647E7681C85B2608AC0F3C5
:103830000900A8423FF74BAF66610020A06100BFBE
:103840003AE70000A5FC00082DE9FC5F80460D4624
:103850001646D8F80C704FF0000A788AC0F3403052
:10386000002841D1FC68A068C0F30160D8B9D4F841
:10387000009005EB062080B2019027480090A068D8
:1038800020F07F420223494601A80BF079FF8346CE
:10389000BBF1000F06D0ABEB09004008616811F9DD
:1038A00000A000BF1FE0A068C0F3016001281AD18A
:1038B000D4F8009005EB0620019018480090A0680D
:1038C00020F07F420423494601A80BF059FF8346AC
:1038D000BBF1000F06D0ABEB09000009616811F9DC
:1038E00000A000BF00BF13E0F8684368595D43685B
:1038F0009A5D00290BDD002A09DD531E4C1E90F84D
:103900000DC004FB0C330468E35C4FFA83FA00BF7C
:103910005046BDE8FC9F0000574B0008374B00089D
:1039200001460020302905DB392903DCA1F13002F2
:10393000D0B21CE0612902DBA1F12002D1B2A1F1D9
:103940004102062A10D2DFE802F0030507090B0D39
:103950000A200BE00B2009E00C2007E00D2005E019
:103960000E2003E00F2001E0002000BF00BF7047E1
:1039700070B504460D46A06DA96830F82110218469
:10398000A06DA96800EB810041886184B4F924101E
:10399000B4F9200081420DD1B4F92610B4F9220007
:1039A000814207D1A87B012804D104F11C0000F05A
:1039B00059FD03E004F11C0000F012FF218CA184EA
:1039C000618CE18470BD00002DE9F04F87B00446A2
:1039D000A569002703E028460AF092F90546284623
:1039E0000AF05AF908B1002DF5D115B907B0BDE8B4
:1039F000F08F28460AF044F900B9F7E728460AF0A4
:103A000045F90646218AA089084401B22182618ACB
:103A1000E089084401B2618294F8240000F00100BA
:103A200058BB06F0010070B1B4F91000002802DDA7
:103A3000B4F9100002E0B4F9100040426749096887
:103A4000097D884211DA06F00200B0B1B4F9120023
:103A5000002802DDB4F9120002E0B4F9120040427D
:103A60005E490968097D884207DB94F8240020F04C
:103A70000100401C84F82400012794F8240000F081
:103A8000010000287ED0A08910B9E0890028F9D073
:103A900052490968C86802F06DFC8246B5F910B059
:103AA000B5F91200069028460AF02AF903900AF0A8
:103AB00073F9059028460AF023F903900AF0FEF8FE
:103AC000049028460AF070F9804628460AF078F9F2
:103AD0008146032E12D13FB1208A40440FFA80F86C
:103AE000608A48440FFA80F9E089484402B2A0890C
:103AF000404401B228460AF05DFA1CE006F00100DD
:103B000058B11FB1208A40440FFA80F8A089404480
:103B100001B228460AF008FB0DE006F0020050B1A1
:103B20001FB1608A48440FFA80F9E089484401B225
:103B300028460AF006FBB5F9100058452DD1B5F915
:103B400012100698814228D128460AF0D9F801902F
:103B50000AF022F9039028460AF0D2F801900AF000
:103B6000ADF8029005990398884215D104990298FE
:103B7000884211D119490968C86802F0FBFB01901D
:103B8000019A00E027E0A2EB0A0291B2134A126800
:103B9000D06802F049FC00BF1CE094F8240020F03B
:103BA0000200801C84F82400A7B10C48EB690D21A9
:103BB000026828469847204600F072FF00B115E7DA
:103BC00000220821284606F042FA204600F068FF4D
:103BD00000B10BE700BF00BF08E700007000002045
:103BE0002DE9FF41044694F82400C0F3400008B9D1
:103BF000BDE8FF81E56903E028460AF081F8054643
:103C000028460AF049F808B1002DF5D105B9EFE7CB
:103C100028460AF047F8D8B994F8240020F00201A9
:103C200084F824105948EB690E2102682846984709
:103C300000220921284606F00AFA204600F030FF4B
:103C400000B1D5E700220921284606F000FACFE7A7
:103C500028460AF01BF80646B4F914004B490968D7
:103C6000497DC1F164014843642190FBF1F001B248
:103C7000A182B4F9160045490968497DC1F1640182
:103C80004843642190FBF1F001B2E182A08A10B9AF
:103C9000E08A00285DD002A9284609F0B7FF28462F
:103CA0000AF082F8A18A08440FFA80F828460AF040
:103CB00087F80146E08A084407B2032E05D13A4648
:103CC000414628460AF076F90EE006F0010020B1E0
:103CD000414628460AF028FA06E006F0020018B12C
:103CE000394628460AF02DFA6946284609F08EFF23
:103CF000BDF90800BDF90010884201D0A08A38BB88
:103D0000BDF90A00BDF90210884201D0E08AF8B975
:103D100094F8240020F0020184F824100021A181ED
:103D2000E181A182E1821948EB690E2102682846EF
:103D30009847204600F0B4FE00B159E7002209215F
:103D4000284606F084F9204600F0AAFE00B14FE7AD
:103D50001AE094F8240020F0020184F824100B48A3
:103D6000EB690E21026828469847204600F098FE2D
:103D700000B13DE700220921284606F068F92046F7
:103D800000F08EFE00B133E700BF31E77000002085
:103D90002DE9F84304460D46A87B012806D194F886
:103DA0004C00C0F3C00008B1BDE8F88394F84C00A3
:103DB000C0F3C00080B194F84C0020F0080184F8F2
:103DC0004C100021616494F84C0020F0010184F84B
:103DD0004C1000212020015594F82080A97B202040
:103DE000015569686162676D07B9DDE7384606F01D
:103DF00083FFC54908600846006800B9D4E7A87B7E
:103E0000002843D1384606F06EFF00B3B5F90C0028
:103E100000280CDA002604E01421384606F0C2FF20
:103E2000761CB5F90C004042B042F5DC0EE0B5F965
:103E30000C0000280ADD002604E01321384606F0B5
:103E4000B1FF761CB5F90C00B042F6DC1EE0B5F906
:103E50000C0000280BDA002603E0384606F02EFF9F
:103E6000761CB5F90C004042B042F6DC0DE0B5F925
:103E70000C00002809DD002603E0384606F0B4FEF9
:103E8000761CB5F90C00B042F7DC00BF384606F0EE
:103E900033FF9D4908600846006800B984E7A87BA5
:103EA000012831D1B8F1000F2ED1002000909648A2
:103EB00000686A461221C3699348006898470BF06E
:103EC00007F96064384606F00EFF10B99DF800004F
:103ED000C8B98D48006800220721C3698A48006874
:103EE000984704F11C0000F0DBFD00B15CE7002204
:103EF00011468548006806F0AAF804F11C0000F09D
:103F0000CFFD00B150E7F9E0A87B01284BD1B8F113
:103F1000010F48D194F84C0000F001000028F2D1C4
:103F2000606C0BF0C7F8E18A8842ECD90020009061
:103F3000754800686A461221C3697348006898474B
:103F40009DF8000068B1384608F04EFD18BB3846B1
:103F500006F0C9FE80F001063146384606F041FF02
:103F600019E06948006800220B21C36966480068AF
:103F7000984704F11C0000F093FD00B114E7002203
:103F800004216148006806F062F804F11C0000F0AA
:103F900087FD00B108E794F84C0020F00100401CB8
:103FA00084F84C00AAE0A87B0028ACD1B8F1010F3E
:103FB000A9D10090544800686A461221C36952484A
:103FC000006898479DF80000B0BB4F480068002289
:103FD0000A21C3694C480068984704F11C0000F0AE
:103FE0005FFD00B1E0E694F84C0000F0010028B954
:103FF000002203214448006806F029F804F11C005F
:1040000000F04EFD00B1CFE6002206213E480068D8
:1040100006F01DF804F11C0000F042FD00B1C3E6FB
:10402000002207213848006806F011F804F11C004E
:1040300000F036FDA8B3B7E6FFE797F85800C0F3E5
:10404000400078B394F84C0000F0010018B13846F5
:1040500008F0CAFC28B32C48006800220A21C36972
:1040600029480068984704F11C0000F019FD00B1D0
:104070009AE6002203212448006805F0E8FF04F1D5
:104080001C0000F00DFD00B18EE6002206211E4846
:10409000006805F0DCFF04F11C0000F001FD10B128
:1040A00082E622E010E0002207211748006805F0B0
:1040B000CEFF04F11C0000F0F3FC00B174E60A210D
:1040C000384606F06FFE10E09DF8000068B197F8E2
:1040D0005800C0F3400040B994F84C0000F00100D3
:1040E00018B90121384606F07CFE0021616494F87D
:1040F0004C0020F0010184F84C1000BF0020024960
:10410000086000BF50E60000740000202DE9F04177
:1041100004460D46A87B012806D194F84C00C0F354
:10412000C00008B1BDE8F08194F84C00C0F3C000B5
:1041300080B194F84C0020F0080184F84C10002164
:10414000616494F84C0020F0010184F84C100021C7
:1041500020200155676D07B9E4E7384606F0CCFD2D
:10416000A84908600846006800B9DBE7D4F8248055
:10417000696861622020065DA97B0155A87B012842
:1041800061D1002E5FD10AF0A3FF606468680A283D
:104190001ED10A21384606F005FE9A480068002222
:1041A0000721C36997480068984704F11C0000F094
:1041B00077FC00B1B6E7002211469248006805F08E
:1041C00046FF04F11C0000F06BFC00283AD0A9E780
:1041D00068681B2810D11B21384606F0E3FD002239
:1041E00012218848006805F032FF04F11C0000F03D
:1041F00057FC0028EAD095E7686809280DD100210E
:10420000384606F0EEFD384606F0EEFC04F11C00E0
:1042100000F046FC0028D9D084E768680B280DD14F
:104220000021384606F0DDFD384606F047FD04F172
:104230001C0000F035FC0028C8D073E738466968D8
:1042400006F0B0FDD9E0A87B012872D1012EFCD187
:1042500094F84C0000F0010068BB606C0AF02AFF83
:10426000E18A884227D994F84C0020F00100401CD4
:1042700084F84C0068680A28E4D10AF029FFA06499
:104280006048006800220B21C3695E4800689847B7
:1042900004F11C0000F004FC00B143E700220421FB
:1042A0005848006805F0D3FE04F11C0000F0F8FB4C
:1042B0000028C7D036E794F84C0000F00100002831
:1042C000C0D0A06C0AF0F6FE218B8842BAD90AF061
:1042D000FFFEA06468680A281AD14A4800680022D4
:1042E0000C21C36947480068984704F11C0000F09E
:1042F000D7FB00B116E7002205214248006805F00F
:10430000A6FE04F11C0000F0CBFB002875D009E7E5
:10431000686809280ED10021384606F062FD38464B
:1043200006F062FC04F11C0000F0BAFB002864D027
:10433000F8E619E068680B280CD10021384606F031
:1043400050FD384606F0BAFC04F11C0000F0A8FB52
:1043500090B3E7E63846696806F024FD04F11C00D6
:1043600000F09EFB40B3DDE6A87B28BB012E44D1C4
:10437000C5F8048068680A2837D1224800680022FE
:104380000A21C3691F480068984704F11C0000F027
:1043900087FB00B1C6E694F84C0000F0010060B95C
:1043A000002203211748006805F051FE04F11C00AB
:1043B00000F076FB08B1B5E61FE0002206211148A7
:1043C000006805F044FE04F11C0000F069FB00B138
:1043D000A8E6002207210B48006805F038FE04F12A
:1043E0001C0000F05DFB00B19CE60021616494F8C4
:1043F0004C0020F0010184F84C10002001490860B5
:1044000000BF8FE67400002070B504460D46206D95
:1044100090B1B4F92400B5F90010884205D1B4F97F
:104420002600B5F90210884206D0B5F90220B5F988
:104430000010206D09F0BEFD2988218469886184FF
:10444000207F012804D104F11C0000F00BF803E0E8
:1044500004F11C0000F0C4F9218CA184618CE1847A
:1044600070BD00002DE9F0410446DB49A0690860F9
:1044700094F83000C0F3C00008B1BDE8F081D7481F
:104480000068C6680027D448006828BB304601F0A1
:1044900077FF05462946204600F012FBCE4908600A
:1044A0000846006848B9304601F075FF05462946C0
:1044B000204600F005FBC8490860C748006848B9B5
:1044C000304601F073FF05462946204600F0F8FA11
:1044D000C149086001272FE094F82400C0F3400090
:1044E00050BB1021BC48006809F0EAFC20BB3046F4
:1044F00001F046FF05462946204600F0E1FAB6499C
:1045000008600846006848B9304601F044FF054697
:104510002946204600F0D4FAAF490860AE4800684A
:1045200048B9304601F042FF05462946204600F0D2
:10453000C7FAA949086001273FB1E06928B1002105
:10454000A182E1822046FFF74BFBA349A0690968DD
:1045500088426ED0A1882181E1886181A069B0B1D3
:10456000A5699E48EB6909210268284698472046BC
:1045700000F096FA00B180E700220221284605F0FB
:1045800066FD204600F08CFA00B176E700BF924845
:104590000168A1610168E1610068002849D00AF062
:1045A00097FDA06294F8300020F0010084F83000FC
:1045B00094F8240020F0010184F8241094F82400D9
:1045C00020F0020184F82410002121826182A1815F
:1045D000E18181480568884609E095F83000C0F31C
:1045E000401000B1A846284609F08AFB0546002D78
:1045F000F3D1B8F1000F02D0404609F06AFC7648CA
:104600000068C369754807210268734800689847C5
:10461000204600F045FA00B12FE7002211466E480F
:10462000006805F014FD204600F03AFA00B124E7D6
:1046300000BFA1882089081A01B2A181E1886089A0
:10464000081A01B2E181B4F9140000EB8000C01037
:10465000A082B4F9160000EB8000C110E182B4F929
:104660001400002804DAA08A401C01B2A18207E0ED
:10467000B4F91400002803DDA08A401E01B2A18213
:10468000B4F91600002804DAE08A401C01B2E18285
:1046900007E0B4F91600002803DDE08A401E01B2ED
:1046A000E182A18AB4F90C00800001EBE00001B2C4
:1046B000A182E18AB4F90E00800001EBE00001B2B2
:1046C000E18245480068002875D043480068C36906
:1046D000424808210268404800689847204600F098
:1046E000DFF900B1C9E6002201213B48006805F06E
:1046F000AEFC204600F0D4F900B1BEE62046FFF73C
:1047000063F9204600F0CCF900B1B6E694F8240035
:10471000C0F3400078BB94F8300000F0010050BBBB
:10472000A06A0AF0C7FC2D490968C98A884222D9C3
:1047300029480068C36929480B2102682648006897
:104740009847204600F0ACF900B196E6002204211B
:104750002148006805F07BFC204600F0A1F900B17B
:104760008BE694F8300020F00100401C84F8300003
:104770000AF0AEFCE06294F82400C0F34000D0B927
:1047800094F8300000F00100A8B1E06A0AF092FC51
:1047900012490968098B88421CD90F480068C3690F
:1047A0000E480C2102680C4800689847204600F02B
:1047B00077F908B161E60DE000220521064800689E
:1047C00005F045FC204600F06BF900B155E60AF013
:1047D0007FFCE06200BF50E6740000207000002003
:1047E0002DE9F041044694F83000C0F3C00058B100
:1047F0000021A161E1610020A062E06294F8300034
:1048000020F0080084F830008C49A0690860084650
:104810000068002874D010218848006809F050FB17
:1048200000283AD085480068C36985480A21026893
:10483000824800689847204600F032F908B1BDE888
:10484000F08194F82400C0F34000D0B994F830000F
:1048500000F0010050B9002203217848006805F0FB
:10486000F6FB204600F01CF900B1E8E70022062123
:104870007248006805F0EBFB204600F011F900B12A
:10488000DDE7002207216D48006805F0E0FB2046C7
:1048900000F006F900283FD0D1E768480068C369F6
:1048A00067480A210268654800689847204600F07A
:1048B000F7F800B1C3E794F8300000F0010078B9D0
:1048C00094F82400C0F3400050B9002203215B4853
:1048D000006805F0BCFB204600F0E2F800B1AEE74E
:1048E00094F82400C0F3400058B900220621534830
:1048F000006805F0ACFB204600F0D2F808B19EE756
:104900008AE0002207214D48006805F0A0FB204600
:1049100000F0C6F800B192E7204600F0C1F800B1FF
:104920008DE74FF000084548006809F0C4F90546D6
:1049300020214248006809F0C3FA10BB3F480768CD
:1049400010E0384609F0DCF9074607B90CE02021F1
:10495000384609F0B5FA08B1002705E0384609F0F5
:10496000AAF90546002DECD000BF4DB147B128464D
:1049700006F0B0F920B14FF00108384606F040F9D2
:1049800000BF2E49206A0968884219D0B8F1000F8B
:1049900016D100220D21206A05F059FB204600F0B7
:1049A0007FF800B14BE700220C21A06905F04FFB16
:1049B000204600F075F800B141E720480168216207
:1049C000204600F06DF800B139E71C48066803E0A6
:1049D000304609F095F90646304609F05DF908B110
:1049E000002EF5D196B1304609F05CF970B194F81B
:1049F0002400C0F3400048B100220A21304605F0EF
:104A000026FB204600F04CF800B118E70021A16118
:104A10000020A062E06200BFE06960B194F830005D
:104A2000C0F3400038B92046FFF7DAF8204600F01E
:104A300037F800B103E700BF01E700007400002071
:104A40007000002090F84C10C1F3400129B30022FF
:104A500042638263C26390F8401021F0010280F843
:104A6000402090F8401021F0020280F8402090F899
:104A70004C1021F0010280F84C2000224264826434
:104A80008285C2850286428690F84C1021F002028F
:104A900080F84C200021014A11607047740000200A
:104AA000014691F83000C0F3400010B10020034AE5
:104AB000106091F83000C0F340007047740000208F
:104AC0002DE9F04107460C460025391D04F1100080
:104AD00001F069FA00282BD0201D07F0DFFE804688
:104AE0000BE041463846FFF7EBFF054605B107E00E
:104AF0004146201D07F0D7FE8046B8F1000FF0D1E7
:104B000000BFA5B9204609F07BF880B1264608E031
:104B1000304609F0DBF800B105E0304609F0F0F866
:104B20000646002EF4D100BF06B9254600BF00BFDF
:104B30002846BDE8F08130B5024614460B46208871
:104B40001D88A84203D020881D88401B30BD608886
:104B50005D88401BFAE730B5024614460B462078C4
:104B60001D78A84203D020781D78401B30BD6078A6
:104B70005D78401BFAE72DE9F04F85B00446894681
:104B800015461E46E88E401E07B24FEA670807F03A
:104B9000010AFF2E02D13820405D03E03820405D3D
:104BA0007043001283462088ADF80C00A088ADF851
:104BB00010006088A0EB0800A0EB0A0000B2ADF87E
:104BC0000E00E088404400B2ADF81200BDF90C00C0
:104BD000BDF91010884202DABDF90C0001E0BDF900
:104BE0001000ADF80400BDF90C00BDF910108842AA
:104BF00002DDBDF90C0001E0BDF91000ADF80800C0
:104C0000BDF90E00BDF91210884202DABDF90E009E
:104C100001E0BDF91200ADF80600BDF90E00BDF9C6
:104C20001210884202DDBDF90E0001E0BDF912004C
:104C3000ADF80A00A88E5B4602464946009001A8DE
:104C400001F04CFD05B0BDE8F08F0FB59DB0229886
:104C5000FF2803D1209890F8380005E0209890F8BC
:104C600038002299484300121C9009F007FC0A9072
:104C700001F055FB1B901D9881880088081A00B22E
:104C8000ADF868001D98C1884088081A00B2ADF8D8
:104C90006A001D98007EF0B11D98B0F90210B0F9BD
:104CA00006201E98104481420ADABDF86A0040428C
:104CB00000B2ADF86400BDF86800ADF8660028E009
:104CC000BDF86A00ADF86400BDF86800404200B26B
:104CD000ADF866001DE01D98B0F90010B0F9042091
:104CE0001E98104481420ADABDF86A00ADF86400EB
:104CF000BDF86800404200B2ADF8660009E0BDF8BA
:104D00006A00404200B2ADF86400BDF86800ADF83A
:104D10006600BDF86400000100B2ADF86400BDF8A3
:104D20006600000100B2ADF866002098B0F93600C8
:104D300018901898400000B21790179880000A90B9
:104D400001F02CFD169000201590189800283CD0FA
:104D50000020039019AA03A904A800F0F1FE1898F6
:104D6000404302900020159028E0BDF81820DDE9AE
:104D7000151020F82120BDF81A20DDE9151000EBF0
:104D800081004280BDF918004043BDF91A2002FBA2
:104D900002000190DDE90101884208D315981890BE
:104DA0001B9818B11898401E00B218900BE004A888
:104DB00000F030FF1598401C00B215901798401E67
:104DC00015998842D1DC00BF00BF189813901B983A
:104DD00028B1189808B901201390002014900020E1
:104DE000129011901898B0B11898401E169931F988
:104DF00020000A9000EBD070401012901898401ECE
:104E0000169901EB8000B0F902000A9000EBD07017
:104E10004010119023E01D98007E70B11D98B0F9EC
:104E20000210B0F906201E981044814205DB169846
:104E30004088401E01B2169841801D98007E70B9CE
:104E40001D98B0F90010B0F904201E98104481425A
:104E500005DB16980088401E01B2169801800020DC
:104E6000159077E1DDE9151030F821101298081A35
:104E700002B2DDE9151020F82120DDE9151000EB64
:104E8000810041881198081A02B2DDE9151000EB83
:104E9000810042801B9800287DD015980028FBD007
:104EA0001D98007E002877D01598401E169931F97C
:104EB00020200846159930F921008242ECD0DDE926
:104EC000151000EB810042881499169800EB8100C0
:104ED0004088101A00B20A901D98B0F912000028FC
:104EE00047DA1C9801902098808EADF800001D983C
:104EF00042881499169800EB8100408811180A988E
:104F00000844401C00B209901D9802881499169814
:104F100030F821001044401E00B208901F9BDDE9CC
:104F2000091201F08BFB1C9801902098808EADF83F
:104F300000001D98C2881499169800EB81004088E3
:104F400011180A980844401C00B209901D988288E4
:104F50001499169830F821001044401C00B20890B3
:104F60000A98404202B21F9BDDE9080101F066FB8E
:104F700041E01C9801902098808EADF800001D98AB
:104F800042881499169800EB81004088104400B2C2
:104F900009901D9801E0BEE030E00288169830F8D4
:104FA00021001044401E00B208901F9BDDE9091249
:104FB00001F044FB1C9801902098808EADF8000011
:104FC0001D98C2881499169800EB810040881044FF
:104FD00000B209901D988288169830F8210010447C
:104FE000401C00B208900A98404202B21F9BDDE9C3
:104FF000080101F023FB15981490A7E01598401EB6
:10500000169901EB8000B0F902200846159900EBD3
:105010008100B0F9020082427DD0DDE9151030F840
:105020002120149930F82100101A00B20A901D981E
:10503000B0F90E00002845DA1C9801902098808E67
:10504000ADF800001D9842881499169800EB810075
:1050500040881044401E00B209901D98028816989E
:1050600030F8210011180A980844401C00B208903A
:105070001F9BDDE9091201F0B3FA1C9801902098FA
:10508000808EADF800001D98C2881499169800EB28
:10509000810040881044401C00B209901D9882880D
:1050A000169830F8210011180A980844401C00B2E4
:1050B00008900A98404202B21F9BDDE9080101F006
:1050C0008FFA40E01C9801902098808EADF8000087
:1050D0001D9842881499169800EB8100408810446E
:1050E000401E00B209901D980288169830F82100E1
:1050F000104400B208901F9BDDE9091201F070FA1C
:105100001C9801902098808EADF800001D98C288F0
:105110001499169800E019E000EB810040881044D3
:10512000401C00B209901D988288169830F8210022
:10513000104400B208900A98404202B21F9BDDE979
:10514000080101F04DFA1598149000BF1598401C05
:1051500000B21590189915988842FFF683AE1898FA
:1051600000287ED01B980028FBD01D98007E0028C8
:1051700078D01398401E169901EB800042880846AB
:10518000149900EB81004088101A00B20A901D9813
:10519000B0F91200002851DA1C9801902098808EF6
:1051A000ADF800001D9842881499169800EB810014
:1051B000408811180A98084400B208901D98028887
:1051C0001499169830F821001044401E00B2079040
:1051D0001D98418A0A98084400B2099002461F9B14
:1051E000DDE9070101F02AFA1C9801902098808ED1
:1051F000ADF800001D98C2881499169800EB810044
:10520000408811180A98084400B208901D988288B6
:105210001499169830F821001044401C00B20790F1
:105220001D98418A0A980844404200B209900246FB
:105230001F9BDDE9070101F001FA4DE01C98019088
:105240002098808EADF800001D9842881499169819
:1052500000EB81004088104400B208901D9802883D
:1052600001E0E7E039E0169830F821001044401ED4
:1052700000B207901D98418A0A98084400B209902C
:1052800002461F9BDDE9070101F0D8F91C98019047
:105290002098808EADF800001D98C2881499169849
:1052A00000EB81004088104400B208901D9882886D
:1052B000169830F821001044401C00B207901D9849
:1052C000418A0A980844404200B2099002461F9B56
:1052D000DDE9070101F0B2F9ACE01398401E169920
:1052E00031F820200846149930F82100101A00B235
:1052F0000A901D98B0F90E0000284FDA1C98019012
:105300002098808EADF800001D9842881499169858
:1053100000EB810040881044401E00B208901D98A8
:105320000288169830F8210011180A98084400B233
:1053300007901D98C1890A98084400B20990024656
:105340001F9BDDE9070101F04BF91C9801902098A3
:10535000808EADF800001D98C2881499169800EB55
:10536000810040881044401C00B208901D9882883B
:10537000169830F8210011180A98084400B20790D6
:105380001D98C1890A980844404200B2099002461B
:105390001F9BDDE9070101F023F94AE01C98019009
:1053A0002098808EADF800001D98428814991698B8
:1053B00000EB810040881044401E00B208901D9808
:1053C0000288169830F82100104400B207901D980A
:1053D000C1890A98084400B2099002461F9BDDE982
:1053E000070101F0FDF81C9801902098808EADF81F
:1053F00000001D98C2881499169800EB810040881F
:105400001044401C00B208901D988288169830F80D
:105410002100104400B207901D98C1890A980844E1
:10542000404200B2099002461F9BDDE9070101F0EE
:10543000D7F800BF002010900F901B9840B31D9824
:10544000007EB8B91D98B0F90E00002809DA4FF0B7
:10545000FF301090189808B9002000E010980F90C5
:105460001FE001200F90189808B9002000E00F9865
:10547000109016E01D98B0F91200002809DA4FF0DC
:10548000FF301090189808B9002000E010980F9095
:1054900007E001200F90189808B9002000E00F984D
:1054A00010901D980088ADF838001D984088ADF820
:1054B0003A0001200B901D98007E00287CD0B5E0BA
:1054C0000020159053E0BDF83820DDE9151030F8C4
:1054D0002100104400B2ADF83000BDF83A20DDE9FB
:1054E000151000EB81004088104400B2ADF8320086
:1054F000BDF830101D9800890844BDF83810401AD6
:10550000401E00B2ADF83400BDF83200ADF83600F0
:105510002098808E0A9002460CA81C9B1F9901F0CF
:10552000DDF81598F8B1DDE9151030F92120481E95
:10553000169931F92000824215D00B9898B91C9821
:105540000090BDF832101D98408A081A00B20990E8
:105550002098808E0A90BDF930000890DDE909138B
:105560001F9A01F00EFF1598401C00B21590189973
:1055700015988842A7DB1B98E8B31C9801902098E7
:10558000808EADF80000BDF838101D980089081A0B
:1055900000B20A90BDF83A1016984088014410985D
:1055A000081A00B20990BDF838101698008808440F
:1055B00000B208901F9B00E0E9E0DDE9091201F06C
:1055C0000FF81C9801902098808EADF800001D986F
:1055D0000189BDF83800081A00B20A90BDF83A20D7
:1055E0001398401E169901EB8000408811180F98FF
:1055F000084400B200E00FE00990BDF8382013988D
:10560000401E169931F82000104400B208901F9BEC
:10561000DDE9091200F0E4FF00200B901D980089DD
:10562000ADF838001D984089ADF83A001D9800F09B
:1056300036FB00287FF444AF159052E0BDF83820C7
:10564000DDE9151030F82100104400B2ADF830004B
:10565000BDF83A20DDE9151000EB810040881044C8
:1056600000B2ADF83200BDF830101D980089084432
:10567000BDF83810401A00B2ADF83400BDF8320061
:10568000ADF836002098808E0A9002460CA81C9B2C
:105690001F9901F023F81598F8B1DDE9151030F9DC
:1056A0002120481E169931F92000824215D00B980E
:1056B00098B91C980090BDF832101D98408A081ABD
:1056C00000B209902098808E0A90BDF930000890B1
:1056D000DDE909131F9A01F054FE1598401C00B231
:1056E0001590189915988842A8DB1B9800284DD072
:1056F0001C9801902098808EADF800001D980089BC
:10570000BDF83810401A401C404200B20A90BDF863
:105710003A101698408801441098081A00B209906F
:10572000BDF8381016980088084400B208901F9BF6
:10573000DDE9091200F054FF1C9801902098808E3A
:10574000ADF800001D980089BDF83810401A401CC3
:1057500000B20A90BDF83A201398401E169901EB4A
:105760008000408811180F98084400B20990BDF8D5
:1057700038201398401E169931F82000104400B2CA
:1057800008901F9BDDE9091200F02AFF6DE1B7E0E8
:105790000020159058E0BDF83820DDE9151030F8EC
:1057A0002100104400B2ADF83000BDF83A20DDE928
:1057B000151000EB81004088104400B2ADF83200B3
:1057C000BDF83000ADF83400BDF832101D984089A6
:1057D0000844BDF83A10401A401E00B2ADF8360039
:1057E0002098808E0A9002460CA81C9B1F9900F0FE
:1057F00075FF159820B3DDE9151000EB8100B0F9B5
:105800000220481E169901EB8000B0F90200824286
:1058100016D00B98A0B91C980090BDF830101D98B8
:10582000C089081A00B208902098808E0A90BDF9AD
:105830003200099001460A9B1F9A089801F0A1FDC9
:105840001598401C00B21590189915988842A2DB53
:105850001B98F0B31C9801902098808EADF8000042
:10586000BDF83A101D984089081A00B20A90BDF898
:105870003A1016984088084400B20990BDF83810D4
:105880001698008801441098081A00B208901F9BCF
:10589000DDE9091200F0D2FE1C9801902098808E5C
:1058A000ADF800001D984089BDF83A10401A00B2CA
:1058B0000A90BDF83A201398401E169901EB80001B
:1058C0004088104400B20990BDF838201398401E5B
:1058D00000E00BE031F8200011180F98084400B2E6
:1058E00008901F9BDDE9091200F0A8FE00200B9034
:1058F0001D980089ADF838001D984089ADF83A0030
:105900001D9800F0BBF900287FF442AF159057E0D6
:10591000BDF83820DDE9151030F82100104400B240
:10592000ADF83000BDF83A20DDE9151000EB81003C
:105930004088104400B2ADF83200BDF83000ADF838
:105940003400BDF832101D9840890844BDF83A1063
:10595000401A00B2ADF836002098808E0A900246B8
:105960000CA81C9B1F9900F0B9FE159820B3DDE927
:10597000151000EB8100B0F90220481E169901EBCA
:105980008000B0F90200824216D00B98A0B91C9892
:105990000090BDF830101D98C089081A00B2089018
:1059A0002098808E0A90BDF93200099001460A9B2A
:1059B0001F9A089801F0E5FC1598401C00B215905C
:1059C000189915988842A3DB1B98E8B31C9801909E
:1059D0002098808EADF800001D984089BDF83A10DF
:1059E000401A401C404200B20A90BDF83A10169886
:1059F0004088084400B20990BDF838101698008815
:105A000001441098081A00B208901F9BDDE90912A2
:105A100000F014FE1C9801902098808EADF80000D4
:105A20001D984089BDF83A10401A401C00B20A90F7
:105A3000BDF83A201398401E169901EB800040886B
:105A4000104400B2099000E00FE0BDF83820139830
:105A5000401E31F8200011180F98084400B2089039
:105A60001F9BDDE9091200F0E9FD21B000BD2DE921
:105A7000F04F85B00446894615461E46E88E401E06
:105A800007B24FEA670807F0010AFF2E02D138205B
:105A9000405D03E03820405D70430012834620885B
:105AA000A0EB080000B2ADF80C00A08840445044C0
:105AB00000B2ADF810006088ADF80E00E088ADF8D7
:105AC0001200BDF90C00BDF91010884202DABDF9D0
:105AD0000C0001E0BDF91000ADF80400BDF90C00A8
